{
	"contracts/Lab 2/1-BasicTwitter.sol": {
		"Twitter": {
			"abi": [
				{
					"inputs": [],
					"stateMutability": "nonpayable",
					"type": "constructor"
				},
				{
					"anonymous": false,
					"inputs": [
						{
							"indexed": false,
							"internalType": "uint256",
							"name": "id",
							"type": "uint256"
						},
						{
							"indexed": false,
							"internalType": "address",
							"name": "author",
							"type": "address"
						},
						{
							"indexed": false,
							"internalType": "string",
							"name": "content",
							"type": "string"
						},
						{
							"indexed": false,
							"internalType": "uint256",
							"name": "timestamp",
							"type": "uint256"
						}
					],
					"name": "tweetCreated",
					"type": "event"
				},
				{
					"anonymous": false,
					"inputs": [
						{
							"indexed": false,
							"internalType": "address",
							"name": "liker",
							"type": "address"
						},
						{
							"indexed": false,
							"internalType": "address",
							"name": "tweetAuthor",
							"type": "address"
						},
						{
							"indexed": false,
							"internalType": "uint256",
							"name": "tweetId",
							"type": "uint256"
						},
						{
							"indexed": false,
							"internalType": "uint256",
							"name": "newLikeCount",
							"type": "uint256"
						}
					],
					"name": "tweetLiked",
					"type": "event"
				},
				{
					"anonymous": false,
					"inputs": [
						{
							"indexed": false,
							"internalType": "address",
							"name": "unliker",
							"type": "address"
						},
						{
							"indexed": false,
							"internalType": "address",
							"name": "tweetAuthor",
							"type": "address"
						},
						{
							"indexed": false,
							"internalType": "uint256",
							"name": "tweetId",
							"type": "uint256"
						},
						{
							"indexed": false,
							"internalType": "uint256",
							"name": "newLikeCount",
							"type": "uint256"
						}
					],
					"name": "tweetUnliked",
					"type": "event"
				},
				{
					"inputs": [],
					"name": "MAX_TWEET_LENGTH",
					"outputs": [
						{
							"internalType": "uint16",
							"name": "",
							"type": "uint16"
						}
					],
					"stateMutability": "view",
					"type": "function"
				},
				{
					"inputs": [
						{
							"internalType": "uint16",
							"name": "newTweetLength",
							"type": "uint16"
						}
					],
					"name": "changeTweetLength",
					"outputs": [],
					"stateMutability": "nonpayable",
					"type": "function"
				},
				{
					"inputs": [
						{
							"internalType": "string",
							"name": "_tweet",
							"type": "string"
						}
					],
					"name": "createTweet",
					"outputs": [],
					"stateMutability": "nonpayable",
					"type": "function"
				},
				{
					"inputs": [
						{
							"internalType": "address",
							"name": "_addr",
							"type": "address"
						}
					],
					"name": "getAllTweets",
					"outputs": [
						{
							"components": [
								{
									"internalType": "uint256",
									"name": "id",
									"type": "uint256"
								},
								{
									"internalType": "string",
									"name": "content",
									"type": "string"
								},
								{
									"internalType": "address",
									"name": "user_address",
									"type": "address"
								},
								{
									"internalType": "uint16",
									"name": "likes",
									"type": "uint16"
								},
								{
									"internalType": "uint256",
									"name": "timestamp",
									"type": "uint256"
								}
							],
							"internalType": "struct Twitter.Tweet[]",
							"name": "",
							"type": "tuple[]"
						}
					],
					"stateMutability": "view",
					"type": "function"
				},
				{
					"inputs": [
						{
							"internalType": "address",
							"name": "_addr",
							"type": "address"
						},
						{
							"internalType": "uint256",
							"name": "_i",
							"type": "uint256"
						}
					],
					"name": "getTweet",
					"outputs": [
						{
							"components": [
								{
									"internalType": "uint256",
									"name": "id",
									"type": "uint256"
								},
								{
									"internalType": "string",
									"name": "content",
									"type": "string"
								},
								{
									"internalType": "address",
									"name": "user_address",
									"type": "address"
								},
								{
									"internalType": "uint16",
									"name": "likes",
									"type": "uint16"
								},
								{
									"internalType": "uint256",
									"name": "timestamp",
									"type": "uint256"
								}
							],
							"internalType": "struct Twitter.Tweet",
							"name": "",
							"type": "tuple"
						}
					],
					"stateMutability": "view",
					"type": "function"
				},
				{
					"inputs": [
						{
							"internalType": "address",
							"name": "author",
							"type": "address"
						},
						{
							"internalType": "uint256",
							"name": "id",
							"type": "uint256"
						}
					],
					"name": "likeTweet",
					"outputs": [],
					"stateMutability": "nonpayable",
					"type": "function"
				},
				{
					"inputs": [],
					"name": "owner",
					"outputs": [
						{
							"internalType": "address",
							"name": "",
							"type": "address"
						}
					],
					"stateMutability": "view",
					"type": "function"
				},
				{
					"inputs": [
						{
							"internalType": "address",
							"name": "",
							"type": "address"
						},
						{
							"internalType": "uint256",
							"name": "",
							"type": "uint256"
						}
					],
					"name": "tweets",
					"outputs": [
						{
							"internalType": "uint256",
							"name": "id",
							"type": "uint256"
						},
						{
							"internalType": "string",
							"name": "content",
							"type": "string"
						},
						{
							"internalType": "address",
							"name": "user_address",
							"type": "address"
						},
						{
							"internalType": "uint16",
							"name": "likes",
							"type": "uint16"
						},
						{
							"internalType": "uint256",
							"name": "timestamp",
							"type": "uint256"
						}
					],
					"stateMutability": "view",
					"type": "function"
				},
				{
					"inputs": [
						{
							"internalType": "address",
							"name": "author",
							"type": "address"
						},
						{
							"internalType": "uint256",
							"name": "id",
							"type": "uint256"
						}
					],
					"name": "unlikeTweet",
					"outputs": [],
					"stateMutability": "nonpayable",
					"type": "function"
				}
			],
			"devdoc": {
				"kind": "dev",
				"methods": {},
				"version": 1
			},
			"evm": {
				"assembly": "    /* \"contracts/Lab 2/1-BasicTwitter.sol\":290:3065  contract Twitter {... */\n  mstore(0x40, 0x80)\n    /* \"contracts/Lab 2/1-BasicTwitter.sol\":623:626  256 */\n  0x0100\n    /* \"contracts/Lab 2/1-BasicTwitter.sol\":590:626  uint16 public MAX_TWEET_LENGTH = 256 */\n  0x01\n  exp(0x0100, 0x14)\n  dup2\n  sload\n  dup2\n  0xffff\n  mul\n  not\n  and\n  swap1\n  dup4\n  0xffff\n  and\n  mul\n  or\n  swap1\n  sstore\n  pop\n    /* \"contracts/Lab 2/1-BasicTwitter.sol\":926:975  constructor() {... */\n  callvalue\n  dup1\n  iszero\n  tag_1\n  jumpi\n  0x00\n  dup1\n  revert\ntag_1:\n  pop\n    /* \"contracts/Lab 2/1-BasicTwitter.sol\":958:968  msg.sender */\n  caller\n    /* \"contracts/Lab 2/1-BasicTwitter.sol\":950:955  owner */\n  0x01\n  0x00\n    /* \"contracts/Lab 2/1-BasicTwitter.sol\":950:968  owner = msg.sender */\n  0x0100\n  exp\n  dup2\n  sload\n  dup2\n  0xffffffffffffffffffffffffffffffffffffffff\n  mul\n  not\n  and\n  swap1\n  dup4\n  0xffffffffffffffffffffffffffffffffffffffff\n  and\n  mul\n  or\n  swap1\n  sstore\n  pop\n    /* \"contracts/Lab 2/1-BasicTwitter.sol\":290:3065  contract Twitter {... */\n  dataSize(sub_0)\n  dup1\n  dataOffset(sub_0)\n  0x00\n  codecopy\n  0x00\n  return\nstop\n\nsub_0: assembly {\n        /* \"contracts/Lab 2/1-BasicTwitter.sol\":290:3065  contract Twitter {... */\n      mstore(0x40, 0x80)\n      callvalue\n      dup1\n      iszero\n      tag_1\n      jumpi\n      0x00\n      dup1\n      revert\n    tag_1:\n      pop\n      jumpi(tag_2, lt(calldatasize, 0x04))\n      shr(0xe0, calldataload(0x00))\n      dup1\n      0x58bfa4ab\n      gt\n      tag_12\n      jumpi\n      dup1\n      0x58bfa4ab\n      eq\n      tag_7\n      jumpi\n      dup1\n      0x63378216\n      eq\n      tag_8\n      jumpi\n      dup1\n      0x6eb10797\n      eq\n      tag_9\n      jumpi\n      dup1\n      0x7c9cd2bc\n      eq\n      tag_10\n      jumpi\n      dup1\n      0x8da5cb5b\n      eq\n      tag_11\n      jumpi\n      jump(tag_2)\n    tag_12:\n      dup1\n      0x05a1b4a9\n      eq\n      tag_3\n      jumpi\n      dup1\n      0x112f54e3\n      eq\n      tag_4\n      jumpi\n      dup1\n      0x12e7ee1c\n      eq\n      tag_5\n      jumpi\n      dup1\n      0x3d9b569f\n      eq\n      tag_6\n      jumpi\n    tag_2:\n      0x00\n      dup1\n      revert\n        /* \"contracts/Lab 2/1-BasicTwitter.sol\":517:558  mapping(address => Tweet[]) public tweets */\n    tag_3:\n      tag_13\n      0x04\n      dup1\n      calldatasize\n      sub\n      dup2\n      add\n      swap1\n      tag_14\n      swap2\n      swap1\n      tag_15\n      jump\t// in\n    tag_14:\n      tag_16\n      jump\t// in\n    tag_13:\n      mload(0x40)\n      tag_17\n      swap6\n      swap5\n      swap4\n      swap3\n      swap2\n      swap1\n      tag_18\n      jump\t// in\n    tag_17:\n      mload(0x40)\n      dup1\n      swap2\n      sub\n      swap1\n      return\n        /* \"contracts/Lab 2/1-BasicTwitter.sol\":2826:2947  function getTweet(address _addr, uint256 _i) public view returns (Tweet memory) {... */\n    tag_4:\n      tag_19\n      0x04\n      dup1\n      calldatasize\n      sub\n      dup2\n      add\n      swap1\n      tag_20\n      swap2\n      swap1\n      tag_15\n      jump\t// in\n    tag_20:\n      tag_21\n      jump\t// in\n    tag_19:\n      mload(0x40)\n      tag_22\n      swap2\n      swap1\n      tag_23\n      jump\t// in\n    tag_22:\n      mload(0x40)\n      dup1\n      swap2\n      sub\n      swap1\n      return\n        /* \"contracts/Lab 2/1-BasicTwitter.sol\":2953:3063  function getAllTweets(address _addr) public view returns (Tweet[] memory){... */\n    tag_5:\n      tag_24\n      0x04\n      dup1\n      calldatasize\n      sub\n      dup2\n      add\n      swap1\n      tag_25\n      swap2\n      swap1\n      tag_26\n      jump\t// in\n    tag_25:\n      tag_27\n      jump\t// in\n    tag_24:\n      mload(0x40)\n      tag_28\n      swap2\n      swap1\n      tag_29\n      jump\t// in\n    tag_28:\n      mload(0x40)\n      dup1\n      swap2\n      sub\n      swap1\n      return\n        /* \"contracts/Lab 2/1-BasicTwitter.sol\":2498:2820  function unlikeTweet(address author, uint256 id) public {... */\n    tag_6:\n      tag_30\n      0x04\n      dup1\n      calldatasize\n      sub\n      dup2\n      add\n      swap1\n      tag_31\n      swap2\n      swap1\n      tag_15\n      jump\t// in\n    tag_31:\n      tag_32\n      jump\t// in\n    tag_30:\n      stop\n        /* \"contracts/Lab 2/1-BasicTwitter.sol\":1090:1207  function changeTweetLength(uint16 newTweetLength) public OnlyOwner {... */\n    tag_7:\n      tag_33\n      0x04\n      dup1\n      calldatasize\n      sub\n      dup2\n      add\n      swap1\n      tag_34\n      swap2\n      swap1\n      tag_35\n      jump\t// in\n    tag_34:\n      tag_36\n      jump\t// in\n    tag_33:\n      stop\n        /* \"contracts/Lab 2/1-BasicTwitter.sol\":2115:2492  function likeTweet(address author, uint256 id) public {... */\n    tag_8:\n      tag_37\n      0x04\n      dup1\n      calldatasize\n      sub\n      dup2\n      add\n      swap1\n      tag_38\n      swap2\n      swap1\n      tag_15\n      jump\t// in\n    tag_38:\n      tag_39\n      jump\t// in\n    tag_37:\n      stop\n        /* \"contracts/Lab 2/1-BasicTwitter.sol\":590:626  uint16 public MAX_TWEET_LENGTH = 256 */\n    tag_9:\n      tag_40\n      tag_41\n      jump\t// in\n    tag_40:\n      mload(0x40)\n      tag_42\n      swap2\n      swap1\n      tag_43\n      jump\t// in\n    tag_42:\n      mload(0x40)\n      dup1\n      swap2\n      sub\n      swap1\n      return\n        /* \"contracts/Lab 2/1-BasicTwitter.sol\":1213:2109  function createTweet(string memory _tweet) public {... */\n    tag_10:\n      tag_44\n      0x04\n      dup1\n      calldatasize\n      sub\n      dup2\n      add\n      swap1\n      tag_45\n      swap2\n      swap1\n      tag_46\n      jump\t// in\n    tag_45:\n      tag_47\n      jump\t// in\n    tag_44:\n      stop\n        /* \"contracts/Lab 2/1-BasicTwitter.sol\":564:584  address public owner */\n    tag_11:\n      tag_48\n      tag_49\n      jump\t// in\n    tag_48:\n      mload(0x40)\n      tag_50\n      swap2\n      swap1\n      tag_51\n      jump\t// in\n    tag_50:\n      mload(0x40)\n      dup1\n      swap2\n      sub\n      swap1\n      return\n        /* \"contracts/Lab 2/1-BasicTwitter.sol\":517:558  mapping(address => Tweet[]) public tweets */\n    tag_16:\n      mstore(0x20, 0x00)\n      dup2\n      0x00\n      mstore\n      keccak256(0x00, 0x40)\n      dup2\n      dup2\n      sload\n      dup2\n      lt\n      tag_52\n      jumpi\n      0x00\n      dup1\n      revert\n    tag_52:\n      swap1\n      0x00\n      mstore\n      keccak256(0x00, 0x20)\n      swap1\n      0x04\n      mul\n      add\n      0x00\n      swap2\n      pop\n      swap2\n      pop\n      pop\n      dup1\n      0x00\n      add\n      sload\n      swap1\n      dup1\n      0x01\n      add\n      dup1\n      sload\n      tag_54\n      swap1\n      tag_55\n      jump\t// in\n    tag_54:\n      dup1\n      0x1f\n      add\n      0x20\n      dup1\n      swap2\n      div\n      mul\n      0x20\n      add\n      mload(0x40)\n      swap1\n      dup2\n      add\n      0x40\n      mstore\n      dup1\n      swap3\n      swap2\n      swap1\n      dup2\n      dup2\n      mstore\n      0x20\n      add\n      dup3\n      dup1\n      sload\n      tag_56\n      swap1\n      tag_55\n      jump\t// in\n    tag_56:\n      dup1\n      iszero\n      tag_57\n      jumpi\n      dup1\n      0x1f\n      lt\n      tag_58\n      jumpi\n      0x0100\n      dup1\n      dup4\n      sload\n      div\n      mul\n      dup4\n      mstore\n      swap2\n      0x20\n      add\n      swap2\n      jump(tag_57)\n    tag_58:\n      dup3\n      add\n      swap2\n      swap1\n      0x00\n      mstore\n      keccak256(0x00, 0x20)\n      swap1\n    tag_59:\n      dup2\n      sload\n      dup2\n      mstore\n      swap1\n      0x01\n      add\n      swap1\n      0x20\n      add\n      dup1\n      dup4\n      gt\n      tag_59\n      jumpi\n      dup3\n      swap1\n      sub\n      0x1f\n      and\n      dup3\n      add\n      swap2\n    tag_57:\n      pop\n      pop\n      pop\n      pop\n      pop\n      swap1\n      dup1\n      0x02\n      add\n      0x00\n      swap1\n      sload\n      swap1\n      0x0100\n      exp\n      swap1\n      div\n      0xffffffffffffffffffffffffffffffffffffffff\n      and\n      swap1\n      dup1\n      0x02\n      add\n      0x14\n      swap1\n      sload\n      swap1\n      0x0100\n      exp\n      swap1\n      div\n      0xffff\n      and\n      swap1\n      dup1\n      0x03\n      add\n      sload\n      swap1\n      pop\n      dup6\n      jump\t// out\n        /* \"contracts/Lab 2/1-BasicTwitter.sol\":2826:2947  function getTweet(address _addr, uint256 _i) public view returns (Tweet memory) {... */\n    tag_21:\n        /* \"contracts/Lab 2/1-BasicTwitter.sol\":2892:2904  Tweet memory */\n      tag_60\n      tag_61\n      jump\t// in\n    tag_60:\n        /* \"contracts/Lab 2/1-BasicTwitter.sol\":2923:2929  tweets */\n      0x00\n        /* \"contracts/Lab 2/1-BasicTwitter.sol\":2923:2936  tweets[_addr] */\n      dup1\n        /* \"contracts/Lab 2/1-BasicTwitter.sol\":2930:2935  _addr */\n      dup5\n        /* \"contracts/Lab 2/1-BasicTwitter.sol\":2923:2936  tweets[_addr] */\n      0xffffffffffffffffffffffffffffffffffffffff\n      and\n      0xffffffffffffffffffffffffffffffffffffffff\n      and\n      dup2\n      mstore\n      0x20\n      add\n      swap1\n      dup2\n      mstore\n      0x20\n      add\n      0x00\n      keccak256\n        /* \"contracts/Lab 2/1-BasicTwitter.sol\":2937:2939  _i */\n      dup3\n        /* \"contracts/Lab 2/1-BasicTwitter.sol\":2923:2940  tweets[_addr][_i] */\n      dup2\n      sload\n      dup2\n      lt\n      tag_63\n      jumpi\n      tag_64\n      tag_65\n      jump\t// in\n    tag_64:\n    tag_63:\n      swap1\n      0x00\n      mstore\n      keccak256(0x00, 0x20)\n      swap1\n      0x04\n      mul\n      add\n        /* \"contracts/Lab 2/1-BasicTwitter.sol\":2916:2940  return tweets[_addr][_i] */\n      mload(0x40)\n      dup1\n      0xa0\n      add\n      0x40\n      mstore\n      swap1\n      dup2\n      0x00\n      dup3\n      add\n      sload\n      dup2\n      mstore\n      0x20\n      add\n      0x01\n      dup3\n      add\n      dup1\n      sload\n      tag_67\n      swap1\n      tag_55\n      jump\t// in\n    tag_67:\n      dup1\n      0x1f\n      add\n      0x20\n      dup1\n      swap2\n      div\n      mul\n      0x20\n      add\n      mload(0x40)\n      swap1\n      dup2\n      add\n      0x40\n      mstore\n      dup1\n      swap3\n      swap2\n      swap1\n      dup2\n      dup2\n      mstore\n      0x20\n      add\n      dup3\n      dup1\n      sload\n      tag_68\n      swap1\n      tag_55\n      jump\t// in\n    tag_68:\n      dup1\n      iszero\n      tag_69\n      jumpi\n      dup1\n      0x1f\n      lt\n      tag_70\n      jumpi\n      0x0100\n      dup1\n      dup4\n      sload\n      div\n      mul\n      dup4\n      mstore\n      swap2\n      0x20\n      add\n      swap2\n      jump(tag_69)\n    tag_70:\n      dup3\n      add\n      swap2\n      swap1\n      0x00\n      mstore\n      keccak256(0x00, 0x20)\n      swap1\n    tag_71:\n      dup2\n      sload\n      dup2\n      mstore\n      swap1\n      0x01\n      add\n      swap1\n      0x20\n      add\n      dup1\n      dup4\n      gt\n      tag_71\n      jumpi\n      dup3\n      swap1\n      sub\n      0x1f\n      and\n      dup3\n      add\n      swap2\n    tag_69:\n      pop\n      pop\n      pop\n      pop\n      pop\n      dup2\n      mstore\n      0x20\n      add\n      0x02\n      dup3\n      add\n      0x00\n      swap1\n      sload\n      swap1\n      0x0100\n      exp\n      swap1\n      div\n      0xffffffffffffffffffffffffffffffffffffffff\n      and\n      0xffffffffffffffffffffffffffffffffffffffff\n      and\n      0xffffffffffffffffffffffffffffffffffffffff\n      and\n      dup2\n      mstore\n      0x20\n      add\n      0x02\n      dup3\n      add\n      0x14\n      swap1\n      sload\n      swap1\n      0x0100\n      exp\n      swap1\n      div\n      0xffff\n      and\n      0xffff\n      and\n      0xffff\n      and\n      dup2\n      mstore\n      0x20\n      add\n      0x03\n      dup3\n      add\n      sload\n      dup2\n      mstore\n      pop\n      pop\n      swap1\n      pop\n        /* \"contracts/Lab 2/1-BasicTwitter.sol\":2826:2947  function getTweet(address _addr, uint256 _i) public view returns (Tweet memory) {... */\n      swap3\n      swap2\n      pop\n      pop\n      jump\t// out\n        /* \"contracts/Lab 2/1-BasicTwitter.sol\":2953:3063  function getAllTweets(address _addr) public view returns (Tweet[] memory){... */\n    tag_27:\n        /* \"contracts/Lab 2/1-BasicTwitter.sol\":3011:3025  Tweet[] memory */\n      0x60\n        /* \"contracts/Lab 2/1-BasicTwitter.sol\":3043:3049  tweets */\n      0x00\n        /* \"contracts/Lab 2/1-BasicTwitter.sol\":3043:3056  tweets[_addr] */\n      dup1\n        /* \"contracts/Lab 2/1-BasicTwitter.sol\":3050:3055  _addr */\n      dup4\n        /* \"contracts/Lab 2/1-BasicTwitter.sol\":3043:3056  tweets[_addr] */\n      0xffffffffffffffffffffffffffffffffffffffff\n      and\n      0xffffffffffffffffffffffffffffffffffffffff\n      and\n      dup2\n      mstore\n      0x20\n      add\n      swap1\n      dup2\n      mstore\n      0x20\n      add\n      0x00\n      keccak256\n        /* \"contracts/Lab 2/1-BasicTwitter.sol\":3036:3056  return tweets[_addr] */\n      dup1\n      sload\n      dup1\n      0x20\n      mul\n      0x20\n      add\n      mload(0x40)\n      swap1\n      dup2\n      add\n      0x40\n      mstore\n      dup1\n      swap3\n      swap2\n      swap1\n      dup2\n      dup2\n      mstore\n      0x20\n      add\n      0x00\n      swap1\n    tag_73:\n      dup3\n      dup3\n      lt\n      iszero\n      tag_74\n      jumpi\n      dup4\n      dup3\n      swap1\n      0x00\n      mstore\n      keccak256(0x00, 0x20)\n      swap1\n      0x04\n      mul\n      add\n      mload(0x40)\n      dup1\n      0xa0\n      add\n      0x40\n      mstore\n      swap1\n      dup2\n      0x00\n      dup3\n      add\n      sload\n      dup2\n      mstore\n      0x20\n      add\n      0x01\n      dup3\n      add\n      dup1\n      sload\n      tag_76\n      swap1\n      tag_55\n      jump\t// in\n    tag_76:\n      dup1\n      0x1f\n      add\n      0x20\n      dup1\n      swap2\n      div\n      mul\n      0x20\n      add\n      mload(0x40)\n      swap1\n      dup2\n      add\n      0x40\n      mstore\n      dup1\n      swap3\n      swap2\n      swap1\n      dup2\n      dup2\n      mstore\n      0x20\n      add\n      dup3\n      dup1\n      sload\n      tag_77\n      swap1\n      tag_55\n      jump\t// in\n    tag_77:\n      dup1\n      iszero\n      tag_78\n      jumpi\n      dup1\n      0x1f\n      lt\n      tag_79\n      jumpi\n      0x0100\n      dup1\n      dup4\n      sload\n      div\n      mul\n      dup4\n      mstore\n      swap2\n      0x20\n      add\n      swap2\n      jump(tag_78)\n    tag_79:\n      dup3\n      add\n      swap2\n      swap1\n      0x00\n      mstore\n      keccak256(0x00, 0x20)\n      swap1\n    tag_80:\n      dup2\n      sload\n      dup2\n      mstore\n      swap1\n      0x01\n      add\n      swap1\n      0x20\n      add\n      dup1\n      dup4\n      gt\n      tag_80\n      jumpi\n      dup3\n      swap1\n      sub\n      0x1f\n      and\n      dup3\n      add\n      swap2\n    tag_78:\n      pop\n      pop\n      pop\n      pop\n      pop\n      dup2\n      mstore\n      0x20\n      add\n      0x02\n      dup3\n      add\n      0x00\n      swap1\n      sload\n      swap1\n      0x0100\n      exp\n      swap1\n      div\n      0xffffffffffffffffffffffffffffffffffffffff\n      and\n      0xffffffffffffffffffffffffffffffffffffffff\n      and\n      0xffffffffffffffffffffffffffffffffffffffff\n      and\n      dup2\n      mstore\n      0x20\n      add\n      0x02\n      dup3\n      add\n      0x14\n      swap1\n      sload\n      swap1\n      0x0100\n      exp\n      swap1\n      div\n      0xffff\n      and\n      0xffff\n      and\n      0xffff\n      and\n      dup2\n      mstore\n      0x20\n      add\n      0x03\n      dup3\n      add\n      sload\n      dup2\n      mstore\n      pop\n      pop\n      dup2\n      mstore\n      0x20\n      add\n      swap1\n      0x01\n      add\n      swap1\n      jump(tag_73)\n    tag_74:\n      pop\n      pop\n      pop\n      pop\n      swap1\n      pop\n        /* \"contracts/Lab 2/1-BasicTwitter.sol\":2953:3063  function getAllTweets(address _addr) public view returns (Tweet[] memory){... */\n      swap2\n      swap1\n      pop\n      jump\t// out\n        /* \"contracts/Lab 2/1-BasicTwitter.sol\":2498:2820  function unlikeTweet(address author, uint256 id) public {... */\n    tag_32:\n        /* \"contracts/Lab 2/1-BasicTwitter.sol\":2597:2599  id */\n      dup1\n        /* \"contracts/Lab 2/1-BasicTwitter.sol\":2572:2578  tweets */\n      0x00\n        /* \"contracts/Lab 2/1-BasicTwitter.sol\":2572:2586  tweets[author] */\n      dup1\n        /* \"contracts/Lab 2/1-BasicTwitter.sol\":2579:2585  author */\n      dup5\n        /* \"contracts/Lab 2/1-BasicTwitter.sol\":2572:2586  tweets[author] */\n      0xffffffffffffffffffffffffffffffffffffffff\n      and\n      0xffffffffffffffffffffffffffffffffffffffff\n      and\n      dup2\n      mstore\n      0x20\n      add\n      swap1\n      dup2\n      mstore\n      0x20\n      add\n      0x00\n      keccak256\n        /* \"contracts/Lab 2/1-BasicTwitter.sol\":2587:2589  id */\n      dup3\n        /* \"contracts/Lab 2/1-BasicTwitter.sol\":2572:2590  tweets[author][id] */\n      dup2\n      sload\n      dup2\n      lt\n      tag_82\n      jumpi\n      tag_83\n      tag_65\n      jump\t// in\n    tag_83:\n    tag_82:\n      swap1\n      0x00\n      mstore\n      keccak256(0x00, 0x20)\n      swap1\n      0x04\n      mul\n      add\n        /* \"contracts/Lab 2/1-BasicTwitter.sol\":2572:2593  tweets[author][id].id */\n      0x00\n      add\n      sload\n        /* \"contracts/Lab 2/1-BasicTwitter.sol\":2572:2599  tweets[author][id].id == id */\n      eq\n        /* \"contracts/Lab 2/1-BasicTwitter.sol\":2564:2627  require(tweets[author][id].id == id, \"This ID is not existing\") */\n      tag_85\n      jumpi\n      mload(0x40)\n      0x08c379a000000000000000000000000000000000000000000000000000000000\n      dup2\n      mstore\n      0x04\n      add\n      tag_86\n      swap1\n      tag_87\n      jump\t// in\n    tag_86:\n      mload(0x40)\n      dup1\n      swap2\n      sub\n      swap1\n      revert\n    tag_85:\n        /* \"contracts/Lab 2/1-BasicTwitter.sol\":2672:2673  0 */\n      0x00\n        /* \"contracts/Lab 2/1-BasicTwitter.sol\":2645:2651  tweets */\n      dup1\n        /* \"contracts/Lab 2/1-BasicTwitter.sol\":2645:2659  tweets[author] */\n      0x00\n        /* \"contracts/Lab 2/1-BasicTwitter.sol\":2652:2658  author */\n      dup5\n        /* \"contracts/Lab 2/1-BasicTwitter.sol\":2645:2659  tweets[author] */\n      0xffffffffffffffffffffffffffffffffffffffff\n      and\n      0xffffffffffffffffffffffffffffffffffffffff\n      and\n      dup2\n      mstore\n      0x20\n      add\n      swap1\n      dup2\n      mstore\n      0x20\n      add\n      0x00\n      keccak256\n        /* \"contracts/Lab 2/1-BasicTwitter.sol\":2660:2662  id */\n      dup3\n        /* \"contracts/Lab 2/1-BasicTwitter.sol\":2645:2663  tweets[author][id] */\n      dup2\n      sload\n      dup2\n      lt\n      tag_88\n      jumpi\n      tag_89\n      tag_65\n      jump\t// in\n    tag_89:\n    tag_88:\n      swap1\n      0x00\n      mstore\n      keccak256(0x00, 0x20)\n      swap1\n      0x04\n      mul\n      add\n        /* \"contracts/Lab 2/1-BasicTwitter.sol\":2645:2669  tweets[author][id].likes */\n      0x02\n      add\n      0x14\n      swap1\n      sload\n      swap1\n      0x0100\n      exp\n      swap1\n      div\n      0xffff\n      and\n        /* \"contracts/Lab 2/1-BasicTwitter.sol\":2645:2673  tweets[author][id].likes > 0 */\n      0xffff\n      and\n      gt\n        /* \"contracts/Lab 2/1-BasicTwitter.sol\":2637:2700  require(tweets[author][id].likes > 0, \"This tweet has no like\") */\n      tag_91\n      jumpi\n      mload(0x40)\n      0x08c379a000000000000000000000000000000000000000000000000000000000\n      dup2\n      mstore\n      0x04\n      add\n      tag_92\n      swap1\n      tag_93\n      jump\t// in\n    tag_92:\n      mload(0x40)\n      dup1\n      swap2\n      sub\n      swap1\n      revert\n    tag_91:\n        /* \"contracts/Lab 2/1-BasicTwitter.sol\":2710:2716  tweets */\n      0x00\n        /* \"contracts/Lab 2/1-BasicTwitter.sol\":2710:2724  tweets[author] */\n      dup1\n        /* \"contracts/Lab 2/1-BasicTwitter.sol\":2717:2723  author */\n      dup4\n        /* \"contracts/Lab 2/1-BasicTwitter.sol\":2710:2724  tweets[author] */\n      0xffffffffffffffffffffffffffffffffffffffff\n      and\n      0xffffffffffffffffffffffffffffffffffffffff\n      and\n      dup2\n      mstore\n      0x20\n      add\n      swap1\n      dup2\n      mstore\n      0x20\n      add\n      0x00\n      keccak256\n        /* \"contracts/Lab 2/1-BasicTwitter.sol\":2725:2727  id */\n      dup2\n        /* \"contracts/Lab 2/1-BasicTwitter.sol\":2710:2728  tweets[author][id] */\n      dup2\n      sload\n      dup2\n      lt\n      tag_94\n      jumpi\n      tag_95\n      tag_65\n      jump\t// in\n    tag_95:\n    tag_94:\n      swap1\n      0x00\n      mstore\n      keccak256(0x00, 0x20)\n      swap1\n      0x04\n      mul\n      add\n        /* \"contracts/Lab 2/1-BasicTwitter.sol\":2710:2734  tweets[author][id].likes */\n      0x02\n      add\n      0x14\n        /* \"contracts/Lab 2/1-BasicTwitter.sol\":2710:2736  tweets[author][id].likes-- */\n      dup2\n      dup2\n      swap1\n      sload\n      swap1\n      0x0100\n      exp\n      swap1\n      div\n      0xffff\n      and\n      dup1\n      swap3\n      swap2\n      swap1\n      tag_97\n      swap1\n      tag_98\n      jump\t// in\n    tag_97:\n      swap2\n      swap1\n      0x0100\n      exp\n      dup2\n      sload\n      dup2\n      0xffff\n      mul\n      not\n      and\n      swap1\n      dup4\n      0xffff\n      and\n      mul\n      or\n      swap1\n      sstore\n      pop\n      pop\n        /* \"contracts/Lab 2/1-BasicTwitter.sol\":2751:2813  tweetUnliked(msg.sender, author, id, tweets[author][id].likes) */\n      0x58269e846e627224af1e738ac3cbb32d4320094d60695e377df7e94cc6392ca3\n        /* \"contracts/Lab 2/1-BasicTwitter.sol\":2764:2774  msg.sender */\n      caller\n        /* \"contracts/Lab 2/1-BasicTwitter.sol\":2776:2782  author */\n      dup4\n        /* \"contracts/Lab 2/1-BasicTwitter.sol\":2784:2786  id */\n      dup4\n        /* \"contracts/Lab 2/1-BasicTwitter.sol\":2788:2794  tweets */\n      0x00\n        /* \"contracts/Lab 2/1-BasicTwitter.sol\":2788:2802  tweets[author] */\n      dup1\n        /* \"contracts/Lab 2/1-BasicTwitter.sol\":2795:2801  author */\n      dup8\n        /* \"contracts/Lab 2/1-BasicTwitter.sol\":2788:2802  tweets[author] */\n      0xffffffffffffffffffffffffffffffffffffffff\n      and\n      0xffffffffffffffffffffffffffffffffffffffff\n      and\n      dup2\n      mstore\n      0x20\n      add\n      swap1\n      dup2\n      mstore\n      0x20\n      add\n      0x00\n      keccak256\n        /* \"contracts/Lab 2/1-BasicTwitter.sol\":2803:2805  id */\n      dup6\n        /* \"contracts/Lab 2/1-BasicTwitter.sol\":2788:2806  tweets[author][id] */\n      dup2\n      sload\n      dup2\n      lt\n      tag_99\n      jumpi\n      tag_100\n      tag_65\n      jump\t// in\n    tag_100:\n    tag_99:\n      swap1\n      0x00\n      mstore\n      keccak256(0x00, 0x20)\n      swap1\n      0x04\n      mul\n      add\n        /* \"contracts/Lab 2/1-BasicTwitter.sol\":2788:2812  tweets[author][id].likes */\n      0x02\n      add\n      0x14\n      swap1\n      sload\n      swap1\n      0x0100\n      exp\n      swap1\n      div\n      0xffff\n      and\n        /* \"contracts/Lab 2/1-BasicTwitter.sol\":2751:2813  tweetUnliked(msg.sender, author, id, tweets[author][id].likes) */\n      mload(0x40)\n      tag_102\n      swap5\n      swap4\n      swap3\n      swap2\n      swap1\n      tag_103\n      jump\t// in\n    tag_102:\n      mload(0x40)\n      dup1\n      swap2\n      sub\n      swap1\n      log1\n        /* \"contracts/Lab 2/1-BasicTwitter.sol\":2498:2820  function unlikeTweet(address author, uint256 id) public {... */\n      pop\n      pop\n      jump\t// out\n        /* \"contracts/Lab 2/1-BasicTwitter.sol\":1090:1207  function changeTweetLength(uint16 newTweetLength) public OnlyOwner {... */\n    tag_36:\n        /* \"contracts/Lab 2/1-BasicTwitter.sol\":1034:1039  owner */\n      0x01\n      0x00\n      swap1\n      sload\n      swap1\n      0x0100\n      exp\n      swap1\n      div\n      0xffffffffffffffffffffffffffffffffffffffff\n      and\n        /* \"contracts/Lab 2/1-BasicTwitter.sol\":1020:1039  msg.sender == owner */\n      0xffffffffffffffffffffffffffffffffffffffff\n      and\n        /* \"contracts/Lab 2/1-BasicTwitter.sol\":1020:1030  msg.sender */\n      caller\n        /* \"contracts/Lab 2/1-BasicTwitter.sol\":1020:1039  msg.sender == owner */\n      0xffffffffffffffffffffffffffffffffffffffff\n      and\n      eq\n        /* \"contracts/Lab 2/1-BasicTwitter.sol\":1012:1066  require(msg.sender == owner, \"YOU ARE NOT THE OWNER!\") */\n      tag_105\n      jumpi\n      mload(0x40)\n      0x08c379a000000000000000000000000000000000000000000000000000000000\n      dup2\n      mstore\n      0x04\n      add\n      tag_106\n      swap1\n      tag_107\n      jump\t// in\n    tag_106:\n      mload(0x40)\n      dup1\n      swap2\n      sub\n      swap1\n      revert\n    tag_105:\n        /* \"contracts/Lab 2/1-BasicTwitter.sol\":1186:1200  newTweetLength */\n      dup1\n        /* \"contracts/Lab 2/1-BasicTwitter.sol\":1167:1183  MAX_TWEET_LENGTH */\n      0x01\n      0x14\n        /* \"contracts/Lab 2/1-BasicTwitter.sol\":1167:1200  MAX_TWEET_LENGTH = newTweetLength */\n      0x0100\n      exp\n      dup2\n      sload\n      dup2\n      0xffff\n      mul\n      not\n      and\n      swap1\n      dup4\n      0xffff\n      and\n      mul\n      or\n      swap1\n      sstore\n      pop\n        /* \"contracts/Lab 2/1-BasicTwitter.sol\":1090:1207  function changeTweetLength(uint16 newTweetLength) public OnlyOwner {... */\n      pop\n      jump\t// out\n        /* \"contracts/Lab 2/1-BasicTwitter.sol\":2115:2492  function likeTweet(address author, uint256 id) public {... */\n    tag_39:\n        /* \"contracts/Lab 2/1-BasicTwitter.sol\":2342:2344  id */\n      dup1\n        /* \"contracts/Lab 2/1-BasicTwitter.sol\":2317:2323  tweets */\n      0x00\n        /* \"contracts/Lab 2/1-BasicTwitter.sol\":2317:2331  tweets[author] */\n      dup1\n        /* \"contracts/Lab 2/1-BasicTwitter.sol\":2324:2330  author */\n      dup5\n        /* \"contracts/Lab 2/1-BasicTwitter.sol\":2317:2331  tweets[author] */\n      0xffffffffffffffffffffffffffffffffffffffff\n      and\n      0xffffffffffffffffffffffffffffffffffffffff\n      and\n      dup2\n      mstore\n      0x20\n      add\n      swap1\n      dup2\n      mstore\n      0x20\n      add\n      0x00\n      keccak256\n        /* \"contracts/Lab 2/1-BasicTwitter.sol\":2332:2334  id */\n      dup3\n        /* \"contracts/Lab 2/1-BasicTwitter.sol\":2317:2335  tweets[author][id] */\n      dup2\n      sload\n      dup2\n      lt\n      tag_110\n      jumpi\n      tag_111\n      tag_65\n      jump\t// in\n    tag_111:\n    tag_110:\n      swap1\n      0x00\n      mstore\n      keccak256(0x00, 0x20)\n      swap1\n      0x04\n      mul\n      add\n        /* \"contracts/Lab 2/1-BasicTwitter.sol\":2317:2338  tweets[author][id].id */\n      0x00\n      add\n      sload\n        /* \"contracts/Lab 2/1-BasicTwitter.sol\":2317:2344  tweets[author][id].id == id */\n      eq\n        /* \"contracts/Lab 2/1-BasicTwitter.sol\":2309:2372  require(tweets[author][id].id == id, \"This ID is not existing\") */\n      tag_113\n      jumpi\n      mload(0x40)\n      0x08c379a000000000000000000000000000000000000000000000000000000000\n      dup2\n      mstore\n      0x04\n      add\n      tag_114\n      swap1\n      tag_87\n      jump\t// in\n    tag_114:\n      mload(0x40)\n      dup1\n      swap2\n      sub\n      swap1\n      revert\n    tag_113:\n        /* \"contracts/Lab 2/1-BasicTwitter.sol\":2383:2389  tweets */\n      0x00\n        /* \"contracts/Lab 2/1-BasicTwitter.sol\":2383:2397  tweets[author] */\n      dup1\n        /* \"contracts/Lab 2/1-BasicTwitter.sol\":2390:2396  author */\n      dup4\n        /* \"contracts/Lab 2/1-BasicTwitter.sol\":2383:2397  tweets[author] */\n      0xffffffffffffffffffffffffffffffffffffffff\n      and\n      0xffffffffffffffffffffffffffffffffffffffff\n      and\n      dup2\n      mstore\n      0x20\n      add\n      swap1\n      dup2\n      mstore\n      0x20\n      add\n      0x00\n      keccak256\n        /* \"contracts/Lab 2/1-BasicTwitter.sol\":2398:2400  id */\n      dup2\n        /* \"contracts/Lab 2/1-BasicTwitter.sol\":2383:2401  tweets[author][id] */\n      dup2\n      sload\n      dup2\n      lt\n      tag_115\n      jumpi\n      tag_116\n      tag_65\n      jump\t// in\n    tag_116:\n    tag_115:\n      swap1\n      0x00\n      mstore\n      keccak256(0x00, 0x20)\n      swap1\n      0x04\n      mul\n      add\n        /* \"contracts/Lab 2/1-BasicTwitter.sol\":2383:2407  tweets[author][id].likes */\n      0x02\n      add\n      0x14\n        /* \"contracts/Lab 2/1-BasicTwitter.sol\":2383:2409  tweets[author][id].likes++ */\n      dup2\n      dup2\n      swap1\n      sload\n      swap1\n      0x0100\n      exp\n      swap1\n      div\n      0xffff\n      and\n      dup1\n      swap3\n      swap2\n      swap1\n      tag_118\n      swap1\n      tag_119\n      jump\t// in\n    tag_118:\n      swap2\n      swap1\n      0x0100\n      exp\n      dup2\n      sload\n      dup2\n      0xffff\n      mul\n      not\n      and\n      swap1\n      dup4\n      0xffff\n      and\n      mul\n      or\n      swap1\n      sstore\n      pop\n      pop\n        /* \"contracts/Lab 2/1-BasicTwitter.sol\":2425:2485  tweetLiked(msg.sender, author, id, tweets[author][id].likes) */\n      0xa3c9ad75b0736706936cfe2646da2d2a6539dfdefbe5267580b75d1750151981\n        /* \"contracts/Lab 2/1-BasicTwitter.sol\":2436:2446  msg.sender */\n      caller\n        /* \"contracts/Lab 2/1-BasicTwitter.sol\":2448:2454  author */\n      dup4\n        /* \"contracts/Lab 2/1-BasicTwitter.sol\":2456:2458  id */\n      dup4\n        /* \"contracts/Lab 2/1-BasicTwitter.sol\":2460:2466  tweets */\n      0x00\n        /* \"contracts/Lab 2/1-BasicTwitter.sol\":2460:2474  tweets[author] */\n      dup1\n        /* \"contracts/Lab 2/1-BasicTwitter.sol\":2467:2473  author */\n      dup8\n        /* \"contracts/Lab 2/1-BasicTwitter.sol\":2460:2474  tweets[author] */\n      0xffffffffffffffffffffffffffffffffffffffff\n      and\n      0xffffffffffffffffffffffffffffffffffffffff\n      and\n      dup2\n      mstore\n      0x20\n      add\n      swap1\n      dup2\n      mstore\n      0x20\n      add\n      0x00\n      keccak256\n        /* \"contracts/Lab 2/1-BasicTwitter.sol\":2475:2477  id */\n      dup6\n        /* \"contracts/Lab 2/1-BasicTwitter.sol\":2460:2478  tweets[author][id] */\n      dup2\n      sload\n      dup2\n      lt\n      tag_120\n      jumpi\n      tag_121\n      tag_65\n      jump\t// in\n    tag_121:\n    tag_120:\n      swap1\n      0x00\n      mstore\n      keccak256(0x00, 0x20)\n      swap1\n      0x04\n      mul\n      add\n        /* \"contracts/Lab 2/1-BasicTwitter.sol\":2460:2484  tweets[author][id].likes */\n      0x02\n      add\n      0x14\n      swap1\n      sload\n      swap1\n      0x0100\n      exp\n      swap1\n      div\n      0xffff\n      and\n        /* \"contracts/Lab 2/1-BasicTwitter.sol\":2425:2485  tweetLiked(msg.sender, author, id, tweets[author][id].likes) */\n      mload(0x40)\n      tag_123\n      swap5\n      swap4\n      swap3\n      swap2\n      swap1\n      tag_103\n      jump\t// in\n    tag_123:\n      mload(0x40)\n      dup1\n      swap2\n      sub\n      swap1\n      log1\n        /* \"contracts/Lab 2/1-BasicTwitter.sol\":2115:2492  function likeTweet(address author, uint256 id) public {... */\n      pop\n      pop\n      jump\t// out\n        /* \"contracts/Lab 2/1-BasicTwitter.sol\":590:626  uint16 public MAX_TWEET_LENGTH = 256 */\n    tag_41:\n      0x01\n      0x14\n      swap1\n      sload\n      swap1\n      0x0100\n      exp\n      swap1\n      div\n      0xffff\n      and\n      dup2\n      jump\t// out\n        /* \"contracts/Lab 2/1-BasicTwitter.sol\":1213:2109  function createTweet(string memory _tweet) public {... */\n    tag_47:\n        /* \"contracts/Lab 2/1-BasicTwitter.sol\":1546:1562  MAX_TWEET_LENGTH */\n      0x01\n      0x14\n      swap1\n      sload\n      swap1\n      0x0100\n      exp\n      swap1\n      div\n      0xffff\n      and\n        /* \"contracts/Lab 2/1-BasicTwitter.sol\":1522:1562  bytes(_tweet).length <= MAX_TWEET_LENGTH */\n      0xffff\n      and\n        /* \"contracts/Lab 2/1-BasicTwitter.sol\":1528:1534  _tweet */\n      dup2\n        /* \"contracts/Lab 2/1-BasicTwitter.sol\":1522:1542  bytes(_tweet).length */\n      mload\n        /* \"contracts/Lab 2/1-BasicTwitter.sol\":1522:1562  bytes(_tweet).length <= MAX_TWEET_LENGTH */\n      gt\n      iszero\n        /* \"contracts/Lab 2/1-BasicTwitter.sol\":1514:1614  require(bytes(_tweet).length <= MAX_TWEET_LENGTH, \"The length of your tweet exceeds the limit bro!\") */\n      tag_125\n      jumpi\n      mload(0x40)\n      0x08c379a000000000000000000000000000000000000000000000000000000000\n      dup2\n      mstore\n      0x04\n      add\n      tag_126\n      swap1\n      tag_127\n      jump\t// in\n    tag_126:\n      mload(0x40)\n      dup1\n      swap2\n      sub\n      swap1\n      revert\n    tag_125:\n        /* \"contracts/Lab 2/1-BasicTwitter.sol\":1625:1646  Tweet memory newTweet */\n      0x00\n        /* \"contracts/Lab 2/1-BasicTwitter.sol\":1649:1882  Tweet({... */\n      mload(0x40)\n      dup1\n      0xa0\n      add\n      0x40\n      mstore\n      dup1\n        /* \"contracts/Lab 2/1-BasicTwitter.sol\":1717:1723  tweets */\n      0x00\n        /* \"contracts/Lab 2/1-BasicTwitter.sol\":1717:1735  tweets[msg.sender] */\n      dup1\n        /* \"contracts/Lab 2/1-BasicTwitter.sol\":1724:1734  msg.sender */\n      caller\n        /* \"contracts/Lab 2/1-BasicTwitter.sol\":1717:1735  tweets[msg.sender] */\n      0xffffffffffffffffffffffffffffffffffffffff\n      and\n      0xffffffffffffffffffffffffffffffffffffffff\n      and\n      dup2\n      mstore\n      0x20\n      add\n      swap1\n      dup2\n      mstore\n      0x20\n      add\n      0x00\n      keccak256\n        /* \"contracts/Lab 2/1-BasicTwitter.sol\":1717:1742  tweets[msg.sender].length */\n      dup1\n      sload\n      swap1\n      pop\n        /* \"contracts/Lab 2/1-BasicTwitter.sol\":1649:1882  Tweet({... */\n      dup2\n      mstore\n      0x20\n      add\n        /* \"contracts/Lab 2/1-BasicTwitter.sol\":1765:1771  _tweet */\n      dup4\n        /* \"contracts/Lab 2/1-BasicTwitter.sol\":1649:1882  Tweet({... */\n      dup2\n      mstore\n      0x20\n      add\n        /* \"contracts/Lab 2/1-BasicTwitter.sol\":1799:1809  msg.sender */\n      caller\n        /* \"contracts/Lab 2/1-BasicTwitter.sol\":1649:1882  Tweet({... */\n      0xffffffffffffffffffffffffffffffffffffffff\n      and\n      dup2\n      mstore\n      0x20\n      add\n        /* \"contracts/Lab 2/1-BasicTwitter.sol\":1830:1831  0 */\n      0x00\n        /* \"contracts/Lab 2/1-BasicTwitter.sol\":1649:1882  Tweet({... */\n      0xffff\n      and\n      dup2\n      mstore\n      0x20\n      add\n        /* \"contracts/Lab 2/1-BasicTwitter.sol\":1856:1871  block.timestamp */\n      timestamp\n        /* \"contracts/Lab 2/1-BasicTwitter.sol\":1649:1882  Tweet({... */\n      dup2\n      mstore\n      pop\n        /* \"contracts/Lab 2/1-BasicTwitter.sol\":1625:1882  Tweet memory newTweet = Tweet({... */\n      swap1\n      pop\n        /* \"contracts/Lab 2/1-BasicTwitter.sol\":1893:1899  tweets */\n      0x00\n        /* \"contracts/Lab 2/1-BasicTwitter.sol\":1893:1911  tweets[msg.sender] */\n      dup1\n        /* \"contracts/Lab 2/1-BasicTwitter.sol\":1900:1910  msg.sender */\n      caller\n        /* \"contracts/Lab 2/1-BasicTwitter.sol\":1893:1911  tweets[msg.sender] */\n      0xffffffffffffffffffffffffffffffffffffffff\n      and\n      0xffffffffffffffffffffffffffffffffffffffff\n      and\n      dup2\n      mstore\n      0x20\n      add\n      swap1\n      dup2\n      mstore\n      0x20\n      add\n      0x00\n      keccak256\n        /* \"contracts/Lab 2/1-BasicTwitter.sol\":1917:1925  newTweet */\n      dup2\n        /* \"contracts/Lab 2/1-BasicTwitter.sol\":1893:1926  tweets[msg.sender].push(newTweet) */\n      swap1\n      dup1\n      0x01\n      dup2\n      sload\n      add\n      dup1\n      dup3\n      sstore\n      dup1\n      swap2\n      pop\n      pop\n      0x01\n      swap1\n      sub\n      swap1\n      0x00\n      mstore\n      keccak256(0x00, 0x20)\n      swap1\n      0x04\n      mul\n      add\n      0x00\n      swap1\n      swap2\n      swap1\n      swap2\n      swap1\n      swap2\n      pop\n      0x00\n      dup3\n      add\n      mload\n      dup2\n      0x00\n      add\n      sstore\n      0x20\n      dup3\n      add\n      mload\n      dup2\n      0x01\n      add\n      swap1\n      dup2\n      tag_129\n      swap2\n      swap1\n      tag_130\n      jump\t// in\n    tag_129:\n      pop\n      0x40\n      dup3\n      add\n      mload\n      dup2\n      0x02\n      add\n      exp(0x0100, 0x00)\n      dup2\n      sload\n      dup2\n      0xffffffffffffffffffffffffffffffffffffffff\n      mul\n      not\n      and\n      swap1\n      dup4\n      0xffffffffffffffffffffffffffffffffffffffff\n      and\n      mul\n      or\n      swap1\n      sstore\n      pop\n      0x60\n      dup3\n      add\n      mload\n      dup2\n      0x02\n      add\n      exp(0x0100, 0x14)\n      dup2\n      sload\n      dup2\n      0xffff\n      mul\n      not\n      and\n      swap1\n      dup4\n      0xffff\n      and\n      mul\n      or\n      swap1\n      sstore\n      pop\n      0x80\n      dup3\n      add\n      mload\n      dup2\n      0x03\n      add\n      sstore\n      pop\n      pop\n        /* \"contracts/Lab 2/1-BasicTwitter.sol\":2016:2102  tweetCreated(newTweet.id, newTweet.user_address, newTweet.content, newTweet.timestamp) */\n      0x6e5546a74a8ef6731872256d3bbbf86208675b875b179abed63f4ed747a30cfb\n        /* \"contracts/Lab 2/1-BasicTwitter.sol\":2029:2037  newTweet */\n      dup2\n        /* \"contracts/Lab 2/1-BasicTwitter.sol\":2029:2040  newTweet.id */\n      0x00\n      add\n      mload\n        /* \"contracts/Lab 2/1-BasicTwitter.sol\":2042:2050  newTweet */\n      dup3\n        /* \"contracts/Lab 2/1-BasicTwitter.sol\":2042:2063  newTweet.user_address */\n      0x40\n      add\n      mload\n        /* \"contracts/Lab 2/1-BasicTwitter.sol\":2065:2073  newTweet */\n      dup4\n        /* \"contracts/Lab 2/1-BasicTwitter.sol\":2065:2081  newTweet.content */\n      0x20\n      add\n      mload\n        /* \"contracts/Lab 2/1-BasicTwitter.sol\":2083:2091  newTweet */\n      dup5\n        /* \"contracts/Lab 2/1-BasicTwitter.sol\":2083:2101  newTweet.timestamp */\n      0x80\n      add\n      mload\n        /* \"contracts/Lab 2/1-BasicTwitter.sol\":2016:2102  tweetCreated(newTweet.id, newTweet.user_address, newTweet.content, newTweet.timestamp) */\n      mload(0x40)\n      tag_131\n      swap5\n      swap4\n      swap3\n      swap2\n      swap1\n      tag_132\n      jump\t// in\n    tag_131:\n      mload(0x40)\n      dup1\n      swap2\n      sub\n      swap1\n      log1\n        /* \"contracts/Lab 2/1-BasicTwitter.sol\":1263:2109  {... */\n      pop\n        /* \"contracts/Lab 2/1-BasicTwitter.sol\":1213:2109  function createTweet(string memory _tweet) public {... */\n      pop\n      jump\t// out\n        /* \"contracts/Lab 2/1-BasicTwitter.sol\":564:584  address public owner */\n    tag_49:\n      0x01\n      0x00\n      swap1\n      sload\n      swap1\n      0x0100\n      exp\n      swap1\n      div\n      0xffffffffffffffffffffffffffffffffffffffff\n      and\n      dup2\n      jump\t// out\n    tag_61:\n      mload(0x40)\n      dup1\n      0xa0\n      add\n      0x40\n      mstore\n      dup1\n      0x00\n      dup2\n      mstore\n      0x20\n      add\n      0x60\n      dup2\n      mstore\n      0x20\n      add\n      and(0xffffffffffffffffffffffffffffffffffffffff, 0x00)\n      dup2\n      mstore\n      0x20\n      add\n      and(0xffff, 0x00)\n      dup2\n      mstore\n      0x20\n      add\n      0x00\n      dup2\n      mstore\n      pop\n      swap1\n      jump\t// out\n        /* \"#utility.yul\":7:82   */\n    tag_133:\n        /* \"#utility.yul\":40:46   */\n      0x00\n        /* \"#utility.yul\":73:75   */\n      0x40\n        /* \"#utility.yul\":67:76   */\n      mload\n        /* \"#utility.yul\":57:76   */\n      swap1\n      pop\n        /* \"#utility.yul\":7:82   */\n      swap1\n      jump\t// out\n        /* \"#utility.yul\":88:205   */\n    tag_134:\n        /* \"#utility.yul\":197:198   */\n      0x00\n        /* \"#utility.yul\":194:195   */\n      dup1\n        /* \"#utility.yul\":187:199   */\n      revert\n        /* \"#utility.yul\":211:328   */\n    tag_135:\n        /* \"#utility.yul\":320:321   */\n      0x00\n        /* \"#utility.yul\":317:318   */\n      dup1\n        /* \"#utility.yul\":310:322   */\n      revert\n        /* \"#utility.yul\":334:460   */\n    tag_136:\n        /* \"#utility.yul\":371:378   */\n      0x00\n        /* \"#utility.yul\":411:453   */\n      0xffffffffffffffffffffffffffffffffffffffff\n        /* \"#utility.yul\":404:409   */\n      dup3\n        /* \"#utility.yul\":400:454   */\n      and\n        /* \"#utility.yul\":389:454   */\n      swap1\n      pop\n        /* \"#utility.yul\":334:460   */\n      swap2\n      swap1\n      pop\n      jump\t// out\n        /* \"#utility.yul\":466:562   */\n    tag_137:\n        /* \"#utility.yul\":503:510   */\n      0x00\n        /* \"#utility.yul\":532:556   */\n      tag_209\n        /* \"#utility.yul\":550:555   */\n      dup3\n        /* \"#utility.yul\":532:556   */\n      tag_136\n      jump\t// in\n    tag_209:\n        /* \"#utility.yul\":521:556   */\n      swap1\n      pop\n        /* \"#utility.yul\":466:562   */\n      swap2\n      swap1\n      pop\n      jump\t// out\n        /* \"#utility.yul\":568:690   */\n    tag_138:\n        /* \"#utility.yul\":641:665   */\n      tag_211\n        /* \"#utility.yul\":659:664   */\n      dup2\n        /* \"#utility.yul\":641:665   */\n      tag_137\n      jump\t// in\n    tag_211:\n        /* \"#utility.yul\":634:639   */\n      dup2\n        /* \"#utility.yul\":631:666   */\n      eq\n        /* \"#utility.yul\":621:684   */\n      tag_212\n      jumpi\n        /* \"#utility.yul\":680:681   */\n      0x00\n        /* \"#utility.yul\":677:678   */\n      dup1\n        /* \"#utility.yul\":670:682   */\n      revert\n        /* \"#utility.yul\":621:684   */\n    tag_212:\n        /* \"#utility.yul\":568:690   */\n      pop\n      jump\t// out\n        /* \"#utility.yul\":696:835   */\n    tag_139:\n        /* \"#utility.yul\":742:747   */\n      0x00\n        /* \"#utility.yul\":780:786   */\n      dup2\n        /* \"#utility.yul\":767:787   */\n      calldataload\n        /* \"#utility.yul\":758:787   */\n      swap1\n      pop\n        /* \"#utility.yul\":796:829   */\n      tag_214\n        /* \"#utility.yul\":823:828   */\n      dup2\n        /* \"#utility.yul\":796:829   */\n      tag_138\n      jump\t// in\n    tag_214:\n        /* \"#utility.yul\":696:835   */\n      swap3\n      swap2\n      pop\n      pop\n      jump\t// out\n        /* \"#utility.yul\":841:918   */\n    tag_140:\n        /* \"#utility.yul\":878:885   */\n      0x00\n        /* \"#utility.yul\":907:912   */\n      dup2\n        /* \"#utility.yul\":896:912   */\n      swap1\n      pop\n        /* \"#utility.yul\":841:918   */\n      swap2\n      swap1\n      pop\n      jump\t// out\n        /* \"#utility.yul\":924:1046   */\n    tag_141:\n        /* \"#utility.yul\":997:1021   */\n      tag_217\n        /* \"#utility.yul\":1015:1020   */\n      dup2\n        /* \"#utility.yul\":997:1021   */\n      tag_140\n      jump\t// in\n    tag_217:\n        /* \"#utility.yul\":990:995   */\n      dup2\n        /* \"#utility.yul\":987:1022   */\n      eq\n        /* \"#utility.yul\":977:1040   */\n      tag_218\n      jumpi\n        /* \"#utility.yul\":1036:1037   */\n      0x00\n        /* \"#utility.yul\":1033:1034   */\n      dup1\n        /* \"#utility.yul\":1026:1038   */\n      revert\n        /* \"#utility.yul\":977:1040   */\n    tag_218:\n        /* \"#utility.yul\":924:1046   */\n      pop\n      jump\t// out\n        /* \"#utility.yul\":1052:1191   */\n    tag_142:\n        /* \"#utility.yul\":1098:1103   */\n      0x00\n        /* \"#utility.yul\":1136:1142   */\n      dup2\n        /* \"#utility.yul\":1123:1143   */\n      calldataload\n        /* \"#utility.yul\":1114:1143   */\n      swap1\n      pop\n        /* \"#utility.yul\":1152:1185   */\n      tag_220\n        /* \"#utility.yul\":1179:1184   */\n      dup2\n        /* \"#utility.yul\":1152:1185   */\n      tag_141\n      jump\t// in\n    tag_220:\n        /* \"#utility.yul\":1052:1191   */\n      swap3\n      swap2\n      pop\n      pop\n      jump\t// out\n        /* \"#utility.yul\":1197:1671   */\n    tag_15:\n        /* \"#utility.yul\":1265:1271   */\n      0x00\n        /* \"#utility.yul\":1273:1279   */\n      dup1\n        /* \"#utility.yul\":1322:1324   */\n      0x40\n        /* \"#utility.yul\":1310:1319   */\n      dup4\n        /* \"#utility.yul\":1301:1308   */\n      dup6\n        /* \"#utility.yul\":1297:1320   */\n      sub\n        /* \"#utility.yul\":1293:1325   */\n      slt\n        /* \"#utility.yul\":1290:1409   */\n      iszero\n      tag_222\n      jumpi\n        /* \"#utility.yul\":1328:1407   */\n      tag_223\n      tag_134\n      jump\t// in\n    tag_223:\n        /* \"#utility.yul\":1290:1409   */\n    tag_222:\n        /* \"#utility.yul\":1448:1449   */\n      0x00\n        /* \"#utility.yul\":1473:1526   */\n      tag_224\n        /* \"#utility.yul\":1518:1525   */\n      dup6\n        /* \"#utility.yul\":1509:1515   */\n      dup3\n        /* \"#utility.yul\":1498:1507   */\n      dup7\n        /* \"#utility.yul\":1494:1516   */\n      add\n        /* \"#utility.yul\":1473:1526   */\n      tag_139\n      jump\t// in\n    tag_224:\n        /* \"#utility.yul\":1463:1526   */\n      swap3\n      pop\n        /* \"#utility.yul\":1419:1536   */\n      pop\n        /* \"#utility.yul\":1575:1577   */\n      0x20\n        /* \"#utility.yul\":1601:1654   */\n      tag_225\n        /* \"#utility.yul\":1646:1653   */\n      dup6\n        /* \"#utility.yul\":1637:1643   */\n      dup3\n        /* \"#utility.yul\":1626:1635   */\n      dup7\n        /* \"#utility.yul\":1622:1644   */\n      add\n        /* \"#utility.yul\":1601:1654   */\n      tag_142\n      jump\t// in\n    tag_225:\n        /* \"#utility.yul\":1591:1654   */\n      swap2\n      pop\n        /* \"#utility.yul\":1546:1664   */\n      pop\n        /* \"#utility.yul\":1197:1671   */\n      swap3\n      pop\n      swap3\n      swap1\n      pop\n      jump\t// out\n        /* \"#utility.yul\":1677:1795   */\n    tag_143:\n        /* \"#utility.yul\":1764:1788   */\n      tag_227\n        /* \"#utility.yul\":1782:1787   */\n      dup2\n        /* \"#utility.yul\":1764:1788   */\n      tag_140\n      jump\t// in\n    tag_227:\n        /* \"#utility.yul\":1759:1762   */\n      dup3\n        /* \"#utility.yul\":1752:1789   */\n      mstore\n        /* \"#utility.yul\":1677:1795   */\n      pop\n      pop\n      jump\t// out\n        /* \"#utility.yul\":1801:1900   */\n    tag_144:\n        /* \"#utility.yul\":1853:1859   */\n      0x00\n        /* \"#utility.yul\":1887:1892   */\n      dup2\n        /* \"#utility.yul\":1881:1893   */\n      mload\n        /* \"#utility.yul\":1871:1893   */\n      swap1\n      pop\n        /* \"#utility.yul\":1801:1900   */\n      swap2\n      swap1\n      pop\n      jump\t// out\n        /* \"#utility.yul\":1906:2075   */\n    tag_145:\n        /* \"#utility.yul\":1990:2001   */\n      0x00\n        /* \"#utility.yul\":2024:2030   */\n      dup3\n        /* \"#utility.yul\":2019:2022   */\n      dup3\n        /* \"#utility.yul\":2012:2031   */\n      mstore\n        /* \"#utility.yul\":2064:2068   */\n      0x20\n        /* \"#utility.yul\":2059:2062   */\n      dup3\n        /* \"#utility.yul\":2055:2069   */\n      add\n        /* \"#utility.yul\":2040:2069   */\n      swap1\n      pop\n        /* \"#utility.yul\":1906:2075   */\n      swap3\n      swap2\n      pop\n      pop\n      jump\t// out\n        /* \"#utility.yul\":2081:2220   */\n    tag_146:\n        /* \"#utility.yul\":2170:2176   */\n      dup3\n        /* \"#utility.yul\":2165:2168   */\n      dup2\n        /* \"#utility.yul\":2160:2163   */\n      dup4\n        /* \"#utility.yul\":2154:2177   */\n      mcopy\n        /* \"#utility.yul\":2211:2212   */\n      0x00\n        /* \"#utility.yul\":2202:2208   */\n      dup4\n        /* \"#utility.yul\":2197:2200   */\n      dup4\n        /* \"#utility.yul\":2193:2209   */\n      add\n        /* \"#utility.yul\":2186:2213   */\n      mstore\n        /* \"#utility.yul\":2081:2220   */\n      pop\n      pop\n      pop\n      jump\t// out\n        /* \"#utility.yul\":2226:2328   */\n    tag_147:\n        /* \"#utility.yul\":2267:2273   */\n      0x00\n        /* \"#utility.yul\":2318:2320   */\n      0x1f\n        /* \"#utility.yul\":2314:2321   */\n      not\n        /* \"#utility.yul\":2309:2311   */\n      0x1f\n        /* \"#utility.yul\":2302:2307   */\n      dup4\n        /* \"#utility.yul\":2298:2312   */\n      add\n        /* \"#utility.yul\":2294:2322   */\n      and\n        /* \"#utility.yul\":2284:2322   */\n      swap1\n      pop\n        /* \"#utility.yul\":2226:2328   */\n      swap2\n      swap1\n      pop\n      jump\t// out\n        /* \"#utility.yul\":2334:2711   */\n    tag_148:\n        /* \"#utility.yul\":2422:2425   */\n      0x00\n        /* \"#utility.yul\":2450:2489   */\n      tag_233\n        /* \"#utility.yul\":2483:2488   */\n      dup3\n        /* \"#utility.yul\":2450:2489   */\n      tag_144\n      jump\t// in\n    tag_233:\n        /* \"#utility.yul\":2505:2576   */\n      tag_234\n        /* \"#utility.yul\":2569:2575   */\n      dup2\n        /* \"#utility.yul\":2564:2567   */\n      dup6\n        /* \"#utility.yul\":2505:2576   */\n      tag_145\n      jump\t// in\n    tag_234:\n        /* \"#utility.yul\":2498:2576   */\n      swap4\n      pop\n        /* \"#utility.yul\":2585:2650   */\n      tag_235\n        /* \"#utility.yul\":2643:2649   */\n      dup2\n        /* \"#utility.yul\":2638:2641   */\n      dup6\n        /* \"#utility.yul\":2631:2635   */\n      0x20\n        /* \"#utility.yul\":2624:2629   */\n      dup7\n        /* \"#utility.yul\":2620:2636   */\n      add\n        /* \"#utility.yul\":2585:2650   */\n      tag_146\n      jump\t// in\n    tag_235:\n        /* \"#utility.yul\":2675:2704   */\n      tag_236\n        /* \"#utility.yul\":2697:2703   */\n      dup2\n        /* \"#utility.yul\":2675:2704   */\n      tag_147\n      jump\t// in\n    tag_236:\n        /* \"#utility.yul\":2670:2673   */\n      dup5\n        /* \"#utility.yul\":2666:2705   */\n      add\n        /* \"#utility.yul\":2659:2705   */\n      swap2\n      pop\n        /* \"#utility.yul\":2426:2711   */\n      pop\n        /* \"#utility.yul\":2334:2711   */\n      swap3\n      swap2\n      pop\n      pop\n      jump\t// out\n        /* \"#utility.yul\":2717:2835   */\n    tag_149:\n        /* \"#utility.yul\":2804:2828   */\n      tag_238\n        /* \"#utility.yul\":2822:2827   */\n      dup2\n        /* \"#utility.yul\":2804:2828   */\n      tag_137\n      jump\t// in\n    tag_238:\n        /* \"#utility.yul\":2799:2802   */\n      dup3\n        /* \"#utility.yul\":2792:2829   */\n      mstore\n        /* \"#utility.yul\":2717:2835   */\n      pop\n      pop\n      jump\t// out\n        /* \"#utility.yul\":2841:2930   */\n    tag_150:\n        /* \"#utility.yul\":2877:2884   */\n      0x00\n        /* \"#utility.yul\":2917:2923   */\n      0xffff\n        /* \"#utility.yul\":2910:2915   */\n      dup3\n        /* \"#utility.yul\":2906:2924   */\n      and\n        /* \"#utility.yul\":2895:2924   */\n      swap1\n      pop\n        /* \"#utility.yul\":2841:2930   */\n      swap2\n      swap1\n      pop\n      jump\t// out\n        /* \"#utility.yul\":2936:3051   */\n    tag_151:\n        /* \"#utility.yul\":3021:3044   */\n      tag_241\n        /* \"#utility.yul\":3038:3043   */\n      dup2\n        /* \"#utility.yul\":3021:3044   */\n      tag_150\n      jump\t// in\n    tag_241:\n        /* \"#utility.yul\":3016:3019   */\n      dup3\n        /* \"#utility.yul\":3009:3045   */\n      mstore\n        /* \"#utility.yul\":2936:3051   */\n      pop\n      pop\n      jump\t// out\n        /* \"#utility.yul\":3057:3808   */\n    tag_18:\n        /* \"#utility.yul\":3280:3284   */\n      0x00\n        /* \"#utility.yul\":3318:3321   */\n      0xa0\n        /* \"#utility.yul\":3307:3316   */\n      dup3\n        /* \"#utility.yul\":3303:3322   */\n      add\n        /* \"#utility.yul\":3295:3322   */\n      swap1\n      pop\n        /* \"#utility.yul\":3332:3403   */\n      tag_243\n        /* \"#utility.yul\":3400:3401   */\n      0x00\n        /* \"#utility.yul\":3389:3398   */\n      dup4\n        /* \"#utility.yul\":3385:3402   */\n      add\n        /* \"#utility.yul\":3376:3382   */\n      dup9\n        /* \"#utility.yul\":3332:3403   */\n      tag_143\n      jump\t// in\n    tag_243:\n        /* \"#utility.yul\":3450:3459   */\n      dup2\n        /* \"#utility.yul\":3444:3448   */\n      dup2\n        /* \"#utility.yul\":3440:3460   */\n      sub\n        /* \"#utility.yul\":3435:3437   */\n      0x20\n        /* \"#utility.yul\":3424:3433   */\n      dup4\n        /* \"#utility.yul\":3420:3438   */\n      add\n        /* \"#utility.yul\":3413:3461   */\n      mstore\n        /* \"#utility.yul\":3478:3556   */\n      tag_244\n        /* \"#utility.yul\":3551:3555   */\n      dup2\n        /* \"#utility.yul\":3542:3548   */\n      dup8\n        /* \"#utility.yul\":3478:3556   */\n      tag_148\n      jump\t// in\n    tag_244:\n        /* \"#utility.yul\":3470:3556   */\n      swap1\n      pop\n        /* \"#utility.yul\":3566:3638   */\n      tag_245\n        /* \"#utility.yul\":3634:3636   */\n      0x40\n        /* \"#utility.yul\":3623:3632   */\n      dup4\n        /* \"#utility.yul\":3619:3637   */\n      add\n        /* \"#utility.yul\":3610:3616   */\n      dup7\n        /* \"#utility.yul\":3566:3638   */\n      tag_149\n      jump\t// in\n    tag_245:\n        /* \"#utility.yul\":3648:3718   */\n      tag_246\n        /* \"#utility.yul\":3714:3716   */\n      0x60\n        /* \"#utility.yul\":3703:3712   */\n      dup4\n        /* \"#utility.yul\":3699:3717   */\n      add\n        /* \"#utility.yul\":3690:3696   */\n      dup6\n        /* \"#utility.yul\":3648:3718   */\n      tag_151\n      jump\t// in\n    tag_246:\n        /* \"#utility.yul\":3728:3801   */\n      tag_247\n        /* \"#utility.yul\":3796:3799   */\n      0x80\n        /* \"#utility.yul\":3785:3794   */\n      dup4\n        /* \"#utility.yul\":3781:3800   */\n      add\n        /* \"#utility.yul\":3772:3778   */\n      dup5\n        /* \"#utility.yul\":3728:3801   */\n      tag_143\n      jump\t// in\n    tag_247:\n        /* \"#utility.yul\":3057:3808   */\n      swap7\n      swap6\n      pop\n      pop\n      pop\n      pop\n      pop\n      pop\n      jump\t// out\n        /* \"#utility.yul\":3814:3922   */\n    tag_152:\n        /* \"#utility.yul\":3891:3915   */\n      tag_249\n        /* \"#utility.yul\":3909:3914   */\n      dup2\n        /* \"#utility.yul\":3891:3915   */\n      tag_140\n      jump\t// in\n    tag_249:\n        /* \"#utility.yul\":3886:3889   */\n      dup3\n        /* \"#utility.yul\":3879:3916   */\n      mstore\n        /* \"#utility.yul\":3814:3922   */\n      pop\n      pop\n      jump\t// out\n        /* \"#utility.yul\":3928:4087   */\n    tag_153:\n        /* \"#utility.yul\":4002:4013   */\n      0x00\n        /* \"#utility.yul\":4036:4042   */\n      dup3\n        /* \"#utility.yul\":4031:4034   */\n      dup3\n        /* \"#utility.yul\":4024:4043   */\n      mstore\n        /* \"#utility.yul\":4076:4080   */\n      0x20\n        /* \"#utility.yul\":4071:4074   */\n      dup3\n        /* \"#utility.yul\":4067:4081   */\n      add\n        /* \"#utility.yul\":4052:4081   */\n      swap1\n      pop\n        /* \"#utility.yul\":3928:4087   */\n      swap3\n      swap2\n      pop\n      pop\n      jump\t// out\n        /* \"#utility.yul\":4093:4450   */\n    tag_154:\n        /* \"#utility.yul\":4171:4174   */\n      0x00\n        /* \"#utility.yul\":4199:4238   */\n      tag_252\n        /* \"#utility.yul\":4232:4237   */\n      dup3\n        /* \"#utility.yul\":4199:4238   */\n      tag_144\n      jump\t// in\n    tag_252:\n        /* \"#utility.yul\":4254:4315   */\n      tag_253\n        /* \"#utility.yul\":4308:4314   */\n      dup2\n        /* \"#utility.yul\":4303:4306   */\n      dup6\n        /* \"#utility.yul\":4254:4315   */\n      tag_153\n      jump\t// in\n    tag_253:\n        /* \"#utility.yul\":4247:4315   */\n      swap4\n      pop\n        /* \"#utility.yul\":4324:4389   */\n      tag_254\n        /* \"#utility.yul\":4382:4388   */\n      dup2\n        /* \"#utility.yul\":4377:4380   */\n      dup6\n        /* \"#utility.yul\":4370:4374   */\n      0x20\n        /* \"#utility.yul\":4363:4368   */\n      dup7\n        /* \"#utility.yul\":4359:4375   */\n      add\n        /* \"#utility.yul\":4324:4389   */\n      tag_146\n      jump\t// in\n    tag_254:\n        /* \"#utility.yul\":4414:4443   */\n      tag_255\n        /* \"#utility.yul\":4436:4442   */\n      dup2\n        /* \"#utility.yul\":4414:4443   */\n      tag_147\n      jump\t// in\n    tag_255:\n        /* \"#utility.yul\":4409:4412   */\n      dup5\n        /* \"#utility.yul\":4405:4444   */\n      add\n        /* \"#utility.yul\":4398:4444   */\n      swap2\n      pop\n        /* \"#utility.yul\":4175:4450   */\n      pop\n        /* \"#utility.yul\":4093:4450   */\n      swap3\n      swap2\n      pop\n      pop\n      jump\t// out\n        /* \"#utility.yul\":4456:4564   */\n    tag_155:\n        /* \"#utility.yul\":4533:4557   */\n      tag_257\n        /* \"#utility.yul\":4551:4556   */\n      dup2\n        /* \"#utility.yul\":4533:4557   */\n      tag_137\n      jump\t// in\n    tag_257:\n        /* \"#utility.yul\":4528:4531   */\n      dup3\n        /* \"#utility.yul\":4521:4558   */\n      mstore\n        /* \"#utility.yul\":4456:4564   */\n      pop\n      pop\n      jump\t// out\n        /* \"#utility.yul\":4570:4675   */\n    tag_156:\n        /* \"#utility.yul\":4645:4668   */\n      tag_259\n        /* \"#utility.yul\":4662:4667   */\n      dup2\n        /* \"#utility.yul\":4645:4668   */\n      tag_150\n      jump\t// in\n    tag_259:\n        /* \"#utility.yul\":4640:4643   */\n      dup3\n        /* \"#utility.yul\":4633:4669   */\n      mstore\n        /* \"#utility.yul\":4570:4675   */\n      pop\n      pop\n      jump\t// out\n        /* \"#utility.yul\":4733:5866   */\n    tag_157:\n        /* \"#utility.yul\":4844:4847   */\n      0x00\n        /* \"#utility.yul\":4880:4884   */\n      0xa0\n        /* \"#utility.yul\":4875:4878   */\n      dup4\n        /* \"#utility.yul\":4871:4885   */\n      add\n        /* \"#utility.yul\":4965:4969   */\n      0x00\n        /* \"#utility.yul\":4958:4963   */\n      dup4\n        /* \"#utility.yul\":4954:4970   */\n      add\n        /* \"#utility.yul\":4948:4971   */\n      mload\n        /* \"#utility.yul\":4984:5047   */\n      tag_261\n        /* \"#utility.yul\":5041:5045   */\n      0x00\n        /* \"#utility.yul\":5036:5039   */\n      dup7\n        /* \"#utility.yul\":5032:5046   */\n      add\n        /* \"#utility.yul\":5018:5030   */\n      dup3\n        /* \"#utility.yul\":4984:5047   */\n      tag_152\n      jump\t// in\n    tag_261:\n        /* \"#utility.yul\":4895:5057   */\n      pop\n        /* \"#utility.yul\":5142:5146   */\n      0x20\n        /* \"#utility.yul\":5135:5140   */\n      dup4\n        /* \"#utility.yul\":5131:5147   */\n      add\n        /* \"#utility.yul\":5125:5148   */\n      mload\n        /* \"#utility.yul\":5195:5198   */\n      dup5\n        /* \"#utility.yul\":5189:5193   */\n      dup3\n        /* \"#utility.yul\":5185:5199   */\n      sub\n        /* \"#utility.yul\":5178:5182   */\n      0x20\n        /* \"#utility.yul\":5173:5176   */\n      dup7\n        /* \"#utility.yul\":5169:5183   */\n      add\n        /* \"#utility.yul\":5162:5200   */\n      mstore\n        /* \"#utility.yul\":5221:5294   */\n      tag_262\n        /* \"#utility.yul\":5289:5293   */\n      dup3\n        /* \"#utility.yul\":5275:5287   */\n      dup3\n        /* \"#utility.yul\":5221:5294   */\n      tag_154\n      jump\t// in\n    tag_262:\n        /* \"#utility.yul\":5213:5294   */\n      swap2\n      pop\n        /* \"#utility.yul\":5067:5305   */\n      pop\n        /* \"#utility.yul\":5395:5399   */\n      0x40\n        /* \"#utility.yul\":5388:5393   */\n      dup4\n        /* \"#utility.yul\":5384:5400   */\n      add\n        /* \"#utility.yul\":5378:5401   */\n      mload\n        /* \"#utility.yul\":5414:5477   */\n      tag_263\n        /* \"#utility.yul\":5471:5475   */\n      0x40\n        /* \"#utility.yul\":5466:5469   */\n      dup7\n        /* \"#utility.yul\":5462:5476   */\n      add\n        /* \"#utility.yul\":5448:5460   */\n      dup3\n        /* \"#utility.yul\":5414:5477   */\n      tag_155\n      jump\t// in\n    tag_263:\n        /* \"#utility.yul\":5315:5487   */\n      pop\n        /* \"#utility.yul\":5570:5574   */\n      0x60\n        /* \"#utility.yul\":5563:5568   */\n      dup4\n        /* \"#utility.yul\":5559:5575   */\n      add\n        /* \"#utility.yul\":5553:5576   */\n      mload\n        /* \"#utility.yul\":5589:5650   */\n      tag_264\n        /* \"#utility.yul\":5644:5648   */\n      0x60\n        /* \"#utility.yul\":5639:5642   */\n      dup7\n        /* \"#utility.yul\":5635:5649   */\n      add\n        /* \"#utility.yul\":5621:5633   */\n      dup3\n        /* \"#utility.yul\":5589:5650   */\n      tag_156\n      jump\t// in\n    tag_264:\n        /* \"#utility.yul\":5497:5660   */\n      pop\n        /* \"#utility.yul\":5747:5751   */\n      0x80\n        /* \"#utility.yul\":5740:5745   */\n      dup4\n        /* \"#utility.yul\":5736:5752   */\n      add\n        /* \"#utility.yul\":5730:5753   */\n      mload\n        /* \"#utility.yul\":5766:5829   */\n      tag_265\n        /* \"#utility.yul\":5823:5827   */\n      0x80\n        /* \"#utility.yul\":5818:5821   */\n      dup7\n        /* \"#utility.yul\":5814:5828   */\n      add\n        /* \"#utility.yul\":5800:5812   */\n      dup3\n        /* \"#utility.yul\":5766:5829   */\n      tag_152\n      jump\t// in\n    tag_265:\n        /* \"#utility.yul\":5670:5839   */\n      pop\n        /* \"#utility.yul\":5856:5860   */\n      dup1\n        /* \"#utility.yul\":5849:5860   */\n      swap2\n      pop\n        /* \"#utility.yul\":4849:5866   */\n      pop\n        /* \"#utility.yul\":4733:5866   */\n      swap3\n      swap2\n      pop\n      pop\n      jump\t// out\n        /* \"#utility.yul\":5872:6229   */\n    tag_23:\n        /* \"#utility.yul\":6007:6011   */\n      0x00\n        /* \"#utility.yul\":6045:6047   */\n      0x20\n        /* \"#utility.yul\":6034:6043   */\n      dup3\n        /* \"#utility.yul\":6030:6048   */\n      add\n        /* \"#utility.yul\":6022:6048   */\n      swap1\n      pop\n        /* \"#utility.yul\":6094:6103   */\n      dup2\n        /* \"#utility.yul\":6088:6092   */\n      dup2\n        /* \"#utility.yul\":6084:6104   */\n      sub\n        /* \"#utility.yul\":6080:6081   */\n      0x00\n        /* \"#utility.yul\":6069:6078   */\n      dup4\n        /* \"#utility.yul\":6065:6082   */\n      add\n        /* \"#utility.yul\":6058:6105   */\n      mstore\n        /* \"#utility.yul\":6122:6222   */\n      tag_267\n        /* \"#utility.yul\":6217:6221   */\n      dup2\n        /* \"#utility.yul\":6208:6214   */\n      dup5\n        /* \"#utility.yul\":6122:6222   */\n      tag_157\n      jump\t// in\n    tag_267:\n        /* \"#utility.yul\":6114:6222   */\n      swap1\n      pop\n        /* \"#utility.yul\":5872:6229   */\n      swap3\n      swap2\n      pop\n      pop\n      jump\t// out\n        /* \"#utility.yul\":6235:6564   */\n    tag_26:\n        /* \"#utility.yul\":6294:6300   */\n      0x00\n        /* \"#utility.yul\":6343:6345   */\n      0x20\n        /* \"#utility.yul\":6331:6340   */\n      dup3\n        /* \"#utility.yul\":6322:6329   */\n      dup5\n        /* \"#utility.yul\":6318:6341   */\n      sub\n        /* \"#utility.yul\":6314:6346   */\n      slt\n        /* \"#utility.yul\":6311:6430   */\n      iszero\n      tag_269\n      jumpi\n        /* \"#utility.yul\":6349:6428   */\n      tag_270\n      tag_134\n      jump\t// in\n    tag_270:\n        /* \"#utility.yul\":6311:6430   */\n    tag_269:\n        /* \"#utility.yul\":6469:6470   */\n      0x00\n        /* \"#utility.yul\":6494:6547   */\n      tag_271\n        /* \"#utility.yul\":6539:6546   */\n      dup5\n        /* \"#utility.yul\":6530:6536   */\n      dup3\n        /* \"#utility.yul\":6519:6528   */\n      dup6\n        /* \"#utility.yul\":6515:6537   */\n      add\n        /* \"#utility.yul\":6494:6547   */\n      tag_139\n      jump\t// in\n    tag_271:\n        /* \"#utility.yul\":6484:6547   */\n      swap2\n      pop\n        /* \"#utility.yul\":6440:6557   */\n      pop\n        /* \"#utility.yul\":6235:6564   */\n      swap3\n      swap2\n      pop\n      pop\n      jump\t// out\n        /* \"#utility.yul\":6570:6705   */\n    tag_158:\n        /* \"#utility.yul\":6658:6664   */\n      0x00\n        /* \"#utility.yul\":6692:6697   */\n      dup2\n        /* \"#utility.yul\":6686:6698   */\n      mload\n        /* \"#utility.yul\":6676:6698   */\n      swap1\n      pop\n        /* \"#utility.yul\":6570:6705   */\n      swap2\n      swap1\n      pop\n      jump\t// out\n        /* \"#utility.yul\":6711:6916   */\n    tag_159:\n        /* \"#utility.yul\":6831:6842   */\n      0x00\n        /* \"#utility.yul\":6865:6871   */\n      dup3\n        /* \"#utility.yul\":6860:6863   */\n      dup3\n        /* \"#utility.yul\":6853:6872   */\n      mstore\n        /* \"#utility.yul\":6905:6909   */\n      0x20\n        /* \"#utility.yul\":6900:6903   */\n      dup3\n        /* \"#utility.yul\":6896:6910   */\n      add\n        /* \"#utility.yul\":6881:6910   */\n      swap1\n      pop\n        /* \"#utility.yul\":6711:6916   */\n      swap3\n      swap2\n      pop\n      pop\n      jump\t// out\n        /* \"#utility.yul\":6922:7075   */\n    tag_160:\n        /* \"#utility.yul\":7010:7014   */\n      0x00\n        /* \"#utility.yul\":7033:7036   */\n      dup2\n        /* \"#utility.yul\":7025:7036   */\n      swap1\n      pop\n        /* \"#utility.yul\":7063:7067   */\n      0x20\n        /* \"#utility.yul\":7058:7061   */\n      dup3\n        /* \"#utility.yul\":7054:7068   */\n      add\n        /* \"#utility.yul\":7046:7068   */\n      swap1\n      pop\n        /* \"#utility.yul\":6922:7075   */\n      swap2\n      swap1\n      pop\n      jump\t// out\n        /* \"#utility.yul\":7133:8256   */\n    tag_161:\n        /* \"#utility.yul\":7234:7237   */\n      0x00\n        /* \"#utility.yul\":7270:7274   */\n      0xa0\n        /* \"#utility.yul\":7265:7268   */\n      dup4\n        /* \"#utility.yul\":7261:7275   */\n      add\n        /* \"#utility.yul\":7355:7359   */\n      0x00\n        /* \"#utility.yul\":7348:7353   */\n      dup4\n        /* \"#utility.yul\":7344:7360   */\n      add\n        /* \"#utility.yul\":7338:7361   */\n      mload\n        /* \"#utility.yul\":7374:7437   */\n      tag_276\n        /* \"#utility.yul\":7431:7435   */\n      0x00\n        /* \"#utility.yul\":7426:7429   */\n      dup7\n        /* \"#utility.yul\":7422:7436   */\n      add\n        /* \"#utility.yul\":7408:7420   */\n      dup3\n        /* \"#utility.yul\":7374:7437   */\n      tag_152\n      jump\t// in\n    tag_276:\n        /* \"#utility.yul\":7285:7447   */\n      pop\n        /* \"#utility.yul\":7532:7536   */\n      0x20\n        /* \"#utility.yul\":7525:7530   */\n      dup4\n        /* \"#utility.yul\":7521:7537   */\n      add\n        /* \"#utility.yul\":7515:7538   */\n      mload\n        /* \"#utility.yul\":7585:7588   */\n      dup5\n        /* \"#utility.yul\":7579:7583   */\n      dup3\n        /* \"#utility.yul\":7575:7589   */\n      sub\n        /* \"#utility.yul\":7568:7572   */\n      0x20\n        /* \"#utility.yul\":7563:7566   */\n      dup7\n        /* \"#utility.yul\":7559:7573   */\n      add\n        /* \"#utility.yul\":7552:7590   */\n      mstore\n        /* \"#utility.yul\":7611:7684   */\n      tag_277\n        /* \"#utility.yul\":7679:7683   */\n      dup3\n        /* \"#utility.yul\":7665:7677   */\n      dup3\n        /* \"#utility.yul\":7611:7684   */\n      tag_154\n      jump\t// in\n    tag_277:\n        /* \"#utility.yul\":7603:7684   */\n      swap2\n      pop\n        /* \"#utility.yul\":7457:7695   */\n      pop\n        /* \"#utility.yul\":7785:7789   */\n      0x40\n        /* \"#utility.yul\":7778:7783   */\n      dup4\n        /* \"#utility.yul\":7774:7790   */\n      add\n        /* \"#utility.yul\":7768:7791   */\n      mload\n        /* \"#utility.yul\":7804:7867   */\n      tag_278\n        /* \"#utility.yul\":7861:7865   */\n      0x40\n        /* \"#utility.yul\":7856:7859   */\n      dup7\n        /* \"#utility.yul\":7852:7866   */\n      add\n        /* \"#utility.yul\":7838:7850   */\n      dup3\n        /* \"#utility.yul\":7804:7867   */\n      tag_155\n      jump\t// in\n    tag_278:\n        /* \"#utility.yul\":7705:7877   */\n      pop\n        /* \"#utility.yul\":7960:7964   */\n      0x60\n        /* \"#utility.yul\":7953:7958   */\n      dup4\n        /* \"#utility.yul\":7949:7965   */\n      add\n        /* \"#utility.yul\":7943:7966   */\n      mload\n        /* \"#utility.yul\":7979:8040   */\n      tag_279\n        /* \"#utility.yul\":8034:8038   */\n      0x60\n        /* \"#utility.yul\":8029:8032   */\n      dup7\n        /* \"#utility.yul\":8025:8039   */\n      add\n        /* \"#utility.yul\":8011:8023   */\n      dup3\n        /* \"#utility.yul\":7979:8040   */\n      tag_156\n      jump\t// in\n    tag_279:\n        /* \"#utility.yul\":7887:8050   */\n      pop\n        /* \"#utility.yul\":8137:8141   */\n      0x80\n        /* \"#utility.yul\":8130:8135   */\n      dup4\n        /* \"#utility.yul\":8126:8142   */\n      add\n        /* \"#utility.yul\":8120:8143   */\n      mload\n        /* \"#utility.yul\":8156:8219   */\n      tag_280\n        /* \"#utility.yul\":8213:8217   */\n      0x80\n        /* \"#utility.yul\":8208:8211   */\n      dup7\n        /* \"#utility.yul\":8204:8218   */\n      add\n        /* \"#utility.yul\":8190:8202   */\n      dup3\n        /* \"#utility.yul\":8156:8219   */\n      tag_152\n      jump\t// in\n    tag_280:\n        /* \"#utility.yul\":8060:8229   */\n      pop\n        /* \"#utility.yul\":8246:8250   */\n      dup1\n        /* \"#utility.yul\":8239:8250   */\n      swap2\n      pop\n        /* \"#utility.yul\":7239:8256   */\n      pop\n        /* \"#utility.yul\":7133:8256   */\n      swap3\n      swap2\n      pop\n      pop\n      jump\t// out\n        /* \"#utility.yul\":8262:8502   */\n    tag_162:\n        /* \"#utility.yul\":8373:8383   */\n      0x00\n        /* \"#utility.yul\":8408:8496   */\n      tag_282\n        /* \"#utility.yul\":8492:8495   */\n      dup4\n        /* \"#utility.yul\":8484:8490   */\n      dup4\n        /* \"#utility.yul\":8408:8496   */\n      tag_161\n      jump\t// in\n    tag_282:\n        /* \"#utility.yul\":8394:8496   */\n      swap1\n      pop\n        /* \"#utility.yul\":8262:8502   */\n      swap3\n      swap2\n      pop\n      pop\n      jump\t// out\n        /* \"#utility.yul\":8508:8642   */\n    tag_163:\n        /* \"#utility.yul\":8599:8603   */\n      0x00\n        /* \"#utility.yul\":8631:8635   */\n      0x20\n        /* \"#utility.yul\":8626:8629   */\n      dup3\n        /* \"#utility.yul\":8622:8636   */\n      add\n        /* \"#utility.yul\":8614:8636   */\n      swap1\n      pop\n        /* \"#utility.yul\":8508:8642   */\n      swap2\n      swap1\n      pop\n      jump\t// out\n        /* \"#utility.yul\":8704:9783   */\n    tag_164:\n        /* \"#utility.yul\":8865:8868   */\n      0x00\n        /* \"#utility.yul\":8894:8969   */\n      tag_285\n        /* \"#utility.yul\":8963:8968   */\n      dup3\n        /* \"#utility.yul\":8894:8969   */\n      tag_158\n      jump\t// in\n    tag_285:\n        /* \"#utility.yul\":8985:9092   */\n      tag_286\n        /* \"#utility.yul\":9085:9091   */\n      dup2\n        /* \"#utility.yul\":9080:9083   */\n      dup6\n        /* \"#utility.yul\":8985:9092   */\n      tag_159\n      jump\t// in\n    tag_286:\n        /* \"#utility.yul\":8978:9092   */\n      swap4\n      pop\n        /* \"#utility.yul\":9118:9121   */\n      dup4\n        /* \"#utility.yul\":9163:9167   */\n      0x20\n        /* \"#utility.yul\":9155:9161   */\n      dup3\n        /* \"#utility.yul\":9151:9168   */\n      mul\n        /* \"#utility.yul\":9146:9149   */\n      dup6\n        /* \"#utility.yul\":9142:9169   */\n      add\n        /* \"#utility.yul\":9193:9270   */\n      tag_287\n        /* \"#utility.yul\":9264:9269   */\n      dup6\n        /* \"#utility.yul\":9193:9270   */\n      tag_160\n      jump\t// in\n    tag_287:\n        /* \"#utility.yul\":9293:9300   */\n      dup1\n        /* \"#utility.yul\":9324:9325   */\n      0x00\n        /* \"#utility.yul\":9309:9738   */\n    tag_288:\n        /* \"#utility.yul\":9334:9340   */\n      dup6\n        /* \"#utility.yul\":9331:9332   */\n      dup2\n        /* \"#utility.yul\":9328:9341   */\n      lt\n        /* \"#utility.yul\":9309:9738   */\n      iszero\n      tag_290\n      jumpi\n        /* \"#utility.yul\":9405:9414   */\n      dup5\n        /* \"#utility.yul\":9399:9403   */\n      dup5\n        /* \"#utility.yul\":9395:9415   */\n      sub\n        /* \"#utility.yul\":9390:9393   */\n      dup10\n        /* \"#utility.yul\":9383:9416   */\n      mstore\n        /* \"#utility.yul\":9456:9462   */\n      dup2\n        /* \"#utility.yul\":9450:9463   */\n      mload\n        /* \"#utility.yul\":9484:9590   */\n      tag_291\n        /* \"#utility.yul\":9585:9589   */\n      dup6\n        /* \"#utility.yul\":9570:9583   */\n      dup3\n        /* \"#utility.yul\":9484:9590   */\n      tag_162\n      jump\t// in\n    tag_291:\n        /* \"#utility.yul\":9476:9590   */\n      swap5\n      pop\n        /* \"#utility.yul\":9613:9694   */\n      tag_292\n        /* \"#utility.yul\":9687:9693   */\n      dup4\n        /* \"#utility.yul\":9613:9694   */\n      tag_163\n      jump\t// in\n    tag_292:\n        /* \"#utility.yul\":9603:9694   */\n      swap3\n      pop\n        /* \"#utility.yul\":9723:9727   */\n      0x20\n        /* \"#utility.yul\":9718:9721   */\n      dup11\n        /* \"#utility.yul\":9714:9728   */\n      add\n        /* \"#utility.yul\":9707:9728   */\n      swap10\n      pop\n        /* \"#utility.yul\":9369:9738   */\n      pop\n        /* \"#utility.yul\":9356:9357   */\n      0x01\n        /* \"#utility.yul\":9353:9354   */\n      dup2\n        /* \"#utility.yul\":9349:9358   */\n      add\n        /* \"#utility.yul\":9344:9358   */\n      swap1\n      pop\n        /* \"#utility.yul\":9309:9738   */\n      jump(tag_288)\n    tag_290:\n        /* \"#utility.yul\":9313:9327   */\n      pop\n        /* \"#utility.yul\":9754:9758   */\n      dup3\n        /* \"#utility.yul\":9747:9758   */\n      swap8\n      pop\n        /* \"#utility.yul\":9774:9777   */\n      dup8\n        /* \"#utility.yul\":9767:9777   */\n      swap6\n      pop\n        /* \"#utility.yul\":8870:9783   */\n      pop\n      pop\n      pop\n      pop\n      pop\n        /* \"#utility.yul\":8704:9783   */\n      swap3\n      swap2\n      pop\n      pop\n      jump\t// out\n        /* \"#utility.yul\":9789:10246   */\n    tag_29:\n        /* \"#utility.yul\":9974:9978   */\n      0x00\n        /* \"#utility.yul\":10012:10014   */\n      0x20\n        /* \"#utility.yul\":10001:10010   */\n      dup3\n        /* \"#utility.yul\":9997:10015   */\n      add\n        /* \"#utility.yul\":9989:10015   */\n      swap1\n      pop\n        /* \"#utility.yul\":10061:10070   */\n      dup2\n        /* \"#utility.yul\":10055:10059   */\n      dup2\n        /* \"#utility.yul\":10051:10071   */\n      sub\n        /* \"#utility.yul\":10047:10048   */\n      0x00\n        /* \"#utility.yul\":10036:10045   */\n      dup4\n        /* \"#utility.yul\":10032:10049   */\n      add\n        /* \"#utility.yul\":10025:10072   */\n      mstore\n        /* \"#utility.yul\":10089:10239   */\n      tag_294\n        /* \"#utility.yul\":10234:10238   */\n      dup2\n        /* \"#utility.yul\":10225:10231   */\n      dup5\n        /* \"#utility.yul\":10089:10239   */\n      tag_164\n      jump\t// in\n    tag_294:\n        /* \"#utility.yul\":10081:10239   */\n      swap1\n      pop\n        /* \"#utility.yul\":9789:10246   */\n      swap3\n      swap2\n      pop\n      pop\n      jump\t// out\n        /* \"#utility.yul\":10252:10372   */\n    tag_165:\n        /* \"#utility.yul\":10324:10347   */\n      tag_296\n        /* \"#utility.yul\":10341:10346   */\n      dup2\n        /* \"#utility.yul\":10324:10347   */\n      tag_150\n      jump\t// in\n    tag_296:\n        /* \"#utility.yul\":10317:10322   */\n      dup2\n        /* \"#utility.yul\":10314:10348   */\n      eq\n        /* \"#utility.yul\":10304:10366   */\n      tag_297\n      jumpi\n        /* \"#utility.yul\":10362:10363   */\n      0x00\n        /* \"#utility.yul\":10359:10360   */\n      dup1\n        /* \"#utility.yul\":10352:10364   */\n      revert\n        /* \"#utility.yul\":10304:10366   */\n    tag_297:\n        /* \"#utility.yul\":10252:10372   */\n      pop\n      jump\t// out\n        /* \"#utility.yul\":10378:10515   */\n    tag_166:\n        /* \"#utility.yul\":10423:10428   */\n      0x00\n        /* \"#utility.yul\":10461:10467   */\n      dup2\n        /* \"#utility.yul\":10448:10468   */\n      calldataload\n        /* \"#utility.yul\":10439:10468   */\n      swap1\n      pop\n        /* \"#utility.yul\":10477:10509   */\n      tag_299\n        /* \"#utility.yul\":10503:10508   */\n      dup2\n        /* \"#utility.yul\":10477:10509   */\n      tag_165\n      jump\t// in\n    tag_299:\n        /* \"#utility.yul\":10378:10515   */\n      swap3\n      swap2\n      pop\n      pop\n      jump\t// out\n        /* \"#utility.yul\":10521:10848   */\n    tag_35:\n        /* \"#utility.yul\":10579:10585   */\n      0x00\n        /* \"#utility.yul\":10628:10630   */\n      0x20\n        /* \"#utility.yul\":10616:10625   */\n      dup3\n        /* \"#utility.yul\":10607:10614   */\n      dup5\n        /* \"#utility.yul\":10603:10626   */\n      sub\n        /* \"#utility.yul\":10599:10631   */\n      slt\n        /* \"#utility.yul\":10596:10715   */\n      iszero\n      tag_301\n      jumpi\n        /* \"#utility.yul\":10634:10713   */\n      tag_302\n      tag_134\n      jump\t// in\n    tag_302:\n        /* \"#utility.yul\":10596:10715   */\n    tag_301:\n        /* \"#utility.yul\":10754:10755   */\n      0x00\n        /* \"#utility.yul\":10779:10831   */\n      tag_303\n        /* \"#utility.yul\":10823:10830   */\n      dup5\n        /* \"#utility.yul\":10814:10820   */\n      dup3\n        /* \"#utility.yul\":10803:10812   */\n      dup6\n        /* \"#utility.yul\":10799:10821   */\n      add\n        /* \"#utility.yul\":10779:10831   */\n      tag_166\n      jump\t// in\n    tag_303:\n        /* \"#utility.yul\":10769:10831   */\n      swap2\n      pop\n        /* \"#utility.yul\":10725:10841   */\n      pop\n        /* \"#utility.yul\":10521:10848   */\n      swap3\n      swap2\n      pop\n      pop\n      jump\t// out\n        /* \"#utility.yul\":10854:11072   */\n    tag_43:\n        /* \"#utility.yul\":10945:10949   */\n      0x00\n        /* \"#utility.yul\":10983:10985   */\n      0x20\n        /* \"#utility.yul\":10972:10981   */\n      dup3\n        /* \"#utility.yul\":10968:10986   */\n      add\n        /* \"#utility.yul\":10960:10986   */\n      swap1\n      pop\n        /* \"#utility.yul\":10996:11065   */\n      tag_305\n        /* \"#utility.yul\":11062:11063   */\n      0x00\n        /* \"#utility.yul\":11051:11060   */\n      dup4\n        /* \"#utility.yul\":11047:11064   */\n      add\n        /* \"#utility.yul\":11038:11044   */\n      dup5\n        /* \"#utility.yul\":10996:11065   */\n      tag_151\n      jump\t// in\n    tag_305:\n        /* \"#utility.yul\":10854:11072   */\n      swap3\n      swap2\n      pop\n      pop\n      jump\t// out\n        /* \"#utility.yul\":11078:11195   */\n    tag_167:\n        /* \"#utility.yul\":11187:11188   */\n      0x00\n        /* \"#utility.yul\":11184:11185   */\n      dup1\n        /* \"#utility.yul\":11177:11189   */\n      revert\n        /* \"#utility.yul\":11201:11318   */\n    tag_168:\n        /* \"#utility.yul\":11310:11311   */\n      0x00\n        /* \"#utility.yul\":11307:11308   */\n      dup1\n        /* \"#utility.yul\":11300:11312   */\n      revert\n        /* \"#utility.yul\":11324:11504   */\n    tag_169:\n        /* \"#utility.yul\":11372:11449   */\n      0x4e487b7100000000000000000000000000000000000000000000000000000000\n        /* \"#utility.yul\":11369:11370   */\n      0x00\n        /* \"#utility.yul\":11362:11450   */\n      mstore\n        /* \"#utility.yul\":11469:11473   */\n      0x41\n        /* \"#utility.yul\":11466:11467   */\n      0x04\n        /* \"#utility.yul\":11459:11474   */\n      mstore\n        /* \"#utility.yul\":11493:11497   */\n      0x24\n        /* \"#utility.yul\":11490:11491   */\n      0x00\n        /* \"#utility.yul\":11483:11498   */\n      revert\n        /* \"#utility.yul\":11510:11791   */\n    tag_170:\n        /* \"#utility.yul\":11593:11620   */\n      tag_310\n        /* \"#utility.yul\":11615:11619   */\n      dup3\n        /* \"#utility.yul\":11593:11620   */\n      tag_147\n      jump\t// in\n    tag_310:\n        /* \"#utility.yul\":11585:11591   */\n      dup2\n        /* \"#utility.yul\":11581:11621   */\n      add\n        /* \"#utility.yul\":11723:11729   */\n      dup2\n        /* \"#utility.yul\":11711:11721   */\n      dup2\n        /* \"#utility.yul\":11708:11730   */\n      lt\n        /* \"#utility.yul\":11687:11705   */\n      0xffffffffffffffff\n        /* \"#utility.yul\":11675:11685   */\n      dup3\n        /* \"#utility.yul\":11672:11706   */\n      gt\n        /* \"#utility.yul\":11669:11731   */\n      or\n        /* \"#utility.yul\":11666:11754   */\n      iszero\n      tag_311\n      jumpi\n        /* \"#utility.yul\":11734:11752   */\n      tag_312\n      tag_169\n      jump\t// in\n    tag_312:\n        /* \"#utility.yul\":11666:11754   */\n    tag_311:\n        /* \"#utility.yul\":11774:11784   */\n      dup1\n        /* \"#utility.yul\":11770:11772   */\n      0x40\n        /* \"#utility.yul\":11763:11785   */\n      mstore\n        /* \"#utility.yul\":11553:11791   */\n      pop\n        /* \"#utility.yul\":11510:11791   */\n      pop\n      pop\n      jump\t// out\n        /* \"#utility.yul\":11797:11926   */\n    tag_171:\n        /* \"#utility.yul\":11831:11837   */\n      0x00\n        /* \"#utility.yul\":11858:11878   */\n      tag_314\n      tag_133\n      jump\t// in\n    tag_314:\n        /* \"#utility.yul\":11848:11878   */\n      swap1\n      pop\n        /* \"#utility.yul\":11887:11920   */\n      tag_315\n        /* \"#utility.yul\":11915:11919   */\n      dup3\n        /* \"#utility.yul\":11907:11913   */\n      dup3\n        /* \"#utility.yul\":11887:11920   */\n      tag_170\n      jump\t// in\n    tag_315:\n        /* \"#utility.yul\":11797:11926   */\n      swap2\n      swap1\n      pop\n      jump\t// out\n        /* \"#utility.yul\":11932:12240   */\n    tag_172:\n        /* \"#utility.yul\":11994:11998   */\n      0x00\n        /* \"#utility.yul\":12084:12102   */\n      0xffffffffffffffff\n        /* \"#utility.yul\":12076:12082   */\n      dup3\n        /* \"#utility.yul\":12073:12103   */\n      gt\n        /* \"#utility.yul\":12070:12126   */\n      iszero\n      tag_317\n      jumpi\n        /* \"#utility.yul\":12106:12124   */\n      tag_318\n      tag_169\n      jump\t// in\n    tag_318:\n        /* \"#utility.yul\":12070:12126   */\n    tag_317:\n        /* \"#utility.yul\":12144:12173   */\n      tag_319\n        /* \"#utility.yul\":12166:12172   */\n      dup3\n        /* \"#utility.yul\":12144:12173   */\n      tag_147\n      jump\t// in\n    tag_319:\n        /* \"#utility.yul\":12136:12173   */\n      swap1\n      pop\n        /* \"#utility.yul\":12228:12232   */\n      0x20\n        /* \"#utility.yul\":12222:12226   */\n      dup2\n        /* \"#utility.yul\":12218:12233   */\n      add\n        /* \"#utility.yul\":12210:12233   */\n      swap1\n      pop\n        /* \"#utility.yul\":11932:12240   */\n      swap2\n      swap1\n      pop\n      jump\t// out\n        /* \"#utility.yul\":12246:12394   */\n    tag_173:\n        /* \"#utility.yul\":12344:12350   */\n      dup3\n        /* \"#utility.yul\":12339:12342   */\n      dup2\n        /* \"#utility.yul\":12334:12337   */\n      dup4\n        /* \"#utility.yul\":12321:12351   */\n      calldatacopy\n        /* \"#utility.yul\":12385:12386   */\n      0x00\n        /* \"#utility.yul\":12376:12382   */\n      dup4\n        /* \"#utility.yul\":12371:12374   */\n      dup4\n        /* \"#utility.yul\":12367:12383   */\n      add\n        /* \"#utility.yul\":12360:12387   */\n      mstore\n        /* \"#utility.yul\":12246:12394   */\n      pop\n      pop\n      pop\n      jump\t// out\n        /* \"#utility.yul\":12400:12825   */\n    tag_174:\n        /* \"#utility.yul\":12478:12483   */\n      0x00\n        /* \"#utility.yul\":12503:12569   */\n      tag_322\n        /* \"#utility.yul\":12519:12568   */\n      tag_323\n        /* \"#utility.yul\":12561:12567   */\n      dup5\n        /* \"#utility.yul\":12519:12568   */\n      tag_172\n      jump\t// in\n    tag_323:\n        /* \"#utility.yul\":12503:12569   */\n      tag_171\n      jump\t// in\n    tag_322:\n        /* \"#utility.yul\":12494:12569   */\n      swap1\n      pop\n        /* \"#utility.yul\":12592:12598   */\n      dup3\n        /* \"#utility.yul\":12585:12590   */\n      dup2\n        /* \"#utility.yul\":12578:12599   */\n      mstore\n        /* \"#utility.yul\":12630:12634   */\n      0x20\n        /* \"#utility.yul\":12623:12628   */\n      dup2\n        /* \"#utility.yul\":12619:12635   */\n      add\n        /* \"#utility.yul\":12668:12671   */\n      dup5\n        /* \"#utility.yul\":12659:12665   */\n      dup5\n        /* \"#utility.yul\":12654:12657   */\n      dup5\n        /* \"#utility.yul\":12650:12666   */\n      add\n        /* \"#utility.yul\":12647:12672   */\n      gt\n        /* \"#utility.yul\":12644:12756   */\n      iszero\n      tag_324\n      jumpi\n        /* \"#utility.yul\":12675:12754   */\n      tag_325\n      tag_168\n      jump\t// in\n    tag_325:\n        /* \"#utility.yul\":12644:12756   */\n    tag_324:\n        /* \"#utility.yul\":12765:12819   */\n      tag_326\n        /* \"#utility.yul\":12812:12818   */\n      dup5\n        /* \"#utility.yul\":12807:12810   */\n      dup3\n        /* \"#utility.yul\":12802:12805   */\n      dup6\n        /* \"#utility.yul\":12765:12819   */\n      tag_173\n      jump\t// in\n    tag_326:\n        /* \"#utility.yul\":12484:12825   */\n      pop\n        /* \"#utility.yul\":12400:12825   */\n      swap4\n      swap3\n      pop\n      pop\n      pop\n      jump\t// out\n        /* \"#utility.yul\":12845:13185   */\n    tag_175:\n        /* \"#utility.yul\":12901:12906   */\n      0x00\n        /* \"#utility.yul\":12950:12953   */\n      dup3\n        /* \"#utility.yul\":12943:12947   */\n      0x1f\n        /* \"#utility.yul\":12935:12941   */\n      dup4\n        /* \"#utility.yul\":12931:12948   */\n      add\n        /* \"#utility.yul\":12927:12954   */\n      slt\n        /* \"#utility.yul\":12917:13039   */\n      tag_328\n      jumpi\n        /* \"#utility.yul\":12958:13037   */\n      tag_329\n      tag_167\n      jump\t// in\n    tag_329:\n        /* \"#utility.yul\":12917:13039   */\n    tag_328:\n        /* \"#utility.yul\":13075:13081   */\n      dup2\n        /* \"#utility.yul\":13062:13082   */\n      calldataload\n        /* \"#utility.yul\":13100:13179   */\n      tag_330\n        /* \"#utility.yul\":13175:13178   */\n      dup5\n        /* \"#utility.yul\":13167:13173   */\n      dup3\n        /* \"#utility.yul\":13160:13164   */\n      0x20\n        /* \"#utility.yul\":13152:13158   */\n      dup7\n        /* \"#utility.yul\":13148:13165   */\n      add\n        /* \"#utility.yul\":13100:13179   */\n      tag_174\n      jump\t// in\n    tag_330:\n        /* \"#utility.yul\":13091:13179   */\n      swap2\n      pop\n        /* \"#utility.yul\":12907:13185   */\n      pop\n        /* \"#utility.yul\":12845:13185   */\n      swap3\n      swap2\n      pop\n      pop\n      jump\t// out\n        /* \"#utility.yul\":13191:13700   */\n    tag_46:\n        /* \"#utility.yul\":13260:13266   */\n      0x00\n        /* \"#utility.yul\":13309:13311   */\n      0x20\n        /* \"#utility.yul\":13297:13306   */\n      dup3\n        /* \"#utility.yul\":13288:13295   */\n      dup5\n        /* \"#utility.yul\":13284:13307   */\n      sub\n        /* \"#utility.yul\":13280:13312   */\n      slt\n        /* \"#utility.yul\":13277:13396   */\n      iszero\n      tag_332\n      jumpi\n        /* \"#utility.yul\":13315:13394   */\n      tag_333\n      tag_134\n      jump\t// in\n    tag_333:\n        /* \"#utility.yul\":13277:13396   */\n    tag_332:\n        /* \"#utility.yul\":13463:13464   */\n      0x00\n        /* \"#utility.yul\":13452:13461   */\n      dup3\n        /* \"#utility.yul\":13448:13465   */\n      add\n        /* \"#utility.yul\":13435:13466   */\n      calldataload\n        /* \"#utility.yul\":13493:13511   */\n      0xffffffffffffffff\n        /* \"#utility.yul\":13485:13491   */\n      dup2\n        /* \"#utility.yul\":13482:13512   */\n      gt\n        /* \"#utility.yul\":13479:13596   */\n      iszero\n      tag_334\n      jumpi\n        /* \"#utility.yul\":13515:13594   */\n      tag_335\n      tag_135\n      jump\t// in\n    tag_335:\n        /* \"#utility.yul\":13479:13596   */\n    tag_334:\n        /* \"#utility.yul\":13620:13683   */\n      tag_336\n        /* \"#utility.yul\":13675:13682   */\n      dup5\n        /* \"#utility.yul\":13666:13672   */\n      dup3\n        /* \"#utility.yul\":13655:13664   */\n      dup6\n        /* \"#utility.yul\":13651:13673   */\n      add\n        /* \"#utility.yul\":13620:13683   */\n      tag_175\n      jump\t// in\n    tag_336:\n        /* \"#utility.yul\":13610:13683   */\n      swap2\n      pop\n        /* \"#utility.yul\":13406:13693   */\n      pop\n        /* \"#utility.yul\":13191:13700   */\n      swap3\n      swap2\n      pop\n      pop\n      jump\t// out\n        /* \"#utility.yul\":13706:13928   */\n    tag_51:\n        /* \"#utility.yul\":13799:13803   */\n      0x00\n        /* \"#utility.yul\":13837:13839   */\n      0x20\n        /* \"#utility.yul\":13826:13835   */\n      dup3\n        /* \"#utility.yul\":13822:13840   */\n      add\n        /* \"#utility.yul\":13814:13840   */\n      swap1\n      pop\n        /* \"#utility.yul\":13850:13921   */\n      tag_338\n        /* \"#utility.yul\":13918:13919   */\n      0x00\n        /* \"#utility.yul\":13907:13916   */\n      dup4\n        /* \"#utility.yul\":13903:13920   */\n      add\n        /* \"#utility.yul\":13894:13900   */\n      dup5\n        /* \"#utility.yul\":13850:13921   */\n      tag_149\n      jump\t// in\n    tag_338:\n        /* \"#utility.yul\":13706:13928   */\n      swap3\n      swap2\n      pop\n      pop\n      jump\t// out\n        /* \"#utility.yul\":13934:14114   */\n    tag_176:\n        /* \"#utility.yul\":13982:14059   */\n      0x4e487b7100000000000000000000000000000000000000000000000000000000\n        /* \"#utility.yul\":13979:13980   */\n      0x00\n        /* \"#utility.yul\":13972:14060   */\n      mstore\n        /* \"#utility.yul\":14079:14083   */\n      0x22\n        /* \"#utility.yul\":14076:14077   */\n      0x04\n        /* \"#utility.yul\":14069:14084   */\n      mstore\n        /* \"#utility.yul\":14103:14107   */\n      0x24\n        /* \"#utility.yul\":14100:14101   */\n      0x00\n        /* \"#utility.yul\":14093:14108   */\n      revert\n        /* \"#utility.yul\":14120:14440   */\n    tag_55:\n        /* \"#utility.yul\":14164:14170   */\n      0x00\n        /* \"#utility.yul\":14201:14202   */\n      0x02\n        /* \"#utility.yul\":14195:14199   */\n      dup3\n        /* \"#utility.yul\":14191:14203   */\n      div\n        /* \"#utility.yul\":14181:14203   */\n      swap1\n      pop\n        /* \"#utility.yul\":14248:14249   */\n      0x01\n        /* \"#utility.yul\":14242:14246   */\n      dup3\n        /* \"#utility.yul\":14238:14250   */\n      and\n        /* \"#utility.yul\":14269:14287   */\n      dup1\n        /* \"#utility.yul\":14259:14340   */\n      tag_341\n      jumpi\n        /* \"#utility.yul\":14325:14329   */\n      0x7f\n        /* \"#utility.yul\":14317:14323   */\n      dup3\n        /* \"#utility.yul\":14313:14330   */\n      and\n        /* \"#utility.yul\":14303:14330   */\n      swap2\n      pop\n        /* \"#utility.yul\":14259:14340   */\n    tag_341:\n        /* \"#utility.yul\":14387:14389   */\n      0x20\n        /* \"#utility.yul\":14379:14385   */\n      dup3\n        /* \"#utility.yul\":14376:14390   */\n      lt\n        /* \"#utility.yul\":14356:14374   */\n      dup2\n        /* \"#utility.yul\":14353:14391   */\n      sub\n        /* \"#utility.yul\":14350:14434   */\n      tag_342\n      jumpi\n        /* \"#utility.yul\":14406:14424   */\n      tag_343\n      tag_176\n      jump\t// in\n    tag_343:\n        /* \"#utility.yul\":14350:14434   */\n    tag_342:\n        /* \"#utility.yul\":14171:14440   */\n      pop\n        /* \"#utility.yul\":14120:14440   */\n      swap2\n      swap1\n      pop\n      jump\t// out\n        /* \"#utility.yul\":14446:14626   */\n    tag_65:\n        /* \"#utility.yul\":14494:14571   */\n      0x4e487b7100000000000000000000000000000000000000000000000000000000\n        /* \"#utility.yul\":14491:14492   */\n      0x00\n        /* \"#utility.yul\":14484:14572   */\n      mstore\n        /* \"#utility.yul\":14591:14595   */\n      0x32\n        /* \"#utility.yul\":14588:14589   */\n      0x04\n        /* \"#utility.yul\":14581:14596   */\n      mstore\n        /* \"#utility.yul\":14615:14619   */\n      0x24\n        /* \"#utility.yul\":14612:14613   */\n      0x00\n        /* \"#utility.yul\":14605:14620   */\n      revert\n        /* \"#utility.yul\":14632:14805   */\n    tag_177:\n        /* \"#utility.yul\":14772:14797   */\n      0x54686973204944206973206e6f74206578697374696e67000000000000000000\n        /* \"#utility.yul\":14768:14769   */\n      0x00\n        /* \"#utility.yul\":14760:14766   */\n      dup3\n        /* \"#utility.yul\":14756:14770   */\n      add\n        /* \"#utility.yul\":14749:14798   */\n      mstore\n        /* \"#utility.yul\":14632:14805   */\n      pop\n      jump\t// out\n        /* \"#utility.yul\":14811:15177   */\n    tag_178:\n        /* \"#utility.yul\":14953:14956   */\n      0x00\n        /* \"#utility.yul\":14974:15041   */\n      tag_347\n        /* \"#utility.yul\":15038:15040   */\n      0x17\n        /* \"#utility.yul\":15033:15036   */\n      dup4\n        /* \"#utility.yul\":14974:15041   */\n      tag_145\n      jump\t// in\n    tag_347:\n        /* \"#utility.yul\":14967:15041   */\n      swap2\n      pop\n        /* \"#utility.yul\":15050:15143   */\n      tag_348\n        /* \"#utility.yul\":15139:15142   */\n      dup3\n        /* \"#utility.yul\":15050:15143   */\n      tag_177\n      jump\t// in\n    tag_348:\n        /* \"#utility.yul\":15168:15170   */\n      0x20\n        /* \"#utility.yul\":15163:15166   */\n      dup3\n        /* \"#utility.yul\":15159:15171   */\n      add\n        /* \"#utility.yul\":15152:15171   */\n      swap1\n      pop\n        /* \"#utility.yul\":14811:15177   */\n      swap2\n      swap1\n      pop\n      jump\t// out\n        /* \"#utility.yul\":15183:15602   */\n    tag_87:\n        /* \"#utility.yul\":15349:15353   */\n      0x00\n        /* \"#utility.yul\":15387:15389   */\n      0x20\n        /* \"#utility.yul\":15376:15385   */\n      dup3\n        /* \"#utility.yul\":15372:15390   */\n      add\n        /* \"#utility.yul\":15364:15390   */\n      swap1\n      pop\n        /* \"#utility.yul\":15436:15445   */\n      dup2\n        /* \"#utility.yul\":15430:15434   */\n      dup2\n        /* \"#utility.yul\":15426:15446   */\n      sub\n        /* \"#utility.yul\":15422:15423   */\n      0x00\n        /* \"#utility.yul\":15411:15420   */\n      dup4\n        /* \"#utility.yul\":15407:15424   */\n      add\n        /* \"#utility.yul\":15400:15447   */\n      mstore\n        /* \"#utility.yul\":15464:15595   */\n      tag_350\n        /* \"#utility.yul\":15590:15594   */\n      dup2\n        /* \"#utility.yul\":15464:15595   */\n      tag_178\n      jump\t// in\n    tag_350:\n        /* \"#utility.yul\":15456:15595   */\n      swap1\n      pop\n        /* \"#utility.yul\":15183:15602   */\n      swap2\n      swap1\n      pop\n      jump\t// out\n        /* \"#utility.yul\":15608:15780   */\n    tag_179:\n        /* \"#utility.yul\":15748:15772   */\n      0x5468697320747765657420686173206e6f206c696b6500000000000000000000\n        /* \"#utility.yul\":15744:15745   */\n      0x00\n        /* \"#utility.yul\":15736:15742   */\n      dup3\n        /* \"#utility.yul\":15732:15746   */\n      add\n        /* \"#utility.yul\":15725:15773   */\n      mstore\n        /* \"#utility.yul\":15608:15780   */\n      pop\n      jump\t// out\n        /* \"#utility.yul\":15786:16152   */\n    tag_180:\n        /* \"#utility.yul\":15928:15931   */\n      0x00\n        /* \"#utility.yul\":15949:16016   */\n      tag_353\n        /* \"#utility.yul\":16013:16015   */\n      0x16\n        /* \"#utility.yul\":16008:16011   */\n      dup4\n        /* \"#utility.yul\":15949:16016   */\n      tag_145\n      jump\t// in\n    tag_353:\n        /* \"#utility.yul\":15942:16016   */\n      swap2\n      pop\n        /* \"#utility.yul\":16025:16118   */\n      tag_354\n        /* \"#utility.yul\":16114:16117   */\n      dup3\n        /* \"#utility.yul\":16025:16118   */\n      tag_179\n      jump\t// in\n    tag_354:\n        /* \"#utility.yul\":16143:16145   */\n      0x20\n        /* \"#utility.yul\":16138:16141   */\n      dup3\n        /* \"#utility.yul\":16134:16146   */\n      add\n        /* \"#utility.yul\":16127:16146   */\n      swap1\n      pop\n        /* \"#utility.yul\":15786:16152   */\n      swap2\n      swap1\n      pop\n      jump\t// out\n        /* \"#utility.yul\":16158:16577   */\n    tag_93:\n        /* \"#utility.yul\":16324:16328   */\n      0x00\n        /* \"#utility.yul\":16362:16364   */\n      0x20\n        /* \"#utility.yul\":16351:16360   */\n      dup3\n        /* \"#utility.yul\":16347:16365   */\n      add\n        /* \"#utility.yul\":16339:16365   */\n      swap1\n      pop\n        /* \"#utility.yul\":16411:16420   */\n      dup2\n        /* \"#utility.yul\":16405:16409   */\n      dup2\n        /* \"#utility.yul\":16401:16421   */\n      sub\n        /* \"#utility.yul\":16397:16398   */\n      0x00\n        /* \"#utility.yul\":16386:16395   */\n      dup4\n        /* \"#utility.yul\":16382:16399   */\n      add\n        /* \"#utility.yul\":16375:16422   */\n      mstore\n        /* \"#utility.yul\":16439:16570   */\n      tag_356\n        /* \"#utility.yul\":16565:16569   */\n      dup2\n        /* \"#utility.yul\":16439:16570   */\n      tag_180\n      jump\t// in\n    tag_356:\n        /* \"#utility.yul\":16431:16570   */\n      swap1\n      pop\n        /* \"#utility.yul\":16158:16577   */\n      swap2\n      swap1\n      pop\n      jump\t// out\n        /* \"#utility.yul\":16583:16763   */\n    tag_181:\n        /* \"#utility.yul\":16631:16708   */\n      0x4e487b7100000000000000000000000000000000000000000000000000000000\n        /* \"#utility.yul\":16628:16629   */\n      0x00\n        /* \"#utility.yul\":16621:16709   */\n      mstore\n        /* \"#utility.yul\":16728:16732   */\n      0x11\n        /* \"#utility.yul\":16725:16726   */\n      0x04\n        /* \"#utility.yul\":16718:16733   */\n      mstore\n        /* \"#utility.yul\":16752:16756   */\n      0x24\n        /* \"#utility.yul\":16749:16750   */\n      0x00\n        /* \"#utility.yul\":16742:16757   */\n      revert\n        /* \"#utility.yul\":16769:16938   */\n    tag_98:\n        /* \"#utility.yul\":16807:16810   */\n      0x00\n        /* \"#utility.yul\":16830:16853   */\n      tag_359\n        /* \"#utility.yul\":16847:16852   */\n      dup3\n        /* \"#utility.yul\":16830:16853   */\n      tag_150\n      jump\t// in\n    tag_359:\n        /* \"#utility.yul\":16821:16853   */\n      swap2\n      pop\n        /* \"#utility.yul\":16875:16879   */\n      0x00\n        /* \"#utility.yul\":16868:16873   */\n      dup3\n        /* \"#utility.yul\":16865:16880   */\n      sub\n        /* \"#utility.yul\":16862:16903   */\n      tag_360\n      jumpi\n        /* \"#utility.yul\":16883:16901   */\n      tag_361\n      tag_181\n      jump\t// in\n    tag_361:\n        /* \"#utility.yul\":16862:16903   */\n    tag_360:\n        /* \"#utility.yul\":16930:16931   */\n      0x01\n        /* \"#utility.yul\":16923:16928   */\n      dup3\n        /* \"#utility.yul\":16919:16932   */\n      sub\n        /* \"#utility.yul\":16912:16932   */\n      swap1\n      pop\n        /* \"#utility.yul\":16769:16938   */\n      swap2\n      swap1\n      pop\n      jump\t// out\n        /* \"#utility.yul\":16944:17004   */\n    tag_182:\n        /* \"#utility.yul\":16972:16975   */\n      0x00\n        /* \"#utility.yul\":16993:16998   */\n      dup2\n        /* \"#utility.yul\":16986:16998   */\n      swap1\n      pop\n        /* \"#utility.yul\":16944:17004   */\n      swap2\n      swap1\n      pop\n      jump\t// out\n        /* \"#utility.yul\":17010:17150   */\n    tag_183:\n        /* \"#utility.yul\":17059:17068   */\n      0x00\n        /* \"#utility.yul\":17092:17144   */\n      tag_364\n        /* \"#utility.yul\":17110:17143   */\n      tag_365\n        /* \"#utility.yul\":17119:17142   */\n      tag_366\n        /* \"#utility.yul\":17136:17141   */\n      dup5\n        /* \"#utility.yul\":17119:17142   */\n      tag_150\n      jump\t// in\n    tag_366:\n        /* \"#utility.yul\":17110:17143   */\n      tag_182\n      jump\t// in\n    tag_365:\n        /* \"#utility.yul\":17092:17144   */\n      tag_140\n      jump\t// in\n    tag_364:\n        /* \"#utility.yul\":17079:17144   */\n      swap1\n      pop\n        /* \"#utility.yul\":17010:17150   */\n      swap2\n      swap1\n      pop\n      jump\t// out\n        /* \"#utility.yul\":17156:17285   */\n    tag_184:\n        /* \"#utility.yul\":17242:17278   */\n      tag_368\n        /* \"#utility.yul\":17272:17277   */\n      dup2\n        /* \"#utility.yul\":17242:17278   */\n      tag_183\n      jump\t// in\n    tag_368:\n        /* \"#utility.yul\":17237:17240   */\n      dup3\n        /* \"#utility.yul\":17230:17279   */\n      mstore\n        /* \"#utility.yul\":17156:17285   */\n      pop\n      pop\n      jump\t// out\n        /* \"#utility.yul\":17291:17842   */\n    tag_103:\n        /* \"#utility.yul\":17467:17471   */\n      0x00\n        /* \"#utility.yul\":17505:17508   */\n      0x80\n        /* \"#utility.yul\":17494:17503   */\n      dup3\n        /* \"#utility.yul\":17490:17509   */\n      add\n        /* \"#utility.yul\":17482:17509   */\n      swap1\n      pop\n        /* \"#utility.yul\":17519:17590   */\n      tag_370\n        /* \"#utility.yul\":17587:17588   */\n      0x00\n        /* \"#utility.yul\":17576:17585   */\n      dup4\n        /* \"#utility.yul\":17572:17589   */\n      add\n        /* \"#utility.yul\":17563:17569   */\n      dup8\n        /* \"#utility.yul\":17519:17590   */\n      tag_149\n      jump\t// in\n    tag_370:\n        /* \"#utility.yul\":17600:17672   */\n      tag_371\n        /* \"#utility.yul\":17668:17670   */\n      0x20\n        /* \"#utility.yul\":17657:17666   */\n      dup4\n        /* \"#utility.yul\":17653:17671   */\n      add\n        /* \"#utility.yul\":17644:17650   */\n      dup7\n        /* \"#utility.yul\":17600:17672   */\n      tag_149\n      jump\t// in\n    tag_371:\n        /* \"#utility.yul\":17682:17754   */\n      tag_372\n        /* \"#utility.yul\":17750:17752   */\n      0x40\n        /* \"#utility.yul\":17739:17748   */\n      dup4\n        /* \"#utility.yul\":17735:17753   */\n      add\n        /* \"#utility.yul\":17726:17732   */\n      dup6\n        /* \"#utility.yul\":17682:17754   */\n      tag_143\n      jump\t// in\n    tag_372:\n        /* \"#utility.yul\":17764:17835   */\n      tag_373\n        /* \"#utility.yul\":17831:17833   */\n      0x60\n        /* \"#utility.yul\":17820:17829   */\n      dup4\n        /* \"#utility.yul\":17816:17834   */\n      add\n        /* \"#utility.yul\":17807:17813   */\n      dup5\n        /* \"#utility.yul\":17764:17835   */\n      tag_184\n      jump\t// in\n    tag_373:\n        /* \"#utility.yul\":17291:17842   */\n      swap6\n      swap5\n      pop\n      pop\n      pop\n      pop\n      pop\n      jump\t// out\n        /* \"#utility.yul\":17848:18020   */\n    tag_185:\n        /* \"#utility.yul\":17988:18012   */\n      0x594f5520415245204e4f5420544845204f574e45522100000000000000000000\n        /* \"#utility.yul\":17984:17985   */\n      0x00\n        /* \"#utility.yul\":17976:17982   */\n      dup3\n        /* \"#utility.yul\":17972:17986   */\n      add\n        /* \"#utility.yul\":17965:18013   */\n      mstore\n        /* \"#utility.yul\":17848:18020   */\n      pop\n      jump\t// out\n        /* \"#utility.yul\":18026:18392   */\n    tag_186:\n        /* \"#utility.yul\":18168:18171   */\n      0x00\n        /* \"#utility.yul\":18189:18256   */\n      tag_376\n        /* \"#utility.yul\":18253:18255   */\n      0x16\n        /* \"#utility.yul\":18248:18251   */\n      dup4\n        /* \"#utility.yul\":18189:18256   */\n      tag_145\n      jump\t// in\n    tag_376:\n        /* \"#utility.yul\":18182:18256   */\n      swap2\n      pop\n        /* \"#utility.yul\":18265:18358   */\n      tag_377\n        /* \"#utility.yul\":18354:18357   */\n      dup3\n        /* \"#utility.yul\":18265:18358   */\n      tag_185\n      jump\t// in\n    tag_377:\n        /* \"#utility.yul\":18383:18385   */\n      0x20\n        /* \"#utility.yul\":18378:18381   */\n      dup3\n        /* \"#utility.yul\":18374:18386   */\n      add\n        /* \"#utility.yul\":18367:18386   */\n      swap1\n      pop\n        /* \"#utility.yul\":18026:18392   */\n      swap2\n      swap1\n      pop\n      jump\t// out\n        /* \"#utility.yul\":18398:18817   */\n    tag_107:\n        /* \"#utility.yul\":18564:18568   */\n      0x00\n        /* \"#utility.yul\":18602:18604   */\n      0x20\n        /* \"#utility.yul\":18591:18600   */\n      dup3\n        /* \"#utility.yul\":18587:18605   */\n      add\n        /* \"#utility.yul\":18579:18605   */\n      swap1\n      pop\n        /* \"#utility.yul\":18651:18660   */\n      dup2\n        /* \"#utility.yul\":18645:18649   */\n      dup2\n        /* \"#utility.yul\":18641:18661   */\n      sub\n        /* \"#utility.yul\":18637:18638   */\n      0x00\n        /* \"#utility.yul\":18626:18635   */\n      dup4\n        /* \"#utility.yul\":18622:18639   */\n      add\n        /* \"#utility.yul\":18615:18662   */\n      mstore\n        /* \"#utility.yul\":18679:18810   */\n      tag_379\n        /* \"#utility.yul\":18805:18809   */\n      dup2\n        /* \"#utility.yul\":18679:18810   */\n      tag_186\n      jump\t// in\n    tag_379:\n        /* \"#utility.yul\":18671:18810   */\n      swap1\n      pop\n        /* \"#utility.yul\":18398:18817   */\n      swap2\n      swap1\n      pop\n      jump\t// out\n        /* \"#utility.yul\":18823:18994   */\n    tag_119:\n        /* \"#utility.yul\":18861:18864   */\n      0x00\n        /* \"#utility.yul\":18884:18907   */\n      tag_381\n        /* \"#utility.yul\":18901:18906   */\n      dup3\n        /* \"#utility.yul\":18884:18907   */\n      tag_150\n      jump\t// in\n    tag_381:\n        /* \"#utility.yul\":18875:18907   */\n      swap2\n      pop\n        /* \"#utility.yul\":18929:18935   */\n      0xffff\n        /* \"#utility.yul\":18922:18927   */\n      dup3\n        /* \"#utility.yul\":18919:18936   */\n      sub\n        /* \"#utility.yul\":18916:18959   */\n      tag_382\n      jumpi\n        /* \"#utility.yul\":18939:18957   */\n      tag_383\n      tag_181\n      jump\t// in\n    tag_383:\n        /* \"#utility.yul\":18916:18959   */\n    tag_382:\n        /* \"#utility.yul\":18986:18987   */\n      0x01\n        /* \"#utility.yul\":18979:18984   */\n      dup3\n        /* \"#utility.yul\":18975:18988   */\n      add\n        /* \"#utility.yul\":18968:18988   */\n      swap1\n      pop\n        /* \"#utility.yul\":18823:18994   */\n      swap2\n      swap1\n      pop\n      jump\t// out\n        /* \"#utility.yul\":19000:19234   */\n    tag_187:\n        /* \"#utility.yul\":19140:19174   */\n      0x546865206c656e677468206f6620796f75722074776565742065786365656473\n        /* \"#utility.yul\":19136:19137   */\n      0x00\n        /* \"#utility.yul\":19128:19134   */\n      dup3\n        /* \"#utility.yul\":19124:19138   */\n      add\n        /* \"#utility.yul\":19117:19175   */\n      mstore\n        /* \"#utility.yul\":19209:19226   */\n      0x20746865206c696d69742062726f210000000000000000000000000000000000\n        /* \"#utility.yul\":19204:19206   */\n      0x20\n        /* \"#utility.yul\":19196:19202   */\n      dup3\n        /* \"#utility.yul\":19192:19207   */\n      add\n        /* \"#utility.yul\":19185:19227   */\n      mstore\n        /* \"#utility.yul\":19000:19234   */\n      pop\n      jump\t// out\n        /* \"#utility.yul\":19240:19606   */\n    tag_188:\n        /* \"#utility.yul\":19382:19385   */\n      0x00\n        /* \"#utility.yul\":19403:19470   */\n      tag_386\n        /* \"#utility.yul\":19467:19469   */\n      0x2f\n        /* \"#utility.yul\":19462:19465   */\n      dup4\n        /* \"#utility.yul\":19403:19470   */\n      tag_145\n      jump\t// in\n    tag_386:\n        /* \"#utility.yul\":19396:19470   */\n      swap2\n      pop\n        /* \"#utility.yul\":19479:19572   */\n      tag_387\n        /* \"#utility.yul\":19568:19571   */\n      dup3\n        /* \"#utility.yul\":19479:19572   */\n      tag_187\n      jump\t// in\n    tag_387:\n        /* \"#utility.yul\":19597:19599   */\n      0x40\n        /* \"#utility.yul\":19592:19595   */\n      dup3\n        /* \"#utility.yul\":19588:19600   */\n      add\n        /* \"#utility.yul\":19581:19600   */\n      swap1\n      pop\n        /* \"#utility.yul\":19240:19606   */\n      swap2\n      swap1\n      pop\n      jump\t// out\n        /* \"#utility.yul\":19612:20031   */\n    tag_127:\n        /* \"#utility.yul\":19778:19782   */\n      0x00\n        /* \"#utility.yul\":19816:19818   */\n      0x20\n        /* \"#utility.yul\":19805:19814   */\n      dup3\n        /* \"#utility.yul\":19801:19819   */\n      add\n        /* \"#utility.yul\":19793:19819   */\n      swap1\n      pop\n        /* \"#utility.yul\":19865:19874   */\n      dup2\n        /* \"#utility.yul\":19859:19863   */\n      dup2\n        /* \"#utility.yul\":19855:19875   */\n      sub\n        /* \"#utility.yul\":19851:19852   */\n      0x00\n        /* \"#utility.yul\":19840:19849   */\n      dup4\n        /* \"#utility.yul\":19836:19853   */\n      add\n        /* \"#utility.yul\":19829:19876   */\n      mstore\n        /* \"#utility.yul\":19893:20024   */\n      tag_389\n        /* \"#utility.yul\":20019:20023   */\n      dup2\n        /* \"#utility.yul\":19893:20024   */\n      tag_188\n      jump\t// in\n    tag_389:\n        /* \"#utility.yul\":19885:20024   */\n      swap1\n      pop\n        /* \"#utility.yul\":19612:20031   */\n      swap2\n      swap1\n      pop\n      jump\t// out\n        /* \"#utility.yul\":20037:20178   */\n    tag_189:\n        /* \"#utility.yul\":20086:20090   */\n      0x00\n        /* \"#utility.yul\":20109:20112   */\n      dup2\n        /* \"#utility.yul\":20101:20112   */\n      swap1\n      pop\n        /* \"#utility.yul\":20132:20135   */\n      dup2\n        /* \"#utility.yul\":20129:20130   */\n      0x00\n        /* \"#utility.yul\":20122:20136   */\n      mstore\n        /* \"#utility.yul\":20166:20170   */\n      0x20\n        /* \"#utility.yul\":20163:20164   */\n      0x00\n        /* \"#utility.yul\":20153:20171   */\n      keccak256\n        /* \"#utility.yul\":20145:20171   */\n      swap1\n      pop\n        /* \"#utility.yul\":20037:20178   */\n      swap2\n      swap1\n      pop\n      jump\t// out\n        /* \"#utility.yul\":20184:20277   */\n    tag_190:\n        /* \"#utility.yul\":20221:20227   */\n      0x00\n        /* \"#utility.yul\":20268:20270   */\n      0x20\n        /* \"#utility.yul\":20263:20265   */\n      0x1f\n        /* \"#utility.yul\":20256:20261   */\n      dup4\n        /* \"#utility.yul\":20252:20266   */\n      add\n        /* \"#utility.yul\":20248:20271   */\n      div\n        /* \"#utility.yul\":20238:20271   */\n      swap1\n      pop\n        /* \"#utility.yul\":20184:20277   */\n      swap2\n      swap1\n      pop\n      jump\t// out\n        /* \"#utility.yul\":20283:20390   */\n    tag_191:\n        /* \"#utility.yul\":20327:20335   */\n      0x00\n        /* \"#utility.yul\":20377:20382   */\n      dup3\n        /* \"#utility.yul\":20371:20375   */\n      dup3\n        /* \"#utility.yul\":20367:20383   */\n      shl\n        /* \"#utility.yul\":20346:20383   */\n      swap1\n      pop\n        /* \"#utility.yul\":20283:20390   */\n      swap3\n      swap2\n      pop\n      pop\n      jump\t// out\n        /* \"#utility.yul\":20396:20789   */\n    tag_192:\n        /* \"#utility.yul\":20465:20471   */\n      0x00\n        /* \"#utility.yul\":20515:20516   */\n      0x08\n        /* \"#utility.yul\":20503:20513   */\n      dup4\n        /* \"#utility.yul\":20499:20517   */\n      mul\n        /* \"#utility.yul\":20538:20635   */\n      tag_394\n        /* \"#utility.yul\":20568:20634   */\n      0xffffffffffffffffffffffffffffffffffffffffffffffffffffffffffffffff\n        /* \"#utility.yul\":20557:20566   */\n      dup3\n        /* \"#utility.yul\":20538:20635   */\n      tag_191\n      jump\t// in\n    tag_394:\n        /* \"#utility.yul\":20656:20695   */\n      tag_395\n        /* \"#utility.yul\":20686:20694   */\n      dup7\n        /* \"#utility.yul\":20675:20684   */\n      dup4\n        /* \"#utility.yul\":20656:20695   */\n      tag_191\n      jump\t// in\n    tag_395:\n        /* \"#utility.yul\":20644:20695   */\n      swap6\n      pop\n        /* \"#utility.yul\":20728:20732   */\n      dup1\n        /* \"#utility.yul\":20724:20733   */\n      not\n        /* \"#utility.yul\":20717:20722   */\n      dup5\n        /* \"#utility.yul\":20713:20734   */\n      and\n        /* \"#utility.yul\":20704:20734   */\n      swap4\n      pop\n        /* \"#utility.yul\":20777:20781   */\n      dup1\n        /* \"#utility.yul\":20767:20775   */\n      dup7\n        /* \"#utility.yul\":20763:20782   */\n      and\n        /* \"#utility.yul\":20756:20761   */\n      dup5\n        /* \"#utility.yul\":20753:20783   */\n      or\n        /* \"#utility.yul\":20743:20783   */\n      swap3\n      pop\n        /* \"#utility.yul\":20472:20789   */\n      pop\n      pop\n        /* \"#utility.yul\":20396:20789   */\n      swap4\n      swap3\n      pop\n      pop\n      pop\n      jump\t// out\n        /* \"#utility.yul\":20795:20937   */\n    tag_193:\n        /* \"#utility.yul\":20845:20854   */\n      0x00\n        /* \"#utility.yul\":20878:20931   */\n      tag_397\n        /* \"#utility.yul\":20896:20930   */\n      tag_398\n        /* \"#utility.yul\":20905:20929   */\n      tag_399\n        /* \"#utility.yul\":20923:20928   */\n      dup5\n        /* \"#utility.yul\":20905:20929   */\n      tag_140\n      jump\t// in\n    tag_399:\n        /* \"#utility.yul\":20896:20930   */\n      tag_182\n      jump\t// in\n    tag_398:\n        /* \"#utility.yul\":20878:20931   */\n      tag_140\n      jump\t// in\n    tag_397:\n        /* \"#utility.yul\":20865:20931   */\n      swap1\n      pop\n        /* \"#utility.yul\":20795:20937   */\n      swap2\n      swap1\n      pop\n      jump\t// out\n        /* \"#utility.yul\":20943:21018   */\n    tag_194:\n        /* \"#utility.yul\":20986:20989   */\n      0x00\n        /* \"#utility.yul\":21007:21012   */\n      dup2\n        /* \"#utility.yul\":21000:21012   */\n      swap1\n      pop\n        /* \"#utility.yul\":20943:21018   */\n      swap2\n      swap1\n      pop\n      jump\t// out\n        /* \"#utility.yul\":21024:21293   */\n    tag_195:\n        /* \"#utility.yul\":21134:21173   */\n      tag_402\n        /* \"#utility.yul\":21165:21172   */\n      dup4\n        /* \"#utility.yul\":21134:21173   */\n      tag_193\n      jump\t// in\n    tag_402:\n        /* \"#utility.yul\":21195:21286   */\n      tag_403\n        /* \"#utility.yul\":21244:21285   */\n      tag_404\n        /* \"#utility.yul\":21268:21284   */\n      dup3\n        /* \"#utility.yul\":21244:21285   */\n      tag_194\n      jump\t// in\n    tag_404:\n        /* \"#utility.yul\":21236:21242   */\n      dup5\n        /* \"#utility.yul\":21229:21233   */\n      dup5\n        /* \"#utility.yul\":21223:21234   */\n      sload\n        /* \"#utility.yul\":21195:21286   */\n      tag_192\n      jump\t// in\n    tag_403:\n        /* \"#utility.yul\":21189:21193   */\n      dup3\n        /* \"#utility.yul\":21182:21287   */\n      sstore\n        /* \"#utility.yul\":21100:21293   */\n      pop\n        /* \"#utility.yul\":21024:21293   */\n      pop\n      pop\n      pop\n      jump\t// out\n        /* \"#utility.yul\":21299:21372   */\n    tag_196:\n        /* \"#utility.yul\":21344:21347   */\n      0x00\n        /* \"#utility.yul\":21299:21372   */\n      swap1\n      jump\t// out\n        /* \"#utility.yul\":21378:21567   */\n    tag_197:\n        /* \"#utility.yul\":21455:21487   */\n      tag_407\n      tag_196\n      jump\t// in\n    tag_407:\n        /* \"#utility.yul\":21496:21561   */\n      tag_408\n        /* \"#utility.yul\":21554:21560   */\n      dup2\n        /* \"#utility.yul\":21546:21552   */\n      dup5\n        /* \"#utility.yul\":21540:21544   */\n      dup5\n        /* \"#utility.yul\":21496:21561   */\n      tag_195\n      jump\t// in\n    tag_408:\n        /* \"#utility.yul\":21431:21567   */\n      pop\n        /* \"#utility.yul\":21378:21567   */\n      pop\n      pop\n      jump\t// out\n        /* \"#utility.yul\":21573:21759   */\n    tag_198:\n        /* \"#utility.yul\":21633:21753   */\n    tag_410:\n        /* \"#utility.yul\":21650:21653   */\n      dup2\n        /* \"#utility.yul\":21643:21648   */\n      dup2\n        /* \"#utility.yul\":21640:21654   */\n      lt\n        /* \"#utility.yul\":21633:21753   */\n      iszero\n      tag_412\n      jumpi\n        /* \"#utility.yul\":21704:21743   */\n      tag_413\n        /* \"#utility.yul\":21741:21742   */\n      0x00\n        /* \"#utility.yul\":21734:21739   */\n      dup3\n        /* \"#utility.yul\":21704:21743   */\n      tag_197\n      jump\t// in\n    tag_413:\n        /* \"#utility.yul\":21677:21678   */\n      0x01\n        /* \"#utility.yul\":21670:21675   */\n      dup2\n        /* \"#utility.yul\":21666:21679   */\n      add\n        /* \"#utility.yul\":21657:21679   */\n      swap1\n      pop\n        /* \"#utility.yul\":21633:21753   */\n      jump(tag_410)\n    tag_412:\n        /* \"#utility.yul\":21573:21759   */\n      pop\n      pop\n      jump\t// out\n        /* \"#utility.yul\":21765:22308   */\n    tag_199:\n        /* \"#utility.yul\":21866:21868   */\n      0x1f\n        /* \"#utility.yul\":21861:21864   */\n      dup3\n        /* \"#utility.yul\":21858:21869   */\n      gt\n        /* \"#utility.yul\":21855:22301   */\n      iszero\n      tag_415\n      jumpi\n        /* \"#utility.yul\":21900:21938   */\n      tag_416\n        /* \"#utility.yul\":21932:21937   */\n      dup2\n        /* \"#utility.yul\":21900:21938   */\n      tag_189\n      jump\t// in\n    tag_416:\n        /* \"#utility.yul\":21984:22013   */\n      tag_417\n        /* \"#utility.yul\":22002:22012   */\n      dup5\n        /* \"#utility.yul\":21984:22013   */\n      tag_190\n      jump\t// in\n    tag_417:\n        /* \"#utility.yul\":21974:21982   */\n      dup2\n        /* \"#utility.yul\":21970:22014   */\n      add\n        /* \"#utility.yul\":22167:22169   */\n      0x20\n        /* \"#utility.yul\":22155:22165   */\n      dup6\n        /* \"#utility.yul\":22152:22170   */\n      lt\n        /* \"#utility.yul\":22149:22198   */\n      iszero\n      tag_418\n      jumpi\n        /* \"#utility.yul\":22188:22196   */\n      dup2\n        /* \"#utility.yul\":22173:22196   */\n      swap1\n      pop\n        /* \"#utility.yul\":22149:22198   */\n    tag_418:\n        /* \"#utility.yul\":22211:22291   */\n      tag_419\n        /* \"#utility.yul\":22267:22289   */\n      tag_420\n        /* \"#utility.yul\":22285:22288   */\n      dup6\n        /* \"#utility.yul\":22267:22289   */\n      tag_190\n      jump\t// in\n    tag_420:\n        /* \"#utility.yul\":22257:22265   */\n      dup4\n        /* \"#utility.yul\":22253:22290   */\n      add\n        /* \"#utility.yul\":22240:22251   */\n      dup3\n        /* \"#utility.yul\":22211:22291   */\n      tag_198\n      jump\t// in\n    tag_419:\n        /* \"#utility.yul\":21870:22301   */\n      pop\n      pop\n        /* \"#utility.yul\":21855:22301   */\n    tag_415:\n        /* \"#utility.yul\":21765:22308   */\n      pop\n      pop\n      pop\n      jump\t// out\n        /* \"#utility.yul\":22314:22431   */\n    tag_200:\n        /* \"#utility.yul\":22368:22376   */\n      0x00\n        /* \"#utility.yul\":22418:22423   */\n      dup3\n        /* \"#utility.yul\":22412:22416   */\n      dup3\n        /* \"#utility.yul\":22408:22424   */\n      shr\n        /* \"#utility.yul\":22387:22424   */\n      swap1\n      pop\n        /* \"#utility.yul\":22314:22431   */\n      swap3\n      swap2\n      pop\n      pop\n      jump\t// out\n        /* \"#utility.yul\":22437:22606   */\n    tag_201:\n        /* \"#utility.yul\":22481:22487   */\n      0x00\n        /* \"#utility.yul\":22514:22565   */\n      tag_423\n        /* \"#utility.yul\":22562:22563   */\n      0x00\n        /* \"#utility.yul\":22558:22564   */\n      not\n        /* \"#utility.yul\":22550:22555   */\n      dup5\n        /* \"#utility.yul\":22547:22548   */\n      0x08\n        /* \"#utility.yul\":22543:22556   */\n      mul\n        /* \"#utility.yul\":22514:22565   */\n      tag_200\n      jump\t// in\n    tag_423:\n        /* \"#utility.yul\":22510:22566   */\n      not\n        /* \"#utility.yul\":22595:22599   */\n      dup1\n        /* \"#utility.yul\":22589:22593   */\n      dup4\n        /* \"#utility.yul\":22585:22600   */\n      and\n        /* \"#utility.yul\":22575:22600   */\n      swap2\n      pop\n        /* \"#utility.yul\":22488:22606   */\n      pop\n        /* \"#utility.yul\":22437:22606   */\n      swap3\n      swap2\n      pop\n      pop\n      jump\t// out\n        /* \"#utility.yul\":22611:22906   */\n    tag_202:\n        /* \"#utility.yul\":22687:22691   */\n      0x00\n        /* \"#utility.yul\":22833:22862   */\n      tag_425\n        /* \"#utility.yul\":22858:22861   */\n      dup4\n        /* \"#utility.yul\":22852:22856   */\n      dup4\n        /* \"#utility.yul\":22833:22862   */\n      tag_201\n      jump\t// in\n    tag_425:\n        /* \"#utility.yul\":22825:22862   */\n      swap2\n      pop\n        /* \"#utility.yul\":22895:22898   */\n      dup3\n        /* \"#utility.yul\":22892:22893   */\n      0x02\n        /* \"#utility.yul\":22888:22899   */\n      mul\n        /* \"#utility.yul\":22882:22886   */\n      dup3\n        /* \"#utility.yul\":22879:22900   */\n      or\n        /* \"#utility.yul\":22871:22900   */\n      swap1\n      pop\n        /* \"#utility.yul\":22611:22906   */\n      swap3\n      swap2\n      pop\n      pop\n      jump\t// out\n        /* \"#utility.yul\":22911:24306   */\n    tag_130:\n        /* \"#utility.yul\":23028:23065   */\n      tag_427\n        /* \"#utility.yul\":23061:23064   */\n      dup3\n        /* \"#utility.yul\":23028:23065   */\n      tag_144\n      jump\t// in\n    tag_427:\n        /* \"#utility.yul\":23130:23148   */\n      0xffffffffffffffff\n        /* \"#utility.yul\":23122:23128   */\n      dup2\n        /* \"#utility.yul\":23119:23149   */\n      gt\n        /* \"#utility.yul\":23116:23172   */\n      iszero\n      tag_428\n      jumpi\n        /* \"#utility.yul\":23152:23170   */\n      tag_429\n      tag_169\n      jump\t// in\n    tag_429:\n        /* \"#utility.yul\":23116:23172   */\n    tag_428:\n        /* \"#utility.yul\":23196:23234   */\n      tag_430\n        /* \"#utility.yul\":23228:23232   */\n      dup3\n        /* \"#utility.yul\":23222:23233   */\n      sload\n        /* \"#utility.yul\":23196:23234   */\n      tag_55\n      jump\t// in\n    tag_430:\n        /* \"#utility.yul\":23281:23348   */\n      tag_431\n        /* \"#utility.yul\":23341:23347   */\n      dup3\n        /* \"#utility.yul\":23333:23339   */\n      dup3\n        /* \"#utility.yul\":23327:23331   */\n      dup6\n        /* \"#utility.yul\":23281:23348   */\n      tag_199\n      jump\t// in\n    tag_431:\n        /* \"#utility.yul\":23375:23376   */\n      0x00\n        /* \"#utility.yul\":23399:23403   */\n      0x20\n        /* \"#utility.yul\":23386:23403   */\n      swap1\n      pop\n        /* \"#utility.yul\":23431:23433   */\n      0x1f\n        /* \"#utility.yul\":23423:23429   */\n      dup4\n        /* \"#utility.yul\":23420:23434   */\n      gt\n        /* \"#utility.yul\":23448:23449   */\n      0x01\n        /* \"#utility.yul\":23443:24061   */\n      dup2\n      eq\n      tag_433\n      jumpi\n        /* \"#utility.yul\":24105:24106   */\n      0x00\n        /* \"#utility.yul\":24122:24128   */\n      dup5\n        /* \"#utility.yul\":24119:24196   */\n      iszero\n      tag_434\n      jumpi\n        /* \"#utility.yul\":24171:24180   */\n      dup3\n        /* \"#utility.yul\":24166:24169   */\n      dup8\n        /* \"#utility.yul\":24162:24181   */\n      add\n        /* \"#utility.yul\":24156:24182   */\n      mload\n        /* \"#utility.yul\":24147:24182   */\n      swap1\n      pop\n        /* \"#utility.yul\":24119:24196   */\n    tag_434:\n        /* \"#utility.yul\":24222:24289   */\n      tag_435\n        /* \"#utility.yul\":24282:24288   */\n      dup6\n        /* \"#utility.yul\":24275:24280   */\n      dup3\n        /* \"#utility.yul\":24222:24289   */\n      tag_202\n      jump\t// in\n    tag_435:\n        /* \"#utility.yul\":24216:24220   */\n      dup7\n        /* \"#utility.yul\":24209:24290   */\n      sstore\n        /* \"#utility.yul\":24078:24300   */\n      pop\n        /* \"#utility.yul\":23413:24300   */\n      jump(tag_432)\n        /* \"#utility.yul\":23443:24061   */\n    tag_433:\n        /* \"#utility.yul\":23495:23499   */\n      0x1f\n        /* \"#utility.yul\":23491:23500   */\n      not\n        /* \"#utility.yul\":23483:23489   */\n      dup5\n        /* \"#utility.yul\":23479:23501   */\n      and\n        /* \"#utility.yul\":23529:23566   */\n      tag_436\n        /* \"#utility.yul\":23561:23565   */\n      dup7\n        /* \"#utility.yul\":23529:23566   */\n      tag_189\n      jump\t// in\n    tag_436:\n        /* \"#utility.yul\":23588:23589   */\n      0x00\n        /* \"#utility.yul\":23602:23810   */\n    tag_437:\n        /* \"#utility.yul\":23616:23623   */\n      dup3\n        /* \"#utility.yul\":23613:23614   */\n      dup2\n        /* \"#utility.yul\":23610:23624   */\n      lt\n        /* \"#utility.yul\":23602:23810   */\n      iszero\n      tag_439\n      jumpi\n        /* \"#utility.yul\":23695:23704   */\n      dup5\n        /* \"#utility.yul\":23690:23693   */\n      dup10\n        /* \"#utility.yul\":23686:23705   */\n      add\n        /* \"#utility.yul\":23680:23706   */\n      mload\n        /* \"#utility.yul\":23672:23678   */\n      dup3\n        /* \"#utility.yul\":23665:23707   */\n      sstore\n        /* \"#utility.yul\":23746:23747   */\n      0x01\n        /* \"#utility.yul\":23738:23744   */\n      dup3\n        /* \"#utility.yul\":23734:23748   */\n      add\n        /* \"#utility.yul\":23724:23748   */\n      swap2\n      pop\n        /* \"#utility.yul\":23793:23795   */\n      0x20\n        /* \"#utility.yul\":23782:23791   */\n      dup6\n        /* \"#utility.yul\":23778:23796   */\n      add\n        /* \"#utility.yul\":23765:23796   */\n      swap5\n      pop\n        /* \"#utility.yul\":23639:23643   */\n      0x20\n        /* \"#utility.yul\":23636:23637   */\n      dup2\n        /* \"#utility.yul\":23632:23644   */\n      add\n        /* \"#utility.yul\":23627:23644   */\n      swap1\n      pop\n        /* \"#utility.yul\":23602:23810   */\n      jump(tag_437)\n    tag_439:\n        /* \"#utility.yul\":23838:23844   */\n      dup7\n        /* \"#utility.yul\":23829:23836   */\n      dup4\n        /* \"#utility.yul\":23826:23845   */\n      lt\n        /* \"#utility.yul\":23823:24002   */\n      iszero\n      tag_440\n      jumpi\n        /* \"#utility.yul\":23896:23905   */\n      dup5\n        /* \"#utility.yul\":23891:23894   */\n      dup10\n        /* \"#utility.yul\":23887:23906   */\n      add\n        /* \"#utility.yul\":23881:23907   */\n      mload\n        /* \"#utility.yul\":23939:23987   */\n      tag_441\n        /* \"#utility.yul\":23981:23985   */\n      0x1f\n        /* \"#utility.yul\":23973:23979   */\n      dup10\n        /* \"#utility.yul\":23969:23986   */\n      and\n        /* \"#utility.yul\":23958:23967   */\n      dup3\n        /* \"#utility.yul\":23939:23987   */\n      tag_201\n      jump\t// in\n    tag_441:\n        /* \"#utility.yul\":23931:23937   */\n      dup4\n        /* \"#utility.yul\":23924:23988   */\n      sstore\n        /* \"#utility.yul\":23846:24002   */\n      pop\n        /* \"#utility.yul\":23823:24002   */\n    tag_440:\n        /* \"#utility.yul\":24048:24049   */\n      0x01\n        /* \"#utility.yul\":24044:24045   */\n      0x02\n        /* \"#utility.yul\":24036:24042   */\n      dup9\n        /* \"#utility.yul\":24032:24046   */\n      mul\n        /* \"#utility.yul\":24028:24050   */\n      add\n        /* \"#utility.yul\":24022:24026   */\n      dup9\n        /* \"#utility.yul\":24015:24051   */\n      sstore\n        /* \"#utility.yul\":23450:24061   */\n      pop\n      pop\n      pop\n        /* \"#utility.yul\":23413:24300   */\n    tag_432:\n      pop\n        /* \"#utility.yul\":23003:24306   */\n      pop\n      pop\n      pop\n        /* \"#utility.yul\":22911:24306   */\n      pop\n      pop\n      jump\t// out\n        /* \"#utility.yul\":24312:24956   */\n    tag_132:\n        /* \"#utility.yul\":24509:24513   */\n      0x00\n        /* \"#utility.yul\":24547:24550   */\n      0x80\n        /* \"#utility.yul\":24536:24545   */\n      dup3\n        /* \"#utility.yul\":24532:24551   */\n      add\n        /* \"#utility.yul\":24524:24551   */\n      swap1\n      pop\n        /* \"#utility.yul\":24561:24632   */\n      tag_443\n        /* \"#utility.yul\":24629:24630   */\n      0x00\n        /* \"#utility.yul\":24618:24627   */\n      dup4\n        /* \"#utility.yul\":24614:24631   */\n      add\n        /* \"#utility.yul\":24605:24611   */\n      dup8\n        /* \"#utility.yul\":24561:24632   */\n      tag_143\n      jump\t// in\n    tag_443:\n        /* \"#utility.yul\":24642:24714   */\n      tag_444\n        /* \"#utility.yul\":24710:24712   */\n      0x20\n        /* \"#utility.yul\":24699:24708   */\n      dup4\n        /* \"#utility.yul\":24695:24713   */\n      add\n        /* \"#utility.yul\":24686:24692   */\n      dup7\n        /* \"#utility.yul\":24642:24714   */\n      tag_149\n      jump\t// in\n    tag_444:\n        /* \"#utility.yul\":24761:24770   */\n      dup2\n        /* \"#utility.yul\":24755:24759   */\n      dup2\n        /* \"#utility.yul\":24751:24771   */\n      sub\n        /* \"#utility.yul\":24746:24748   */\n      0x40\n        /* \"#utility.yul\":24735:24744   */\n      dup4\n        /* \"#utility.yul\":24731:24749   */\n      add\n        /* \"#utility.yul\":24724:24772   */\n      mstore\n        /* \"#utility.yul\":24789:24867   */\n      tag_445\n        /* \"#utility.yul\":24862:24866   */\n      dup2\n        /* \"#utility.yul\":24853:24859   */\n      dup6\n        /* \"#utility.yul\":24789:24867   */\n      tag_148\n      jump\t// in\n    tag_445:\n        /* \"#utility.yul\":24781:24867   */\n      swap1\n      pop\n        /* \"#utility.yul\":24877:24949   */\n      tag_446\n        /* \"#utility.yul\":24945:24947   */\n      0x60\n        /* \"#utility.yul\":24934:24943   */\n      dup4\n        /* \"#utility.yul\":24930:24948   */\n      add\n        /* \"#utility.yul\":24921:24927   */\n      dup5\n        /* \"#utility.yul\":24877:24949   */\n      tag_143\n      jump\t// in\n    tag_446:\n        /* \"#utility.yul\":24312:24956   */\n      swap6\n      swap5\n      pop\n      pop\n      pop\n      pop\n      pop\n      jump\t// out\n\n    auxdata: 0xa264697066735822122005bdd9e6b25cadb3fe1292878be600dddb0d42c23c34eedc416f83deaecbb50f64736f6c634300081a0033\n}\n",
				"bytecode": {
					"linkReferences": {},
					"object": "6080604052610100600160146101000a81548161ffff021916908361ffff160217905550348015602d575f80fd5b503360015f6101000a81548173ffffffffffffffffffffffffffffffffffffffff021916908373ffffffffffffffffffffffffffffffffffffffff160217905550611a548061007b5f395ff3fe608060405234801561000f575f80fd5b5060043610610091575f3560e01c806358bfa4ab1161006457806358bfa4ab1461014557806363378216146101615780636eb107971461017d5780637c9cd2bc1461019b5780638da5cb5b146101b757610091565b806305a1b4a914610095578063112f54e3146100c957806312e7ee1c146100f95780633d9b569f14610129575b5f80fd5b6100af60048036038101906100aa9190610e6d565b6101d5565b6040516100c0959493929190610f55565b60405180910390f35b6100e360048036038101906100de9190610e6d565b6102d3565b6040516100f09190611095565b60405180910390f35b610113600480360381019061010e91906110b5565b610460565b604051610120919061120e565b60405180910390f35b610143600480360381019061013e9190610e6d565b610610565b005b61015f600480360381019061015a9190611258565b6108a1565b005b61017b60048036038101906101769190610e6d565b610950565b005b610185610b30565b6040516101929190611283565b60405180910390f35b6101b560048036038101906101b091906113c8565b610b44565b005b6101bf610d65565b6040516101cc919061140f565b60405180910390f35b5f602052815f5260405f2081815481106101ed575f80fd5b905f5260205f2090600402015f9150915050805f01549080600101805461021390611455565b80601f016020809104026020016040519081016040528092919081815260200182805461023f90611455565b801561028a5780601f106102615761010080835404028352916020019161028a565b820191905f5260205f20905b81548152906001019060200180831161026d57829003601f168201915b505050505090806002015f9054906101000a900473ffffffffffffffffffffffffffffffffffffffff16908060020160149054906101000a900461ffff16908060030154905085565b6102db610d8a565b5f808473ffffffffffffffffffffffffffffffffffffffff1673ffffffffffffffffffffffffffffffffffffffff1681526020019081526020015f20828154811061032957610328611485565b5b905f5260205f2090600402016040518060a00160405290815f820154815260200160018201805461035990611455565b80601f016020809104026020016040519081016040528092919081815260200182805461038590611455565b80156103d05780601f106103a7576101008083540402835291602001916103d0565b820191905f5260205f20905b8154815290600101906020018083116103b357829003601f168201915b50505050508152602001600282015f9054906101000a900473ffffffffffffffffffffffffffffffffffffffff1673ffffffffffffffffffffffffffffffffffffffff1673ffffffffffffffffffffffffffffffffffffffff1681526020016002820160149054906101000a900461ffff1661ffff1661ffff168152602001600382015481525050905092915050565b60605f808373ffffffffffffffffffffffffffffffffffffffff1673ffffffffffffffffffffffffffffffffffffffff1681526020019081526020015f20805480602002602001604051908101604052809291908181526020015f905b82821015610605578382905f5260205f2090600402016040518060a00160405290815f82015481526020016001820180546104f790611455565b80601f016020809104026020016040519081016040528092919081815260200182805461052390611455565b801561056e5780601f106105455761010080835404028352916020019161056e565b820191905f5260205f20905b81548152906001019060200180831161055157829003601f168201915b50505050508152602001600282015f9054906101000a900473ffffffffffffffffffffffffffffffffffffffff1673ffffffffffffffffffffffffffffffffffffffff1673ffffffffffffffffffffffffffffffffffffffff1681526020016002820160149054906101000a900461ffff1661ffff1661ffff168152602001600382015481525050815260200190600101906104bd565b505050509050919050565b805f808473ffffffffffffffffffffffffffffffffffffffff1673ffffffffffffffffffffffffffffffffffffffff1681526020019081526020015f20828154811061065f5761065e611485565b5b905f5260205f2090600402015f0154146106ae576040517f08c379a00000000000000000000000000000000000000000000000000000000081526004016106a5906114fc565b60405180910390fd5b5f805f8473ffffffffffffffffffffffffffffffffffffffff1673ffffffffffffffffffffffffffffffffffffffff1681526020019081526020015f2082815481106106fd576106fc611485565b5b905f5260205f20906004020160020160149054906101000a900461ffff1661ffff161161075f576040517f08c379a000000000000000000000000000000000000000000000000000000000815260040161075690611564565b60405180910390fd5b5f808373ffffffffffffffffffffffffffffffffffffffff1673ffffffffffffffffffffffffffffffffffffffff1681526020019081526020015f2081815481106107ad576107ac611485565b5b905f5260205f209060040201600201601481819054906101000a900461ffff16809291906107da906115af565b91906101000a81548161ffff021916908361ffff160217905550507f58269e846e627224af1e738ac3cbb32d4320094d60695e377df7e94cc6392ca33383835f808773ffffffffffffffffffffffffffffffffffffffff1673ffffffffffffffffffffffffffffffffffffffff1681526020019081526020015f20858154811061086757610866611485565b5b905f5260205f20906004020160020160149054906101000a900461ffff16604051610895949392919061160f565b60405180910390a15050565b60015f9054906101000a900473ffffffffffffffffffffffffffffffffffffffff1673ffffffffffffffffffffffffffffffffffffffff163373ffffffffffffffffffffffffffffffffffffffff1614610930576040517f08c379a00000000000000000000000000000000000000000000000000000000081526004016109279061169c565b60405180910390fd5b80600160146101000a81548161ffff021916908361ffff16021790555050565b805f808473ffffffffffffffffffffffffffffffffffffffff1673ffffffffffffffffffffffffffffffffffffffff1681526020019081526020015f20828154811061099f5761099e611485565b5b905f5260205f2090600402015f0154146109ee576040517f08c379a00000000000000000000000000000000000000000000000000000000081526004016109e5906114fc565b60405180910390fd5b5f808373ffffffffffffffffffffffffffffffffffffffff1673ffffffffffffffffffffffffffffffffffffffff1681526020019081526020015f208181548110610a3c57610a3b611485565b5b905f5260205f209060040201600201601481819054906101000a900461ffff1680929190610a69906116ba565b91906101000a81548161ffff021916908361ffff160217905550507fa3c9ad75b0736706936cfe2646da2d2a6539dfdefbe5267580b75d17501519813383835f808773ffffffffffffffffffffffffffffffffffffffff1673ffffffffffffffffffffffffffffffffffffffff1681526020019081526020015f208581548110610af657610af5611485565b5b905f5260205f20906004020160020160149054906101000a900461ffff16604051610b24949392919061160f565b60405180910390a15050565b600160149054906101000a900461ffff1681565b600160149054906101000a900461ffff1661ffff1681511115610b9c576040517f08c379a0000000000000000000000000000000000000000000000000000000008152600401610b9390611753565b60405180910390fd5b5f6040518060a001604052805f803373ffffffffffffffffffffffffffffffffffffffff1673ffffffffffffffffffffffffffffffffffffffff1681526020019081526020015f208054905081526020018381526020013373ffffffffffffffffffffffffffffffffffffffff1681526020015f61ffff1681526020014281525090505f803373ffffffffffffffffffffffffffffffffffffffff1673ffffffffffffffffffffffffffffffffffffffff1681526020019081526020015f2081908060018154018082558091505060019003905f5260205f2090600402015f909190919091505f820151815f01556020820151816001019081610c9f9190611905565b506040820151816002015f6101000a81548173ffffffffffffffffffffffffffffffffffffffff021916908373ffffffffffffffffffffffffffffffffffffffff16021790555060608201518160020160146101000a81548161ffff021916908361ffff1602179055506080820151816003015550507f6e5546a74a8ef6731872256d3bbbf86208675b875b179abed63f4ed747a30cfb815f0151826040015183602001518460800151604051610d5994939291906119d4565b60405180910390a15050565b60015f9054906101000a900473ffffffffffffffffffffffffffffffffffffffff1681565b6040518060a001604052805f8152602001606081526020015f73ffffffffffffffffffffffffffffffffffffffff1681526020015f61ffff1681526020015f81525090565b5f604051905090565b5f80fd5b5f80fd5b5f73ffffffffffffffffffffffffffffffffffffffff82169050919050565b5f610e0982610de0565b9050919050565b610e1981610dff565b8114610e23575f80fd5b50565b5f81359050610e3481610e10565b92915050565b5f819050919050565b610e4c81610e3a565b8114610e56575f80fd5b50565b5f81359050610e6781610e43565b92915050565b5f8060408385031215610e8357610e82610dd8565b5b5f610e9085828601610e26565b9250506020610ea185828601610e59565b9150509250929050565b610eb481610e3a565b82525050565b5f81519050919050565b5f82825260208201905092915050565b8281835e5f83830152505050565b5f601f19601f8301169050919050565b5f610efc82610eba565b610f068185610ec4565b9350610f16818560208601610ed4565b610f1f81610ee2565b840191505092915050565b610f3381610dff565b82525050565b5f61ffff82169050919050565b610f4f81610f39565b82525050565b5f60a082019050610f685f830188610eab565b8181036020830152610f7a8187610ef2565b9050610f896040830186610f2a565b610f966060830185610f46565b610fa36080830184610eab565b9695505050505050565b610fb681610e3a565b82525050565b5f82825260208201905092915050565b5f610fd682610eba565b610fe08185610fbc565b9350610ff0818560208601610ed4565b610ff981610ee2565b840191505092915050565b61100d81610dff565b82525050565b61101c81610f39565b82525050565b5f60a083015f8301516110375f860182610fad565b506020830151848203602086015261104f8282610fcc565b91505060408301516110646040860182611004565b5060608301516110776060860182611013565b50608083015161108a6080860182610fad565b508091505092915050565b5f6020820190508181035f8301526110ad8184611022565b905092915050565b5f602082840312156110ca576110c9610dd8565b5b5f6110d784828501610e26565b91505092915050565b5f81519050919050565b5f82825260208201905092915050565b5f819050602082019050919050565b5f60a083015f83015161111e5f860182610fad565b50602083015184820360208601526111368282610fcc565b915050604083015161114b6040860182611004565b50606083015161115e6060860182611013565b5060808301516111716080860182610fad565b508091505092915050565b5f6111878383611109565b905092915050565b5f602082019050919050565b5f6111a5826110e0565b6111af81856110ea565b9350836020820285016111c1856110fa565b805f5b858110156111fc57848403895281516111dd858261117c565b94506111e88361118f565b925060208a019950506001810190506111c4565b50829750879550505050505092915050565b5f6020820190508181035f830152611226818461119b565b905092915050565b61123781610f39565b8114611241575f80fd5b50565b5f813590506112528161122e565b92915050565b5f6020828403121561126d5761126c610dd8565b5b5f61127a84828501611244565b91505092915050565b5f6020820190506112965f830184610f46565b92915050565b5f80fd5b5f80fd5b7f4e487b71000000000000000000000000000000000000000000000000000000005f52604160045260245ffd5b6112da82610ee2565b810181811067ffffffffffffffff821117156112f9576112f86112a4565b5b80604052505050565b5f61130b610dcf565b905061131782826112d1565b919050565b5f67ffffffffffffffff821115611336576113356112a4565b5b61133f82610ee2565b9050602081019050919050565b828183375f83830152505050565b5f61136c6113678461131c565b611302565b905082815260208101848484011115611388576113876112a0565b5b61139384828561134c565b509392505050565b5f82601f8301126113af576113ae61129c565b5b81356113bf84826020860161135a565b91505092915050565b5f602082840312156113dd576113dc610dd8565b5b5f82013567ffffffffffffffff8111156113fa576113f9610ddc565b5b6114068482850161139b565b91505092915050565b5f6020820190506114225f830184610f2a565b92915050565b7f4e487b71000000000000000000000000000000000000000000000000000000005f52602260045260245ffd5b5f600282049050600182168061146c57607f821691505b60208210810361147f5761147e611428565b5b50919050565b7f4e487b71000000000000000000000000000000000000000000000000000000005f52603260045260245ffd5b7f54686973204944206973206e6f74206578697374696e670000000000000000005f82015250565b5f6114e6601783610ec4565b91506114f1826114b2565b602082019050919050565b5f6020820190508181035f830152611513816114da565b9050919050565b7f5468697320747765657420686173206e6f206c696b65000000000000000000005f82015250565b5f61154e601683610ec4565b91506115598261151a565b602082019050919050565b5f6020820190508181035f83015261157b81611542565b9050919050565b7f4e487b71000000000000000000000000000000000000000000000000000000005f52601160045260245ffd5b5f6115b982610f39565b91505f82036115cb576115ca611582565b5b600182039050919050565b5f819050919050565b5f6115f96115f46115ef84610f39565b6115d6565b610e3a565b9050919050565b611609816115df565b82525050565b5f6080820190506116225f830187610f2a565b61162f6020830186610f2a565b61163c6040830185610eab565b6116496060830184611600565b95945050505050565b7f594f5520415245204e4f5420544845204f574e455221000000000000000000005f82015250565b5f611686601683610ec4565b915061169182611652565b602082019050919050565b5f6020820190508181035f8301526116b38161167a565b9050919050565b5f6116c482610f39565b915061ffff82036116d8576116d7611582565b5b600182019050919050565b7f546865206c656e677468206f6620796f757220747765657420657863656564735f8201527f20746865206c696d69742062726f210000000000000000000000000000000000602082015250565b5f61173d602f83610ec4565b9150611748826116e3565b604082019050919050565b5f6020820190508181035f83015261176a81611731565b9050919050565b5f819050815f5260205f209050919050565b5f6020601f8301049050919050565b5f82821b905092915050565b5f600883026117cd7fffffffffffffffffffffffffffffffffffffffffffffffffffffffffffffffff82611792565b6117d78683611792565b95508019841693508086168417925050509392505050565b5f6118096118046117ff84610e3a565b6115d6565b610e3a565b9050919050565b5f819050919050565b611822836117ef565b61183661182e82611810565b84845461179e565b825550505050565b5f90565b61184a61183e565b611855818484611819565b505050565b5b818110156118785761186d5f82611842565b60018101905061185b565b5050565b601f8211156118bd5761188e81611771565b61189784611783565b810160208510156118a6578190505b6118ba6118b285611783565b83018261185a565b50505b505050565b5f82821c905092915050565b5f6118dd5f19846008026118c2565b1980831691505092915050565b5f6118f583836118ce565b9150826002028217905092915050565b61190e82610eba565b67ffffffffffffffff811115611927576119266112a4565b5b6119318254611455565b61193c82828561187c565b5f60209050601f83116001811461196d575f841561195b578287015190505b61196585826118ea565b8655506119cc565b601f19841661197b86611771565b5f5b828110156119a25784890151825560018201915060208501945060208101905061197d565b868310156119bf57848901516119bb601f8916826118ce565b8355505b6001600288020188555050505b505050505050565b5f6080820190506119e75f830187610eab565b6119f46020830186610f2a565b8181036040830152611a068185610ef2565b9050611a156060830184610eab565b9594505050505056fea264697066735822122005bdd9e6b25cadb3fe1292878be600dddb0d42c23c34eedc416f83deaecbb50f64736f6c634300081a0033",
					"opcodes": "PUSH1 0x80 PUSH1 0x40 MSTORE PUSH2 0x100 PUSH1 0x1 PUSH1 0x14 PUSH2 0x100 EXP DUP2 SLOAD DUP2 PUSH2 0xFFFF MUL NOT AND SWAP1 DUP4 PUSH2 0xFFFF AND MUL OR SWAP1 SSTORE POP CALLVALUE DUP1 ISZERO PUSH1 0x2D JUMPI PUSH0 DUP1 REVERT JUMPDEST POP CALLER PUSH1 0x1 PUSH0 PUSH2 0x100 EXP DUP2 SLOAD DUP2 PUSH20 0xFFFFFFFFFFFFFFFFFFFFFFFFFFFFFFFFFFFFFFFF MUL NOT AND SWAP1 DUP4 PUSH20 0xFFFFFFFFFFFFFFFFFFFFFFFFFFFFFFFFFFFFFFFF AND MUL OR SWAP1 SSTORE POP PUSH2 0x1A54 DUP1 PUSH2 0x7B PUSH0 CODECOPY PUSH0 RETURN INVALID PUSH1 0x80 PUSH1 0x40 MSTORE CALLVALUE DUP1 ISZERO PUSH2 0xF JUMPI PUSH0 DUP1 REVERT JUMPDEST POP PUSH1 0x4 CALLDATASIZE LT PUSH2 0x91 JUMPI PUSH0 CALLDATALOAD PUSH1 0xE0 SHR DUP1 PUSH4 0x58BFA4AB GT PUSH2 0x64 JUMPI DUP1 PUSH4 0x58BFA4AB EQ PUSH2 0x145 JUMPI DUP1 PUSH4 0x63378216 EQ PUSH2 0x161 JUMPI DUP1 PUSH4 0x6EB10797 EQ PUSH2 0x17D JUMPI DUP1 PUSH4 0x7C9CD2BC EQ PUSH2 0x19B JUMPI DUP1 PUSH4 0x8DA5CB5B EQ PUSH2 0x1B7 JUMPI PUSH2 0x91 JUMP JUMPDEST DUP1 PUSH4 0x5A1B4A9 EQ PUSH2 0x95 JUMPI DUP1 PUSH4 0x112F54E3 EQ PUSH2 0xC9 JUMPI DUP1 PUSH4 0x12E7EE1C EQ PUSH2 0xF9 JUMPI DUP1 PUSH4 0x3D9B569F EQ PUSH2 0x129 JUMPI JUMPDEST PUSH0 DUP1 REVERT JUMPDEST PUSH2 0xAF PUSH1 0x4 DUP1 CALLDATASIZE SUB DUP2 ADD SWAP1 PUSH2 0xAA SWAP2 SWAP1 PUSH2 0xE6D JUMP JUMPDEST PUSH2 0x1D5 JUMP JUMPDEST PUSH1 0x40 MLOAD PUSH2 0xC0 SWAP6 SWAP5 SWAP4 SWAP3 SWAP2 SWAP1 PUSH2 0xF55 JUMP JUMPDEST PUSH1 0x40 MLOAD DUP1 SWAP2 SUB SWAP1 RETURN JUMPDEST PUSH2 0xE3 PUSH1 0x4 DUP1 CALLDATASIZE SUB DUP2 ADD SWAP1 PUSH2 0xDE SWAP2 SWAP1 PUSH2 0xE6D JUMP JUMPDEST PUSH2 0x2D3 JUMP JUMPDEST PUSH1 0x40 MLOAD PUSH2 0xF0 SWAP2 SWAP1 PUSH2 0x1095 JUMP JUMPDEST PUSH1 0x40 MLOAD DUP1 SWAP2 SUB SWAP1 RETURN JUMPDEST PUSH2 0x113 PUSH1 0x4 DUP1 CALLDATASIZE SUB DUP2 ADD SWAP1 PUSH2 0x10E SWAP2 SWAP1 PUSH2 0x10B5 JUMP JUMPDEST PUSH2 0x460 JUMP JUMPDEST PUSH1 0x40 MLOAD PUSH2 0x120 SWAP2 SWAP1 PUSH2 0x120E JUMP JUMPDEST PUSH1 0x40 MLOAD DUP1 SWAP2 SUB SWAP1 RETURN JUMPDEST PUSH2 0x143 PUSH1 0x4 DUP1 CALLDATASIZE SUB DUP2 ADD SWAP1 PUSH2 0x13E SWAP2 SWAP1 PUSH2 0xE6D JUMP JUMPDEST PUSH2 0x610 JUMP JUMPDEST STOP JUMPDEST PUSH2 0x15F PUSH1 0x4 DUP1 CALLDATASIZE SUB DUP2 ADD SWAP1 PUSH2 0x15A SWAP2 SWAP1 PUSH2 0x1258 JUMP JUMPDEST PUSH2 0x8A1 JUMP JUMPDEST STOP JUMPDEST PUSH2 0x17B PUSH1 0x4 DUP1 CALLDATASIZE SUB DUP2 ADD SWAP1 PUSH2 0x176 SWAP2 SWAP1 PUSH2 0xE6D JUMP JUMPDEST PUSH2 0x950 JUMP JUMPDEST STOP JUMPDEST PUSH2 0x185 PUSH2 0xB30 JUMP JUMPDEST PUSH1 0x40 MLOAD PUSH2 0x192 SWAP2 SWAP1 PUSH2 0x1283 JUMP JUMPDEST PUSH1 0x40 MLOAD DUP1 SWAP2 SUB SWAP1 RETURN JUMPDEST PUSH2 0x1B5 PUSH1 0x4 DUP1 CALLDATASIZE SUB DUP2 ADD SWAP1 PUSH2 0x1B0 SWAP2 SWAP1 PUSH2 0x13C8 JUMP JUMPDEST PUSH2 0xB44 JUMP JUMPDEST STOP JUMPDEST PUSH2 0x1BF PUSH2 0xD65 JUMP JUMPDEST PUSH1 0x40 MLOAD PUSH2 0x1CC SWAP2 SWAP1 PUSH2 0x140F JUMP JUMPDEST PUSH1 0x40 MLOAD DUP1 SWAP2 SUB SWAP1 RETURN JUMPDEST PUSH0 PUSH1 0x20 MSTORE DUP2 PUSH0 MSTORE PUSH1 0x40 PUSH0 KECCAK256 DUP2 DUP2 SLOAD DUP2 LT PUSH2 0x1ED JUMPI PUSH0 DUP1 REVERT JUMPDEST SWAP1 PUSH0 MSTORE PUSH1 0x20 PUSH0 KECCAK256 SWAP1 PUSH1 0x4 MUL ADD PUSH0 SWAP2 POP SWAP2 POP POP DUP1 PUSH0 ADD SLOAD SWAP1 DUP1 PUSH1 0x1 ADD DUP1 SLOAD PUSH2 0x213 SWAP1 PUSH2 0x1455 JUMP JUMPDEST DUP1 PUSH1 0x1F ADD PUSH1 0x20 DUP1 SWAP2 DIV MUL PUSH1 0x20 ADD PUSH1 0x40 MLOAD SWAP1 DUP2 ADD PUSH1 0x40 MSTORE DUP1 SWAP3 SWAP2 SWAP1 DUP2 DUP2 MSTORE PUSH1 0x20 ADD DUP3 DUP1 SLOAD PUSH2 0x23F SWAP1 PUSH2 0x1455 JUMP JUMPDEST DUP1 ISZERO PUSH2 0x28A JUMPI DUP1 PUSH1 0x1F LT PUSH2 0x261 JUMPI PUSH2 0x100 DUP1 DUP4 SLOAD DIV MUL DUP4 MSTORE SWAP2 PUSH1 0x20 ADD SWAP2 PUSH2 0x28A JUMP JUMPDEST DUP3 ADD SWAP2 SWAP1 PUSH0 MSTORE PUSH1 0x20 PUSH0 KECCAK256 SWAP1 JUMPDEST DUP2 SLOAD DUP2 MSTORE SWAP1 PUSH1 0x1 ADD SWAP1 PUSH1 0x20 ADD DUP1 DUP4 GT PUSH2 0x26D JUMPI DUP3 SWAP1 SUB PUSH1 0x1F AND DUP3 ADD SWAP2 JUMPDEST POP POP POP POP POP SWAP1 DUP1 PUSH1 0x2 ADD PUSH0 SWAP1 SLOAD SWAP1 PUSH2 0x100 EXP SWAP1 DIV PUSH20 0xFFFFFFFFFFFFFFFFFFFFFFFFFFFFFFFFFFFFFFFF AND SWAP1 DUP1 PUSH1 0x2 ADD PUSH1 0x14 SWAP1 SLOAD SWAP1 PUSH2 0x100 EXP SWAP1 DIV PUSH2 0xFFFF AND SWAP1 DUP1 PUSH1 0x3 ADD SLOAD SWAP1 POP DUP6 JUMP JUMPDEST PUSH2 0x2DB PUSH2 0xD8A JUMP JUMPDEST PUSH0 DUP1 DUP5 PUSH20 0xFFFFFFFFFFFFFFFFFFFFFFFFFFFFFFFFFFFFFFFF AND PUSH20 0xFFFFFFFFFFFFFFFFFFFFFFFFFFFFFFFFFFFFFFFF AND DUP2 MSTORE PUSH1 0x20 ADD SWAP1 DUP2 MSTORE PUSH1 0x20 ADD PUSH0 KECCAK256 DUP3 DUP2 SLOAD DUP2 LT PUSH2 0x329 JUMPI PUSH2 0x328 PUSH2 0x1485 JUMP JUMPDEST JUMPDEST SWAP1 PUSH0 MSTORE PUSH1 0x20 PUSH0 KECCAK256 SWAP1 PUSH1 0x4 MUL ADD PUSH1 0x40 MLOAD DUP1 PUSH1 0xA0 ADD PUSH1 0x40 MSTORE SWAP1 DUP2 PUSH0 DUP3 ADD SLOAD DUP2 MSTORE PUSH1 0x20 ADD PUSH1 0x1 DUP3 ADD DUP1 SLOAD PUSH2 0x359 SWAP1 PUSH2 0x1455 JUMP JUMPDEST DUP1 PUSH1 0x1F ADD PUSH1 0x20 DUP1 SWAP2 DIV MUL PUSH1 0x20 ADD PUSH1 0x40 MLOAD SWAP1 DUP2 ADD PUSH1 0x40 MSTORE DUP1 SWAP3 SWAP2 SWAP1 DUP2 DUP2 MSTORE PUSH1 0x20 ADD DUP3 DUP1 SLOAD PUSH2 0x385 SWAP1 PUSH2 0x1455 JUMP JUMPDEST DUP1 ISZERO PUSH2 0x3D0 JUMPI DUP1 PUSH1 0x1F LT PUSH2 0x3A7 JUMPI PUSH2 0x100 DUP1 DUP4 SLOAD DIV MUL DUP4 MSTORE SWAP2 PUSH1 0x20 ADD SWAP2 PUSH2 0x3D0 JUMP JUMPDEST DUP3 ADD SWAP2 SWAP1 PUSH0 MSTORE PUSH1 0x20 PUSH0 KECCAK256 SWAP1 JUMPDEST DUP2 SLOAD DUP2 MSTORE SWAP1 PUSH1 0x1 ADD SWAP1 PUSH1 0x20 ADD DUP1 DUP4 GT PUSH2 0x3B3 JUMPI DUP3 SWAP1 SUB PUSH1 0x1F AND DUP3 ADD SWAP2 JUMPDEST POP POP POP POP POP DUP2 MSTORE PUSH1 0x20 ADD PUSH1 0x2 DUP3 ADD PUSH0 SWAP1 SLOAD SWAP1 PUSH2 0x100 EXP SWAP1 DIV PUSH20 0xFFFFFFFFFFFFFFFFFFFFFFFFFFFFFFFFFFFFFFFF AND PUSH20 0xFFFFFFFFFFFFFFFFFFFFFFFFFFFFFFFFFFFFFFFF AND PUSH20 0xFFFFFFFFFFFFFFFFFFFFFFFFFFFFFFFFFFFFFFFF AND DUP2 MSTORE PUSH1 0x20 ADD PUSH1 0x2 DUP3 ADD PUSH1 0x14 SWAP1 SLOAD SWAP1 PUSH2 0x100 EXP SWAP1 DIV PUSH2 0xFFFF AND PUSH2 0xFFFF AND PUSH2 0xFFFF AND DUP2 MSTORE PUSH1 0x20 ADD PUSH1 0x3 DUP3 ADD SLOAD DUP2 MSTORE POP POP SWAP1 POP SWAP3 SWAP2 POP POP JUMP JUMPDEST PUSH1 0x60 PUSH0 DUP1 DUP4 PUSH20 0xFFFFFFFFFFFFFFFFFFFFFFFFFFFFFFFFFFFFFFFF AND PUSH20 0xFFFFFFFFFFFFFFFFFFFFFFFFFFFFFFFFFFFFFFFF AND DUP2 MSTORE PUSH1 0x20 ADD SWAP1 DUP2 MSTORE PUSH1 0x20 ADD PUSH0 KECCAK256 DUP1 SLOAD DUP1 PUSH1 0x20 MUL PUSH1 0x20 ADD PUSH1 0x40 MLOAD SWAP1 DUP2 ADD PUSH1 0x40 MSTORE DUP1 SWAP3 SWAP2 SWAP1 DUP2 DUP2 MSTORE PUSH1 0x20 ADD PUSH0 SWAP1 JUMPDEST DUP3 DUP3 LT ISZERO PUSH2 0x605 JUMPI DUP4 DUP3 SWAP1 PUSH0 MSTORE PUSH1 0x20 PUSH0 KECCAK256 SWAP1 PUSH1 0x4 MUL ADD PUSH1 0x40 MLOAD DUP1 PUSH1 0xA0 ADD PUSH1 0x40 MSTORE SWAP1 DUP2 PUSH0 DUP3 ADD SLOAD DUP2 MSTORE PUSH1 0x20 ADD PUSH1 0x1 DUP3 ADD DUP1 SLOAD PUSH2 0x4F7 SWAP1 PUSH2 0x1455 JUMP JUMPDEST DUP1 PUSH1 0x1F ADD PUSH1 0x20 DUP1 SWAP2 DIV MUL PUSH1 0x20 ADD PUSH1 0x40 MLOAD SWAP1 DUP2 ADD PUSH1 0x40 MSTORE DUP1 SWAP3 SWAP2 SWAP1 DUP2 DUP2 MSTORE PUSH1 0x20 ADD DUP3 DUP1 SLOAD PUSH2 0x523 SWAP1 PUSH2 0x1455 JUMP JUMPDEST DUP1 ISZERO PUSH2 0x56E JUMPI DUP1 PUSH1 0x1F LT PUSH2 0x545 JUMPI PUSH2 0x100 DUP1 DUP4 SLOAD DIV MUL DUP4 MSTORE SWAP2 PUSH1 0x20 ADD SWAP2 PUSH2 0x56E JUMP JUMPDEST DUP3 ADD SWAP2 SWAP1 PUSH0 MSTORE PUSH1 0x20 PUSH0 KECCAK256 SWAP1 JUMPDEST DUP2 SLOAD DUP2 MSTORE SWAP1 PUSH1 0x1 ADD SWAP1 PUSH1 0x20 ADD DUP1 DUP4 GT PUSH2 0x551 JUMPI DUP3 SWAP1 SUB PUSH1 0x1F AND DUP3 ADD SWAP2 JUMPDEST POP POP POP POP POP DUP2 MSTORE PUSH1 0x20 ADD PUSH1 0x2 DUP3 ADD PUSH0 SWAP1 SLOAD SWAP1 PUSH2 0x100 EXP SWAP1 DIV PUSH20 0xFFFFFFFFFFFFFFFFFFFFFFFFFFFFFFFFFFFFFFFF AND PUSH20 0xFFFFFFFFFFFFFFFFFFFFFFFFFFFFFFFFFFFFFFFF AND PUSH20 0xFFFFFFFFFFFFFFFFFFFFFFFFFFFFFFFFFFFFFFFF AND DUP2 MSTORE PUSH1 0x20 ADD PUSH1 0x2 DUP3 ADD PUSH1 0x14 SWAP1 SLOAD SWAP1 PUSH2 0x100 EXP SWAP1 DIV PUSH2 0xFFFF AND PUSH2 0xFFFF AND PUSH2 0xFFFF AND DUP2 MSTORE PUSH1 0x20 ADD PUSH1 0x3 DUP3 ADD SLOAD DUP2 MSTORE POP POP DUP2 MSTORE PUSH1 0x20 ADD SWAP1 PUSH1 0x1 ADD SWAP1 PUSH2 0x4BD JUMP JUMPDEST POP POP POP POP SWAP1 POP SWAP2 SWAP1 POP JUMP JUMPDEST DUP1 PUSH0 DUP1 DUP5 PUSH20 0xFFFFFFFFFFFFFFFFFFFFFFFFFFFFFFFFFFFFFFFF AND PUSH20 0xFFFFFFFFFFFFFFFFFFFFFFFFFFFFFFFFFFFFFFFF AND DUP2 MSTORE PUSH1 0x20 ADD SWAP1 DUP2 MSTORE PUSH1 0x20 ADD PUSH0 KECCAK256 DUP3 DUP2 SLOAD DUP2 LT PUSH2 0x65F JUMPI PUSH2 0x65E PUSH2 0x1485 JUMP JUMPDEST JUMPDEST SWAP1 PUSH0 MSTORE PUSH1 0x20 PUSH0 KECCAK256 SWAP1 PUSH1 0x4 MUL ADD PUSH0 ADD SLOAD EQ PUSH2 0x6AE JUMPI PUSH1 0x40 MLOAD PUSH32 0x8C379A000000000000000000000000000000000000000000000000000000000 DUP2 MSTORE PUSH1 0x4 ADD PUSH2 0x6A5 SWAP1 PUSH2 0x14FC JUMP JUMPDEST PUSH1 0x40 MLOAD DUP1 SWAP2 SUB SWAP1 REVERT JUMPDEST PUSH0 DUP1 PUSH0 DUP5 PUSH20 0xFFFFFFFFFFFFFFFFFFFFFFFFFFFFFFFFFFFFFFFF AND PUSH20 0xFFFFFFFFFFFFFFFFFFFFFFFFFFFFFFFFFFFFFFFF AND DUP2 MSTORE PUSH1 0x20 ADD SWAP1 DUP2 MSTORE PUSH1 0x20 ADD PUSH0 KECCAK256 DUP3 DUP2 SLOAD DUP2 LT PUSH2 0x6FD JUMPI PUSH2 0x6FC PUSH2 0x1485 JUMP JUMPDEST JUMPDEST SWAP1 PUSH0 MSTORE PUSH1 0x20 PUSH0 KECCAK256 SWAP1 PUSH1 0x4 MUL ADD PUSH1 0x2 ADD PUSH1 0x14 SWAP1 SLOAD SWAP1 PUSH2 0x100 EXP SWAP1 DIV PUSH2 0xFFFF AND PUSH2 0xFFFF AND GT PUSH2 0x75F JUMPI PUSH1 0x40 MLOAD PUSH32 0x8C379A000000000000000000000000000000000000000000000000000000000 DUP2 MSTORE PUSH1 0x4 ADD PUSH2 0x756 SWAP1 PUSH2 0x1564 JUMP JUMPDEST PUSH1 0x40 MLOAD DUP1 SWAP2 SUB SWAP1 REVERT JUMPDEST PUSH0 DUP1 DUP4 PUSH20 0xFFFFFFFFFFFFFFFFFFFFFFFFFFFFFFFFFFFFFFFF AND PUSH20 0xFFFFFFFFFFFFFFFFFFFFFFFFFFFFFFFFFFFFFFFF AND DUP2 MSTORE PUSH1 0x20 ADD SWAP1 DUP2 MSTORE PUSH1 0x20 ADD PUSH0 KECCAK256 DUP2 DUP2 SLOAD DUP2 LT PUSH2 0x7AD JUMPI PUSH2 0x7AC PUSH2 0x1485 JUMP JUMPDEST JUMPDEST SWAP1 PUSH0 MSTORE PUSH1 0x20 PUSH0 KECCAK256 SWAP1 PUSH1 0x4 MUL ADD PUSH1 0x2 ADD PUSH1 0x14 DUP2 DUP2 SWAP1 SLOAD SWAP1 PUSH2 0x100 EXP SWAP1 DIV PUSH2 0xFFFF AND DUP1 SWAP3 SWAP2 SWAP1 PUSH2 0x7DA SWAP1 PUSH2 0x15AF JUMP JUMPDEST SWAP2 SWAP1 PUSH2 0x100 EXP DUP2 SLOAD DUP2 PUSH2 0xFFFF MUL NOT AND SWAP1 DUP4 PUSH2 0xFFFF AND MUL OR SWAP1 SSTORE POP POP PUSH32 0x58269E846E627224AF1E738AC3CBB32D4320094D60695E377DF7E94CC6392CA3 CALLER DUP4 DUP4 PUSH0 DUP1 DUP8 PUSH20 0xFFFFFFFFFFFFFFFFFFFFFFFFFFFFFFFFFFFFFFFF AND PUSH20 0xFFFFFFFFFFFFFFFFFFFFFFFFFFFFFFFFFFFFFFFF AND DUP2 MSTORE PUSH1 0x20 ADD SWAP1 DUP2 MSTORE PUSH1 0x20 ADD PUSH0 KECCAK256 DUP6 DUP2 SLOAD DUP2 LT PUSH2 0x867 JUMPI PUSH2 0x866 PUSH2 0x1485 JUMP JUMPDEST JUMPDEST SWAP1 PUSH0 MSTORE PUSH1 0x20 PUSH0 KECCAK256 SWAP1 PUSH1 0x4 MUL ADD PUSH1 0x2 ADD PUSH1 0x14 SWAP1 SLOAD SWAP1 PUSH2 0x100 EXP SWAP1 DIV PUSH2 0xFFFF AND PUSH1 0x40 MLOAD PUSH2 0x895 SWAP5 SWAP4 SWAP3 SWAP2 SWAP1 PUSH2 0x160F JUMP JUMPDEST PUSH1 0x40 MLOAD DUP1 SWAP2 SUB SWAP1 LOG1 POP POP JUMP JUMPDEST PUSH1 0x1 PUSH0 SWAP1 SLOAD SWAP1 PUSH2 0x100 EXP SWAP1 DIV PUSH20 0xFFFFFFFFFFFFFFFFFFFFFFFFFFFFFFFFFFFFFFFF AND PUSH20 0xFFFFFFFFFFFFFFFFFFFFFFFFFFFFFFFFFFFFFFFF AND CALLER PUSH20 0xFFFFFFFFFFFFFFFFFFFFFFFFFFFFFFFFFFFFFFFF AND EQ PUSH2 0x930 JUMPI PUSH1 0x40 MLOAD PUSH32 0x8C379A000000000000000000000000000000000000000000000000000000000 DUP2 MSTORE PUSH1 0x4 ADD PUSH2 0x927 SWAP1 PUSH2 0x169C JUMP JUMPDEST PUSH1 0x40 MLOAD DUP1 SWAP2 SUB SWAP1 REVERT JUMPDEST DUP1 PUSH1 0x1 PUSH1 0x14 PUSH2 0x100 EXP DUP2 SLOAD DUP2 PUSH2 0xFFFF MUL NOT AND SWAP1 DUP4 PUSH2 0xFFFF AND MUL OR SWAP1 SSTORE POP POP JUMP JUMPDEST DUP1 PUSH0 DUP1 DUP5 PUSH20 0xFFFFFFFFFFFFFFFFFFFFFFFFFFFFFFFFFFFFFFFF AND PUSH20 0xFFFFFFFFFFFFFFFFFFFFFFFFFFFFFFFFFFFFFFFF AND DUP2 MSTORE PUSH1 0x20 ADD SWAP1 DUP2 MSTORE PUSH1 0x20 ADD PUSH0 KECCAK256 DUP3 DUP2 SLOAD DUP2 LT PUSH2 0x99F JUMPI PUSH2 0x99E PUSH2 0x1485 JUMP JUMPDEST JUMPDEST SWAP1 PUSH0 MSTORE PUSH1 0x20 PUSH0 KECCAK256 SWAP1 PUSH1 0x4 MUL ADD PUSH0 ADD SLOAD EQ PUSH2 0x9EE JUMPI PUSH1 0x40 MLOAD PUSH32 0x8C379A000000000000000000000000000000000000000000000000000000000 DUP2 MSTORE PUSH1 0x4 ADD PUSH2 0x9E5 SWAP1 PUSH2 0x14FC JUMP JUMPDEST PUSH1 0x40 MLOAD DUP1 SWAP2 SUB SWAP1 REVERT JUMPDEST PUSH0 DUP1 DUP4 PUSH20 0xFFFFFFFFFFFFFFFFFFFFFFFFFFFFFFFFFFFFFFFF AND PUSH20 0xFFFFFFFFFFFFFFFFFFFFFFFFFFFFFFFFFFFFFFFF AND DUP2 MSTORE PUSH1 0x20 ADD SWAP1 DUP2 MSTORE PUSH1 0x20 ADD PUSH0 KECCAK256 DUP2 DUP2 SLOAD DUP2 LT PUSH2 0xA3C JUMPI PUSH2 0xA3B PUSH2 0x1485 JUMP JUMPDEST JUMPDEST SWAP1 PUSH0 MSTORE PUSH1 0x20 PUSH0 KECCAK256 SWAP1 PUSH1 0x4 MUL ADD PUSH1 0x2 ADD PUSH1 0x14 DUP2 DUP2 SWAP1 SLOAD SWAP1 PUSH2 0x100 EXP SWAP1 DIV PUSH2 0xFFFF AND DUP1 SWAP3 SWAP2 SWAP1 PUSH2 0xA69 SWAP1 PUSH2 0x16BA JUMP JUMPDEST SWAP2 SWAP1 PUSH2 0x100 EXP DUP2 SLOAD DUP2 PUSH2 0xFFFF MUL NOT AND SWAP1 DUP4 PUSH2 0xFFFF AND MUL OR SWAP1 SSTORE POP POP PUSH32 0xA3C9AD75B0736706936CFE2646DA2D2A6539DFDEFBE5267580B75D1750151981 CALLER DUP4 DUP4 PUSH0 DUP1 DUP8 PUSH20 0xFFFFFFFFFFFFFFFFFFFFFFFFFFFFFFFFFFFFFFFF AND PUSH20 0xFFFFFFFFFFFFFFFFFFFFFFFFFFFFFFFFFFFFFFFF AND DUP2 MSTORE PUSH1 0x20 ADD SWAP1 DUP2 MSTORE PUSH1 0x20 ADD PUSH0 KECCAK256 DUP6 DUP2 SLOAD DUP2 LT PUSH2 0xAF6 JUMPI PUSH2 0xAF5 PUSH2 0x1485 JUMP JUMPDEST JUMPDEST SWAP1 PUSH0 MSTORE PUSH1 0x20 PUSH0 KECCAK256 SWAP1 PUSH1 0x4 MUL ADD PUSH1 0x2 ADD PUSH1 0x14 SWAP1 SLOAD SWAP1 PUSH2 0x100 EXP SWAP1 DIV PUSH2 0xFFFF AND PUSH1 0x40 MLOAD PUSH2 0xB24 SWAP5 SWAP4 SWAP3 SWAP2 SWAP1 PUSH2 0x160F JUMP JUMPDEST PUSH1 0x40 MLOAD DUP1 SWAP2 SUB SWAP1 LOG1 POP POP JUMP JUMPDEST PUSH1 0x1 PUSH1 0x14 SWAP1 SLOAD SWAP1 PUSH2 0x100 EXP SWAP1 DIV PUSH2 0xFFFF AND DUP2 JUMP JUMPDEST PUSH1 0x1 PUSH1 0x14 SWAP1 SLOAD SWAP1 PUSH2 0x100 EXP SWAP1 DIV PUSH2 0xFFFF AND PUSH2 0xFFFF AND DUP2 MLOAD GT ISZERO PUSH2 0xB9C JUMPI PUSH1 0x40 MLOAD PUSH32 0x8C379A000000000000000000000000000000000000000000000000000000000 DUP2 MSTORE PUSH1 0x4 ADD PUSH2 0xB93 SWAP1 PUSH2 0x1753 JUMP JUMPDEST PUSH1 0x40 MLOAD DUP1 SWAP2 SUB SWAP1 REVERT JUMPDEST PUSH0 PUSH1 0x40 MLOAD DUP1 PUSH1 0xA0 ADD PUSH1 0x40 MSTORE DUP1 PUSH0 DUP1 CALLER PUSH20 0xFFFFFFFFFFFFFFFFFFFFFFFFFFFFFFFFFFFFFFFF AND PUSH20 0xFFFFFFFFFFFFFFFFFFFFFFFFFFFFFFFFFFFFFFFF AND DUP2 MSTORE PUSH1 0x20 ADD SWAP1 DUP2 MSTORE PUSH1 0x20 ADD PUSH0 KECCAK256 DUP1 SLOAD SWAP1 POP DUP2 MSTORE PUSH1 0x20 ADD DUP4 DUP2 MSTORE PUSH1 0x20 ADD CALLER PUSH20 0xFFFFFFFFFFFFFFFFFFFFFFFFFFFFFFFFFFFFFFFF AND DUP2 MSTORE PUSH1 0x20 ADD PUSH0 PUSH2 0xFFFF AND DUP2 MSTORE PUSH1 0x20 ADD TIMESTAMP DUP2 MSTORE POP SWAP1 POP PUSH0 DUP1 CALLER PUSH20 0xFFFFFFFFFFFFFFFFFFFFFFFFFFFFFFFFFFFFFFFF AND PUSH20 0xFFFFFFFFFFFFFFFFFFFFFFFFFFFFFFFFFFFFFFFF AND DUP2 MSTORE PUSH1 0x20 ADD SWAP1 DUP2 MSTORE PUSH1 0x20 ADD PUSH0 KECCAK256 DUP2 SWAP1 DUP1 PUSH1 0x1 DUP2 SLOAD ADD DUP1 DUP3 SSTORE DUP1 SWAP2 POP POP PUSH1 0x1 SWAP1 SUB SWAP1 PUSH0 MSTORE PUSH1 0x20 PUSH0 KECCAK256 SWAP1 PUSH1 0x4 MUL ADD PUSH0 SWAP1 SWAP2 SWAP1 SWAP2 SWAP1 SWAP2 POP PUSH0 DUP3 ADD MLOAD DUP2 PUSH0 ADD SSTORE PUSH1 0x20 DUP3 ADD MLOAD DUP2 PUSH1 0x1 ADD SWAP1 DUP2 PUSH2 0xC9F SWAP2 SWAP1 PUSH2 0x1905 JUMP JUMPDEST POP PUSH1 0x40 DUP3 ADD MLOAD DUP2 PUSH1 0x2 ADD PUSH0 PUSH2 0x100 EXP DUP2 SLOAD DUP2 PUSH20 0xFFFFFFFFFFFFFFFFFFFFFFFFFFFFFFFFFFFFFFFF MUL NOT AND SWAP1 DUP4 PUSH20 0xFFFFFFFFFFFFFFFFFFFFFFFFFFFFFFFFFFFFFFFF AND MUL OR SWAP1 SSTORE POP PUSH1 0x60 DUP3 ADD MLOAD DUP2 PUSH1 0x2 ADD PUSH1 0x14 PUSH2 0x100 EXP DUP2 SLOAD DUP2 PUSH2 0xFFFF MUL NOT AND SWAP1 DUP4 PUSH2 0xFFFF AND MUL OR SWAP1 SSTORE POP PUSH1 0x80 DUP3 ADD MLOAD DUP2 PUSH1 0x3 ADD SSTORE POP POP PUSH32 0x6E5546A74A8EF6731872256D3BBBF86208675B875B179ABED63F4ED747A30CFB DUP2 PUSH0 ADD MLOAD DUP3 PUSH1 0x40 ADD MLOAD DUP4 PUSH1 0x20 ADD MLOAD DUP5 PUSH1 0x80 ADD MLOAD PUSH1 0x40 MLOAD PUSH2 0xD59 SWAP5 SWAP4 SWAP3 SWAP2 SWAP1 PUSH2 0x19D4 JUMP JUMPDEST PUSH1 0x40 MLOAD DUP1 SWAP2 SUB SWAP1 LOG1 POP POP JUMP JUMPDEST PUSH1 0x1 PUSH0 SWAP1 SLOAD SWAP1 PUSH2 0x100 EXP SWAP1 DIV PUSH20 0xFFFFFFFFFFFFFFFFFFFFFFFFFFFFFFFFFFFFFFFF AND DUP2 JUMP JUMPDEST PUSH1 0x40 MLOAD DUP1 PUSH1 0xA0 ADD PUSH1 0x40 MSTORE DUP1 PUSH0 DUP2 MSTORE PUSH1 0x20 ADD PUSH1 0x60 DUP2 MSTORE PUSH1 0x20 ADD PUSH0 PUSH20 0xFFFFFFFFFFFFFFFFFFFFFFFFFFFFFFFFFFFFFFFF AND DUP2 MSTORE PUSH1 0x20 ADD PUSH0 PUSH2 0xFFFF AND DUP2 MSTORE PUSH1 0x20 ADD PUSH0 DUP2 MSTORE POP SWAP1 JUMP JUMPDEST PUSH0 PUSH1 0x40 MLOAD SWAP1 POP SWAP1 JUMP JUMPDEST PUSH0 DUP1 REVERT JUMPDEST PUSH0 DUP1 REVERT JUMPDEST PUSH0 PUSH20 0xFFFFFFFFFFFFFFFFFFFFFFFFFFFFFFFFFFFFFFFF DUP3 AND SWAP1 POP SWAP2 SWAP1 POP JUMP JUMPDEST PUSH0 PUSH2 0xE09 DUP3 PUSH2 0xDE0 JUMP JUMPDEST SWAP1 POP SWAP2 SWAP1 POP JUMP JUMPDEST PUSH2 0xE19 DUP2 PUSH2 0xDFF JUMP JUMPDEST DUP2 EQ PUSH2 0xE23 JUMPI PUSH0 DUP1 REVERT JUMPDEST POP JUMP JUMPDEST PUSH0 DUP2 CALLDATALOAD SWAP1 POP PUSH2 0xE34 DUP2 PUSH2 0xE10 JUMP JUMPDEST SWAP3 SWAP2 POP POP JUMP JUMPDEST PUSH0 DUP2 SWAP1 POP SWAP2 SWAP1 POP JUMP JUMPDEST PUSH2 0xE4C DUP2 PUSH2 0xE3A JUMP JUMPDEST DUP2 EQ PUSH2 0xE56 JUMPI PUSH0 DUP1 REVERT JUMPDEST POP JUMP JUMPDEST PUSH0 DUP2 CALLDATALOAD SWAP1 POP PUSH2 0xE67 DUP2 PUSH2 0xE43 JUMP JUMPDEST SWAP3 SWAP2 POP POP JUMP JUMPDEST PUSH0 DUP1 PUSH1 0x40 DUP4 DUP6 SUB SLT ISZERO PUSH2 0xE83 JUMPI PUSH2 0xE82 PUSH2 0xDD8 JUMP JUMPDEST JUMPDEST PUSH0 PUSH2 0xE90 DUP6 DUP3 DUP7 ADD PUSH2 0xE26 JUMP JUMPDEST SWAP3 POP POP PUSH1 0x20 PUSH2 0xEA1 DUP6 DUP3 DUP7 ADD PUSH2 0xE59 JUMP JUMPDEST SWAP2 POP POP SWAP3 POP SWAP3 SWAP1 POP JUMP JUMPDEST PUSH2 0xEB4 DUP2 PUSH2 0xE3A JUMP JUMPDEST DUP3 MSTORE POP POP JUMP JUMPDEST PUSH0 DUP2 MLOAD SWAP1 POP SWAP2 SWAP1 POP JUMP JUMPDEST PUSH0 DUP3 DUP3 MSTORE PUSH1 0x20 DUP3 ADD SWAP1 POP SWAP3 SWAP2 POP POP JUMP JUMPDEST DUP3 DUP2 DUP4 MCOPY PUSH0 DUP4 DUP4 ADD MSTORE POP POP POP JUMP JUMPDEST PUSH0 PUSH1 0x1F NOT PUSH1 0x1F DUP4 ADD AND SWAP1 POP SWAP2 SWAP1 POP JUMP JUMPDEST PUSH0 PUSH2 0xEFC DUP3 PUSH2 0xEBA JUMP JUMPDEST PUSH2 0xF06 DUP2 DUP6 PUSH2 0xEC4 JUMP JUMPDEST SWAP4 POP PUSH2 0xF16 DUP2 DUP6 PUSH1 0x20 DUP7 ADD PUSH2 0xED4 JUMP JUMPDEST PUSH2 0xF1F DUP2 PUSH2 0xEE2 JUMP JUMPDEST DUP5 ADD SWAP2 POP POP SWAP3 SWAP2 POP POP JUMP JUMPDEST PUSH2 0xF33 DUP2 PUSH2 0xDFF JUMP JUMPDEST DUP3 MSTORE POP POP JUMP JUMPDEST PUSH0 PUSH2 0xFFFF DUP3 AND SWAP1 POP SWAP2 SWAP1 POP JUMP JUMPDEST PUSH2 0xF4F DUP2 PUSH2 0xF39 JUMP JUMPDEST DUP3 MSTORE POP POP JUMP JUMPDEST PUSH0 PUSH1 0xA0 DUP3 ADD SWAP1 POP PUSH2 0xF68 PUSH0 DUP4 ADD DUP9 PUSH2 0xEAB JUMP JUMPDEST DUP2 DUP2 SUB PUSH1 0x20 DUP4 ADD MSTORE PUSH2 0xF7A DUP2 DUP8 PUSH2 0xEF2 JUMP JUMPDEST SWAP1 POP PUSH2 0xF89 PUSH1 0x40 DUP4 ADD DUP7 PUSH2 0xF2A JUMP JUMPDEST PUSH2 0xF96 PUSH1 0x60 DUP4 ADD DUP6 PUSH2 0xF46 JUMP JUMPDEST PUSH2 0xFA3 PUSH1 0x80 DUP4 ADD DUP5 PUSH2 0xEAB JUMP JUMPDEST SWAP7 SWAP6 POP POP POP POP POP POP JUMP JUMPDEST PUSH2 0xFB6 DUP2 PUSH2 0xE3A JUMP JUMPDEST DUP3 MSTORE POP POP JUMP JUMPDEST PUSH0 DUP3 DUP3 MSTORE PUSH1 0x20 DUP3 ADD SWAP1 POP SWAP3 SWAP2 POP POP JUMP JUMPDEST PUSH0 PUSH2 0xFD6 DUP3 PUSH2 0xEBA JUMP JUMPDEST PUSH2 0xFE0 DUP2 DUP6 PUSH2 0xFBC JUMP JUMPDEST SWAP4 POP PUSH2 0xFF0 DUP2 DUP6 PUSH1 0x20 DUP7 ADD PUSH2 0xED4 JUMP JUMPDEST PUSH2 0xFF9 DUP2 PUSH2 0xEE2 JUMP JUMPDEST DUP5 ADD SWAP2 POP POP SWAP3 SWAP2 POP POP JUMP JUMPDEST PUSH2 0x100D DUP2 PUSH2 0xDFF JUMP JUMPDEST DUP3 MSTORE POP POP JUMP JUMPDEST PUSH2 0x101C DUP2 PUSH2 0xF39 JUMP JUMPDEST DUP3 MSTORE POP POP JUMP JUMPDEST PUSH0 PUSH1 0xA0 DUP4 ADD PUSH0 DUP4 ADD MLOAD PUSH2 0x1037 PUSH0 DUP7 ADD DUP3 PUSH2 0xFAD JUMP JUMPDEST POP PUSH1 0x20 DUP4 ADD MLOAD DUP5 DUP3 SUB PUSH1 0x20 DUP7 ADD MSTORE PUSH2 0x104F DUP3 DUP3 PUSH2 0xFCC JUMP JUMPDEST SWAP2 POP POP PUSH1 0x40 DUP4 ADD MLOAD PUSH2 0x1064 PUSH1 0x40 DUP7 ADD DUP3 PUSH2 0x1004 JUMP JUMPDEST POP PUSH1 0x60 DUP4 ADD MLOAD PUSH2 0x1077 PUSH1 0x60 DUP7 ADD DUP3 PUSH2 0x1013 JUMP JUMPDEST POP PUSH1 0x80 DUP4 ADD MLOAD PUSH2 0x108A PUSH1 0x80 DUP7 ADD DUP3 PUSH2 0xFAD JUMP JUMPDEST POP DUP1 SWAP2 POP POP SWAP3 SWAP2 POP POP JUMP JUMPDEST PUSH0 PUSH1 0x20 DUP3 ADD SWAP1 POP DUP2 DUP2 SUB PUSH0 DUP4 ADD MSTORE PUSH2 0x10AD DUP2 DUP5 PUSH2 0x1022 JUMP JUMPDEST SWAP1 POP SWAP3 SWAP2 POP POP JUMP JUMPDEST PUSH0 PUSH1 0x20 DUP3 DUP5 SUB SLT ISZERO PUSH2 0x10CA JUMPI PUSH2 0x10C9 PUSH2 0xDD8 JUMP JUMPDEST JUMPDEST PUSH0 PUSH2 0x10D7 DUP5 DUP3 DUP6 ADD PUSH2 0xE26 JUMP JUMPDEST SWAP2 POP POP SWAP3 SWAP2 POP POP JUMP JUMPDEST PUSH0 DUP2 MLOAD SWAP1 POP SWAP2 SWAP1 POP JUMP JUMPDEST PUSH0 DUP3 DUP3 MSTORE PUSH1 0x20 DUP3 ADD SWAP1 POP SWAP3 SWAP2 POP POP JUMP JUMPDEST PUSH0 DUP2 SWAP1 POP PUSH1 0x20 DUP3 ADD SWAP1 POP SWAP2 SWAP1 POP JUMP JUMPDEST PUSH0 PUSH1 0xA0 DUP4 ADD PUSH0 DUP4 ADD MLOAD PUSH2 0x111E PUSH0 DUP7 ADD DUP3 PUSH2 0xFAD JUMP JUMPDEST POP PUSH1 0x20 DUP4 ADD MLOAD DUP5 DUP3 SUB PUSH1 0x20 DUP7 ADD MSTORE PUSH2 0x1136 DUP3 DUP3 PUSH2 0xFCC JUMP JUMPDEST SWAP2 POP POP PUSH1 0x40 DUP4 ADD MLOAD PUSH2 0x114B PUSH1 0x40 DUP7 ADD DUP3 PUSH2 0x1004 JUMP JUMPDEST POP PUSH1 0x60 DUP4 ADD MLOAD PUSH2 0x115E PUSH1 0x60 DUP7 ADD DUP3 PUSH2 0x1013 JUMP JUMPDEST POP PUSH1 0x80 DUP4 ADD MLOAD PUSH2 0x1171 PUSH1 0x80 DUP7 ADD DUP3 PUSH2 0xFAD JUMP JUMPDEST POP DUP1 SWAP2 POP POP SWAP3 SWAP2 POP POP JUMP JUMPDEST PUSH0 PUSH2 0x1187 DUP4 DUP4 PUSH2 0x1109 JUMP JUMPDEST SWAP1 POP SWAP3 SWAP2 POP POP JUMP JUMPDEST PUSH0 PUSH1 0x20 DUP3 ADD SWAP1 POP SWAP2 SWAP1 POP JUMP JUMPDEST PUSH0 PUSH2 0x11A5 DUP3 PUSH2 0x10E0 JUMP JUMPDEST PUSH2 0x11AF DUP2 DUP6 PUSH2 0x10EA JUMP JUMPDEST SWAP4 POP DUP4 PUSH1 0x20 DUP3 MUL DUP6 ADD PUSH2 0x11C1 DUP6 PUSH2 0x10FA JUMP JUMPDEST DUP1 PUSH0 JUMPDEST DUP6 DUP2 LT ISZERO PUSH2 0x11FC JUMPI DUP5 DUP5 SUB DUP10 MSTORE DUP2 MLOAD PUSH2 0x11DD DUP6 DUP3 PUSH2 0x117C JUMP JUMPDEST SWAP5 POP PUSH2 0x11E8 DUP4 PUSH2 0x118F JUMP JUMPDEST SWAP3 POP PUSH1 0x20 DUP11 ADD SWAP10 POP POP PUSH1 0x1 DUP2 ADD SWAP1 POP PUSH2 0x11C4 JUMP JUMPDEST POP DUP3 SWAP8 POP DUP8 SWAP6 POP POP POP POP POP POP SWAP3 SWAP2 POP POP JUMP JUMPDEST PUSH0 PUSH1 0x20 DUP3 ADD SWAP1 POP DUP2 DUP2 SUB PUSH0 DUP4 ADD MSTORE PUSH2 0x1226 DUP2 DUP5 PUSH2 0x119B JUMP JUMPDEST SWAP1 POP SWAP3 SWAP2 POP POP JUMP JUMPDEST PUSH2 0x1237 DUP2 PUSH2 0xF39 JUMP JUMPDEST DUP2 EQ PUSH2 0x1241 JUMPI PUSH0 DUP1 REVERT JUMPDEST POP JUMP JUMPDEST PUSH0 DUP2 CALLDATALOAD SWAP1 POP PUSH2 0x1252 DUP2 PUSH2 0x122E JUMP JUMPDEST SWAP3 SWAP2 POP POP JUMP JUMPDEST PUSH0 PUSH1 0x20 DUP3 DUP5 SUB SLT ISZERO PUSH2 0x126D JUMPI PUSH2 0x126C PUSH2 0xDD8 JUMP JUMPDEST JUMPDEST PUSH0 PUSH2 0x127A DUP5 DUP3 DUP6 ADD PUSH2 0x1244 JUMP JUMPDEST SWAP2 POP POP SWAP3 SWAP2 POP POP JUMP JUMPDEST PUSH0 PUSH1 0x20 DUP3 ADD SWAP1 POP PUSH2 0x1296 PUSH0 DUP4 ADD DUP5 PUSH2 0xF46 JUMP JUMPDEST SWAP3 SWAP2 POP POP JUMP JUMPDEST PUSH0 DUP1 REVERT JUMPDEST PUSH0 DUP1 REVERT JUMPDEST PUSH32 0x4E487B7100000000000000000000000000000000000000000000000000000000 PUSH0 MSTORE PUSH1 0x41 PUSH1 0x4 MSTORE PUSH1 0x24 PUSH0 REVERT JUMPDEST PUSH2 0x12DA DUP3 PUSH2 0xEE2 JUMP JUMPDEST DUP2 ADD DUP2 DUP2 LT PUSH8 0xFFFFFFFFFFFFFFFF DUP3 GT OR ISZERO PUSH2 0x12F9 JUMPI PUSH2 0x12F8 PUSH2 0x12A4 JUMP JUMPDEST JUMPDEST DUP1 PUSH1 0x40 MSTORE POP POP POP JUMP JUMPDEST PUSH0 PUSH2 0x130B PUSH2 0xDCF JUMP JUMPDEST SWAP1 POP PUSH2 0x1317 DUP3 DUP3 PUSH2 0x12D1 JUMP JUMPDEST SWAP2 SWAP1 POP JUMP JUMPDEST PUSH0 PUSH8 0xFFFFFFFFFFFFFFFF DUP3 GT ISZERO PUSH2 0x1336 JUMPI PUSH2 0x1335 PUSH2 0x12A4 JUMP JUMPDEST JUMPDEST PUSH2 0x133F DUP3 PUSH2 0xEE2 JUMP JUMPDEST SWAP1 POP PUSH1 0x20 DUP2 ADD SWAP1 POP SWAP2 SWAP1 POP JUMP JUMPDEST DUP3 DUP2 DUP4 CALLDATACOPY PUSH0 DUP4 DUP4 ADD MSTORE POP POP POP JUMP JUMPDEST PUSH0 PUSH2 0x136C PUSH2 0x1367 DUP5 PUSH2 0x131C JUMP JUMPDEST PUSH2 0x1302 JUMP JUMPDEST SWAP1 POP DUP3 DUP2 MSTORE PUSH1 0x20 DUP2 ADD DUP5 DUP5 DUP5 ADD GT ISZERO PUSH2 0x1388 JUMPI PUSH2 0x1387 PUSH2 0x12A0 JUMP JUMPDEST JUMPDEST PUSH2 0x1393 DUP5 DUP3 DUP6 PUSH2 0x134C JUMP JUMPDEST POP SWAP4 SWAP3 POP POP POP JUMP JUMPDEST PUSH0 DUP3 PUSH1 0x1F DUP4 ADD SLT PUSH2 0x13AF JUMPI PUSH2 0x13AE PUSH2 0x129C JUMP JUMPDEST JUMPDEST DUP2 CALLDATALOAD PUSH2 0x13BF DUP5 DUP3 PUSH1 0x20 DUP7 ADD PUSH2 0x135A JUMP JUMPDEST SWAP2 POP POP SWAP3 SWAP2 POP POP JUMP JUMPDEST PUSH0 PUSH1 0x20 DUP3 DUP5 SUB SLT ISZERO PUSH2 0x13DD JUMPI PUSH2 0x13DC PUSH2 0xDD8 JUMP JUMPDEST JUMPDEST PUSH0 DUP3 ADD CALLDATALOAD PUSH8 0xFFFFFFFFFFFFFFFF DUP2 GT ISZERO PUSH2 0x13FA JUMPI PUSH2 0x13F9 PUSH2 0xDDC JUMP JUMPDEST JUMPDEST PUSH2 0x1406 DUP5 DUP3 DUP6 ADD PUSH2 0x139B JUMP JUMPDEST SWAP2 POP POP SWAP3 SWAP2 POP POP JUMP JUMPDEST PUSH0 PUSH1 0x20 DUP3 ADD SWAP1 POP PUSH2 0x1422 PUSH0 DUP4 ADD DUP5 PUSH2 0xF2A JUMP JUMPDEST SWAP3 SWAP2 POP POP JUMP JUMPDEST PUSH32 0x4E487B7100000000000000000000000000000000000000000000000000000000 PUSH0 MSTORE PUSH1 0x22 PUSH1 0x4 MSTORE PUSH1 0x24 PUSH0 REVERT JUMPDEST PUSH0 PUSH1 0x2 DUP3 DIV SWAP1 POP PUSH1 0x1 DUP3 AND DUP1 PUSH2 0x146C JUMPI PUSH1 0x7F DUP3 AND SWAP2 POP JUMPDEST PUSH1 0x20 DUP3 LT DUP2 SUB PUSH2 0x147F JUMPI PUSH2 0x147E PUSH2 0x1428 JUMP JUMPDEST JUMPDEST POP SWAP2 SWAP1 POP JUMP JUMPDEST PUSH32 0x4E487B7100000000000000000000000000000000000000000000000000000000 PUSH0 MSTORE PUSH1 0x32 PUSH1 0x4 MSTORE PUSH1 0x24 PUSH0 REVERT JUMPDEST PUSH32 0x54686973204944206973206E6F74206578697374696E67000000000000000000 PUSH0 DUP3 ADD MSTORE POP JUMP JUMPDEST PUSH0 PUSH2 0x14E6 PUSH1 0x17 DUP4 PUSH2 0xEC4 JUMP JUMPDEST SWAP2 POP PUSH2 0x14F1 DUP3 PUSH2 0x14B2 JUMP JUMPDEST PUSH1 0x20 DUP3 ADD SWAP1 POP SWAP2 SWAP1 POP JUMP JUMPDEST PUSH0 PUSH1 0x20 DUP3 ADD SWAP1 POP DUP2 DUP2 SUB PUSH0 DUP4 ADD MSTORE PUSH2 0x1513 DUP2 PUSH2 0x14DA JUMP JUMPDEST SWAP1 POP SWAP2 SWAP1 POP JUMP JUMPDEST PUSH32 0x5468697320747765657420686173206E6F206C696B6500000000000000000000 PUSH0 DUP3 ADD MSTORE POP JUMP JUMPDEST PUSH0 PUSH2 0x154E PUSH1 0x16 DUP4 PUSH2 0xEC4 JUMP JUMPDEST SWAP2 POP PUSH2 0x1559 DUP3 PUSH2 0x151A JUMP JUMPDEST PUSH1 0x20 DUP3 ADD SWAP1 POP SWAP2 SWAP1 POP JUMP JUMPDEST PUSH0 PUSH1 0x20 DUP3 ADD SWAP1 POP DUP2 DUP2 SUB PUSH0 DUP4 ADD MSTORE PUSH2 0x157B DUP2 PUSH2 0x1542 JUMP JUMPDEST SWAP1 POP SWAP2 SWAP1 POP JUMP JUMPDEST PUSH32 0x4E487B7100000000000000000000000000000000000000000000000000000000 PUSH0 MSTORE PUSH1 0x11 PUSH1 0x4 MSTORE PUSH1 0x24 PUSH0 REVERT JUMPDEST PUSH0 PUSH2 0x15B9 DUP3 PUSH2 0xF39 JUMP JUMPDEST SWAP2 POP PUSH0 DUP3 SUB PUSH2 0x15CB JUMPI PUSH2 0x15CA PUSH2 0x1582 JUMP JUMPDEST JUMPDEST PUSH1 0x1 DUP3 SUB SWAP1 POP SWAP2 SWAP1 POP JUMP JUMPDEST PUSH0 DUP2 SWAP1 POP SWAP2 SWAP1 POP JUMP JUMPDEST PUSH0 PUSH2 0x15F9 PUSH2 0x15F4 PUSH2 0x15EF DUP5 PUSH2 0xF39 JUMP JUMPDEST PUSH2 0x15D6 JUMP JUMPDEST PUSH2 0xE3A JUMP JUMPDEST SWAP1 POP SWAP2 SWAP1 POP JUMP JUMPDEST PUSH2 0x1609 DUP2 PUSH2 0x15DF JUMP JUMPDEST DUP3 MSTORE POP POP JUMP JUMPDEST PUSH0 PUSH1 0x80 DUP3 ADD SWAP1 POP PUSH2 0x1622 PUSH0 DUP4 ADD DUP8 PUSH2 0xF2A JUMP JUMPDEST PUSH2 0x162F PUSH1 0x20 DUP4 ADD DUP7 PUSH2 0xF2A JUMP JUMPDEST PUSH2 0x163C PUSH1 0x40 DUP4 ADD DUP6 PUSH2 0xEAB JUMP JUMPDEST PUSH2 0x1649 PUSH1 0x60 DUP4 ADD DUP5 PUSH2 0x1600 JUMP JUMPDEST SWAP6 SWAP5 POP POP POP POP POP JUMP JUMPDEST PUSH32 0x594F5520415245204E4F5420544845204F574E45522100000000000000000000 PUSH0 DUP3 ADD MSTORE POP JUMP JUMPDEST PUSH0 PUSH2 0x1686 PUSH1 0x16 DUP4 PUSH2 0xEC4 JUMP JUMPDEST SWAP2 POP PUSH2 0x1691 DUP3 PUSH2 0x1652 JUMP JUMPDEST PUSH1 0x20 DUP3 ADD SWAP1 POP SWAP2 SWAP1 POP JUMP JUMPDEST PUSH0 PUSH1 0x20 DUP3 ADD SWAP1 POP DUP2 DUP2 SUB PUSH0 DUP4 ADD MSTORE PUSH2 0x16B3 DUP2 PUSH2 0x167A JUMP JUMPDEST SWAP1 POP SWAP2 SWAP1 POP JUMP JUMPDEST PUSH0 PUSH2 0x16C4 DUP3 PUSH2 0xF39 JUMP JUMPDEST SWAP2 POP PUSH2 0xFFFF DUP3 SUB PUSH2 0x16D8 JUMPI PUSH2 0x16D7 PUSH2 0x1582 JUMP JUMPDEST JUMPDEST PUSH1 0x1 DUP3 ADD SWAP1 POP SWAP2 SWAP1 POP JUMP JUMPDEST PUSH32 0x546865206C656E677468206F6620796F75722074776565742065786365656473 PUSH0 DUP3 ADD MSTORE PUSH32 0x20746865206C696D69742062726F210000000000000000000000000000000000 PUSH1 0x20 DUP3 ADD MSTORE POP JUMP JUMPDEST PUSH0 PUSH2 0x173D PUSH1 0x2F DUP4 PUSH2 0xEC4 JUMP JUMPDEST SWAP2 POP PUSH2 0x1748 DUP3 PUSH2 0x16E3 JUMP JUMPDEST PUSH1 0x40 DUP3 ADD SWAP1 POP SWAP2 SWAP1 POP JUMP JUMPDEST PUSH0 PUSH1 0x20 DUP3 ADD SWAP1 POP DUP2 DUP2 SUB PUSH0 DUP4 ADD MSTORE PUSH2 0x176A DUP2 PUSH2 0x1731 JUMP JUMPDEST SWAP1 POP SWAP2 SWAP1 POP JUMP JUMPDEST PUSH0 DUP2 SWAP1 POP DUP2 PUSH0 MSTORE PUSH1 0x20 PUSH0 KECCAK256 SWAP1 POP SWAP2 SWAP1 POP JUMP JUMPDEST PUSH0 PUSH1 0x20 PUSH1 0x1F DUP4 ADD DIV SWAP1 POP SWAP2 SWAP1 POP JUMP JUMPDEST PUSH0 DUP3 DUP3 SHL SWAP1 POP SWAP3 SWAP2 POP POP JUMP JUMPDEST PUSH0 PUSH1 0x8 DUP4 MUL PUSH2 0x17CD PUSH32 0xFFFFFFFFFFFFFFFFFFFFFFFFFFFFFFFFFFFFFFFFFFFFFFFFFFFFFFFFFFFFFFFF DUP3 PUSH2 0x1792 JUMP JUMPDEST PUSH2 0x17D7 DUP7 DUP4 PUSH2 0x1792 JUMP JUMPDEST SWAP6 POP DUP1 NOT DUP5 AND SWAP4 POP DUP1 DUP7 AND DUP5 OR SWAP3 POP POP POP SWAP4 SWAP3 POP POP POP JUMP JUMPDEST PUSH0 PUSH2 0x1809 PUSH2 0x1804 PUSH2 0x17FF DUP5 PUSH2 0xE3A JUMP JUMPDEST PUSH2 0x15D6 JUMP JUMPDEST PUSH2 0xE3A JUMP JUMPDEST SWAP1 POP SWAP2 SWAP1 POP JUMP JUMPDEST PUSH0 DUP2 SWAP1 POP SWAP2 SWAP1 POP JUMP JUMPDEST PUSH2 0x1822 DUP4 PUSH2 0x17EF JUMP JUMPDEST PUSH2 0x1836 PUSH2 0x182E DUP3 PUSH2 0x1810 JUMP JUMPDEST DUP5 DUP5 SLOAD PUSH2 0x179E JUMP JUMPDEST DUP3 SSTORE POP POP POP POP JUMP JUMPDEST PUSH0 SWAP1 JUMP JUMPDEST PUSH2 0x184A PUSH2 0x183E JUMP JUMPDEST PUSH2 0x1855 DUP2 DUP5 DUP5 PUSH2 0x1819 JUMP JUMPDEST POP POP POP JUMP JUMPDEST JUMPDEST DUP2 DUP2 LT ISZERO PUSH2 0x1878 JUMPI PUSH2 0x186D PUSH0 DUP3 PUSH2 0x1842 JUMP JUMPDEST PUSH1 0x1 DUP2 ADD SWAP1 POP PUSH2 0x185B JUMP JUMPDEST POP POP JUMP JUMPDEST PUSH1 0x1F DUP3 GT ISZERO PUSH2 0x18BD JUMPI PUSH2 0x188E DUP2 PUSH2 0x1771 JUMP JUMPDEST PUSH2 0x1897 DUP5 PUSH2 0x1783 JUMP JUMPDEST DUP2 ADD PUSH1 0x20 DUP6 LT ISZERO PUSH2 0x18A6 JUMPI DUP2 SWAP1 POP JUMPDEST PUSH2 0x18BA PUSH2 0x18B2 DUP6 PUSH2 0x1783 JUMP JUMPDEST DUP4 ADD DUP3 PUSH2 0x185A JUMP JUMPDEST POP POP JUMPDEST POP POP POP JUMP JUMPDEST PUSH0 DUP3 DUP3 SHR SWAP1 POP SWAP3 SWAP2 POP POP JUMP JUMPDEST PUSH0 PUSH2 0x18DD PUSH0 NOT DUP5 PUSH1 0x8 MUL PUSH2 0x18C2 JUMP JUMPDEST NOT DUP1 DUP4 AND SWAP2 POP POP SWAP3 SWAP2 POP POP JUMP JUMPDEST PUSH0 PUSH2 0x18F5 DUP4 DUP4 PUSH2 0x18CE JUMP JUMPDEST SWAP2 POP DUP3 PUSH1 0x2 MUL DUP3 OR SWAP1 POP SWAP3 SWAP2 POP POP JUMP JUMPDEST PUSH2 0x190E DUP3 PUSH2 0xEBA JUMP JUMPDEST PUSH8 0xFFFFFFFFFFFFFFFF DUP2 GT ISZERO PUSH2 0x1927 JUMPI PUSH2 0x1926 PUSH2 0x12A4 JUMP JUMPDEST JUMPDEST PUSH2 0x1931 DUP3 SLOAD PUSH2 0x1455 JUMP JUMPDEST PUSH2 0x193C DUP3 DUP3 DUP6 PUSH2 0x187C JUMP JUMPDEST PUSH0 PUSH1 0x20 SWAP1 POP PUSH1 0x1F DUP4 GT PUSH1 0x1 DUP2 EQ PUSH2 0x196D JUMPI PUSH0 DUP5 ISZERO PUSH2 0x195B JUMPI DUP3 DUP8 ADD MLOAD SWAP1 POP JUMPDEST PUSH2 0x1965 DUP6 DUP3 PUSH2 0x18EA JUMP JUMPDEST DUP7 SSTORE POP PUSH2 0x19CC JUMP JUMPDEST PUSH1 0x1F NOT DUP5 AND PUSH2 0x197B DUP7 PUSH2 0x1771 JUMP JUMPDEST PUSH0 JUMPDEST DUP3 DUP2 LT ISZERO PUSH2 0x19A2 JUMPI DUP5 DUP10 ADD MLOAD DUP3 SSTORE PUSH1 0x1 DUP3 ADD SWAP2 POP PUSH1 0x20 DUP6 ADD SWAP5 POP PUSH1 0x20 DUP2 ADD SWAP1 POP PUSH2 0x197D JUMP JUMPDEST DUP7 DUP4 LT ISZERO PUSH2 0x19BF JUMPI DUP5 DUP10 ADD MLOAD PUSH2 0x19BB PUSH1 0x1F DUP10 AND DUP3 PUSH2 0x18CE JUMP JUMPDEST DUP4 SSTORE POP JUMPDEST PUSH1 0x1 PUSH1 0x2 DUP9 MUL ADD DUP9 SSTORE POP POP POP JUMPDEST POP POP POP POP POP POP JUMP JUMPDEST PUSH0 PUSH1 0x80 DUP3 ADD SWAP1 POP PUSH2 0x19E7 PUSH0 DUP4 ADD DUP8 PUSH2 0xEAB JUMP JUMPDEST PUSH2 0x19F4 PUSH1 0x20 DUP4 ADD DUP7 PUSH2 0xF2A JUMP JUMPDEST DUP2 DUP2 SUB PUSH1 0x40 DUP4 ADD MSTORE PUSH2 0x1A06 DUP2 DUP6 PUSH2 0xEF2 JUMP JUMPDEST SWAP1 POP PUSH2 0x1A15 PUSH1 0x60 DUP4 ADD DUP5 PUSH2 0xEAB JUMP JUMPDEST SWAP6 SWAP5 POP POP POP POP POP JUMP INVALID LOG2 PUSH5 0x6970667358 0x22 SLT KECCAK256 SDIV 0xBD 0xD9 0xE6 0xB2 TLOAD 0xAD 0xB3 INVALID SLT SWAP3 DUP8 DUP12 0xE6 STOP 0xDD 0xDB 0xD TIMESTAMP 0xC2 EXTCODECOPY CALLVALUE 0xEE 0xDC COINBASE PUSH16 0x83DEAECBB50F64736F6C634300081A00 CALLER "
				},
				"gasEstimates": {
					"creation": {
						"codeDepositCost": "1348000",
						"executionCost": "49983",
						"totalCost": "1397983"
					},
					"external": {
						"MAX_TWEET_LENGTH()": "2561",
						"changeTweetLength(uint16)": "26893",
						"createTweet(string)": "infinite",
						"getAllTweets(address)": "infinite",
						"getTweet(address,uint256)": "infinite",
						"likeTweet(address,uint256)": "infinite",
						"owner()": "2596",
						"tweets(address,uint256)": "infinite",
						"unlikeTweet(address,uint256)": "infinite"
					}
				},
				"methodIdentifiers": {
					"MAX_TWEET_LENGTH()": "6eb10797",
					"changeTweetLength(uint16)": "58bfa4ab",
					"createTweet(string)": "7c9cd2bc",
					"getAllTweets(address)": "12e7ee1c",
					"getTweet(address,uint256)": "112f54e3",
					"likeTweet(address,uint256)": "63378216",
					"owner()": "8da5cb5b",
					"tweets(address,uint256)": "05a1b4a9",
					"unlikeTweet(address,uint256)": "3d9b569f"
				}
			},
			"storageLayout": {
				"storage": [
					{
						"astId": 18,
						"contract": "contracts/Lab 2/1-BasicTwitter.sol:Twitter",
						"label": "tweets",
						"offset": 0,
						"slot": "0",
						"type": "t_mapping(t_address,t_array(t_struct(Tweet)12_storage)dyn_storage)"
					},
					{
						"astId": 20,
						"contract": "contracts/Lab 2/1-BasicTwitter.sol:Twitter",
						"label": "owner",
						"offset": 0,
						"slot": "1",
						"type": "t_address"
					},
					{
						"astId": 23,
						"contract": "contracts/Lab 2/1-BasicTwitter.sol:Twitter",
						"label": "MAX_TWEET_LENGTH",
						"offset": 20,
						"slot": "1",
						"type": "t_uint16"
					}
				],
				"types": {
					"t_address": {
						"encoding": "inplace",
						"label": "address",
						"numberOfBytes": "20"
					},
					"t_array(t_struct(Tweet)12_storage)dyn_storage": {
						"base": "t_struct(Tweet)12_storage",
						"encoding": "dynamic_array",
						"label": "struct Twitter.Tweet[]",
						"numberOfBytes": "32"
					},
					"t_mapping(t_address,t_array(t_struct(Tweet)12_storage)dyn_storage)": {
						"encoding": "mapping",
						"key": "t_address",
						"label": "mapping(address => struct Twitter.Tweet[])",
						"numberOfBytes": "32",
						"value": "t_array(t_struct(Tweet)12_storage)dyn_storage"
					},
					"t_string_storage": {
						"encoding": "bytes",
						"label": "string",
						"numberOfBytes": "32"
					},
					"t_struct(Tweet)12_storage": {
						"encoding": "inplace",
						"label": "struct Twitter.Tweet",
						"members": [
							{
								"astId": 3,
								"contract": "contracts/Lab 2/1-BasicTwitter.sol:Twitter",
								"label": "id",
								"offset": 0,
								"slot": "0",
								"type": "t_uint256"
							},
							{
								"astId": 5,
								"contract": "contracts/Lab 2/1-BasicTwitter.sol:Twitter",
								"label": "content",
								"offset": 0,
								"slot": "1",
								"type": "t_string_storage"
							},
							{
								"astId": 7,
								"contract": "contracts/Lab 2/1-BasicTwitter.sol:Twitter",
								"label": "user_address",
								"offset": 0,
								"slot": "2",
								"type": "t_address"
							},
							{
								"astId": 9,
								"contract": "contracts/Lab 2/1-BasicTwitter.sol:Twitter",
								"label": "likes",
								"offset": 20,
								"slot": "2",
								"type": "t_uint16"
							},
							{
								"astId": 11,
								"contract": "contracts/Lab 2/1-BasicTwitter.sol:Twitter",
								"label": "timestamp",
								"offset": 0,
								"slot": "3",
								"type": "t_uint256"
							}
						],
						"numberOfBytes": "128"
					},
					"t_uint16": {
						"encoding": "inplace",
						"label": "uint16",
						"numberOfBytes": "2"
					},
					"t_uint256": {
						"encoding": "inplace",
						"label": "uint256",
						"numberOfBytes": "32"
					}
				}
			},
			"userdoc": {
				"kind": "user",
				"methods": {},
				"version": 1
			}
		}
	}
}