{
	"contracts/Lab 2/3-Twitter-Require.sol": {
		"Twitter": {
			"abi": [
				{
					"inputs": [
						{
							"internalType": "string",
							"name": "_tweet",
							"type": "string"
						}
					],
					"name": "createTweet",
					"outputs": [],
					"stateMutability": "nonpayable",
					"type": "function"
				},
				{
					"inputs": [
						{
							"internalType": "address",
							"name": "_owner",
							"type": "address"
						}
					],
					"name": "getAllTweets",
					"outputs": [
						{
							"components": [
								{
									"internalType": "address",
									"name": "author",
									"type": "address"
								},
								{
									"internalType": "string",
									"name": "content",
									"type": "string"
								},
								{
									"internalType": "uint256",
									"name": "timestamp",
									"type": "uint256"
								},
								{
									"internalType": "uint256",
									"name": "likes",
									"type": "uint256"
								}
							],
							"internalType": "struct Twitter.Tweet[]",
							"name": "",
							"type": "tuple[]"
						}
					],
					"stateMutability": "view",
					"type": "function"
				},
				{
					"inputs": [
						{
							"internalType": "uint256",
							"name": "_i",
							"type": "uint256"
						}
					],
					"name": "getTweet",
					"outputs": [
						{
							"components": [
								{
									"internalType": "address",
									"name": "author",
									"type": "address"
								},
								{
									"internalType": "string",
									"name": "content",
									"type": "string"
								},
								{
									"internalType": "uint256",
									"name": "timestamp",
									"type": "uint256"
								},
								{
									"internalType": "uint256",
									"name": "likes",
									"type": "uint256"
								}
							],
							"internalType": "struct Twitter.Tweet",
							"name": "",
							"type": "tuple"
						}
					],
					"stateMutability": "view",
					"type": "function"
				},
				{
					"inputs": [
						{
							"internalType": "address",
							"name": "",
							"type": "address"
						},
						{
							"internalType": "uint256",
							"name": "",
							"type": "uint256"
						}
					],
					"name": "tweets",
					"outputs": [
						{
							"internalType": "address",
							"name": "author",
							"type": "address"
						},
						{
							"internalType": "string",
							"name": "content",
							"type": "string"
						},
						{
							"internalType": "uint256",
							"name": "timestamp",
							"type": "uint256"
						},
						{
							"internalType": "uint256",
							"name": "likes",
							"type": "uint256"
						}
					],
					"stateMutability": "view",
					"type": "function"
				}
			],
			"devdoc": {
				"kind": "dev",
				"methods": {},
				"version": 1
			},
			"evm": {
				"assembly": "    /* \"contracts/Lab 2/3-Twitter-Require.sol\":180:1014  contract Twitter {... */\n  mstore(0x40, 0x80)\n  callvalue\n  dup1\n  iszero\n  tag_1\n  jumpi\n  0x00\n  dup1\n  revert\ntag_1:\n  pop\n  dataSize(sub_0)\n  dup1\n  dataOffset(sub_0)\n  0x00\n  codecopy\n  0x00\n  return\nstop\n\nsub_0: assembly {\n        /* \"contracts/Lab 2/3-Twitter-Require.sol\":180:1014  contract Twitter {... */\n      mstore(0x40, 0x80)\n      callvalue\n      dup1\n      iszero\n      tag_1\n      jumpi\n      0x00\n      dup1\n      revert\n    tag_1:\n      pop\n      jumpi(tag_2, lt(calldatasize, 0x04))\n      shr(0xe0, calldataload(0x00))\n      dup1\n      0x05a1b4a9\n      eq\n      tag_3\n      jumpi\n      dup1\n      0x12e7ee1c\n      eq\n      tag_4\n      jumpi\n      dup1\n      0x7c9cd2bc\n      eq\n      tag_5\n      jumpi\n      dup1\n      0xc3ad5ecb\n      eq\n      tag_6\n      jumpi\n    tag_2:\n      0x00\n      dup1\n      revert\n        /* \"contracts/Lab 2/3-Twitter-Require.sol\":348:390  mapping(address => Tweet[] ) public tweets */\n    tag_3:\n      tag_7\n      0x04\n      dup1\n      calldatasize\n      sub\n      dup2\n      add\n      swap1\n      tag_8\n      swap2\n      swap1\n      tag_9\n      jump\t// in\n    tag_8:\n      tag_10\n      jump\t// in\n    tag_7:\n      mload(0x40)\n      tag_11\n      swap5\n      swap4\n      swap3\n      swap2\n      swap1\n      tag_12\n      jump\t// in\n    tag_11:\n      mload(0x40)\n      dup1\n      swap2\n      sub\n      swap1\n      return\n        /* \"contracts/Lab 2/3-Twitter-Require.sol\":898:1011  function getAllTweets(address _owner) public view returns (Tweet[] memory ){... */\n    tag_4:\n      tag_13\n      0x04\n      dup1\n      calldatasize\n      sub\n      dup2\n      add\n      swap1\n      tag_14\n      swap2\n      swap1\n      tag_15\n      jump\t// in\n    tag_14:\n      tag_16\n      jump\t// in\n    tag_13:\n      mload(0x40)\n      tag_17\n      swap2\n      swap1\n      tag_18\n      jump\t// in\n    tag_17:\n      mload(0x40)\n      dup1\n      swap2\n      sub\n      swap1\n      return\n        /* \"contracts/Lab 2/3-Twitter-Require.sol\":397:777  function createTweet(string memory _tweet) public {... */\n    tag_5:\n      tag_19\n      0x04\n      dup1\n      calldatasize\n      sub\n      dup2\n      add\n      swap1\n      tag_20\n      swap2\n      swap1\n      tag_21\n      jump\t// in\n    tag_20:\n      tag_22\n      jump\t// in\n    tag_19:\n      stop\n        /* \"contracts/Lab 2/3-Twitter-Require.sol\":783:892  function getTweet( uint _i) public view returns (Tweet memory) {... */\n    tag_6:\n      tag_23\n      0x04\n      dup1\n      calldatasize\n      sub\n      dup2\n      add\n      swap1\n      tag_24\n      swap2\n      swap1\n      tag_25\n      jump\t// in\n    tag_24:\n      tag_26\n      jump\t// in\n    tag_23:\n      mload(0x40)\n      tag_27\n      swap2\n      swap1\n      tag_28\n      jump\t// in\n    tag_27:\n      mload(0x40)\n      dup1\n      swap2\n      sub\n      swap1\n      return\n        /* \"contracts/Lab 2/3-Twitter-Require.sol\":348:390  mapping(address => Tweet[] ) public tweets */\n    tag_10:\n      mstore(0x20, 0x00)\n      dup2\n      0x00\n      mstore\n      keccak256(0x00, 0x40)\n      dup2\n      dup2\n      sload\n      dup2\n      lt\n      tag_29\n      jumpi\n      0x00\n      dup1\n      revert\n    tag_29:\n      swap1\n      0x00\n      mstore\n      keccak256(0x00, 0x20)\n      swap1\n      0x04\n      mul\n      add\n      0x00\n      swap2\n      pop\n      swap2\n      pop\n      pop\n      dup1\n      0x00\n      add\n      0x00\n      swap1\n      sload\n      swap1\n      0x0100\n      exp\n      swap1\n      div\n      0xffffffffffffffffffffffffffffffffffffffff\n      and\n      swap1\n      dup1\n      0x01\n      add\n      dup1\n      sload\n      tag_31\n      swap1\n      tag_32\n      jump\t// in\n    tag_31:\n      dup1\n      0x1f\n      add\n      0x20\n      dup1\n      swap2\n      div\n      mul\n      0x20\n      add\n      mload(0x40)\n      swap1\n      dup2\n      add\n      0x40\n      mstore\n      dup1\n      swap3\n      swap2\n      swap1\n      dup2\n      dup2\n      mstore\n      0x20\n      add\n      dup3\n      dup1\n      sload\n      tag_33\n      swap1\n      tag_32\n      jump\t// in\n    tag_33:\n      dup1\n      iszero\n      tag_34\n      jumpi\n      dup1\n      0x1f\n      lt\n      tag_35\n      jumpi\n      0x0100\n      dup1\n      dup4\n      sload\n      div\n      mul\n      dup4\n      mstore\n      swap2\n      0x20\n      add\n      swap2\n      jump(tag_34)\n    tag_35:\n      dup3\n      add\n      swap2\n      swap1\n      0x00\n      mstore\n      keccak256(0x00, 0x20)\n      swap1\n    tag_36:\n      dup2\n      sload\n      dup2\n      mstore\n      swap1\n      0x01\n      add\n      swap1\n      0x20\n      add\n      dup1\n      dup4\n      gt\n      tag_36\n      jumpi\n      dup3\n      swap1\n      sub\n      0x1f\n      and\n      dup3\n      add\n      swap2\n    tag_34:\n      pop\n      pop\n      pop\n      pop\n      pop\n      swap1\n      dup1\n      0x02\n      add\n      sload\n      swap1\n      dup1\n      0x03\n      add\n      sload\n      swap1\n      pop\n      dup5\n      jump\t// out\n        /* \"contracts/Lab 2/3-Twitter-Require.sol\":898:1011  function getAllTweets(address _owner) public view returns (Tweet[] memory ){... */\n    tag_16:\n        /* \"contracts/Lab 2/3-Twitter-Require.sol\":957:971  Tweet[] memory */\n      0x60\n        /* \"contracts/Lab 2/3-Twitter-Require.sol\":990:996  tweets */\n      0x00\n        /* \"contracts/Lab 2/3-Twitter-Require.sol\":990:1004  tweets[_owner] */\n      dup1\n        /* \"contracts/Lab 2/3-Twitter-Require.sol\":997:1003  _owner */\n      dup4\n        /* \"contracts/Lab 2/3-Twitter-Require.sol\":990:1004  tweets[_owner] */\n      0xffffffffffffffffffffffffffffffffffffffff\n      and\n      0xffffffffffffffffffffffffffffffffffffffff\n      and\n      dup2\n      mstore\n      0x20\n      add\n      swap1\n      dup2\n      mstore\n      0x20\n      add\n      0x00\n      keccak256\n        /* \"contracts/Lab 2/3-Twitter-Require.sol\":983:1004  return tweets[_owner] */\n      dup1\n      sload\n      dup1\n      0x20\n      mul\n      0x20\n      add\n      mload(0x40)\n      swap1\n      dup2\n      add\n      0x40\n      mstore\n      dup1\n      swap3\n      swap2\n      swap1\n      dup2\n      dup2\n      mstore\n      0x20\n      add\n      0x00\n      swap1\n    tag_38:\n      dup3\n      dup3\n      lt\n      iszero\n      tag_39\n      jumpi\n      dup4\n      dup3\n      swap1\n      0x00\n      mstore\n      keccak256(0x00, 0x20)\n      swap1\n      0x04\n      mul\n      add\n      mload(0x40)\n      dup1\n      0x80\n      add\n      0x40\n      mstore\n      swap1\n      dup2\n      0x00\n      dup3\n      add\n      0x00\n      swap1\n      sload\n      swap1\n      0x0100\n      exp\n      swap1\n      div\n      0xffffffffffffffffffffffffffffffffffffffff\n      and\n      0xffffffffffffffffffffffffffffffffffffffff\n      and\n      0xffffffffffffffffffffffffffffffffffffffff\n      and\n      dup2\n      mstore\n      0x20\n      add\n      0x01\n      dup3\n      add\n      dup1\n      sload\n      tag_41\n      swap1\n      tag_32\n      jump\t// in\n    tag_41:\n      dup1\n      0x1f\n      add\n      0x20\n      dup1\n      swap2\n      div\n      mul\n      0x20\n      add\n      mload(0x40)\n      swap1\n      dup2\n      add\n      0x40\n      mstore\n      dup1\n      swap3\n      swap2\n      swap1\n      dup2\n      dup2\n      mstore\n      0x20\n      add\n      dup3\n      dup1\n      sload\n      tag_42\n      swap1\n      tag_32\n      jump\t// in\n    tag_42:\n      dup1\n      iszero\n      tag_43\n      jumpi\n      dup1\n      0x1f\n      lt\n      tag_44\n      jumpi\n      0x0100\n      dup1\n      dup4\n      sload\n      div\n      mul\n      dup4\n      mstore\n      swap2\n      0x20\n      add\n      swap2\n      jump(tag_43)\n    tag_44:\n      dup3\n      add\n      swap2\n      swap1\n      0x00\n      mstore\n      keccak256(0x00, 0x20)\n      swap1\n    tag_45:\n      dup2\n      sload\n      dup2\n      mstore\n      swap1\n      0x01\n      add\n      swap1\n      0x20\n      add\n      dup1\n      dup4\n      gt\n      tag_45\n      jumpi\n      dup3\n      swap1\n      sub\n      0x1f\n      and\n      dup3\n      add\n      swap2\n    tag_43:\n      pop\n      pop\n      pop\n      pop\n      pop\n      dup2\n      mstore\n      0x20\n      add\n      0x02\n      dup3\n      add\n      sload\n      dup2\n      mstore\n      0x20\n      add\n      0x03\n      dup3\n      add\n      sload\n      dup2\n      mstore\n      pop\n      pop\n      dup2\n      mstore\n      0x20\n      add\n      swap1\n      0x01\n      add\n      swap1\n      jump(tag_38)\n    tag_39:\n      pop\n      pop\n      pop\n      pop\n      swap1\n      pop\n        /* \"contracts/Lab 2/3-Twitter-Require.sol\":898:1011  function getAllTweets(address _owner) public view returns (Tweet[] memory ){... */\n      swap2\n      swap1\n      pop\n      jump\t// out\n        /* \"contracts/Lab 2/3-Twitter-Require.sol\":397:777  function createTweet(string memory _tweet) public {... */\n    tag_22:\n        /* \"contracts/Lab 2/3-Twitter-Require.sol\":562:583  Tweet memory newTweet */\n      0x00\n        /* \"contracts/Lab 2/3-Twitter-Require.sol\":586:726  Tweet({... */\n      mload(0x40)\n      dup1\n      0x80\n      add\n      0x40\n      mstore\n      dup1\n        /* \"contracts/Lab 2/3-Twitter-Require.sol\":614:624  msg.sender */\n      caller\n        /* \"contracts/Lab 2/3-Twitter-Require.sol\":586:726  Tweet({... */\n      0xffffffffffffffffffffffffffffffffffffffff\n      and\n      dup2\n      mstore\n      0x20\n      add\n        /* \"contracts/Lab 2/3-Twitter-Require.sol\":647:653  _tweet */\n      dup4\n        /* \"contracts/Lab 2/3-Twitter-Require.sol\":586:726  Tweet({... */\n      dup2\n      mstore\n      0x20\n      add\n        /* \"contracts/Lab 2/3-Twitter-Require.sol\":678:693  block.timestamp */\n      timestamp\n        /* \"contracts/Lab 2/3-Twitter-Require.sol\":586:726  Tweet({... */\n      dup2\n      mstore\n      0x20\n      add\n        /* \"contracts/Lab 2/3-Twitter-Require.sol\":714:715  0 */\n      0x00\n        /* \"contracts/Lab 2/3-Twitter-Require.sol\":586:726  Tweet({... */\n      dup2\n      mstore\n      pop\n        /* \"contracts/Lab 2/3-Twitter-Require.sol\":562:726  Tweet memory newTweet = Tweet({... */\n      swap1\n      pop\n        /* \"contracts/Lab 2/3-Twitter-Require.sol\":737:743  tweets */\n      0x00\n        /* \"contracts/Lab 2/3-Twitter-Require.sol\":737:755  tweets[msg.sender] */\n      dup1\n        /* \"contracts/Lab 2/3-Twitter-Require.sol\":744:754  msg.sender */\n      caller\n        /* \"contracts/Lab 2/3-Twitter-Require.sol\":737:755  tweets[msg.sender] */\n      0xffffffffffffffffffffffffffffffffffffffff\n      and\n      0xffffffffffffffffffffffffffffffffffffffff\n      and\n      dup2\n      mstore\n      0x20\n      add\n      swap1\n      dup2\n      mstore\n      0x20\n      add\n      0x00\n      keccak256\n        /* \"contracts/Lab 2/3-Twitter-Require.sol\":761:769  newTweet */\n      dup2\n        /* \"contracts/Lab 2/3-Twitter-Require.sol\":737:770  tweets[msg.sender].push(newTweet) */\n      swap1\n      dup1\n      0x01\n      dup2\n      sload\n      add\n      dup1\n      dup3\n      sstore\n      dup1\n      swap2\n      pop\n      pop\n      0x01\n      swap1\n      sub\n      swap1\n      0x00\n      mstore\n      keccak256(0x00, 0x20)\n      swap1\n      0x04\n      mul\n      add\n      0x00\n      swap1\n      swap2\n      swap1\n      swap2\n      swap1\n      swap2\n      pop\n      0x00\n      dup3\n      add\n      mload\n      dup2\n      0x00\n      add\n      exp(0x0100, 0x00)\n      dup2\n      sload\n      dup2\n      0xffffffffffffffffffffffffffffffffffffffff\n      mul\n      not\n      and\n      swap1\n      dup4\n      0xffffffffffffffffffffffffffffffffffffffff\n      and\n      mul\n      or\n      swap1\n      sstore\n      pop\n      0x20\n      dup3\n      add\n      mload\n      dup2\n      0x01\n      add\n      swap1\n      dup2\n      tag_48\n      swap2\n      swap1\n      tag_49\n      jump\t// in\n    tag_48:\n      pop\n      0x40\n      dup3\n      add\n      mload\n      dup2\n      0x02\n      add\n      sstore\n      0x60\n      dup3\n      add\n      mload\n      dup2\n      0x03\n      add\n      sstore\n      pop\n      pop\n        /* \"contracts/Lab 2/3-Twitter-Require.sol\":447:777  {... */\n      pop\n        /* \"contracts/Lab 2/3-Twitter-Require.sol\":397:777  function createTweet(string memory _tweet) public {... */\n      pop\n      jump\t// out\n        /* \"contracts/Lab 2/3-Twitter-Require.sol\":783:892  function getTweet( uint _i) public view returns (Tweet memory) {... */\n    tag_26:\n        /* \"contracts/Lab 2/3-Twitter-Require.sol\":832:844  Tweet memory */\n      tag_50\n      tag_51\n      jump\t// in\n    tag_50:\n        /* \"contracts/Lab 2/3-Twitter-Require.sol\":863:869  tweets */\n      0x00\n        /* \"contracts/Lab 2/3-Twitter-Require.sol\":863:881  tweets[msg.sender] */\n      dup1\n        /* \"contracts/Lab 2/3-Twitter-Require.sol\":870:880  msg.sender */\n      caller\n        /* \"contracts/Lab 2/3-Twitter-Require.sol\":863:881  tweets[msg.sender] */\n      0xffffffffffffffffffffffffffffffffffffffff\n      and\n      0xffffffffffffffffffffffffffffffffffffffff\n      and\n      dup2\n      mstore\n      0x20\n      add\n      swap1\n      dup2\n      mstore\n      0x20\n      add\n      0x00\n      keccak256\n        /* \"contracts/Lab 2/3-Twitter-Require.sol\":882:884  _i */\n      dup3\n        /* \"contracts/Lab 2/3-Twitter-Require.sol\":863:885  tweets[msg.sender][_i] */\n      dup2\n      sload\n      dup2\n      lt\n      tag_53\n      jumpi\n      tag_54\n      tag_55\n      jump\t// in\n    tag_54:\n    tag_53:\n      swap1\n      0x00\n      mstore\n      keccak256(0x00, 0x20)\n      swap1\n      0x04\n      mul\n      add\n        /* \"contracts/Lab 2/3-Twitter-Require.sol\":856:885  return tweets[msg.sender][_i] */\n      mload(0x40)\n      dup1\n      0x80\n      add\n      0x40\n      mstore\n      swap1\n      dup2\n      0x00\n      dup3\n      add\n      0x00\n      swap1\n      sload\n      swap1\n      0x0100\n      exp\n      swap1\n      div\n      0xffffffffffffffffffffffffffffffffffffffff\n      and\n      0xffffffffffffffffffffffffffffffffffffffff\n      and\n      0xffffffffffffffffffffffffffffffffffffffff\n      and\n      dup2\n      mstore\n      0x20\n      add\n      0x01\n      dup3\n      add\n      dup1\n      sload\n      tag_57\n      swap1\n      tag_32\n      jump\t// in\n    tag_57:\n      dup1\n      0x1f\n      add\n      0x20\n      dup1\n      swap2\n      div\n      mul\n      0x20\n      add\n      mload(0x40)\n      swap1\n      dup2\n      add\n      0x40\n      mstore\n      dup1\n      swap3\n      swap2\n      swap1\n      dup2\n      dup2\n      mstore\n      0x20\n      add\n      dup3\n      dup1\n      sload\n      tag_58\n      swap1\n      tag_32\n      jump\t// in\n    tag_58:\n      dup1\n      iszero\n      tag_59\n      jumpi\n      dup1\n      0x1f\n      lt\n      tag_60\n      jumpi\n      0x0100\n      dup1\n      dup4\n      sload\n      div\n      mul\n      dup4\n      mstore\n      swap2\n      0x20\n      add\n      swap2\n      jump(tag_59)\n    tag_60:\n      dup3\n      add\n      swap2\n      swap1\n      0x00\n      mstore\n      keccak256(0x00, 0x20)\n      swap1\n    tag_61:\n      dup2\n      sload\n      dup2\n      mstore\n      swap1\n      0x01\n      add\n      swap1\n      0x20\n      add\n      dup1\n      dup4\n      gt\n      tag_61\n      jumpi\n      dup3\n      swap1\n      sub\n      0x1f\n      and\n      dup3\n      add\n      swap2\n    tag_59:\n      pop\n      pop\n      pop\n      pop\n      pop\n      dup2\n      mstore\n      0x20\n      add\n      0x02\n      dup3\n      add\n      sload\n      dup2\n      mstore\n      0x20\n      add\n      0x03\n      dup3\n      add\n      sload\n      dup2\n      mstore\n      pop\n      pop\n      swap1\n      pop\n        /* \"contracts/Lab 2/3-Twitter-Require.sol\":783:892  function getTweet( uint _i) public view returns (Tweet memory) {... */\n      swap2\n      swap1\n      pop\n      jump\t// out\n    tag_51:\n      mload(0x40)\n      dup1\n      0x80\n      add\n      0x40\n      mstore\n      dup1\n      and(0xffffffffffffffffffffffffffffffffffffffff, 0x00)\n      dup2\n      mstore\n      0x20\n      add\n      0x60\n      dup2\n      mstore\n      0x20\n      add\n      0x00\n      dup2\n      mstore\n      0x20\n      add\n      0x00\n      dup2\n      mstore\n      pop\n      swap1\n      jump\t// out\n        /* \"#utility.yul\":7:82   */\n    tag_62:\n        /* \"#utility.yul\":40:46   */\n      0x00\n        /* \"#utility.yul\":73:75   */\n      0x40\n        /* \"#utility.yul\":67:76   */\n      mload\n        /* \"#utility.yul\":57:76   */\n      swap1\n      pop\n        /* \"#utility.yul\":7:82   */\n      swap1\n      jump\t// out\n        /* \"#utility.yul\":88:205   */\n    tag_63:\n        /* \"#utility.yul\":197:198   */\n      0x00\n        /* \"#utility.yul\":194:195   */\n      dup1\n        /* \"#utility.yul\":187:199   */\n      revert\n        /* \"#utility.yul\":211:328   */\n    tag_64:\n        /* \"#utility.yul\":320:321   */\n      0x00\n        /* \"#utility.yul\":317:318   */\n      dup1\n        /* \"#utility.yul\":310:322   */\n      revert\n        /* \"#utility.yul\":334:460   */\n    tag_65:\n        /* \"#utility.yul\":371:378   */\n      0x00\n        /* \"#utility.yul\":411:453   */\n      0xffffffffffffffffffffffffffffffffffffffff\n        /* \"#utility.yul\":404:409   */\n      dup3\n        /* \"#utility.yul\":400:454   */\n      and\n        /* \"#utility.yul\":389:454   */\n      swap1\n      pop\n        /* \"#utility.yul\":334:460   */\n      swap2\n      swap1\n      pop\n      jump\t// out\n        /* \"#utility.yul\":466:562   */\n    tag_66:\n        /* \"#utility.yul\":503:510   */\n      0x00\n        /* \"#utility.yul\":532:556   */\n      tag_122\n        /* \"#utility.yul\":550:555   */\n      dup3\n        /* \"#utility.yul\":532:556   */\n      tag_65\n      jump\t// in\n    tag_122:\n        /* \"#utility.yul\":521:556   */\n      swap1\n      pop\n        /* \"#utility.yul\":466:562   */\n      swap2\n      swap1\n      pop\n      jump\t// out\n        /* \"#utility.yul\":568:690   */\n    tag_67:\n        /* \"#utility.yul\":641:665   */\n      tag_124\n        /* \"#utility.yul\":659:664   */\n      dup2\n        /* \"#utility.yul\":641:665   */\n      tag_66\n      jump\t// in\n    tag_124:\n        /* \"#utility.yul\":634:639   */\n      dup2\n        /* \"#utility.yul\":631:666   */\n      eq\n        /* \"#utility.yul\":621:684   */\n      tag_125\n      jumpi\n        /* \"#utility.yul\":680:681   */\n      0x00\n        /* \"#utility.yul\":677:678   */\n      dup1\n        /* \"#utility.yul\":670:682   */\n      revert\n        /* \"#utility.yul\":621:684   */\n    tag_125:\n        /* \"#utility.yul\":568:690   */\n      pop\n      jump\t// out\n        /* \"#utility.yul\":696:835   */\n    tag_68:\n        /* \"#utility.yul\":742:747   */\n      0x00\n        /* \"#utility.yul\":780:786   */\n      dup2\n        /* \"#utility.yul\":767:787   */\n      calldataload\n        /* \"#utility.yul\":758:787   */\n      swap1\n      pop\n        /* \"#utility.yul\":796:829   */\n      tag_127\n        /* \"#utility.yul\":823:828   */\n      dup2\n        /* \"#utility.yul\":796:829   */\n      tag_67\n      jump\t// in\n    tag_127:\n        /* \"#utility.yul\":696:835   */\n      swap3\n      swap2\n      pop\n      pop\n      jump\t// out\n        /* \"#utility.yul\":841:918   */\n    tag_69:\n        /* \"#utility.yul\":878:885   */\n      0x00\n        /* \"#utility.yul\":907:912   */\n      dup2\n        /* \"#utility.yul\":896:912   */\n      swap1\n      pop\n        /* \"#utility.yul\":841:918   */\n      swap2\n      swap1\n      pop\n      jump\t// out\n        /* \"#utility.yul\":924:1046   */\n    tag_70:\n        /* \"#utility.yul\":997:1021   */\n      tag_130\n        /* \"#utility.yul\":1015:1020   */\n      dup2\n        /* \"#utility.yul\":997:1021   */\n      tag_69\n      jump\t// in\n    tag_130:\n        /* \"#utility.yul\":990:995   */\n      dup2\n        /* \"#utility.yul\":987:1022   */\n      eq\n        /* \"#utility.yul\":977:1040   */\n      tag_131\n      jumpi\n        /* \"#utility.yul\":1036:1037   */\n      0x00\n        /* \"#utility.yul\":1033:1034   */\n      dup1\n        /* \"#utility.yul\":1026:1038   */\n      revert\n        /* \"#utility.yul\":977:1040   */\n    tag_131:\n        /* \"#utility.yul\":924:1046   */\n      pop\n      jump\t// out\n        /* \"#utility.yul\":1052:1191   */\n    tag_71:\n        /* \"#utility.yul\":1098:1103   */\n      0x00\n        /* \"#utility.yul\":1136:1142   */\n      dup2\n        /* \"#utility.yul\":1123:1143   */\n      calldataload\n        /* \"#utility.yul\":1114:1143   */\n      swap1\n      pop\n        /* \"#utility.yul\":1152:1185   */\n      tag_133\n        /* \"#utility.yul\":1179:1184   */\n      dup2\n        /* \"#utility.yul\":1152:1185   */\n      tag_70\n      jump\t// in\n    tag_133:\n        /* \"#utility.yul\":1052:1191   */\n      swap3\n      swap2\n      pop\n      pop\n      jump\t// out\n        /* \"#utility.yul\":1197:1671   */\n    tag_9:\n        /* \"#utility.yul\":1265:1271   */\n      0x00\n        /* \"#utility.yul\":1273:1279   */\n      dup1\n        /* \"#utility.yul\":1322:1324   */\n      0x40\n        /* \"#utility.yul\":1310:1319   */\n      dup4\n        /* \"#utility.yul\":1301:1308   */\n      dup6\n        /* \"#utility.yul\":1297:1320   */\n      sub\n        /* \"#utility.yul\":1293:1325   */\n      slt\n        /* \"#utility.yul\":1290:1409   */\n      iszero\n      tag_135\n      jumpi\n        /* \"#utility.yul\":1328:1407   */\n      tag_136\n      tag_63\n      jump\t// in\n    tag_136:\n        /* \"#utility.yul\":1290:1409   */\n    tag_135:\n        /* \"#utility.yul\":1448:1449   */\n      0x00\n        /* \"#utility.yul\":1473:1526   */\n      tag_137\n        /* \"#utility.yul\":1518:1525   */\n      dup6\n        /* \"#utility.yul\":1509:1515   */\n      dup3\n        /* \"#utility.yul\":1498:1507   */\n      dup7\n        /* \"#utility.yul\":1494:1516   */\n      add\n        /* \"#utility.yul\":1473:1526   */\n      tag_68\n      jump\t// in\n    tag_137:\n        /* \"#utility.yul\":1463:1526   */\n      swap3\n      pop\n        /* \"#utility.yul\":1419:1536   */\n      pop\n        /* \"#utility.yul\":1575:1577   */\n      0x20\n        /* \"#utility.yul\":1601:1654   */\n      tag_138\n        /* \"#utility.yul\":1646:1653   */\n      dup6\n        /* \"#utility.yul\":1637:1643   */\n      dup3\n        /* \"#utility.yul\":1626:1635   */\n      dup7\n        /* \"#utility.yul\":1622:1644   */\n      add\n        /* \"#utility.yul\":1601:1654   */\n      tag_71\n      jump\t// in\n    tag_138:\n        /* \"#utility.yul\":1591:1654   */\n      swap2\n      pop\n        /* \"#utility.yul\":1546:1664   */\n      pop\n        /* \"#utility.yul\":1197:1671   */\n      swap3\n      pop\n      swap3\n      swap1\n      pop\n      jump\t// out\n        /* \"#utility.yul\":1677:1795   */\n    tag_72:\n        /* \"#utility.yul\":1764:1788   */\n      tag_140\n        /* \"#utility.yul\":1782:1787   */\n      dup2\n        /* \"#utility.yul\":1764:1788   */\n      tag_66\n      jump\t// in\n    tag_140:\n        /* \"#utility.yul\":1759:1762   */\n      dup3\n        /* \"#utility.yul\":1752:1789   */\n      mstore\n        /* \"#utility.yul\":1677:1795   */\n      pop\n      pop\n      jump\t// out\n        /* \"#utility.yul\":1801:1900   */\n    tag_73:\n        /* \"#utility.yul\":1853:1859   */\n      0x00\n        /* \"#utility.yul\":1887:1892   */\n      dup2\n        /* \"#utility.yul\":1881:1893   */\n      mload\n        /* \"#utility.yul\":1871:1893   */\n      swap1\n      pop\n        /* \"#utility.yul\":1801:1900   */\n      swap2\n      swap1\n      pop\n      jump\t// out\n        /* \"#utility.yul\":1906:2075   */\n    tag_74:\n        /* \"#utility.yul\":1990:2001   */\n      0x00\n        /* \"#utility.yul\":2024:2030   */\n      dup3\n        /* \"#utility.yul\":2019:2022   */\n      dup3\n        /* \"#utility.yul\":2012:2031   */\n      mstore\n        /* \"#utility.yul\":2064:2068   */\n      0x20\n        /* \"#utility.yul\":2059:2062   */\n      dup3\n        /* \"#utility.yul\":2055:2069   */\n      add\n        /* \"#utility.yul\":2040:2069   */\n      swap1\n      pop\n        /* \"#utility.yul\":1906:2075   */\n      swap3\n      swap2\n      pop\n      pop\n      jump\t// out\n        /* \"#utility.yul\":2081:2220   */\n    tag_75:\n        /* \"#utility.yul\":2170:2176   */\n      dup3\n        /* \"#utility.yul\":2165:2168   */\n      dup2\n        /* \"#utility.yul\":2160:2163   */\n      dup4\n        /* \"#utility.yul\":2154:2177   */\n      mcopy\n        /* \"#utility.yul\":2211:2212   */\n      0x00\n        /* \"#utility.yul\":2202:2208   */\n      dup4\n        /* \"#utility.yul\":2197:2200   */\n      dup4\n        /* \"#utility.yul\":2193:2209   */\n      add\n        /* \"#utility.yul\":2186:2213   */\n      mstore\n        /* \"#utility.yul\":2081:2220   */\n      pop\n      pop\n      pop\n      jump\t// out\n        /* \"#utility.yul\":2226:2328   */\n    tag_76:\n        /* \"#utility.yul\":2267:2273   */\n      0x00\n        /* \"#utility.yul\":2318:2320   */\n      0x1f\n        /* \"#utility.yul\":2314:2321   */\n      not\n        /* \"#utility.yul\":2309:2311   */\n      0x1f\n        /* \"#utility.yul\":2302:2307   */\n      dup4\n        /* \"#utility.yul\":2298:2312   */\n      add\n        /* \"#utility.yul\":2294:2322   */\n      and\n        /* \"#utility.yul\":2284:2322   */\n      swap1\n      pop\n        /* \"#utility.yul\":2226:2328   */\n      swap2\n      swap1\n      pop\n      jump\t// out\n        /* \"#utility.yul\":2334:2711   */\n    tag_77:\n        /* \"#utility.yul\":2422:2425   */\n      0x00\n        /* \"#utility.yul\":2450:2489   */\n      tag_146\n        /* \"#utility.yul\":2483:2488   */\n      dup3\n        /* \"#utility.yul\":2450:2489   */\n      tag_73\n      jump\t// in\n    tag_146:\n        /* \"#utility.yul\":2505:2576   */\n      tag_147\n        /* \"#utility.yul\":2569:2575   */\n      dup2\n        /* \"#utility.yul\":2564:2567   */\n      dup6\n        /* \"#utility.yul\":2505:2576   */\n      tag_74\n      jump\t// in\n    tag_147:\n        /* \"#utility.yul\":2498:2576   */\n      swap4\n      pop\n        /* \"#utility.yul\":2585:2650   */\n      tag_148\n        /* \"#utility.yul\":2643:2649   */\n      dup2\n        /* \"#utility.yul\":2638:2641   */\n      dup6\n        /* \"#utility.yul\":2631:2635   */\n      0x20\n        /* \"#utility.yul\":2624:2629   */\n      dup7\n        /* \"#utility.yul\":2620:2636   */\n      add\n        /* \"#utility.yul\":2585:2650   */\n      tag_75\n      jump\t// in\n    tag_148:\n        /* \"#utility.yul\":2675:2704   */\n      tag_149\n        /* \"#utility.yul\":2697:2703   */\n      dup2\n        /* \"#utility.yul\":2675:2704   */\n      tag_76\n      jump\t// in\n    tag_149:\n        /* \"#utility.yul\":2670:2673   */\n      dup5\n        /* \"#utility.yul\":2666:2705   */\n      add\n        /* \"#utility.yul\":2659:2705   */\n      swap2\n      pop\n        /* \"#utility.yul\":2426:2711   */\n      pop\n        /* \"#utility.yul\":2334:2711   */\n      swap3\n      swap2\n      pop\n      pop\n      jump\t// out\n        /* \"#utility.yul\":2717:2835   */\n    tag_78:\n        /* \"#utility.yul\":2804:2828   */\n      tag_151\n        /* \"#utility.yul\":2822:2827   */\n      dup2\n        /* \"#utility.yul\":2804:2828   */\n      tag_69\n      jump\t// in\n    tag_151:\n        /* \"#utility.yul\":2799:2802   */\n      dup3\n        /* \"#utility.yul\":2792:2829   */\n      mstore\n        /* \"#utility.yul\":2717:2835   */\n      pop\n      pop\n      jump\t// out\n        /* \"#utility.yul\":2841:3485   */\n    tag_12:\n        /* \"#utility.yul\":3038:3042   */\n      0x00\n        /* \"#utility.yul\":3076:3079   */\n      0x80\n        /* \"#utility.yul\":3065:3074   */\n      dup3\n        /* \"#utility.yul\":3061:3080   */\n      add\n        /* \"#utility.yul\":3053:3080   */\n      swap1\n      pop\n        /* \"#utility.yul\":3090:3161   */\n      tag_153\n        /* \"#utility.yul\":3158:3159   */\n      0x00\n        /* \"#utility.yul\":3147:3156   */\n      dup4\n        /* \"#utility.yul\":3143:3160   */\n      add\n        /* \"#utility.yul\":3134:3140   */\n      dup8\n        /* \"#utility.yul\":3090:3161   */\n      tag_72\n      jump\t// in\n    tag_153:\n        /* \"#utility.yul\":3208:3217   */\n      dup2\n        /* \"#utility.yul\":3202:3206   */\n      dup2\n        /* \"#utility.yul\":3198:3218   */\n      sub\n        /* \"#utility.yul\":3193:3195   */\n      0x20\n        /* \"#utility.yul\":3182:3191   */\n      dup4\n        /* \"#utility.yul\":3178:3196   */\n      add\n        /* \"#utility.yul\":3171:3219   */\n      mstore\n        /* \"#utility.yul\":3236:3314   */\n      tag_154\n        /* \"#utility.yul\":3309:3313   */\n      dup2\n        /* \"#utility.yul\":3300:3306   */\n      dup7\n        /* \"#utility.yul\":3236:3314   */\n      tag_77\n      jump\t// in\n    tag_154:\n        /* \"#utility.yul\":3228:3314   */\n      swap1\n      pop\n        /* \"#utility.yul\":3324:3396   */\n      tag_155\n        /* \"#utility.yul\":3392:3394   */\n      0x40\n        /* \"#utility.yul\":3381:3390   */\n      dup4\n        /* \"#utility.yul\":3377:3395   */\n      add\n        /* \"#utility.yul\":3368:3374   */\n      dup6\n        /* \"#utility.yul\":3324:3396   */\n      tag_78\n      jump\t// in\n    tag_155:\n        /* \"#utility.yul\":3406:3478   */\n      tag_156\n        /* \"#utility.yul\":3474:3476   */\n      0x60\n        /* \"#utility.yul\":3463:3472   */\n      dup4\n        /* \"#utility.yul\":3459:3477   */\n      add\n        /* \"#utility.yul\":3450:3456   */\n      dup5\n        /* \"#utility.yul\":3406:3478   */\n      tag_78\n      jump\t// in\n    tag_156:\n        /* \"#utility.yul\":2841:3485   */\n      swap6\n      swap5\n      pop\n      pop\n      pop\n      pop\n      pop\n      jump\t// out\n        /* \"#utility.yul\":3491:3820   */\n    tag_15:\n        /* \"#utility.yul\":3550:3556   */\n      0x00\n        /* \"#utility.yul\":3599:3601   */\n      0x20\n        /* \"#utility.yul\":3587:3596   */\n      dup3\n        /* \"#utility.yul\":3578:3585   */\n      dup5\n        /* \"#utility.yul\":3574:3597   */\n      sub\n        /* \"#utility.yul\":3570:3602   */\n      slt\n        /* \"#utility.yul\":3567:3686   */\n      iszero\n      tag_158\n      jumpi\n        /* \"#utility.yul\":3605:3684   */\n      tag_159\n      tag_63\n      jump\t// in\n    tag_159:\n        /* \"#utility.yul\":3567:3686   */\n    tag_158:\n        /* \"#utility.yul\":3725:3726   */\n      0x00\n        /* \"#utility.yul\":3750:3803   */\n      tag_160\n        /* \"#utility.yul\":3795:3802   */\n      dup5\n        /* \"#utility.yul\":3786:3792   */\n      dup3\n        /* \"#utility.yul\":3775:3784   */\n      dup6\n        /* \"#utility.yul\":3771:3793   */\n      add\n        /* \"#utility.yul\":3750:3803   */\n      tag_68\n      jump\t// in\n    tag_160:\n        /* \"#utility.yul\":3740:3803   */\n      swap2\n      pop\n        /* \"#utility.yul\":3696:3813   */\n      pop\n        /* \"#utility.yul\":3491:3820   */\n      swap3\n      swap2\n      pop\n      pop\n      jump\t// out\n        /* \"#utility.yul\":3826:3961   */\n    tag_79:\n        /* \"#utility.yul\":3914:3920   */\n      0x00\n        /* \"#utility.yul\":3948:3953   */\n      dup2\n        /* \"#utility.yul\":3942:3954   */\n      mload\n        /* \"#utility.yul\":3932:3954   */\n      swap1\n      pop\n        /* \"#utility.yul\":3826:3961   */\n      swap2\n      swap1\n      pop\n      jump\t// out\n        /* \"#utility.yul\":3967:4172   */\n    tag_80:\n        /* \"#utility.yul\":4087:4098   */\n      0x00\n        /* \"#utility.yul\":4121:4127   */\n      dup3\n        /* \"#utility.yul\":4116:4119   */\n      dup3\n        /* \"#utility.yul\":4109:4128   */\n      mstore\n        /* \"#utility.yul\":4161:4165   */\n      0x20\n        /* \"#utility.yul\":4156:4159   */\n      dup3\n        /* \"#utility.yul\":4152:4166   */\n      add\n        /* \"#utility.yul\":4137:4166   */\n      swap1\n      pop\n        /* \"#utility.yul\":3967:4172   */\n      swap3\n      swap2\n      pop\n      pop\n      jump\t// out\n        /* \"#utility.yul\":4178:4331   */\n    tag_81:\n        /* \"#utility.yul\":4266:4270   */\n      0x00\n        /* \"#utility.yul\":4289:4292   */\n      dup2\n        /* \"#utility.yul\":4281:4292   */\n      swap1\n      pop\n        /* \"#utility.yul\":4319:4323   */\n      0x20\n        /* \"#utility.yul\":4314:4317   */\n      dup3\n        /* \"#utility.yul\":4310:4324   */\n      add\n        /* \"#utility.yul\":4302:4324   */\n      swap1\n      pop\n        /* \"#utility.yul\":4178:4331   */\n      swap2\n      swap1\n      pop\n      jump\t// out\n        /* \"#utility.yul\":4337:4445   */\n    tag_82:\n        /* \"#utility.yul\":4414:4438   */\n      tag_165\n        /* \"#utility.yul\":4432:4437   */\n      dup2\n        /* \"#utility.yul\":4414:4438   */\n      tag_66\n      jump\t// in\n    tag_165:\n        /* \"#utility.yul\":4409:4412   */\n      dup3\n        /* \"#utility.yul\":4402:4439   */\n      mstore\n        /* \"#utility.yul\":4337:4445   */\n      pop\n      pop\n      jump\t// out\n        /* \"#utility.yul\":4451:4610   */\n    tag_83:\n        /* \"#utility.yul\":4525:4536   */\n      0x00\n        /* \"#utility.yul\":4559:4565   */\n      dup3\n        /* \"#utility.yul\":4554:4557   */\n      dup3\n        /* \"#utility.yul\":4547:4566   */\n      mstore\n        /* \"#utility.yul\":4599:4603   */\n      0x20\n        /* \"#utility.yul\":4594:4597   */\n      dup3\n        /* \"#utility.yul\":4590:4604   */\n      add\n        /* \"#utility.yul\":4575:4604   */\n      swap1\n      pop\n        /* \"#utility.yul\":4451:4610   */\n      swap3\n      swap2\n      pop\n      pop\n      jump\t// out\n        /* \"#utility.yul\":4616:4973   */\n    tag_84:\n        /* \"#utility.yul\":4694:4697   */\n      0x00\n        /* \"#utility.yul\":4722:4761   */\n      tag_168\n        /* \"#utility.yul\":4755:4760   */\n      dup3\n        /* \"#utility.yul\":4722:4761   */\n      tag_73\n      jump\t// in\n    tag_168:\n        /* \"#utility.yul\":4777:4838   */\n      tag_169\n        /* \"#utility.yul\":4831:4837   */\n      dup2\n        /* \"#utility.yul\":4826:4829   */\n      dup6\n        /* \"#utility.yul\":4777:4838   */\n      tag_83\n      jump\t// in\n    tag_169:\n        /* \"#utility.yul\":4770:4838   */\n      swap4\n      pop\n        /* \"#utility.yul\":4847:4912   */\n      tag_170\n        /* \"#utility.yul\":4905:4911   */\n      dup2\n        /* \"#utility.yul\":4900:4903   */\n      dup6\n        /* \"#utility.yul\":4893:4897   */\n      0x20\n        /* \"#utility.yul\":4886:4891   */\n      dup7\n        /* \"#utility.yul\":4882:4898   */\n      add\n        /* \"#utility.yul\":4847:4912   */\n      tag_75\n      jump\t// in\n    tag_170:\n        /* \"#utility.yul\":4937:4966   */\n      tag_171\n        /* \"#utility.yul\":4959:4965   */\n      dup2\n        /* \"#utility.yul\":4937:4966   */\n      tag_76\n      jump\t// in\n    tag_171:\n        /* \"#utility.yul\":4932:4935   */\n      dup5\n        /* \"#utility.yul\":4928:4967   */\n      add\n        /* \"#utility.yul\":4921:4967   */\n      swap2\n      pop\n        /* \"#utility.yul\":4698:4973   */\n      pop\n        /* \"#utility.yul\":4616:4973   */\n      swap3\n      swap2\n      pop\n      pop\n      jump\t// out\n        /* \"#utility.yul\":4979:5087   */\n    tag_85:\n        /* \"#utility.yul\":5056:5080   */\n      tag_173\n        /* \"#utility.yul\":5074:5079   */\n      dup2\n        /* \"#utility.yul\":5056:5080   */\n      tag_69\n      jump\t// in\n    tag_173:\n        /* \"#utility.yul\":5051:5054   */\n      dup3\n        /* \"#utility.yul\":5044:5081   */\n      mstore\n        /* \"#utility.yul\":4979:5087   */\n      pop\n      pop\n      jump\t// out\n        /* \"#utility.yul\":5145:6092   */\n    tag_86:\n        /* \"#utility.yul\":5246:5249   */\n      0x00\n        /* \"#utility.yul\":5282:5286   */\n      0x80\n        /* \"#utility.yul\":5277:5280   */\n      dup4\n        /* \"#utility.yul\":5273:5287   */\n      add\n        /* \"#utility.yul\":5371:5375   */\n      0x00\n        /* \"#utility.yul\":5364:5369   */\n      dup4\n        /* \"#utility.yul\":5360:5376   */\n      add\n        /* \"#utility.yul\":5354:5377   */\n      mload\n        /* \"#utility.yul\":5390:5453   */\n      tag_175\n        /* \"#utility.yul\":5447:5451   */\n      0x00\n        /* \"#utility.yul\":5442:5445   */\n      dup7\n        /* \"#utility.yul\":5438:5452   */\n      add\n        /* \"#utility.yul\":5424:5436   */\n      dup3\n        /* \"#utility.yul\":5390:5453   */\n      tag_82\n      jump\t// in\n    tag_175:\n        /* \"#utility.yul\":5297:5463   */\n      pop\n        /* \"#utility.yul\":5548:5552   */\n      0x20\n        /* \"#utility.yul\":5541:5546   */\n      dup4\n        /* \"#utility.yul\":5537:5553   */\n      add\n        /* \"#utility.yul\":5531:5554   */\n      mload\n        /* \"#utility.yul\":5601:5604   */\n      dup5\n        /* \"#utility.yul\":5595:5599   */\n      dup3\n        /* \"#utility.yul\":5591:5605   */\n      sub\n        /* \"#utility.yul\":5584:5588   */\n      0x20\n        /* \"#utility.yul\":5579:5582   */\n      dup7\n        /* \"#utility.yul\":5575:5589   */\n      add\n        /* \"#utility.yul\":5568:5606   */\n      mstore\n        /* \"#utility.yul\":5627:5700   */\n      tag_176\n        /* \"#utility.yul\":5695:5699   */\n      dup3\n        /* \"#utility.yul\":5681:5693   */\n      dup3\n        /* \"#utility.yul\":5627:5700   */\n      tag_84\n      jump\t// in\n    tag_176:\n        /* \"#utility.yul\":5619:5700   */\n      swap2\n      pop\n        /* \"#utility.yul\":5473:5711   */\n      pop\n        /* \"#utility.yul\":5798:5802   */\n      0x40\n        /* \"#utility.yul\":5791:5796   */\n      dup4\n        /* \"#utility.yul\":5787:5803   */\n      add\n        /* \"#utility.yul\":5781:5804   */\n      mload\n        /* \"#utility.yul\":5817:5880   */\n      tag_177\n        /* \"#utility.yul\":5874:5878   */\n      0x40\n        /* \"#utility.yul\":5869:5872   */\n      dup7\n        /* \"#utility.yul\":5865:5879   */\n      add\n        /* \"#utility.yul\":5851:5863   */\n      dup3\n        /* \"#utility.yul\":5817:5880   */\n      tag_85\n      jump\t// in\n    tag_177:\n        /* \"#utility.yul\":5721:5890   */\n      pop\n        /* \"#utility.yul\":5973:5977   */\n      0x60\n        /* \"#utility.yul\":5966:5971   */\n      dup4\n        /* \"#utility.yul\":5962:5978   */\n      add\n        /* \"#utility.yul\":5956:5979   */\n      mload\n        /* \"#utility.yul\":5992:6055   */\n      tag_178\n        /* \"#utility.yul\":6049:6053   */\n      0x60\n        /* \"#utility.yul\":6044:6047   */\n      dup7\n        /* \"#utility.yul\":6040:6054   */\n      add\n        /* \"#utility.yul\":6026:6038   */\n      dup3\n        /* \"#utility.yul\":5992:6055   */\n      tag_85\n      jump\t// in\n    tag_178:\n        /* \"#utility.yul\":5900:6065   */\n      pop\n        /* \"#utility.yul\":6082:6086   */\n      dup1\n        /* \"#utility.yul\":6075:6086   */\n      swap2\n      pop\n        /* \"#utility.yul\":5251:6092   */\n      pop\n        /* \"#utility.yul\":5145:6092   */\n      swap3\n      swap2\n      pop\n      pop\n      jump\t// out\n        /* \"#utility.yul\":6098:6338   */\n    tag_87:\n        /* \"#utility.yul\":6209:6219   */\n      0x00\n        /* \"#utility.yul\":6244:6332   */\n      tag_180\n        /* \"#utility.yul\":6328:6331   */\n      dup4\n        /* \"#utility.yul\":6320:6326   */\n      dup4\n        /* \"#utility.yul\":6244:6332   */\n      tag_86\n      jump\t// in\n    tag_180:\n        /* \"#utility.yul\":6230:6332   */\n      swap1\n      pop\n        /* \"#utility.yul\":6098:6338   */\n      swap3\n      swap2\n      pop\n      pop\n      jump\t// out\n        /* \"#utility.yul\":6344:6478   */\n    tag_88:\n        /* \"#utility.yul\":6435:6439   */\n      0x00\n        /* \"#utility.yul\":6467:6471   */\n      0x20\n        /* \"#utility.yul\":6462:6465   */\n      dup3\n        /* \"#utility.yul\":6458:6472   */\n      add\n        /* \"#utility.yul\":6450:6472   */\n      swap1\n      pop\n        /* \"#utility.yul\":6344:6478   */\n      swap2\n      swap1\n      pop\n      jump\t// out\n        /* \"#utility.yul\":6540:7619   */\n    tag_89:\n        /* \"#utility.yul\":6701:6704   */\n      0x00\n        /* \"#utility.yul\":6730:6805   */\n      tag_183\n        /* \"#utility.yul\":6799:6804   */\n      dup3\n        /* \"#utility.yul\":6730:6805   */\n      tag_79\n      jump\t// in\n    tag_183:\n        /* \"#utility.yul\":6821:6928   */\n      tag_184\n        /* \"#utility.yul\":6921:6927   */\n      dup2\n        /* \"#utility.yul\":6916:6919   */\n      dup6\n        /* \"#utility.yul\":6821:6928   */\n      tag_80\n      jump\t// in\n    tag_184:\n        /* \"#utility.yul\":6814:6928   */\n      swap4\n      pop\n        /* \"#utility.yul\":6954:6957   */\n      dup4\n        /* \"#utility.yul\":6999:7003   */\n      0x20\n        /* \"#utility.yul\":6991:6997   */\n      dup3\n        /* \"#utility.yul\":6987:7004   */\n      mul\n        /* \"#utility.yul\":6982:6985   */\n      dup6\n        /* \"#utility.yul\":6978:7005   */\n      add\n        /* \"#utility.yul\":7029:7106   */\n      tag_185\n        /* \"#utility.yul\":7100:7105   */\n      dup6\n        /* \"#utility.yul\":7029:7106   */\n      tag_81\n      jump\t// in\n    tag_185:\n        /* \"#utility.yul\":7129:7136   */\n      dup1\n        /* \"#utility.yul\":7160:7161   */\n      0x00\n        /* \"#utility.yul\":7145:7574   */\n    tag_186:\n        /* \"#utility.yul\":7170:7176   */\n      dup6\n        /* \"#utility.yul\":7167:7168   */\n      dup2\n        /* \"#utility.yul\":7164:7177   */\n      lt\n        /* \"#utility.yul\":7145:7574   */\n      iszero\n      tag_188\n      jumpi\n        /* \"#utility.yul\":7241:7250   */\n      dup5\n        /* \"#utility.yul\":7235:7239   */\n      dup5\n        /* \"#utility.yul\":7231:7251   */\n      sub\n        /* \"#utility.yul\":7226:7229   */\n      dup10\n        /* \"#utility.yul\":7219:7252   */\n      mstore\n        /* \"#utility.yul\":7292:7298   */\n      dup2\n        /* \"#utility.yul\":7286:7299   */\n      mload\n        /* \"#utility.yul\":7320:7426   */\n      tag_189\n        /* \"#utility.yul\":7421:7425   */\n      dup6\n        /* \"#utility.yul\":7406:7419   */\n      dup3\n        /* \"#utility.yul\":7320:7426   */\n      tag_87\n      jump\t// in\n    tag_189:\n        /* \"#utility.yul\":7312:7426   */\n      swap5\n      pop\n        /* \"#utility.yul\":7449:7530   */\n      tag_190\n        /* \"#utility.yul\":7523:7529   */\n      dup4\n        /* \"#utility.yul\":7449:7530   */\n      tag_88\n      jump\t// in\n    tag_190:\n        /* \"#utility.yul\":7439:7530   */\n      swap3\n      pop\n        /* \"#utility.yul\":7559:7563   */\n      0x20\n        /* \"#utility.yul\":7554:7557   */\n      dup11\n        /* \"#utility.yul\":7550:7564   */\n      add\n        /* \"#utility.yul\":7543:7564   */\n      swap10\n      pop\n        /* \"#utility.yul\":7205:7574   */\n      pop\n        /* \"#utility.yul\":7192:7193   */\n      0x01\n        /* \"#utility.yul\":7189:7190   */\n      dup2\n        /* \"#utility.yul\":7185:7194   */\n      add\n        /* \"#utility.yul\":7180:7194   */\n      swap1\n      pop\n        /* \"#utility.yul\":7145:7574   */\n      jump(tag_186)\n    tag_188:\n        /* \"#utility.yul\":7149:7163   */\n      pop\n        /* \"#utility.yul\":7590:7594   */\n      dup3\n        /* \"#utility.yul\":7583:7594   */\n      swap8\n      pop\n        /* \"#utility.yul\":7610:7613   */\n      dup8\n        /* \"#utility.yul\":7603:7613   */\n      swap6\n      pop\n        /* \"#utility.yul\":6706:7619   */\n      pop\n      pop\n      pop\n      pop\n      pop\n        /* \"#utility.yul\":6540:7619   */\n      swap3\n      swap2\n      pop\n      pop\n      jump\t// out\n        /* \"#utility.yul\":7625:8082   */\n    tag_18:\n        /* \"#utility.yul\":7810:7814   */\n      0x00\n        /* \"#utility.yul\":7848:7850   */\n      0x20\n        /* \"#utility.yul\":7837:7846   */\n      dup3\n        /* \"#utility.yul\":7833:7851   */\n      add\n        /* \"#utility.yul\":7825:7851   */\n      swap1\n      pop\n        /* \"#utility.yul\":7897:7906   */\n      dup2\n        /* \"#utility.yul\":7891:7895   */\n      dup2\n        /* \"#utility.yul\":7887:7907   */\n      sub\n        /* \"#utility.yul\":7883:7884   */\n      0x00\n        /* \"#utility.yul\":7872:7881   */\n      dup4\n        /* \"#utility.yul\":7868:7885   */\n      add\n        /* \"#utility.yul\":7861:7908   */\n      mstore\n        /* \"#utility.yul\":7925:8075   */\n      tag_192\n        /* \"#utility.yul\":8070:8074   */\n      dup2\n        /* \"#utility.yul\":8061:8067   */\n      dup5\n        /* \"#utility.yul\":7925:8075   */\n      tag_89\n      jump\t// in\n    tag_192:\n        /* \"#utility.yul\":7917:8075   */\n      swap1\n      pop\n        /* \"#utility.yul\":7625:8082   */\n      swap3\n      swap2\n      pop\n      pop\n      jump\t// out\n        /* \"#utility.yul\":8088:8205   */\n    tag_90:\n        /* \"#utility.yul\":8197:8198   */\n      0x00\n        /* \"#utility.yul\":8194:8195   */\n      dup1\n        /* \"#utility.yul\":8187:8199   */\n      revert\n        /* \"#utility.yul\":8211:8328   */\n    tag_91:\n        /* \"#utility.yul\":8320:8321   */\n      0x00\n        /* \"#utility.yul\":8317:8318   */\n      dup1\n        /* \"#utility.yul\":8310:8322   */\n      revert\n        /* \"#utility.yul\":8334:8514   */\n    tag_92:\n        /* \"#utility.yul\":8382:8459   */\n      0x4e487b7100000000000000000000000000000000000000000000000000000000\n        /* \"#utility.yul\":8379:8380   */\n      0x00\n        /* \"#utility.yul\":8372:8460   */\n      mstore\n        /* \"#utility.yul\":8479:8483   */\n      0x41\n        /* \"#utility.yul\":8476:8477   */\n      0x04\n        /* \"#utility.yul\":8469:8484   */\n      mstore\n        /* \"#utility.yul\":8503:8507   */\n      0x24\n        /* \"#utility.yul\":8500:8501   */\n      0x00\n        /* \"#utility.yul\":8493:8508   */\n      revert\n        /* \"#utility.yul\":8520:8801   */\n    tag_93:\n        /* \"#utility.yul\":8603:8630   */\n      tag_197\n        /* \"#utility.yul\":8625:8629   */\n      dup3\n        /* \"#utility.yul\":8603:8630   */\n      tag_76\n      jump\t// in\n    tag_197:\n        /* \"#utility.yul\":8595:8601   */\n      dup2\n        /* \"#utility.yul\":8591:8631   */\n      add\n        /* \"#utility.yul\":8733:8739   */\n      dup2\n        /* \"#utility.yul\":8721:8731   */\n      dup2\n        /* \"#utility.yul\":8718:8740   */\n      lt\n        /* \"#utility.yul\":8697:8715   */\n      0xffffffffffffffff\n        /* \"#utility.yul\":8685:8695   */\n      dup3\n        /* \"#utility.yul\":8682:8716   */\n      gt\n        /* \"#utility.yul\":8679:8741   */\n      or\n        /* \"#utility.yul\":8676:8764   */\n      iszero\n      tag_198\n      jumpi\n        /* \"#utility.yul\":8744:8762   */\n      tag_199\n      tag_92\n      jump\t// in\n    tag_199:\n        /* \"#utility.yul\":8676:8764   */\n    tag_198:\n        /* \"#utility.yul\":8784:8794   */\n      dup1\n        /* \"#utility.yul\":8780:8782   */\n      0x40\n        /* \"#utility.yul\":8773:8795   */\n      mstore\n        /* \"#utility.yul\":8563:8801   */\n      pop\n        /* \"#utility.yul\":8520:8801   */\n      pop\n      pop\n      jump\t// out\n        /* \"#utility.yul\":8807:8936   */\n    tag_94:\n        /* \"#utility.yul\":8841:8847   */\n      0x00\n        /* \"#utility.yul\":8868:8888   */\n      tag_201\n      tag_62\n      jump\t// in\n    tag_201:\n        /* \"#utility.yul\":8858:8888   */\n      swap1\n      pop\n        /* \"#utility.yul\":8897:8930   */\n      tag_202\n        /* \"#utility.yul\":8925:8929   */\n      dup3\n        /* \"#utility.yul\":8917:8923   */\n      dup3\n        /* \"#utility.yul\":8897:8930   */\n      tag_93\n      jump\t// in\n    tag_202:\n        /* \"#utility.yul\":8807:8936   */\n      swap2\n      swap1\n      pop\n      jump\t// out\n        /* \"#utility.yul\":8942:9250   */\n    tag_95:\n        /* \"#utility.yul\":9004:9008   */\n      0x00\n        /* \"#utility.yul\":9094:9112   */\n      0xffffffffffffffff\n        /* \"#utility.yul\":9086:9092   */\n      dup3\n        /* \"#utility.yul\":9083:9113   */\n      gt\n        /* \"#utility.yul\":9080:9136   */\n      iszero\n      tag_204\n      jumpi\n        /* \"#utility.yul\":9116:9134   */\n      tag_205\n      tag_92\n      jump\t// in\n    tag_205:\n        /* \"#utility.yul\":9080:9136   */\n    tag_204:\n        /* \"#utility.yul\":9154:9183   */\n      tag_206\n        /* \"#utility.yul\":9176:9182   */\n      dup3\n        /* \"#utility.yul\":9154:9183   */\n      tag_76\n      jump\t// in\n    tag_206:\n        /* \"#utility.yul\":9146:9183   */\n      swap1\n      pop\n        /* \"#utility.yul\":9238:9242   */\n      0x20\n        /* \"#utility.yul\":9232:9236   */\n      dup2\n        /* \"#utility.yul\":9228:9243   */\n      add\n        /* \"#utility.yul\":9220:9243   */\n      swap1\n      pop\n        /* \"#utility.yul\":8942:9250   */\n      swap2\n      swap1\n      pop\n      jump\t// out\n        /* \"#utility.yul\":9256:9404   */\n    tag_96:\n        /* \"#utility.yul\":9354:9360   */\n      dup3\n        /* \"#utility.yul\":9349:9352   */\n      dup2\n        /* \"#utility.yul\":9344:9347   */\n      dup4\n        /* \"#utility.yul\":9331:9361   */\n      calldatacopy\n        /* \"#utility.yul\":9395:9396   */\n      0x00\n        /* \"#utility.yul\":9386:9392   */\n      dup4\n        /* \"#utility.yul\":9381:9384   */\n      dup4\n        /* \"#utility.yul\":9377:9393   */\n      add\n        /* \"#utility.yul\":9370:9397   */\n      mstore\n        /* \"#utility.yul\":9256:9404   */\n      pop\n      pop\n      pop\n      jump\t// out\n        /* \"#utility.yul\":9410:9835   */\n    tag_97:\n        /* \"#utility.yul\":9488:9493   */\n      0x00\n        /* \"#utility.yul\":9513:9579   */\n      tag_209\n        /* \"#utility.yul\":9529:9578   */\n      tag_210\n        /* \"#utility.yul\":9571:9577   */\n      dup5\n        /* \"#utility.yul\":9529:9578   */\n      tag_95\n      jump\t// in\n    tag_210:\n        /* \"#utility.yul\":9513:9579   */\n      tag_94\n      jump\t// in\n    tag_209:\n        /* \"#utility.yul\":9504:9579   */\n      swap1\n      pop\n        /* \"#utility.yul\":9602:9608   */\n      dup3\n        /* \"#utility.yul\":9595:9600   */\n      dup2\n        /* \"#utility.yul\":9588:9609   */\n      mstore\n        /* \"#utility.yul\":9640:9644   */\n      0x20\n        /* \"#utility.yul\":9633:9638   */\n      dup2\n        /* \"#utility.yul\":9629:9645   */\n      add\n        /* \"#utility.yul\":9678:9681   */\n      dup5\n        /* \"#utility.yul\":9669:9675   */\n      dup5\n        /* \"#utility.yul\":9664:9667   */\n      dup5\n        /* \"#utility.yul\":9660:9676   */\n      add\n        /* \"#utility.yul\":9657:9682   */\n      gt\n        /* \"#utility.yul\":9654:9766   */\n      iszero\n      tag_211\n      jumpi\n        /* \"#utility.yul\":9685:9764   */\n      tag_212\n      tag_91\n      jump\t// in\n    tag_212:\n        /* \"#utility.yul\":9654:9766   */\n    tag_211:\n        /* \"#utility.yul\":9775:9829   */\n      tag_213\n        /* \"#utility.yul\":9822:9828   */\n      dup5\n        /* \"#utility.yul\":9817:9820   */\n      dup3\n        /* \"#utility.yul\":9812:9815   */\n      dup6\n        /* \"#utility.yul\":9775:9829   */\n      tag_96\n      jump\t// in\n    tag_213:\n        /* \"#utility.yul\":9494:9835   */\n      pop\n        /* \"#utility.yul\":9410:9835   */\n      swap4\n      swap3\n      pop\n      pop\n      pop\n      jump\t// out\n        /* \"#utility.yul\":9855:10195   */\n    tag_98:\n        /* \"#utility.yul\":9911:9916   */\n      0x00\n        /* \"#utility.yul\":9960:9963   */\n      dup3\n        /* \"#utility.yul\":9953:9957   */\n      0x1f\n        /* \"#utility.yul\":9945:9951   */\n      dup4\n        /* \"#utility.yul\":9941:9958   */\n      add\n        /* \"#utility.yul\":9937:9964   */\n      slt\n        /* \"#utility.yul\":9927:10049   */\n      tag_215\n      jumpi\n        /* \"#utility.yul\":9968:10047   */\n      tag_216\n      tag_90\n      jump\t// in\n    tag_216:\n        /* \"#utility.yul\":9927:10049   */\n    tag_215:\n        /* \"#utility.yul\":10085:10091   */\n      dup2\n        /* \"#utility.yul\":10072:10092   */\n      calldataload\n        /* \"#utility.yul\":10110:10189   */\n      tag_217\n        /* \"#utility.yul\":10185:10188   */\n      dup5\n        /* \"#utility.yul\":10177:10183   */\n      dup3\n        /* \"#utility.yul\":10170:10174   */\n      0x20\n        /* \"#utility.yul\":10162:10168   */\n      dup7\n        /* \"#utility.yul\":10158:10175   */\n      add\n        /* \"#utility.yul\":10110:10189   */\n      tag_97\n      jump\t// in\n    tag_217:\n        /* \"#utility.yul\":10101:10189   */\n      swap2\n      pop\n        /* \"#utility.yul\":9917:10195   */\n      pop\n        /* \"#utility.yul\":9855:10195   */\n      swap3\n      swap2\n      pop\n      pop\n      jump\t// out\n        /* \"#utility.yul\":10201:10710   */\n    tag_21:\n        /* \"#utility.yul\":10270:10276   */\n      0x00\n        /* \"#utility.yul\":10319:10321   */\n      0x20\n        /* \"#utility.yul\":10307:10316   */\n      dup3\n        /* \"#utility.yul\":10298:10305   */\n      dup5\n        /* \"#utility.yul\":10294:10317   */\n      sub\n        /* \"#utility.yul\":10290:10322   */\n      slt\n        /* \"#utility.yul\":10287:10406   */\n      iszero\n      tag_219\n      jumpi\n        /* \"#utility.yul\":10325:10404   */\n      tag_220\n      tag_63\n      jump\t// in\n    tag_220:\n        /* \"#utility.yul\":10287:10406   */\n    tag_219:\n        /* \"#utility.yul\":10473:10474   */\n      0x00\n        /* \"#utility.yul\":10462:10471   */\n      dup3\n        /* \"#utility.yul\":10458:10475   */\n      add\n        /* \"#utility.yul\":10445:10476   */\n      calldataload\n        /* \"#utility.yul\":10503:10521   */\n      0xffffffffffffffff\n        /* \"#utility.yul\":10495:10501   */\n      dup2\n        /* \"#utility.yul\":10492:10522   */\n      gt\n        /* \"#utility.yul\":10489:10606   */\n      iszero\n      tag_221\n      jumpi\n        /* \"#utility.yul\":10525:10604   */\n      tag_222\n      tag_64\n      jump\t// in\n    tag_222:\n        /* \"#utility.yul\":10489:10606   */\n    tag_221:\n        /* \"#utility.yul\":10630:10693   */\n      tag_223\n        /* \"#utility.yul\":10685:10692   */\n      dup5\n        /* \"#utility.yul\":10676:10682   */\n      dup3\n        /* \"#utility.yul\":10665:10674   */\n      dup6\n        /* \"#utility.yul\":10661:10683   */\n      add\n        /* \"#utility.yul\":10630:10693   */\n      tag_98\n      jump\t// in\n    tag_223:\n        /* \"#utility.yul\":10620:10693   */\n      swap2\n      pop\n        /* \"#utility.yul\":10416:10703   */\n      pop\n        /* \"#utility.yul\":10201:10710   */\n      swap3\n      swap2\n      pop\n      pop\n      jump\t// out\n        /* \"#utility.yul\":10716:11045   */\n    tag_25:\n        /* \"#utility.yul\":10775:10781   */\n      0x00\n        /* \"#utility.yul\":10824:10826   */\n      0x20\n        /* \"#utility.yul\":10812:10821   */\n      dup3\n        /* \"#utility.yul\":10803:10810   */\n      dup5\n        /* \"#utility.yul\":10799:10822   */\n      sub\n        /* \"#utility.yul\":10795:10827   */\n      slt\n        /* \"#utility.yul\":10792:10911   */\n      iszero\n      tag_225\n      jumpi\n        /* \"#utility.yul\":10830:10909   */\n      tag_226\n      tag_63\n      jump\t// in\n    tag_226:\n        /* \"#utility.yul\":10792:10911   */\n    tag_225:\n        /* \"#utility.yul\":10950:10951   */\n      0x00\n        /* \"#utility.yul\":10975:11028   */\n      tag_227\n        /* \"#utility.yul\":11020:11027   */\n      dup5\n        /* \"#utility.yul\":11011:11017   */\n      dup3\n        /* \"#utility.yul\":11000:11009   */\n      dup6\n        /* \"#utility.yul\":10996:11018   */\n      add\n        /* \"#utility.yul\":10975:11028   */\n      tag_71\n      jump\t// in\n    tag_227:\n        /* \"#utility.yul\":10965:11028   */\n      swap2\n      pop\n        /* \"#utility.yul\":10921:11038   */\n      pop\n        /* \"#utility.yul\":10716:11045   */\n      swap3\n      swap2\n      pop\n      pop\n      jump\t// out\n        /* \"#utility.yul\":11103:12060   */\n    tag_99:\n        /* \"#utility.yul\":11214:11217   */\n      0x00\n        /* \"#utility.yul\":11250:11254   */\n      0x80\n        /* \"#utility.yul\":11245:11248   */\n      dup4\n        /* \"#utility.yul\":11241:11255   */\n      add\n        /* \"#utility.yul\":11339:11343   */\n      0x00\n        /* \"#utility.yul\":11332:11337   */\n      dup4\n        /* \"#utility.yul\":11328:11344   */\n      add\n        /* \"#utility.yul\":11322:11345   */\n      mload\n        /* \"#utility.yul\":11358:11421   */\n      tag_229\n        /* \"#utility.yul\":11415:11419   */\n      0x00\n        /* \"#utility.yul\":11410:11413   */\n      dup7\n        /* \"#utility.yul\":11406:11420   */\n      add\n        /* \"#utility.yul\":11392:11404   */\n      dup3\n        /* \"#utility.yul\":11358:11421   */\n      tag_82\n      jump\t// in\n    tag_229:\n        /* \"#utility.yul\":11265:11431   */\n      pop\n        /* \"#utility.yul\":11516:11520   */\n      0x20\n        /* \"#utility.yul\":11509:11514   */\n      dup4\n        /* \"#utility.yul\":11505:11521   */\n      add\n        /* \"#utility.yul\":11499:11522   */\n      mload\n        /* \"#utility.yul\":11569:11572   */\n      dup5\n        /* \"#utility.yul\":11563:11567   */\n      dup3\n        /* \"#utility.yul\":11559:11573   */\n      sub\n        /* \"#utility.yul\":11552:11556   */\n      0x20\n        /* \"#utility.yul\":11547:11550   */\n      dup7\n        /* \"#utility.yul\":11543:11557   */\n      add\n        /* \"#utility.yul\":11536:11574   */\n      mstore\n        /* \"#utility.yul\":11595:11668   */\n      tag_230\n        /* \"#utility.yul\":11663:11667   */\n      dup3\n        /* \"#utility.yul\":11649:11661   */\n      dup3\n        /* \"#utility.yul\":11595:11668   */\n      tag_84\n      jump\t// in\n    tag_230:\n        /* \"#utility.yul\":11587:11668   */\n      swap2\n      pop\n        /* \"#utility.yul\":11441:11679   */\n      pop\n        /* \"#utility.yul\":11766:11770   */\n      0x40\n        /* \"#utility.yul\":11759:11764   */\n      dup4\n        /* \"#utility.yul\":11755:11771   */\n      add\n        /* \"#utility.yul\":11749:11772   */\n      mload\n        /* \"#utility.yul\":11785:11848   */\n      tag_231\n        /* \"#utility.yul\":11842:11846   */\n      0x40\n        /* \"#utility.yul\":11837:11840   */\n      dup7\n        /* \"#utility.yul\":11833:11847   */\n      add\n        /* \"#utility.yul\":11819:11831   */\n      dup3\n        /* \"#utility.yul\":11785:11848   */\n      tag_85\n      jump\t// in\n    tag_231:\n        /* \"#utility.yul\":11689:11858   */\n      pop\n        /* \"#utility.yul\":11941:11945   */\n      0x60\n        /* \"#utility.yul\":11934:11939   */\n      dup4\n        /* \"#utility.yul\":11930:11946   */\n      add\n        /* \"#utility.yul\":11924:11947   */\n      mload\n        /* \"#utility.yul\":11960:12023   */\n      tag_232\n        /* \"#utility.yul\":12017:12021   */\n      0x60\n        /* \"#utility.yul\":12012:12015   */\n      dup7\n        /* \"#utility.yul\":12008:12022   */\n      add\n        /* \"#utility.yul\":11994:12006   */\n      dup3\n        /* \"#utility.yul\":11960:12023   */\n      tag_85\n      jump\t// in\n    tag_232:\n        /* \"#utility.yul\":11868:12033   */\n      pop\n        /* \"#utility.yul\":12050:12054   */\n      dup1\n        /* \"#utility.yul\":12043:12054   */\n      swap2\n      pop\n        /* \"#utility.yul\":11219:12060   */\n      pop\n        /* \"#utility.yul\":11103:12060   */\n      swap3\n      swap2\n      pop\n      pop\n      jump\t// out\n        /* \"#utility.yul\":12066:12423   */\n    tag_28:\n        /* \"#utility.yul\":12201:12205   */\n      0x00\n        /* \"#utility.yul\":12239:12241   */\n      0x20\n        /* \"#utility.yul\":12228:12237   */\n      dup3\n        /* \"#utility.yul\":12224:12242   */\n      add\n        /* \"#utility.yul\":12216:12242   */\n      swap1\n      pop\n        /* \"#utility.yul\":12288:12297   */\n      dup2\n        /* \"#utility.yul\":12282:12286   */\n      dup2\n        /* \"#utility.yul\":12278:12298   */\n      sub\n        /* \"#utility.yul\":12274:12275   */\n      0x00\n        /* \"#utility.yul\":12263:12272   */\n      dup4\n        /* \"#utility.yul\":12259:12276   */\n      add\n        /* \"#utility.yul\":12252:12299   */\n      mstore\n        /* \"#utility.yul\":12316:12416   */\n      tag_234\n        /* \"#utility.yul\":12411:12415   */\n      dup2\n        /* \"#utility.yul\":12402:12408   */\n      dup5\n        /* \"#utility.yul\":12316:12416   */\n      tag_99\n      jump\t// in\n    tag_234:\n        /* \"#utility.yul\":12308:12416   */\n      swap1\n      pop\n        /* \"#utility.yul\":12066:12423   */\n      swap3\n      swap2\n      pop\n      pop\n      jump\t// out\n        /* \"#utility.yul\":12429:12609   */\n    tag_100:\n        /* \"#utility.yul\":12477:12554   */\n      0x4e487b7100000000000000000000000000000000000000000000000000000000\n        /* \"#utility.yul\":12474:12475   */\n      0x00\n        /* \"#utility.yul\":12467:12555   */\n      mstore\n        /* \"#utility.yul\":12574:12578   */\n      0x22\n        /* \"#utility.yul\":12571:12572   */\n      0x04\n        /* \"#utility.yul\":12564:12579   */\n      mstore\n        /* \"#utility.yul\":12598:12602   */\n      0x24\n        /* \"#utility.yul\":12595:12596   */\n      0x00\n        /* \"#utility.yul\":12588:12603   */\n      revert\n        /* \"#utility.yul\":12615:12935   */\n    tag_32:\n        /* \"#utility.yul\":12659:12665   */\n      0x00\n        /* \"#utility.yul\":12696:12697   */\n      0x02\n        /* \"#utility.yul\":12690:12694   */\n      dup3\n        /* \"#utility.yul\":12686:12698   */\n      div\n        /* \"#utility.yul\":12676:12698   */\n      swap1\n      pop\n        /* \"#utility.yul\":12743:12744   */\n      0x01\n        /* \"#utility.yul\":12737:12741   */\n      dup3\n        /* \"#utility.yul\":12733:12745   */\n      and\n        /* \"#utility.yul\":12764:12782   */\n      dup1\n        /* \"#utility.yul\":12754:12835   */\n      tag_237\n      jumpi\n        /* \"#utility.yul\":12820:12824   */\n      0x7f\n        /* \"#utility.yul\":12812:12818   */\n      dup3\n        /* \"#utility.yul\":12808:12825   */\n      and\n        /* \"#utility.yul\":12798:12825   */\n      swap2\n      pop\n        /* \"#utility.yul\":12754:12835   */\n    tag_237:\n        /* \"#utility.yul\":12882:12884   */\n      0x20\n        /* \"#utility.yul\":12874:12880   */\n      dup3\n        /* \"#utility.yul\":12871:12885   */\n      lt\n        /* \"#utility.yul\":12851:12869   */\n      dup2\n        /* \"#utility.yul\":12848:12886   */\n      sub\n        /* \"#utility.yul\":12845:12929   */\n      tag_238\n      jumpi\n        /* \"#utility.yul\":12901:12919   */\n      tag_239\n      tag_100\n      jump\t// in\n    tag_239:\n        /* \"#utility.yul\":12845:12929   */\n    tag_238:\n        /* \"#utility.yul\":12666:12935   */\n      pop\n        /* \"#utility.yul\":12615:12935   */\n      swap2\n      swap1\n      pop\n      jump\t// out\n        /* \"#utility.yul\":12941:13082   */\n    tag_101:\n        /* \"#utility.yul\":12990:12994   */\n      0x00\n        /* \"#utility.yul\":13013:13016   */\n      dup2\n        /* \"#utility.yul\":13005:13016   */\n      swap1\n      pop\n        /* \"#utility.yul\":13036:13039   */\n      dup2\n        /* \"#utility.yul\":13033:13034   */\n      0x00\n        /* \"#utility.yul\":13026:13040   */\n      mstore\n        /* \"#utility.yul\":13070:13074   */\n      0x20\n        /* \"#utility.yul\":13067:13068   */\n      0x00\n        /* \"#utility.yul\":13057:13075   */\n      keccak256\n        /* \"#utility.yul\":13049:13075   */\n      swap1\n      pop\n        /* \"#utility.yul\":12941:13082   */\n      swap2\n      swap1\n      pop\n      jump\t// out\n        /* \"#utility.yul\":13088:13181   */\n    tag_102:\n        /* \"#utility.yul\":13125:13131   */\n      0x00\n        /* \"#utility.yul\":13172:13174   */\n      0x20\n        /* \"#utility.yul\":13167:13169   */\n      0x1f\n        /* \"#utility.yul\":13160:13165   */\n      dup4\n        /* \"#utility.yul\":13156:13170   */\n      add\n        /* \"#utility.yul\":13152:13175   */\n      div\n        /* \"#utility.yul\":13142:13175   */\n      swap1\n      pop\n        /* \"#utility.yul\":13088:13181   */\n      swap2\n      swap1\n      pop\n      jump\t// out\n        /* \"#utility.yul\":13187:13294   */\n    tag_103:\n        /* \"#utility.yul\":13231:13239   */\n      0x00\n        /* \"#utility.yul\":13281:13286   */\n      dup3\n        /* \"#utility.yul\":13275:13279   */\n      dup3\n        /* \"#utility.yul\":13271:13287   */\n      shl\n        /* \"#utility.yul\":13250:13287   */\n      swap1\n      pop\n        /* \"#utility.yul\":13187:13294   */\n      swap3\n      swap2\n      pop\n      pop\n      jump\t// out\n        /* \"#utility.yul\":13300:13693   */\n    tag_104:\n        /* \"#utility.yul\":13369:13375   */\n      0x00\n        /* \"#utility.yul\":13419:13420   */\n      0x08\n        /* \"#utility.yul\":13407:13417   */\n      dup4\n        /* \"#utility.yul\":13403:13421   */\n      mul\n        /* \"#utility.yul\":13442:13539   */\n      tag_244\n        /* \"#utility.yul\":13472:13538   */\n      0xffffffffffffffffffffffffffffffffffffffffffffffffffffffffffffffff\n        /* \"#utility.yul\":13461:13470   */\n      dup3\n        /* \"#utility.yul\":13442:13539   */\n      tag_103\n      jump\t// in\n    tag_244:\n        /* \"#utility.yul\":13560:13599   */\n      tag_245\n        /* \"#utility.yul\":13590:13598   */\n      dup7\n        /* \"#utility.yul\":13579:13588   */\n      dup4\n        /* \"#utility.yul\":13560:13599   */\n      tag_103\n      jump\t// in\n    tag_245:\n        /* \"#utility.yul\":13548:13599   */\n      swap6\n      pop\n        /* \"#utility.yul\":13632:13636   */\n      dup1\n        /* \"#utility.yul\":13628:13637   */\n      not\n        /* \"#utility.yul\":13621:13626   */\n      dup5\n        /* \"#utility.yul\":13617:13638   */\n      and\n        /* \"#utility.yul\":13608:13638   */\n      swap4\n      pop\n        /* \"#utility.yul\":13681:13685   */\n      dup1\n        /* \"#utility.yul\":13671:13679   */\n      dup7\n        /* \"#utility.yul\":13667:13686   */\n      and\n        /* \"#utility.yul\":13660:13665   */\n      dup5\n        /* \"#utility.yul\":13657:13687   */\n      or\n        /* \"#utility.yul\":13647:13687   */\n      swap3\n      pop\n        /* \"#utility.yul\":13376:13693   */\n      pop\n      pop\n        /* \"#utility.yul\":13300:13693   */\n      swap4\n      swap3\n      pop\n      pop\n      pop\n      jump\t// out\n        /* \"#utility.yul\":13699:13759   */\n    tag_105:\n        /* \"#utility.yul\":13727:13730   */\n      0x00\n        /* \"#utility.yul\":13748:13753   */\n      dup2\n        /* \"#utility.yul\":13741:13753   */\n      swap1\n      pop\n        /* \"#utility.yul\":13699:13759   */\n      swap2\n      swap1\n      pop\n      jump\t// out\n        /* \"#utility.yul\":13765:13907   */\n    tag_106:\n        /* \"#utility.yul\":13815:13824   */\n      0x00\n        /* \"#utility.yul\":13848:13901   */\n      tag_248\n        /* \"#utility.yul\":13866:13900   */\n      tag_249\n        /* \"#utility.yul\":13875:13899   */\n      tag_250\n        /* \"#utility.yul\":13893:13898   */\n      dup5\n        /* \"#utility.yul\":13875:13899   */\n      tag_69\n      jump\t// in\n    tag_250:\n        /* \"#utility.yul\":13866:13900   */\n      tag_105\n      jump\t// in\n    tag_249:\n        /* \"#utility.yul\":13848:13901   */\n      tag_69\n      jump\t// in\n    tag_248:\n        /* \"#utility.yul\":13835:13901   */\n      swap1\n      pop\n        /* \"#utility.yul\":13765:13907   */\n      swap2\n      swap1\n      pop\n      jump\t// out\n        /* \"#utility.yul\":13913:13988   */\n    tag_107:\n        /* \"#utility.yul\":13956:13959   */\n      0x00\n        /* \"#utility.yul\":13977:13982   */\n      dup2\n        /* \"#utility.yul\":13970:13982   */\n      swap1\n      pop\n        /* \"#utility.yul\":13913:13988   */\n      swap2\n      swap1\n      pop\n      jump\t// out\n        /* \"#utility.yul\":13994:14263   */\n    tag_108:\n        /* \"#utility.yul\":14104:14143   */\n      tag_253\n        /* \"#utility.yul\":14135:14142   */\n      dup4\n        /* \"#utility.yul\":14104:14143   */\n      tag_106\n      jump\t// in\n    tag_253:\n        /* \"#utility.yul\":14165:14256   */\n      tag_254\n        /* \"#utility.yul\":14214:14255   */\n      tag_255\n        /* \"#utility.yul\":14238:14254   */\n      dup3\n        /* \"#utility.yul\":14214:14255   */\n      tag_107\n      jump\t// in\n    tag_255:\n        /* \"#utility.yul\":14206:14212   */\n      dup5\n        /* \"#utility.yul\":14199:14203   */\n      dup5\n        /* \"#utility.yul\":14193:14204   */\n      sload\n        /* \"#utility.yul\":14165:14256   */\n      tag_104\n      jump\t// in\n    tag_254:\n        /* \"#utility.yul\":14159:14163   */\n      dup3\n        /* \"#utility.yul\":14152:14257   */\n      sstore\n        /* \"#utility.yul\":14070:14263   */\n      pop\n        /* \"#utility.yul\":13994:14263   */\n      pop\n      pop\n      pop\n      jump\t// out\n        /* \"#utility.yul\":14269:14342   */\n    tag_109:\n        /* \"#utility.yul\":14314:14317   */\n      0x00\n        /* \"#utility.yul\":14269:14342   */\n      swap1\n      jump\t// out\n        /* \"#utility.yul\":14348:14537   */\n    tag_110:\n        /* \"#utility.yul\":14425:14457   */\n      tag_258\n      tag_109\n      jump\t// in\n    tag_258:\n        /* \"#utility.yul\":14466:14531   */\n      tag_259\n        /* \"#utility.yul\":14524:14530   */\n      dup2\n        /* \"#utility.yul\":14516:14522   */\n      dup5\n        /* \"#utility.yul\":14510:14514   */\n      dup5\n        /* \"#utility.yul\":14466:14531   */\n      tag_108\n      jump\t// in\n    tag_259:\n        /* \"#utility.yul\":14401:14537   */\n      pop\n        /* \"#utility.yul\":14348:14537   */\n      pop\n      pop\n      jump\t// out\n        /* \"#utility.yul\":14543:14729   */\n    tag_111:\n        /* \"#utility.yul\":14603:14723   */\n    tag_261:\n        /* \"#utility.yul\":14620:14623   */\n      dup2\n        /* \"#utility.yul\":14613:14618   */\n      dup2\n        /* \"#utility.yul\":14610:14624   */\n      lt\n        /* \"#utility.yul\":14603:14723   */\n      iszero\n      tag_263\n      jumpi\n        /* \"#utility.yul\":14674:14713   */\n      tag_264\n        /* \"#utility.yul\":14711:14712   */\n      0x00\n        /* \"#utility.yul\":14704:14709   */\n      dup3\n        /* \"#utility.yul\":14674:14713   */\n      tag_110\n      jump\t// in\n    tag_264:\n        /* \"#utility.yul\":14647:14648   */\n      0x01\n        /* \"#utility.yul\":14640:14645   */\n      dup2\n        /* \"#utility.yul\":14636:14649   */\n      add\n        /* \"#utility.yul\":14627:14649   */\n      swap1\n      pop\n        /* \"#utility.yul\":14603:14723   */\n      jump(tag_261)\n    tag_263:\n        /* \"#utility.yul\":14543:14729   */\n      pop\n      pop\n      jump\t// out\n        /* \"#utility.yul\":14735:15278   */\n    tag_112:\n        /* \"#utility.yul\":14836:14838   */\n      0x1f\n        /* \"#utility.yul\":14831:14834   */\n      dup3\n        /* \"#utility.yul\":14828:14839   */\n      gt\n        /* \"#utility.yul\":14825:15271   */\n      iszero\n      tag_266\n      jumpi\n        /* \"#utility.yul\":14870:14908   */\n      tag_267\n        /* \"#utility.yul\":14902:14907   */\n      dup2\n        /* \"#utility.yul\":14870:14908   */\n      tag_101\n      jump\t// in\n    tag_267:\n        /* \"#utility.yul\":14954:14983   */\n      tag_268\n        /* \"#utility.yul\":14972:14982   */\n      dup5\n        /* \"#utility.yul\":14954:14983   */\n      tag_102\n      jump\t// in\n    tag_268:\n        /* \"#utility.yul\":14944:14952   */\n      dup2\n        /* \"#utility.yul\":14940:14984   */\n      add\n        /* \"#utility.yul\":15137:15139   */\n      0x20\n        /* \"#utility.yul\":15125:15135   */\n      dup6\n        /* \"#utility.yul\":15122:15140   */\n      lt\n        /* \"#utility.yul\":15119:15168   */\n      iszero\n      tag_269\n      jumpi\n        /* \"#utility.yul\":15158:15166   */\n      dup2\n        /* \"#utility.yul\":15143:15166   */\n      swap1\n      pop\n        /* \"#utility.yul\":15119:15168   */\n    tag_269:\n        /* \"#utility.yul\":15181:15261   */\n      tag_270\n        /* \"#utility.yul\":15237:15259   */\n      tag_271\n        /* \"#utility.yul\":15255:15258   */\n      dup6\n        /* \"#utility.yul\":15237:15259   */\n      tag_102\n      jump\t// in\n    tag_271:\n        /* \"#utility.yul\":15227:15235   */\n      dup4\n        /* \"#utility.yul\":15223:15260   */\n      add\n        /* \"#utility.yul\":15210:15221   */\n      dup3\n        /* \"#utility.yul\":15181:15261   */\n      tag_111\n      jump\t// in\n    tag_270:\n        /* \"#utility.yul\":14840:15271   */\n      pop\n      pop\n        /* \"#utility.yul\":14825:15271   */\n    tag_266:\n        /* \"#utility.yul\":14735:15278   */\n      pop\n      pop\n      pop\n      jump\t// out\n        /* \"#utility.yul\":15284:15401   */\n    tag_113:\n        /* \"#utility.yul\":15338:15346   */\n      0x00\n        /* \"#utility.yul\":15388:15393   */\n      dup3\n        /* \"#utility.yul\":15382:15386   */\n      dup3\n        /* \"#utility.yul\":15378:15394   */\n      shr\n        /* \"#utility.yul\":15357:15394   */\n      swap1\n      pop\n        /* \"#utility.yul\":15284:15401   */\n      swap3\n      swap2\n      pop\n      pop\n      jump\t// out\n        /* \"#utility.yul\":15407:15576   */\n    tag_114:\n        /* \"#utility.yul\":15451:15457   */\n      0x00\n        /* \"#utility.yul\":15484:15535   */\n      tag_274\n        /* \"#utility.yul\":15532:15533   */\n      0x00\n        /* \"#utility.yul\":15528:15534   */\n      not\n        /* \"#utility.yul\":15520:15525   */\n      dup5\n        /* \"#utility.yul\":15517:15518   */\n      0x08\n        /* \"#utility.yul\":15513:15526   */\n      mul\n        /* \"#utility.yul\":15484:15535   */\n      tag_113\n      jump\t// in\n    tag_274:\n        /* \"#utility.yul\":15480:15536   */\n      not\n        /* \"#utility.yul\":15565:15569   */\n      dup1\n        /* \"#utility.yul\":15559:15563   */\n      dup4\n        /* \"#utility.yul\":15555:15570   */\n      and\n        /* \"#utility.yul\":15545:15570   */\n      swap2\n      pop\n        /* \"#utility.yul\":15458:15576   */\n      pop\n        /* \"#utility.yul\":15407:15576   */\n      swap3\n      swap2\n      pop\n      pop\n      jump\t// out\n        /* \"#utility.yul\":15581:15876   */\n    tag_115:\n        /* \"#utility.yul\":15657:15661   */\n      0x00\n        /* \"#utility.yul\":15803:15832   */\n      tag_276\n        /* \"#utility.yul\":15828:15831   */\n      dup4\n        /* \"#utility.yul\":15822:15826   */\n      dup4\n        /* \"#utility.yul\":15803:15832   */\n      tag_114\n      jump\t// in\n    tag_276:\n        /* \"#utility.yul\":15795:15832   */\n      swap2\n      pop\n        /* \"#utility.yul\":15865:15868   */\n      dup3\n        /* \"#utility.yul\":15862:15863   */\n      0x02\n        /* \"#utility.yul\":15858:15869   */\n      mul\n        /* \"#utility.yul\":15852:15856   */\n      dup3\n        /* \"#utility.yul\":15849:15870   */\n      or\n        /* \"#utility.yul\":15841:15870   */\n      swap1\n      pop\n        /* \"#utility.yul\":15581:15876   */\n      swap3\n      swap2\n      pop\n      pop\n      jump\t// out\n        /* \"#utility.yul\":15881:17276   */\n    tag_49:\n        /* \"#utility.yul\":15998:16035   */\n      tag_278\n        /* \"#utility.yul\":16031:16034   */\n      dup3\n        /* \"#utility.yul\":15998:16035   */\n      tag_73\n      jump\t// in\n    tag_278:\n        /* \"#utility.yul\":16100:16118   */\n      0xffffffffffffffff\n        /* \"#utility.yul\":16092:16098   */\n      dup2\n        /* \"#utility.yul\":16089:16119   */\n      gt\n        /* \"#utility.yul\":16086:16142   */\n      iszero\n      tag_279\n      jumpi\n        /* \"#utility.yul\":16122:16140   */\n      tag_280\n      tag_92\n      jump\t// in\n    tag_280:\n        /* \"#utility.yul\":16086:16142   */\n    tag_279:\n        /* \"#utility.yul\":16166:16204   */\n      tag_281\n        /* \"#utility.yul\":16198:16202   */\n      dup3\n        /* \"#utility.yul\":16192:16203   */\n      sload\n        /* \"#utility.yul\":16166:16204   */\n      tag_32\n      jump\t// in\n    tag_281:\n        /* \"#utility.yul\":16251:16318   */\n      tag_282\n        /* \"#utility.yul\":16311:16317   */\n      dup3\n        /* \"#utility.yul\":16303:16309   */\n      dup3\n        /* \"#utility.yul\":16297:16301   */\n      dup6\n        /* \"#utility.yul\":16251:16318   */\n      tag_112\n      jump\t// in\n    tag_282:\n        /* \"#utility.yul\":16345:16346   */\n      0x00\n        /* \"#utility.yul\":16369:16373   */\n      0x20\n        /* \"#utility.yul\":16356:16373   */\n      swap1\n      pop\n        /* \"#utility.yul\":16401:16403   */\n      0x1f\n        /* \"#utility.yul\":16393:16399   */\n      dup4\n        /* \"#utility.yul\":16390:16404   */\n      gt\n        /* \"#utility.yul\":16418:16419   */\n      0x01\n        /* \"#utility.yul\":16413:17031   */\n      dup2\n      eq\n      tag_284\n      jumpi\n        /* \"#utility.yul\":17075:17076   */\n      0x00\n        /* \"#utility.yul\":17092:17098   */\n      dup5\n        /* \"#utility.yul\":17089:17166   */\n      iszero\n      tag_285\n      jumpi\n        /* \"#utility.yul\":17141:17150   */\n      dup3\n        /* \"#utility.yul\":17136:17139   */\n      dup8\n        /* \"#utility.yul\":17132:17151   */\n      add\n        /* \"#utility.yul\":17126:17152   */\n      mload\n        /* \"#utility.yul\":17117:17152   */\n      swap1\n      pop\n        /* \"#utility.yul\":17089:17166   */\n    tag_285:\n        /* \"#utility.yul\":17192:17259   */\n      tag_286\n        /* \"#utility.yul\":17252:17258   */\n      dup6\n        /* \"#utility.yul\":17245:17250   */\n      dup3\n        /* \"#utility.yul\":17192:17259   */\n      tag_115\n      jump\t// in\n    tag_286:\n        /* \"#utility.yul\":17186:17190   */\n      dup7\n        /* \"#utility.yul\":17179:17260   */\n      sstore\n        /* \"#utility.yul\":17048:17270   */\n      pop\n        /* \"#utility.yul\":16383:17270   */\n      jump(tag_283)\n        /* \"#utility.yul\":16413:17031   */\n    tag_284:\n        /* \"#utility.yul\":16465:16469   */\n      0x1f\n        /* \"#utility.yul\":16461:16470   */\n      not\n        /* \"#utility.yul\":16453:16459   */\n      dup5\n        /* \"#utility.yul\":16449:16471   */\n      and\n        /* \"#utility.yul\":16499:16536   */\n      tag_287\n        /* \"#utility.yul\":16531:16535   */\n      dup7\n        /* \"#utility.yul\":16499:16536   */\n      tag_101\n      jump\t// in\n    tag_287:\n        /* \"#utility.yul\":16558:16559   */\n      0x00\n        /* \"#utility.yul\":16572:16780   */\n    tag_288:\n        /* \"#utility.yul\":16586:16593   */\n      dup3\n        /* \"#utility.yul\":16583:16584   */\n      dup2\n        /* \"#utility.yul\":16580:16594   */\n      lt\n        /* \"#utility.yul\":16572:16780   */\n      iszero\n      tag_290\n      jumpi\n        /* \"#utility.yul\":16665:16674   */\n      dup5\n        /* \"#utility.yul\":16660:16663   */\n      dup10\n        /* \"#utility.yul\":16656:16675   */\n      add\n        /* \"#utility.yul\":16650:16676   */\n      mload\n        /* \"#utility.yul\":16642:16648   */\n      dup3\n        /* \"#utility.yul\":16635:16677   */\n      sstore\n        /* \"#utility.yul\":16716:16717   */\n      0x01\n        /* \"#utility.yul\":16708:16714   */\n      dup3\n        /* \"#utility.yul\":16704:16718   */\n      add\n        /* \"#utility.yul\":16694:16718   */\n      swap2\n      pop\n        /* \"#utility.yul\":16763:16765   */\n      0x20\n        /* \"#utility.yul\":16752:16761   */\n      dup6\n        /* \"#utility.yul\":16748:16766   */\n      add\n        /* \"#utility.yul\":16735:16766   */\n      swap5\n      pop\n        /* \"#utility.yul\":16609:16613   */\n      0x20\n        /* \"#utility.yul\":16606:16607   */\n      dup2\n        /* \"#utility.yul\":16602:16614   */\n      add\n        /* \"#utility.yul\":16597:16614   */\n      swap1\n      pop\n        /* \"#utility.yul\":16572:16780   */\n      jump(tag_288)\n    tag_290:\n        /* \"#utility.yul\":16808:16814   */\n      dup7\n        /* \"#utility.yul\":16799:16806   */\n      dup4\n        /* \"#utility.yul\":16796:16815   */\n      lt\n        /* \"#utility.yul\":16793:16972   */\n      iszero\n      tag_291\n      jumpi\n        /* \"#utility.yul\":16866:16875   */\n      dup5\n        /* \"#utility.yul\":16861:16864   */\n      dup10\n        /* \"#utility.yul\":16857:16876   */\n      add\n        /* \"#utility.yul\":16851:16877   */\n      mload\n        /* \"#utility.yul\":16909:16957   */\n      tag_292\n        /* \"#utility.yul\":16951:16955   */\n      0x1f\n        /* \"#utility.yul\":16943:16949   */\n      dup10\n        /* \"#utility.yul\":16939:16956   */\n      and\n        /* \"#utility.yul\":16928:16937   */\n      dup3\n        /* \"#utility.yul\":16909:16957   */\n      tag_114\n      jump\t// in\n    tag_292:\n        /* \"#utility.yul\":16901:16907   */\n      dup4\n        /* \"#utility.yul\":16894:16958   */\n      sstore\n        /* \"#utility.yul\":16816:16972   */\n      pop\n        /* \"#utility.yul\":16793:16972   */\n    tag_291:\n        /* \"#utility.yul\":17018:17019   */\n      0x01\n        /* \"#utility.yul\":17014:17015   */\n      0x02\n        /* \"#utility.yul\":17006:17012   */\n      dup9\n        /* \"#utility.yul\":17002:17016   */\n      mul\n        /* \"#utility.yul\":16998:17020   */\n      add\n        /* \"#utility.yul\":16992:16996   */\n      dup9\n        /* \"#utility.yul\":16985:17021   */\n      sstore\n        /* \"#utility.yul\":16420:17031   */\n      pop\n      pop\n      pop\n        /* \"#utility.yul\":16383:17270   */\n    tag_283:\n      pop\n        /* \"#utility.yul\":15973:17276   */\n      pop\n      pop\n      pop\n        /* \"#utility.yul\":15881:17276   */\n      pop\n      pop\n      jump\t// out\n        /* \"#utility.yul\":17282:17462   */\n    tag_55:\n        /* \"#utility.yul\":17330:17407   */\n      0x4e487b7100000000000000000000000000000000000000000000000000000000\n        /* \"#utility.yul\":17327:17328   */\n      0x00\n        /* \"#utility.yul\":17320:17408   */\n      mstore\n        /* \"#utility.yul\":17427:17431   */\n      0x32\n        /* \"#utility.yul\":17424:17425   */\n      0x04\n        /* \"#utility.yul\":17417:17432   */\n      mstore\n        /* \"#utility.yul\":17451:17455   */\n      0x24\n        /* \"#utility.yul\":17448:17449   */\n      0x00\n        /* \"#utility.yul\":17441:17456   */\n      revert\n\n    auxdata: 0xa26469706673582212206e2410910bbc3d23a1a24823ab617fb875ca7b641a1c8252e9fdf9d4e4f188fa64736f6c634300081a0033\n}\n",
				"bytecode": {
					"linkReferences": {},
					"object": "6080604052348015600e575f80fd5b50610ef98061001c5f395ff3fe608060405234801561000f575f80fd5b506004361061004a575f3560e01c806305a1b4a91461004e57806312e7ee1c146100815780637c9cd2bc146100b1578063c3ad5ecb146100cd575b5f80fd5b610068600480360381019061006391906106cd565b6100fd565b6040516100789493929190610799565b60405180910390f35b61009b600480360381019061009691906107e3565b6101e7565b6040516100a8919061098f565b60405180910390f35b6100cb60048036038101906100c69190610adb565b610377565b005b6100e760048036038101906100e29190610b22565b610488565b6040516100f49190610bad565b60405180910390f35b5f602052815f5260405f208181548110610115575f80fd5b905f5260205f2090600402015f9150915050805f015f9054906101000a900473ffffffffffffffffffffffffffffffffffffffff169080600101805461015a90610bfa565b80601f016020809104026020016040519081016040528092919081815260200182805461018690610bfa565b80156101d15780601f106101a8576101008083540402835291602001916101d1565b820191905f5260205f20905b8154815290600101906020018083116101b457829003601f168201915b5050505050908060020154908060030154905084565b60605f808373ffffffffffffffffffffffffffffffffffffffff1673ffffffffffffffffffffffffffffffffffffffff1681526020019081526020015f20805480602002602001604051908101604052809291908181526020015f905b8282101561036c578382905f5260205f2090600402016040518060800160405290815f82015f9054906101000a900473ffffffffffffffffffffffffffffffffffffffff1673ffffffffffffffffffffffffffffffffffffffff1673ffffffffffffffffffffffffffffffffffffffff1681526020016001820180546102c990610bfa565b80601f01602080910402602001604051908101604052809291908181526020018280546102f590610bfa565b80156103405780601f1061031757610100808354040283529160200191610340565b820191905f5260205f20905b81548152906001019060200180831161032357829003601f168201915b505050505081526020016002820154815260200160038201548152505081526020019060010190610244565b505050509050919050565b5f60405180608001604052803373ffffffffffffffffffffffffffffffffffffffff1681526020018381526020014281526020015f81525090505f803373ffffffffffffffffffffffffffffffffffffffff1673ffffffffffffffffffffffffffffffffffffffff1681526020019081526020015f2081908060018154018082558091505060019003905f5260205f2090600402015f909190919091505f820151815f015f6101000a81548173ffffffffffffffffffffffffffffffffffffffff021916908373ffffffffffffffffffffffffffffffffffffffff160217905550602082015181600101908161046d9190610dc7565b50604082015181600201556060820151816003015550505050565b6104906105f4565b5f803373ffffffffffffffffffffffffffffffffffffffff1673ffffffffffffffffffffffffffffffffffffffff1681526020019081526020015f2082815481106104de576104dd610e96565b5b905f5260205f2090600402016040518060800160405290815f82015f9054906101000a900473ffffffffffffffffffffffffffffffffffffffff1673ffffffffffffffffffffffffffffffffffffffff1673ffffffffffffffffffffffffffffffffffffffff16815260200160018201805461055990610bfa565b80601f016020809104026020016040519081016040528092919081815260200182805461058590610bfa565b80156105d05780601f106105a7576101008083540402835291602001916105d0565b820191905f5260205f20905b8154815290600101906020018083116105b357829003601f168201915b50505050508152602001600282015481526020016003820154815250509050919050565b60405180608001604052805f73ffffffffffffffffffffffffffffffffffffffff168152602001606081526020015f81526020015f81525090565b5f604051905090565b5f80fd5b5f80fd5b5f73ffffffffffffffffffffffffffffffffffffffff82169050919050565b5f61066982610640565b9050919050565b6106798161065f565b8114610683575f80fd5b50565b5f8135905061069481610670565b92915050565b5f819050919050565b6106ac8161069a565b81146106b6575f80fd5b50565b5f813590506106c7816106a3565b92915050565b5f80604083850312156106e3576106e2610638565b5b5f6106f085828601610686565b9250506020610701858286016106b9565b9150509250929050565b6107148161065f565b82525050565b5f81519050919050565b5f82825260208201905092915050565b8281835e5f83830152505050565b5f601f19601f8301169050919050565b5f61075c8261071a565b6107668185610724565b9350610776818560208601610734565b61077f81610742565b840191505092915050565b6107938161069a565b82525050565b5f6080820190506107ac5f83018761070b565b81810360208301526107be8186610752565b90506107cd604083018561078a565b6107da606083018461078a565b95945050505050565b5f602082840312156107f8576107f7610638565b5b5f61080584828501610686565b91505092915050565b5f81519050919050565b5f82825260208201905092915050565b5f819050602082019050919050565b6108408161065f565b82525050565b5f82825260208201905092915050565b5f6108608261071a565b61086a8185610846565b935061087a818560208601610734565b61088381610742565b840191505092915050565b6108978161069a565b82525050565b5f608083015f8301516108b25f860182610837565b50602083015184820360208601526108ca8282610856565b91505060408301516108df604086018261088e565b5060608301516108f2606086018261088e565b508091505092915050565b5f610908838361089d565b905092915050565b5f602082019050919050565b5f6109268261080e565b6109308185610818565b93508360208202850161094285610828565b805f5b8581101561097d578484038952815161095e85826108fd565b945061096983610910565b925060208a01995050600181019050610945565b50829750879550505050505092915050565b5f6020820190508181035f8301526109a7818461091c565b905092915050565b5f80fd5b5f80fd5b7f4e487b71000000000000000000000000000000000000000000000000000000005f52604160045260245ffd5b6109ed82610742565b810181811067ffffffffffffffff82111715610a0c57610a0b6109b7565b5b80604052505050565b5f610a1e61062f565b9050610a2a82826109e4565b919050565b5f67ffffffffffffffff821115610a4957610a486109b7565b5b610a5282610742565b9050602081019050919050565b828183375f83830152505050565b5f610a7f610a7a84610a2f565b610a15565b905082815260208101848484011115610a9b57610a9a6109b3565b5b610aa6848285610a5f565b509392505050565b5f82601f830112610ac257610ac16109af565b5b8135610ad2848260208601610a6d565b91505092915050565b5f60208284031215610af057610aef610638565b5b5f82013567ffffffffffffffff811115610b0d57610b0c61063c565b5b610b1984828501610aae565b91505092915050565b5f60208284031215610b3757610b36610638565b5b5f610b44848285016106b9565b91505092915050565b5f608083015f830151610b625f860182610837565b5060208301518482036020860152610b7a8282610856565b9150506040830151610b8f604086018261088e565b506060830151610ba2606086018261088e565b508091505092915050565b5f6020820190508181035f830152610bc58184610b4d565b905092915050565b7f4e487b71000000000000000000000000000000000000000000000000000000005f52602260045260245ffd5b5f6002820490506001821680610c1157607f821691505b602082108103610c2457610c23610bcd565b5b50919050565b5f819050815f5260205f209050919050565b5f6020601f8301049050919050565b5f82821b905092915050565b5f60088302610c867fffffffffffffffffffffffffffffffffffffffffffffffffffffffffffffffff82610c4b565b610c908683610c4b565b95508019841693508086168417925050509392505050565b5f819050919050565b5f610ccb610cc6610cc18461069a565b610ca8565b61069a565b9050919050565b5f819050919050565b610ce483610cb1565b610cf8610cf082610cd2565b848454610c57565b825550505050565b5f90565b610d0c610d00565b610d17818484610cdb565b505050565b5b81811015610d3a57610d2f5f82610d04565b600181019050610d1d565b5050565b601f821115610d7f57610d5081610c2a565b610d5984610c3c565b81016020851015610d68578190505b610d7c610d7485610c3c565b830182610d1c565b50505b505050565b5f82821c905092915050565b5f610d9f5f1984600802610d84565b1980831691505092915050565b5f610db78383610d90565b9150826002028217905092915050565b610dd08261071a565b67ffffffffffffffff811115610de957610de86109b7565b5b610df38254610bfa565b610dfe828285610d3e565b5f60209050601f831160018114610e2f575f8415610e1d578287015190505b610e278582610dac565b865550610e8e565b601f198416610e3d86610c2a565b5f5b82811015610e6457848901518255600182019150602085019450602081019050610e3f565b86831015610e815784890151610e7d601f891682610d90565b8355505b6001600288020188555050505b505050505050565b7f4e487b71000000000000000000000000000000000000000000000000000000005f52603260045260245ffdfea26469706673582212206e2410910bbc3d23a1a24823ab617fb875ca7b641a1c8252e9fdf9d4e4f188fa64736f6c634300081a0033",
					"opcodes": "PUSH1 0x80 PUSH1 0x40 MSTORE CALLVALUE DUP1 ISZERO PUSH1 0xE JUMPI PUSH0 DUP1 REVERT JUMPDEST POP PUSH2 0xEF9 DUP1 PUSH2 0x1C PUSH0 CODECOPY PUSH0 RETURN INVALID PUSH1 0x80 PUSH1 0x40 MSTORE CALLVALUE DUP1 ISZERO PUSH2 0xF JUMPI PUSH0 DUP1 REVERT JUMPDEST POP PUSH1 0x4 CALLDATASIZE LT PUSH2 0x4A JUMPI PUSH0 CALLDATALOAD PUSH1 0xE0 SHR DUP1 PUSH4 0x5A1B4A9 EQ PUSH2 0x4E JUMPI DUP1 PUSH4 0x12E7EE1C EQ PUSH2 0x81 JUMPI DUP1 PUSH4 0x7C9CD2BC EQ PUSH2 0xB1 JUMPI DUP1 PUSH4 0xC3AD5ECB EQ PUSH2 0xCD JUMPI JUMPDEST PUSH0 DUP1 REVERT JUMPDEST PUSH2 0x68 PUSH1 0x4 DUP1 CALLDATASIZE SUB DUP2 ADD SWAP1 PUSH2 0x63 SWAP2 SWAP1 PUSH2 0x6CD JUMP JUMPDEST PUSH2 0xFD JUMP JUMPDEST PUSH1 0x40 MLOAD PUSH2 0x78 SWAP5 SWAP4 SWAP3 SWAP2 SWAP1 PUSH2 0x799 JUMP JUMPDEST PUSH1 0x40 MLOAD DUP1 SWAP2 SUB SWAP1 RETURN JUMPDEST PUSH2 0x9B PUSH1 0x4 DUP1 CALLDATASIZE SUB DUP2 ADD SWAP1 PUSH2 0x96 SWAP2 SWAP1 PUSH2 0x7E3 JUMP JUMPDEST PUSH2 0x1E7 JUMP JUMPDEST PUSH1 0x40 MLOAD PUSH2 0xA8 SWAP2 SWAP1 PUSH2 0x98F JUMP JUMPDEST PUSH1 0x40 MLOAD DUP1 SWAP2 SUB SWAP1 RETURN JUMPDEST PUSH2 0xCB PUSH1 0x4 DUP1 CALLDATASIZE SUB DUP2 ADD SWAP1 PUSH2 0xC6 SWAP2 SWAP1 PUSH2 0xADB JUMP JUMPDEST PUSH2 0x377 JUMP JUMPDEST STOP JUMPDEST PUSH2 0xE7 PUSH1 0x4 DUP1 CALLDATASIZE SUB DUP2 ADD SWAP1 PUSH2 0xE2 SWAP2 SWAP1 PUSH2 0xB22 JUMP JUMPDEST PUSH2 0x488 JUMP JUMPDEST PUSH1 0x40 MLOAD PUSH2 0xF4 SWAP2 SWAP1 PUSH2 0xBAD JUMP JUMPDEST PUSH1 0x40 MLOAD DUP1 SWAP2 SUB SWAP1 RETURN JUMPDEST PUSH0 PUSH1 0x20 MSTORE DUP2 PUSH0 MSTORE PUSH1 0x40 PUSH0 KECCAK256 DUP2 DUP2 SLOAD DUP2 LT PUSH2 0x115 JUMPI PUSH0 DUP1 REVERT JUMPDEST SWAP1 PUSH0 MSTORE PUSH1 0x20 PUSH0 KECCAK256 SWAP1 PUSH1 0x4 MUL ADD PUSH0 SWAP2 POP SWAP2 POP POP DUP1 PUSH0 ADD PUSH0 SWAP1 SLOAD SWAP1 PUSH2 0x100 EXP SWAP1 DIV PUSH20 0xFFFFFFFFFFFFFFFFFFFFFFFFFFFFFFFFFFFFFFFF AND SWAP1 DUP1 PUSH1 0x1 ADD DUP1 SLOAD PUSH2 0x15A SWAP1 PUSH2 0xBFA JUMP JUMPDEST DUP1 PUSH1 0x1F ADD PUSH1 0x20 DUP1 SWAP2 DIV MUL PUSH1 0x20 ADD PUSH1 0x40 MLOAD SWAP1 DUP2 ADD PUSH1 0x40 MSTORE DUP1 SWAP3 SWAP2 SWAP1 DUP2 DUP2 MSTORE PUSH1 0x20 ADD DUP3 DUP1 SLOAD PUSH2 0x186 SWAP1 PUSH2 0xBFA JUMP JUMPDEST DUP1 ISZERO PUSH2 0x1D1 JUMPI DUP1 PUSH1 0x1F LT PUSH2 0x1A8 JUMPI PUSH2 0x100 DUP1 DUP4 SLOAD DIV MUL DUP4 MSTORE SWAP2 PUSH1 0x20 ADD SWAP2 PUSH2 0x1D1 JUMP JUMPDEST DUP3 ADD SWAP2 SWAP1 PUSH0 MSTORE PUSH1 0x20 PUSH0 KECCAK256 SWAP1 JUMPDEST DUP2 SLOAD DUP2 MSTORE SWAP1 PUSH1 0x1 ADD SWAP1 PUSH1 0x20 ADD DUP1 DUP4 GT PUSH2 0x1B4 JUMPI DUP3 SWAP1 SUB PUSH1 0x1F AND DUP3 ADD SWAP2 JUMPDEST POP POP POP POP POP SWAP1 DUP1 PUSH1 0x2 ADD SLOAD SWAP1 DUP1 PUSH1 0x3 ADD SLOAD SWAP1 POP DUP5 JUMP JUMPDEST PUSH1 0x60 PUSH0 DUP1 DUP4 PUSH20 0xFFFFFFFFFFFFFFFFFFFFFFFFFFFFFFFFFFFFFFFF AND PUSH20 0xFFFFFFFFFFFFFFFFFFFFFFFFFFFFFFFFFFFFFFFF AND DUP2 MSTORE PUSH1 0x20 ADD SWAP1 DUP2 MSTORE PUSH1 0x20 ADD PUSH0 KECCAK256 DUP1 SLOAD DUP1 PUSH1 0x20 MUL PUSH1 0x20 ADD PUSH1 0x40 MLOAD SWAP1 DUP2 ADD PUSH1 0x40 MSTORE DUP1 SWAP3 SWAP2 SWAP1 DUP2 DUP2 MSTORE PUSH1 0x20 ADD PUSH0 SWAP1 JUMPDEST DUP3 DUP3 LT ISZERO PUSH2 0x36C JUMPI DUP4 DUP3 SWAP1 PUSH0 MSTORE PUSH1 0x20 PUSH0 KECCAK256 SWAP1 PUSH1 0x4 MUL ADD PUSH1 0x40 MLOAD DUP1 PUSH1 0x80 ADD PUSH1 0x40 MSTORE SWAP1 DUP2 PUSH0 DUP3 ADD PUSH0 SWAP1 SLOAD SWAP1 PUSH2 0x100 EXP SWAP1 DIV PUSH20 0xFFFFFFFFFFFFFFFFFFFFFFFFFFFFFFFFFFFFFFFF AND PUSH20 0xFFFFFFFFFFFFFFFFFFFFFFFFFFFFFFFFFFFFFFFF AND PUSH20 0xFFFFFFFFFFFFFFFFFFFFFFFFFFFFFFFFFFFFFFFF AND DUP2 MSTORE PUSH1 0x20 ADD PUSH1 0x1 DUP3 ADD DUP1 SLOAD PUSH2 0x2C9 SWAP1 PUSH2 0xBFA JUMP JUMPDEST DUP1 PUSH1 0x1F ADD PUSH1 0x20 DUP1 SWAP2 DIV MUL PUSH1 0x20 ADD PUSH1 0x40 MLOAD SWAP1 DUP2 ADD PUSH1 0x40 MSTORE DUP1 SWAP3 SWAP2 SWAP1 DUP2 DUP2 MSTORE PUSH1 0x20 ADD DUP3 DUP1 SLOAD PUSH2 0x2F5 SWAP1 PUSH2 0xBFA JUMP JUMPDEST DUP1 ISZERO PUSH2 0x340 JUMPI DUP1 PUSH1 0x1F LT PUSH2 0x317 JUMPI PUSH2 0x100 DUP1 DUP4 SLOAD DIV MUL DUP4 MSTORE SWAP2 PUSH1 0x20 ADD SWAP2 PUSH2 0x340 JUMP JUMPDEST DUP3 ADD SWAP2 SWAP1 PUSH0 MSTORE PUSH1 0x20 PUSH0 KECCAK256 SWAP1 JUMPDEST DUP2 SLOAD DUP2 MSTORE SWAP1 PUSH1 0x1 ADD SWAP1 PUSH1 0x20 ADD DUP1 DUP4 GT PUSH2 0x323 JUMPI DUP3 SWAP1 SUB PUSH1 0x1F AND DUP3 ADD SWAP2 JUMPDEST POP POP POP POP POP DUP2 MSTORE PUSH1 0x20 ADD PUSH1 0x2 DUP3 ADD SLOAD DUP2 MSTORE PUSH1 0x20 ADD PUSH1 0x3 DUP3 ADD SLOAD DUP2 MSTORE POP POP DUP2 MSTORE PUSH1 0x20 ADD SWAP1 PUSH1 0x1 ADD SWAP1 PUSH2 0x244 JUMP JUMPDEST POP POP POP POP SWAP1 POP SWAP2 SWAP1 POP JUMP JUMPDEST PUSH0 PUSH1 0x40 MLOAD DUP1 PUSH1 0x80 ADD PUSH1 0x40 MSTORE DUP1 CALLER PUSH20 0xFFFFFFFFFFFFFFFFFFFFFFFFFFFFFFFFFFFFFFFF AND DUP2 MSTORE PUSH1 0x20 ADD DUP4 DUP2 MSTORE PUSH1 0x20 ADD TIMESTAMP DUP2 MSTORE PUSH1 0x20 ADD PUSH0 DUP2 MSTORE POP SWAP1 POP PUSH0 DUP1 CALLER PUSH20 0xFFFFFFFFFFFFFFFFFFFFFFFFFFFFFFFFFFFFFFFF AND PUSH20 0xFFFFFFFFFFFFFFFFFFFFFFFFFFFFFFFFFFFFFFFF AND DUP2 MSTORE PUSH1 0x20 ADD SWAP1 DUP2 MSTORE PUSH1 0x20 ADD PUSH0 KECCAK256 DUP2 SWAP1 DUP1 PUSH1 0x1 DUP2 SLOAD ADD DUP1 DUP3 SSTORE DUP1 SWAP2 POP POP PUSH1 0x1 SWAP1 SUB SWAP1 PUSH0 MSTORE PUSH1 0x20 PUSH0 KECCAK256 SWAP1 PUSH1 0x4 MUL ADD PUSH0 SWAP1 SWAP2 SWAP1 SWAP2 SWAP1 SWAP2 POP PUSH0 DUP3 ADD MLOAD DUP2 PUSH0 ADD PUSH0 PUSH2 0x100 EXP DUP2 SLOAD DUP2 PUSH20 0xFFFFFFFFFFFFFFFFFFFFFFFFFFFFFFFFFFFFFFFF MUL NOT AND SWAP1 DUP4 PUSH20 0xFFFFFFFFFFFFFFFFFFFFFFFFFFFFFFFFFFFFFFFF AND MUL OR SWAP1 SSTORE POP PUSH1 0x20 DUP3 ADD MLOAD DUP2 PUSH1 0x1 ADD SWAP1 DUP2 PUSH2 0x46D SWAP2 SWAP1 PUSH2 0xDC7 JUMP JUMPDEST POP PUSH1 0x40 DUP3 ADD MLOAD DUP2 PUSH1 0x2 ADD SSTORE PUSH1 0x60 DUP3 ADD MLOAD DUP2 PUSH1 0x3 ADD SSTORE POP POP POP POP JUMP JUMPDEST PUSH2 0x490 PUSH2 0x5F4 JUMP JUMPDEST PUSH0 DUP1 CALLER PUSH20 0xFFFFFFFFFFFFFFFFFFFFFFFFFFFFFFFFFFFFFFFF AND PUSH20 0xFFFFFFFFFFFFFFFFFFFFFFFFFFFFFFFFFFFFFFFF AND DUP2 MSTORE PUSH1 0x20 ADD SWAP1 DUP2 MSTORE PUSH1 0x20 ADD PUSH0 KECCAK256 DUP3 DUP2 SLOAD DUP2 LT PUSH2 0x4DE JUMPI PUSH2 0x4DD PUSH2 0xE96 JUMP JUMPDEST JUMPDEST SWAP1 PUSH0 MSTORE PUSH1 0x20 PUSH0 KECCAK256 SWAP1 PUSH1 0x4 MUL ADD PUSH1 0x40 MLOAD DUP1 PUSH1 0x80 ADD PUSH1 0x40 MSTORE SWAP1 DUP2 PUSH0 DUP3 ADD PUSH0 SWAP1 SLOAD SWAP1 PUSH2 0x100 EXP SWAP1 DIV PUSH20 0xFFFFFFFFFFFFFFFFFFFFFFFFFFFFFFFFFFFFFFFF AND PUSH20 0xFFFFFFFFFFFFFFFFFFFFFFFFFFFFFFFFFFFFFFFF AND PUSH20 0xFFFFFFFFFFFFFFFFFFFFFFFFFFFFFFFFFFFFFFFF AND DUP2 MSTORE PUSH1 0x20 ADD PUSH1 0x1 DUP3 ADD DUP1 SLOAD PUSH2 0x559 SWAP1 PUSH2 0xBFA JUMP JUMPDEST DUP1 PUSH1 0x1F ADD PUSH1 0x20 DUP1 SWAP2 DIV MUL PUSH1 0x20 ADD PUSH1 0x40 MLOAD SWAP1 DUP2 ADD PUSH1 0x40 MSTORE DUP1 SWAP3 SWAP2 SWAP1 DUP2 DUP2 MSTORE PUSH1 0x20 ADD DUP3 DUP1 SLOAD PUSH2 0x585 SWAP1 PUSH2 0xBFA JUMP JUMPDEST DUP1 ISZERO PUSH2 0x5D0 JUMPI DUP1 PUSH1 0x1F LT PUSH2 0x5A7 JUMPI PUSH2 0x100 DUP1 DUP4 SLOAD DIV MUL DUP4 MSTORE SWAP2 PUSH1 0x20 ADD SWAP2 PUSH2 0x5D0 JUMP JUMPDEST DUP3 ADD SWAP2 SWAP1 PUSH0 MSTORE PUSH1 0x20 PUSH0 KECCAK256 SWAP1 JUMPDEST DUP2 SLOAD DUP2 MSTORE SWAP1 PUSH1 0x1 ADD SWAP1 PUSH1 0x20 ADD DUP1 DUP4 GT PUSH2 0x5B3 JUMPI DUP3 SWAP1 SUB PUSH1 0x1F AND DUP3 ADD SWAP2 JUMPDEST POP POP POP POP POP DUP2 MSTORE PUSH1 0x20 ADD PUSH1 0x2 DUP3 ADD SLOAD DUP2 MSTORE PUSH1 0x20 ADD PUSH1 0x3 DUP3 ADD SLOAD DUP2 MSTORE POP POP SWAP1 POP SWAP2 SWAP1 POP JUMP JUMPDEST PUSH1 0x40 MLOAD DUP1 PUSH1 0x80 ADD PUSH1 0x40 MSTORE DUP1 PUSH0 PUSH20 0xFFFFFFFFFFFFFFFFFFFFFFFFFFFFFFFFFFFFFFFF AND DUP2 MSTORE PUSH1 0x20 ADD PUSH1 0x60 DUP2 MSTORE PUSH1 0x20 ADD PUSH0 DUP2 MSTORE PUSH1 0x20 ADD PUSH0 DUP2 MSTORE POP SWAP1 JUMP JUMPDEST PUSH0 PUSH1 0x40 MLOAD SWAP1 POP SWAP1 JUMP JUMPDEST PUSH0 DUP1 REVERT JUMPDEST PUSH0 DUP1 REVERT JUMPDEST PUSH0 PUSH20 0xFFFFFFFFFFFFFFFFFFFFFFFFFFFFFFFFFFFFFFFF DUP3 AND SWAP1 POP SWAP2 SWAP1 POP JUMP JUMPDEST PUSH0 PUSH2 0x669 DUP3 PUSH2 0x640 JUMP JUMPDEST SWAP1 POP SWAP2 SWAP1 POP JUMP JUMPDEST PUSH2 0x679 DUP2 PUSH2 0x65F JUMP JUMPDEST DUP2 EQ PUSH2 0x683 JUMPI PUSH0 DUP1 REVERT JUMPDEST POP JUMP JUMPDEST PUSH0 DUP2 CALLDATALOAD SWAP1 POP PUSH2 0x694 DUP2 PUSH2 0x670 JUMP JUMPDEST SWAP3 SWAP2 POP POP JUMP JUMPDEST PUSH0 DUP2 SWAP1 POP SWAP2 SWAP1 POP JUMP JUMPDEST PUSH2 0x6AC DUP2 PUSH2 0x69A JUMP JUMPDEST DUP2 EQ PUSH2 0x6B6 JUMPI PUSH0 DUP1 REVERT JUMPDEST POP JUMP JUMPDEST PUSH0 DUP2 CALLDATALOAD SWAP1 POP PUSH2 0x6C7 DUP2 PUSH2 0x6A3 JUMP JUMPDEST SWAP3 SWAP2 POP POP JUMP JUMPDEST PUSH0 DUP1 PUSH1 0x40 DUP4 DUP6 SUB SLT ISZERO PUSH2 0x6E3 JUMPI PUSH2 0x6E2 PUSH2 0x638 JUMP JUMPDEST JUMPDEST PUSH0 PUSH2 0x6F0 DUP6 DUP3 DUP7 ADD PUSH2 0x686 JUMP JUMPDEST SWAP3 POP POP PUSH1 0x20 PUSH2 0x701 DUP6 DUP3 DUP7 ADD PUSH2 0x6B9 JUMP JUMPDEST SWAP2 POP POP SWAP3 POP SWAP3 SWAP1 POP JUMP JUMPDEST PUSH2 0x714 DUP2 PUSH2 0x65F JUMP JUMPDEST DUP3 MSTORE POP POP JUMP JUMPDEST PUSH0 DUP2 MLOAD SWAP1 POP SWAP2 SWAP1 POP JUMP JUMPDEST PUSH0 DUP3 DUP3 MSTORE PUSH1 0x20 DUP3 ADD SWAP1 POP SWAP3 SWAP2 POP POP JUMP JUMPDEST DUP3 DUP2 DUP4 MCOPY PUSH0 DUP4 DUP4 ADD MSTORE POP POP POP JUMP JUMPDEST PUSH0 PUSH1 0x1F NOT PUSH1 0x1F DUP4 ADD AND SWAP1 POP SWAP2 SWAP1 POP JUMP JUMPDEST PUSH0 PUSH2 0x75C DUP3 PUSH2 0x71A JUMP JUMPDEST PUSH2 0x766 DUP2 DUP6 PUSH2 0x724 JUMP JUMPDEST SWAP4 POP PUSH2 0x776 DUP2 DUP6 PUSH1 0x20 DUP7 ADD PUSH2 0x734 JUMP JUMPDEST PUSH2 0x77F DUP2 PUSH2 0x742 JUMP JUMPDEST DUP5 ADD SWAP2 POP POP SWAP3 SWAP2 POP POP JUMP JUMPDEST PUSH2 0x793 DUP2 PUSH2 0x69A JUMP JUMPDEST DUP3 MSTORE POP POP JUMP JUMPDEST PUSH0 PUSH1 0x80 DUP3 ADD SWAP1 POP PUSH2 0x7AC PUSH0 DUP4 ADD DUP8 PUSH2 0x70B JUMP JUMPDEST DUP2 DUP2 SUB PUSH1 0x20 DUP4 ADD MSTORE PUSH2 0x7BE DUP2 DUP7 PUSH2 0x752 JUMP JUMPDEST SWAP1 POP PUSH2 0x7CD PUSH1 0x40 DUP4 ADD DUP6 PUSH2 0x78A JUMP JUMPDEST PUSH2 0x7DA PUSH1 0x60 DUP4 ADD DUP5 PUSH2 0x78A JUMP JUMPDEST SWAP6 SWAP5 POP POP POP POP POP JUMP JUMPDEST PUSH0 PUSH1 0x20 DUP3 DUP5 SUB SLT ISZERO PUSH2 0x7F8 JUMPI PUSH2 0x7F7 PUSH2 0x638 JUMP JUMPDEST JUMPDEST PUSH0 PUSH2 0x805 DUP5 DUP3 DUP6 ADD PUSH2 0x686 JUMP JUMPDEST SWAP2 POP POP SWAP3 SWAP2 POP POP JUMP JUMPDEST PUSH0 DUP2 MLOAD SWAP1 POP SWAP2 SWAP1 POP JUMP JUMPDEST PUSH0 DUP3 DUP3 MSTORE PUSH1 0x20 DUP3 ADD SWAP1 POP SWAP3 SWAP2 POP POP JUMP JUMPDEST PUSH0 DUP2 SWAP1 POP PUSH1 0x20 DUP3 ADD SWAP1 POP SWAP2 SWAP1 POP JUMP JUMPDEST PUSH2 0x840 DUP2 PUSH2 0x65F JUMP JUMPDEST DUP3 MSTORE POP POP JUMP JUMPDEST PUSH0 DUP3 DUP3 MSTORE PUSH1 0x20 DUP3 ADD SWAP1 POP SWAP3 SWAP2 POP POP JUMP JUMPDEST PUSH0 PUSH2 0x860 DUP3 PUSH2 0x71A JUMP JUMPDEST PUSH2 0x86A DUP2 DUP6 PUSH2 0x846 JUMP JUMPDEST SWAP4 POP PUSH2 0x87A DUP2 DUP6 PUSH1 0x20 DUP7 ADD PUSH2 0x734 JUMP JUMPDEST PUSH2 0x883 DUP2 PUSH2 0x742 JUMP JUMPDEST DUP5 ADD SWAP2 POP POP SWAP3 SWAP2 POP POP JUMP JUMPDEST PUSH2 0x897 DUP2 PUSH2 0x69A JUMP JUMPDEST DUP3 MSTORE POP POP JUMP JUMPDEST PUSH0 PUSH1 0x80 DUP4 ADD PUSH0 DUP4 ADD MLOAD PUSH2 0x8B2 PUSH0 DUP7 ADD DUP3 PUSH2 0x837 JUMP JUMPDEST POP PUSH1 0x20 DUP4 ADD MLOAD DUP5 DUP3 SUB PUSH1 0x20 DUP7 ADD MSTORE PUSH2 0x8CA DUP3 DUP3 PUSH2 0x856 JUMP JUMPDEST SWAP2 POP POP PUSH1 0x40 DUP4 ADD MLOAD PUSH2 0x8DF PUSH1 0x40 DUP7 ADD DUP3 PUSH2 0x88E JUMP JUMPDEST POP PUSH1 0x60 DUP4 ADD MLOAD PUSH2 0x8F2 PUSH1 0x60 DUP7 ADD DUP3 PUSH2 0x88E JUMP JUMPDEST POP DUP1 SWAP2 POP POP SWAP3 SWAP2 POP POP JUMP JUMPDEST PUSH0 PUSH2 0x908 DUP4 DUP4 PUSH2 0x89D JUMP JUMPDEST SWAP1 POP SWAP3 SWAP2 POP POP JUMP JUMPDEST PUSH0 PUSH1 0x20 DUP3 ADD SWAP1 POP SWAP2 SWAP1 POP JUMP JUMPDEST PUSH0 PUSH2 0x926 DUP3 PUSH2 0x80E JUMP JUMPDEST PUSH2 0x930 DUP2 DUP6 PUSH2 0x818 JUMP JUMPDEST SWAP4 POP DUP4 PUSH1 0x20 DUP3 MUL DUP6 ADD PUSH2 0x942 DUP6 PUSH2 0x828 JUMP JUMPDEST DUP1 PUSH0 JUMPDEST DUP6 DUP2 LT ISZERO PUSH2 0x97D JUMPI DUP5 DUP5 SUB DUP10 MSTORE DUP2 MLOAD PUSH2 0x95E DUP6 DUP3 PUSH2 0x8FD JUMP JUMPDEST SWAP5 POP PUSH2 0x969 DUP4 PUSH2 0x910 JUMP JUMPDEST SWAP3 POP PUSH1 0x20 DUP11 ADD SWAP10 POP POP PUSH1 0x1 DUP2 ADD SWAP1 POP PUSH2 0x945 JUMP JUMPDEST POP DUP3 SWAP8 POP DUP8 SWAP6 POP POP POP POP POP POP SWAP3 SWAP2 POP POP JUMP JUMPDEST PUSH0 PUSH1 0x20 DUP3 ADD SWAP1 POP DUP2 DUP2 SUB PUSH0 DUP4 ADD MSTORE PUSH2 0x9A7 DUP2 DUP5 PUSH2 0x91C JUMP JUMPDEST SWAP1 POP SWAP3 SWAP2 POP POP JUMP JUMPDEST PUSH0 DUP1 REVERT JUMPDEST PUSH0 DUP1 REVERT JUMPDEST PUSH32 0x4E487B7100000000000000000000000000000000000000000000000000000000 PUSH0 MSTORE PUSH1 0x41 PUSH1 0x4 MSTORE PUSH1 0x24 PUSH0 REVERT JUMPDEST PUSH2 0x9ED DUP3 PUSH2 0x742 JUMP JUMPDEST DUP2 ADD DUP2 DUP2 LT PUSH8 0xFFFFFFFFFFFFFFFF DUP3 GT OR ISZERO PUSH2 0xA0C JUMPI PUSH2 0xA0B PUSH2 0x9B7 JUMP JUMPDEST JUMPDEST DUP1 PUSH1 0x40 MSTORE POP POP POP JUMP JUMPDEST PUSH0 PUSH2 0xA1E PUSH2 0x62F JUMP JUMPDEST SWAP1 POP PUSH2 0xA2A DUP3 DUP3 PUSH2 0x9E4 JUMP JUMPDEST SWAP2 SWAP1 POP JUMP JUMPDEST PUSH0 PUSH8 0xFFFFFFFFFFFFFFFF DUP3 GT ISZERO PUSH2 0xA49 JUMPI PUSH2 0xA48 PUSH2 0x9B7 JUMP JUMPDEST JUMPDEST PUSH2 0xA52 DUP3 PUSH2 0x742 JUMP JUMPDEST SWAP1 POP PUSH1 0x20 DUP2 ADD SWAP1 POP SWAP2 SWAP1 POP JUMP JUMPDEST DUP3 DUP2 DUP4 CALLDATACOPY PUSH0 DUP4 DUP4 ADD MSTORE POP POP POP JUMP JUMPDEST PUSH0 PUSH2 0xA7F PUSH2 0xA7A DUP5 PUSH2 0xA2F JUMP JUMPDEST PUSH2 0xA15 JUMP JUMPDEST SWAP1 POP DUP3 DUP2 MSTORE PUSH1 0x20 DUP2 ADD DUP5 DUP5 DUP5 ADD GT ISZERO PUSH2 0xA9B JUMPI PUSH2 0xA9A PUSH2 0x9B3 JUMP JUMPDEST JUMPDEST PUSH2 0xAA6 DUP5 DUP3 DUP6 PUSH2 0xA5F JUMP JUMPDEST POP SWAP4 SWAP3 POP POP POP JUMP JUMPDEST PUSH0 DUP3 PUSH1 0x1F DUP4 ADD SLT PUSH2 0xAC2 JUMPI PUSH2 0xAC1 PUSH2 0x9AF JUMP JUMPDEST JUMPDEST DUP2 CALLDATALOAD PUSH2 0xAD2 DUP5 DUP3 PUSH1 0x20 DUP7 ADD PUSH2 0xA6D JUMP JUMPDEST SWAP2 POP POP SWAP3 SWAP2 POP POP JUMP JUMPDEST PUSH0 PUSH1 0x20 DUP3 DUP5 SUB SLT ISZERO PUSH2 0xAF0 JUMPI PUSH2 0xAEF PUSH2 0x638 JUMP JUMPDEST JUMPDEST PUSH0 DUP3 ADD CALLDATALOAD PUSH8 0xFFFFFFFFFFFFFFFF DUP2 GT ISZERO PUSH2 0xB0D JUMPI PUSH2 0xB0C PUSH2 0x63C JUMP JUMPDEST JUMPDEST PUSH2 0xB19 DUP5 DUP3 DUP6 ADD PUSH2 0xAAE JUMP JUMPDEST SWAP2 POP POP SWAP3 SWAP2 POP POP JUMP JUMPDEST PUSH0 PUSH1 0x20 DUP3 DUP5 SUB SLT ISZERO PUSH2 0xB37 JUMPI PUSH2 0xB36 PUSH2 0x638 JUMP JUMPDEST JUMPDEST PUSH0 PUSH2 0xB44 DUP5 DUP3 DUP6 ADD PUSH2 0x6B9 JUMP JUMPDEST SWAP2 POP POP SWAP3 SWAP2 POP POP JUMP JUMPDEST PUSH0 PUSH1 0x80 DUP4 ADD PUSH0 DUP4 ADD MLOAD PUSH2 0xB62 PUSH0 DUP7 ADD DUP3 PUSH2 0x837 JUMP JUMPDEST POP PUSH1 0x20 DUP4 ADD MLOAD DUP5 DUP3 SUB PUSH1 0x20 DUP7 ADD MSTORE PUSH2 0xB7A DUP3 DUP3 PUSH2 0x856 JUMP JUMPDEST SWAP2 POP POP PUSH1 0x40 DUP4 ADD MLOAD PUSH2 0xB8F PUSH1 0x40 DUP7 ADD DUP3 PUSH2 0x88E JUMP JUMPDEST POP PUSH1 0x60 DUP4 ADD MLOAD PUSH2 0xBA2 PUSH1 0x60 DUP7 ADD DUP3 PUSH2 0x88E JUMP JUMPDEST POP DUP1 SWAP2 POP POP SWAP3 SWAP2 POP POP JUMP JUMPDEST PUSH0 PUSH1 0x20 DUP3 ADD SWAP1 POP DUP2 DUP2 SUB PUSH0 DUP4 ADD MSTORE PUSH2 0xBC5 DUP2 DUP5 PUSH2 0xB4D JUMP JUMPDEST SWAP1 POP SWAP3 SWAP2 POP POP JUMP JUMPDEST PUSH32 0x4E487B7100000000000000000000000000000000000000000000000000000000 PUSH0 MSTORE PUSH1 0x22 PUSH1 0x4 MSTORE PUSH1 0x24 PUSH0 REVERT JUMPDEST PUSH0 PUSH1 0x2 DUP3 DIV SWAP1 POP PUSH1 0x1 DUP3 AND DUP1 PUSH2 0xC11 JUMPI PUSH1 0x7F DUP3 AND SWAP2 POP JUMPDEST PUSH1 0x20 DUP3 LT DUP2 SUB PUSH2 0xC24 JUMPI PUSH2 0xC23 PUSH2 0xBCD JUMP JUMPDEST JUMPDEST POP SWAP2 SWAP1 POP JUMP JUMPDEST PUSH0 DUP2 SWAP1 POP DUP2 PUSH0 MSTORE PUSH1 0x20 PUSH0 KECCAK256 SWAP1 POP SWAP2 SWAP1 POP JUMP JUMPDEST PUSH0 PUSH1 0x20 PUSH1 0x1F DUP4 ADD DIV SWAP1 POP SWAP2 SWAP1 POP JUMP JUMPDEST PUSH0 DUP3 DUP3 SHL SWAP1 POP SWAP3 SWAP2 POP POP JUMP JUMPDEST PUSH0 PUSH1 0x8 DUP4 MUL PUSH2 0xC86 PUSH32 0xFFFFFFFFFFFFFFFFFFFFFFFFFFFFFFFFFFFFFFFFFFFFFFFFFFFFFFFFFFFFFFFF DUP3 PUSH2 0xC4B JUMP JUMPDEST PUSH2 0xC90 DUP7 DUP4 PUSH2 0xC4B JUMP JUMPDEST SWAP6 POP DUP1 NOT DUP5 AND SWAP4 POP DUP1 DUP7 AND DUP5 OR SWAP3 POP POP POP SWAP4 SWAP3 POP POP POP JUMP JUMPDEST PUSH0 DUP2 SWAP1 POP SWAP2 SWAP1 POP JUMP JUMPDEST PUSH0 PUSH2 0xCCB PUSH2 0xCC6 PUSH2 0xCC1 DUP5 PUSH2 0x69A JUMP JUMPDEST PUSH2 0xCA8 JUMP JUMPDEST PUSH2 0x69A JUMP JUMPDEST SWAP1 POP SWAP2 SWAP1 POP JUMP JUMPDEST PUSH0 DUP2 SWAP1 POP SWAP2 SWAP1 POP JUMP JUMPDEST PUSH2 0xCE4 DUP4 PUSH2 0xCB1 JUMP JUMPDEST PUSH2 0xCF8 PUSH2 0xCF0 DUP3 PUSH2 0xCD2 JUMP JUMPDEST DUP5 DUP5 SLOAD PUSH2 0xC57 JUMP JUMPDEST DUP3 SSTORE POP POP POP POP JUMP JUMPDEST PUSH0 SWAP1 JUMP JUMPDEST PUSH2 0xD0C PUSH2 0xD00 JUMP JUMPDEST PUSH2 0xD17 DUP2 DUP5 DUP5 PUSH2 0xCDB JUMP JUMPDEST POP POP POP JUMP JUMPDEST JUMPDEST DUP2 DUP2 LT ISZERO PUSH2 0xD3A JUMPI PUSH2 0xD2F PUSH0 DUP3 PUSH2 0xD04 JUMP JUMPDEST PUSH1 0x1 DUP2 ADD SWAP1 POP PUSH2 0xD1D JUMP JUMPDEST POP POP JUMP JUMPDEST PUSH1 0x1F DUP3 GT ISZERO PUSH2 0xD7F JUMPI PUSH2 0xD50 DUP2 PUSH2 0xC2A JUMP JUMPDEST PUSH2 0xD59 DUP5 PUSH2 0xC3C JUMP JUMPDEST DUP2 ADD PUSH1 0x20 DUP6 LT ISZERO PUSH2 0xD68 JUMPI DUP2 SWAP1 POP JUMPDEST PUSH2 0xD7C PUSH2 0xD74 DUP6 PUSH2 0xC3C JUMP JUMPDEST DUP4 ADD DUP3 PUSH2 0xD1C JUMP JUMPDEST POP POP JUMPDEST POP POP POP JUMP JUMPDEST PUSH0 DUP3 DUP3 SHR SWAP1 POP SWAP3 SWAP2 POP POP JUMP JUMPDEST PUSH0 PUSH2 0xD9F PUSH0 NOT DUP5 PUSH1 0x8 MUL PUSH2 0xD84 JUMP JUMPDEST NOT DUP1 DUP4 AND SWAP2 POP POP SWAP3 SWAP2 POP POP JUMP JUMPDEST PUSH0 PUSH2 0xDB7 DUP4 DUP4 PUSH2 0xD90 JUMP JUMPDEST SWAP2 POP DUP3 PUSH1 0x2 MUL DUP3 OR SWAP1 POP SWAP3 SWAP2 POP POP JUMP JUMPDEST PUSH2 0xDD0 DUP3 PUSH2 0x71A JUMP JUMPDEST PUSH8 0xFFFFFFFFFFFFFFFF DUP2 GT ISZERO PUSH2 0xDE9 JUMPI PUSH2 0xDE8 PUSH2 0x9B7 JUMP JUMPDEST JUMPDEST PUSH2 0xDF3 DUP3 SLOAD PUSH2 0xBFA JUMP JUMPDEST PUSH2 0xDFE DUP3 DUP3 DUP6 PUSH2 0xD3E JUMP JUMPDEST PUSH0 PUSH1 0x20 SWAP1 POP PUSH1 0x1F DUP4 GT PUSH1 0x1 DUP2 EQ PUSH2 0xE2F JUMPI PUSH0 DUP5 ISZERO PUSH2 0xE1D JUMPI DUP3 DUP8 ADD MLOAD SWAP1 POP JUMPDEST PUSH2 0xE27 DUP6 DUP3 PUSH2 0xDAC JUMP JUMPDEST DUP7 SSTORE POP PUSH2 0xE8E JUMP JUMPDEST PUSH1 0x1F NOT DUP5 AND PUSH2 0xE3D DUP7 PUSH2 0xC2A JUMP JUMPDEST PUSH0 JUMPDEST DUP3 DUP2 LT ISZERO PUSH2 0xE64 JUMPI DUP5 DUP10 ADD MLOAD DUP3 SSTORE PUSH1 0x1 DUP3 ADD SWAP2 POP PUSH1 0x20 DUP6 ADD SWAP5 POP PUSH1 0x20 DUP2 ADD SWAP1 POP PUSH2 0xE3F JUMP JUMPDEST DUP7 DUP4 LT ISZERO PUSH2 0xE81 JUMPI DUP5 DUP10 ADD MLOAD PUSH2 0xE7D PUSH1 0x1F DUP10 AND DUP3 PUSH2 0xD90 JUMP JUMPDEST DUP4 SSTORE POP JUMPDEST PUSH1 0x1 PUSH1 0x2 DUP9 MUL ADD DUP9 SSTORE POP POP POP JUMPDEST POP POP POP POP POP POP JUMP JUMPDEST PUSH32 0x4E487B7100000000000000000000000000000000000000000000000000000000 PUSH0 MSTORE PUSH1 0x32 PUSH1 0x4 MSTORE PUSH1 0x24 PUSH0 REVERT INVALID LOG2 PUSH5 0x6970667358 0x22 SLT KECCAK256 PUSH15 0x2410910BBC3D23A1A24823AB617FB8 PUSH22 0xCA7B641A1C8252E9FDF9D4E4F188FA64736F6C634300 ADDMOD BYTE STOP CALLER "
				},
				"gasEstimates": {
					"creation": {
						"codeDepositCost": "766600",
						"executionCost": "797",
						"totalCost": "767397"
					},
					"external": {
						"createTweet(string)": "infinite",
						"getAllTweets(address)": "infinite",
						"getTweet(uint256)": "infinite",
						"tweets(address,uint256)": "infinite"
					}
				},
				"methodIdentifiers": {
					"createTweet(string)": "7c9cd2bc",
					"getAllTweets(address)": "12e7ee1c",
					"getTweet(uint256)": "c3ad5ecb",
					"tweets(address,uint256)": "05a1b4a9"
				}
			},
			"storageLayout": {
				"storage": [
					{
						"astId": 16,
						"contract": "contracts/Lab 2/3-Twitter-Require.sol:Twitter",
						"label": "tweets",
						"offset": 0,
						"slot": "0",
						"type": "t_mapping(t_address,t_array(t_struct(Tweet)10_storage)dyn_storage)"
					}
				],
				"types": {
					"t_address": {
						"encoding": "inplace",
						"label": "address",
						"numberOfBytes": "20"
					},
					"t_array(t_struct(Tweet)10_storage)dyn_storage": {
						"base": "t_struct(Tweet)10_storage",
						"encoding": "dynamic_array",
						"label": "struct Twitter.Tweet[]",
						"numberOfBytes": "32"
					},
					"t_mapping(t_address,t_array(t_struct(Tweet)10_storage)dyn_storage)": {
						"encoding": "mapping",
						"key": "t_address",
						"label": "mapping(address => struct Twitter.Tweet[])",
						"numberOfBytes": "32",
						"value": "t_array(t_struct(Tweet)10_storage)dyn_storage"
					},
					"t_string_storage": {
						"encoding": "bytes",
						"label": "string",
						"numberOfBytes": "32"
					},
					"t_struct(Tweet)10_storage": {
						"encoding": "inplace",
						"label": "struct Twitter.Tweet",
						"members": [
							{
								"astId": 3,
								"contract": "contracts/Lab 2/3-Twitter-Require.sol:Twitter",
								"label": "author",
								"offset": 0,
								"slot": "0",
								"type": "t_address"
							},
							{
								"astId": 5,
								"contract": "contracts/Lab 2/3-Twitter-Require.sol:Twitter",
								"label": "content",
								"offset": 0,
								"slot": "1",
								"type": "t_string_storage"
							},
							{
								"astId": 7,
								"contract": "contracts/Lab 2/3-Twitter-Require.sol:Twitter",
								"label": "timestamp",
								"offset": 0,
								"slot": "2",
								"type": "t_uint256"
							},
							{
								"astId": 9,
								"contract": "contracts/Lab 2/3-Twitter-Require.sol:Twitter",
								"label": "likes",
								"offset": 0,
								"slot": "3",
								"type": "t_uint256"
							}
						],
						"numberOfBytes": "128"
					},
					"t_uint256": {
						"encoding": "inplace",
						"label": "uint256",
						"numberOfBytes": "32"
					}
				}
			},
			"userdoc": {
				"kind": "user",
				"methods": {},
				"version": 1
			}
		}
	}
}