{
	"contracts/Lab 2/1-BasicTwitter.sol": {
		"Twitter": {
			"abi": [
				{
					"inputs": [
						{
							"internalType": "string",
							"name": "_tweet",
							"type": "string"
						}
					],
					"name": "createTweet",
					"outputs": [],
					"stateMutability": "nonpayable",
					"type": "function"
				},
				{
					"inputs": [
						{
							"internalType": "address",
							"name": "_addr",
							"type": "address"
						}
					],
					"name": "getAllTweets",
					"outputs": [
						{
							"components": [
								{
									"internalType": "string",
									"name": "content",
									"type": "string"
								},
								{
									"internalType": "address",
									"name": "user_address",
									"type": "address"
								},
								{
									"internalType": "uint16",
									"name": "likes",
									"type": "uint16"
								},
								{
									"internalType": "uint256",
									"name": "timestamp",
									"type": "uint256"
								}
							],
							"internalType": "struct Twitter.Tweet[]",
							"name": "",
							"type": "tuple[]"
						}
					],
					"stateMutability": "view",
					"type": "function"
				},
				{
					"inputs": [
						{
							"internalType": "address",
							"name": "_addr",
							"type": "address"
						},
						{
							"internalType": "uint256",
							"name": "_i",
							"type": "uint256"
						}
					],
					"name": "getTweet",
					"outputs": [
						{
							"components": [
								{
									"internalType": "string",
									"name": "content",
									"type": "string"
								},
								{
									"internalType": "address",
									"name": "user_address",
									"type": "address"
								},
								{
									"internalType": "uint16",
									"name": "likes",
									"type": "uint16"
								},
								{
									"internalType": "uint256",
									"name": "timestamp",
									"type": "uint256"
								}
							],
							"internalType": "struct Twitter.Tweet",
							"name": "",
							"type": "tuple"
						}
					],
					"stateMutability": "view",
					"type": "function"
				},
				{
					"inputs": [
						{
							"internalType": "address",
							"name": "",
							"type": "address"
						},
						{
							"internalType": "uint256",
							"name": "",
							"type": "uint256"
						}
					],
					"name": "tweets",
					"outputs": [
						{
							"internalType": "string",
							"name": "content",
							"type": "string"
						},
						{
							"internalType": "address",
							"name": "user_address",
							"type": "address"
						},
						{
							"internalType": "uint16",
							"name": "likes",
							"type": "uint16"
						},
						{
							"internalType": "uint256",
							"name": "timestamp",
							"type": "uint256"
						}
					],
					"stateMutability": "view",
					"type": "function"
				}
			],
			"devdoc": {
				"kind": "dev",
				"methods": {},
				"version": 1
			},
			"evm": {
				"assembly": "    /* \"contracts/Lab 2/1-BasicTwitter.sol\":290:1364  contract Twitter {... */\n  mstore(0x40, 0x80)\n  callvalue\n  dup1\n  iszero\n  tag_1\n  jumpi\n  0x00\n  dup1\n  revert\ntag_1:\n  pop\n  dataSize(sub_0)\n  dup1\n  dataOffset(sub_0)\n  0x00\n  codecopy\n  0x00\n  return\nstop\n\nsub_0: assembly {\n        /* \"contracts/Lab 2/1-BasicTwitter.sol\":290:1364  contract Twitter {... */\n      mstore(0x40, 0x80)\n      callvalue\n      dup1\n      iszero\n      tag_1\n      jumpi\n      0x00\n      dup1\n      revert\n    tag_1:\n      pop\n      jumpi(tag_2, lt(calldatasize, 0x04))\n      shr(0xe0, calldataload(0x00))\n      dup1\n      0x05a1b4a9\n      eq\n      tag_3\n      jumpi\n      dup1\n      0x112f54e3\n      eq\n      tag_4\n      jumpi\n      dup1\n      0x12e7ee1c\n      eq\n      tag_5\n      jumpi\n      dup1\n      0x7c9cd2bc\n      eq\n      tag_6\n      jumpi\n    tag_2:\n      0x00\n      dup1\n      revert\n        /* \"contracts/Lab 2/1-BasicTwitter.sol\":497:538  mapping(address => Tweet[]) public tweets */\n    tag_3:\n      tag_7\n      0x04\n      dup1\n      calldatasize\n      sub\n      dup2\n      add\n      swap1\n      tag_8\n      swap2\n      swap1\n      tag_9\n      jump\t// in\n    tag_8:\n      tag_10\n      jump\t// in\n    tag_7:\n      mload(0x40)\n      tag_11\n      swap5\n      swap4\n      swap3\n      swap2\n      swap1\n      tag_12\n      jump\t// in\n    tag_11:\n      mload(0x40)\n      dup1\n      swap2\n      sub\n      swap1\n      return\n        /* \"contracts/Lab 2/1-BasicTwitter.sol\":1125:1246  function getTweet(address _addr, uint256 _i) public view returns (Tweet memory) {... */\n    tag_4:\n      tag_13\n      0x04\n      dup1\n      calldatasize\n      sub\n      dup2\n      add\n      swap1\n      tag_14\n      swap2\n      swap1\n      tag_9\n      jump\t// in\n    tag_14:\n      tag_15\n      jump\t// in\n    tag_13:\n      mload(0x40)\n      tag_16\n      swap2\n      swap1\n      tag_17\n      jump\t// in\n    tag_16:\n      mload(0x40)\n      dup1\n      swap2\n      sub\n      swap1\n      return\n        /* \"contracts/Lab 2/1-BasicTwitter.sol\":1252:1362  function getAllTweets(address _addr) public view returns (Tweet[] memory){... */\n    tag_5:\n      tag_18\n      0x04\n      dup1\n      calldatasize\n      sub\n      dup2\n      add\n      swap1\n      tag_19\n      swap2\n      swap1\n      tag_20\n      jump\t// in\n    tag_19:\n      tag_21\n      jump\t// in\n    tag_18:\n      mload(0x40)\n      tag_22\n      swap2\n      swap1\n      tag_23\n      jump\t// in\n    tag_22:\n      mload(0x40)\n      dup1\n      swap2\n      sub\n      swap1\n      return\n        /* \"contracts/Lab 2/1-BasicTwitter.sol\":545:1119  function createTweet(string memory _tweet) public {... */\n    tag_6:\n      tag_24\n      0x04\n      dup1\n      calldatasize\n      sub\n      dup2\n      add\n      swap1\n      tag_25\n      swap2\n      swap1\n      tag_26\n      jump\t// in\n    tag_25:\n      tag_27\n      jump\t// in\n    tag_24:\n      stop\n        /* \"contracts/Lab 2/1-BasicTwitter.sol\":497:538  mapping(address => Tweet[]) public tweets */\n    tag_10:\n      mstore(0x20, 0x00)\n      dup2\n      0x00\n      mstore\n      keccak256(0x00, 0x40)\n      dup2\n      dup2\n      sload\n      dup2\n      lt\n      tag_28\n      jumpi\n      0x00\n      dup1\n      revert\n    tag_28:\n      swap1\n      0x00\n      mstore\n      keccak256(0x00, 0x20)\n      swap1\n      0x03\n      mul\n      add\n      0x00\n      swap2\n      pop\n      swap2\n      pop\n      pop\n      dup1\n      0x00\n      add\n      dup1\n      sload\n      tag_30\n      swap1\n      tag_31\n      jump\t// in\n    tag_30:\n      dup1\n      0x1f\n      add\n      0x20\n      dup1\n      swap2\n      div\n      mul\n      0x20\n      add\n      mload(0x40)\n      swap1\n      dup2\n      add\n      0x40\n      mstore\n      dup1\n      swap3\n      swap2\n      swap1\n      dup2\n      dup2\n      mstore\n      0x20\n      add\n      dup3\n      dup1\n      sload\n      tag_32\n      swap1\n      tag_31\n      jump\t// in\n    tag_32:\n      dup1\n      iszero\n      tag_33\n      jumpi\n      dup1\n      0x1f\n      lt\n      tag_34\n      jumpi\n      0x0100\n      dup1\n      dup4\n      sload\n      div\n      mul\n      dup4\n      mstore\n      swap2\n      0x20\n      add\n      swap2\n      jump(tag_33)\n    tag_34:\n      dup3\n      add\n      swap2\n      swap1\n      0x00\n      mstore\n      keccak256(0x00, 0x20)\n      swap1\n    tag_35:\n      dup2\n      sload\n      dup2\n      mstore\n      swap1\n      0x01\n      add\n      swap1\n      0x20\n      add\n      dup1\n      dup4\n      gt\n      tag_35\n      jumpi\n      dup3\n      swap1\n      sub\n      0x1f\n      and\n      dup3\n      add\n      swap2\n    tag_33:\n      pop\n      pop\n      pop\n      pop\n      pop\n      swap1\n      dup1\n      0x01\n      add\n      0x00\n      swap1\n      sload\n      swap1\n      0x0100\n      exp\n      swap1\n      div\n      0xffffffffffffffffffffffffffffffffffffffff\n      and\n      swap1\n      dup1\n      0x01\n      add\n      0x14\n      swap1\n      sload\n      swap1\n      0x0100\n      exp\n      swap1\n      div\n      0xffff\n      and\n      swap1\n      dup1\n      0x02\n      add\n      sload\n      swap1\n      pop\n      dup5\n      jump\t// out\n        /* \"contracts/Lab 2/1-BasicTwitter.sol\":1125:1246  function getTweet(address _addr, uint256 _i) public view returns (Tweet memory) {... */\n    tag_15:\n        /* \"contracts/Lab 2/1-BasicTwitter.sol\":1191:1203  Tweet memory */\n      tag_36\n      tag_37\n      jump\t// in\n    tag_36:\n        /* \"contracts/Lab 2/1-BasicTwitter.sol\":1222:1228  tweets */\n      0x00\n        /* \"contracts/Lab 2/1-BasicTwitter.sol\":1222:1235  tweets[_addr] */\n      dup1\n        /* \"contracts/Lab 2/1-BasicTwitter.sol\":1229:1234  _addr */\n      dup5\n        /* \"contracts/Lab 2/1-BasicTwitter.sol\":1222:1235  tweets[_addr] */\n      0xffffffffffffffffffffffffffffffffffffffff\n      and\n      0xffffffffffffffffffffffffffffffffffffffff\n      and\n      dup2\n      mstore\n      0x20\n      add\n      swap1\n      dup2\n      mstore\n      0x20\n      add\n      0x00\n      keccak256\n        /* \"contracts/Lab 2/1-BasicTwitter.sol\":1236:1238  _i */\n      dup3\n        /* \"contracts/Lab 2/1-BasicTwitter.sol\":1222:1239  tweets[_addr][_i] */\n      dup2\n      sload\n      dup2\n      lt\n      tag_39\n      jumpi\n      tag_40\n      tag_41\n      jump\t// in\n    tag_40:\n    tag_39:\n      swap1\n      0x00\n      mstore\n      keccak256(0x00, 0x20)\n      swap1\n      0x03\n      mul\n      add\n        /* \"contracts/Lab 2/1-BasicTwitter.sol\":1215:1239  return tweets[_addr][_i] */\n      mload(0x40)\n      dup1\n      0x80\n      add\n      0x40\n      mstore\n      swap1\n      dup2\n      0x00\n      dup3\n      add\n      dup1\n      sload\n      tag_43\n      swap1\n      tag_31\n      jump\t// in\n    tag_43:\n      dup1\n      0x1f\n      add\n      0x20\n      dup1\n      swap2\n      div\n      mul\n      0x20\n      add\n      mload(0x40)\n      swap1\n      dup2\n      add\n      0x40\n      mstore\n      dup1\n      swap3\n      swap2\n      swap1\n      dup2\n      dup2\n      mstore\n      0x20\n      add\n      dup3\n      dup1\n      sload\n      tag_44\n      swap1\n      tag_31\n      jump\t// in\n    tag_44:\n      dup1\n      iszero\n      tag_45\n      jumpi\n      dup1\n      0x1f\n      lt\n      tag_46\n      jumpi\n      0x0100\n      dup1\n      dup4\n      sload\n      div\n      mul\n      dup4\n      mstore\n      swap2\n      0x20\n      add\n      swap2\n      jump(tag_45)\n    tag_46:\n      dup3\n      add\n      swap2\n      swap1\n      0x00\n      mstore\n      keccak256(0x00, 0x20)\n      swap1\n    tag_47:\n      dup2\n      sload\n      dup2\n      mstore\n      swap1\n      0x01\n      add\n      swap1\n      0x20\n      add\n      dup1\n      dup4\n      gt\n      tag_47\n      jumpi\n      dup3\n      swap1\n      sub\n      0x1f\n      and\n      dup3\n      add\n      swap2\n    tag_45:\n      pop\n      pop\n      pop\n      pop\n      pop\n      dup2\n      mstore\n      0x20\n      add\n      0x01\n      dup3\n      add\n      0x00\n      swap1\n      sload\n      swap1\n      0x0100\n      exp\n      swap1\n      div\n      0xffffffffffffffffffffffffffffffffffffffff\n      and\n      0xffffffffffffffffffffffffffffffffffffffff\n      and\n      0xffffffffffffffffffffffffffffffffffffffff\n      and\n      dup2\n      mstore\n      0x20\n      add\n      0x01\n      dup3\n      add\n      0x14\n      swap1\n      sload\n      swap1\n      0x0100\n      exp\n      swap1\n      div\n      0xffff\n      and\n      0xffff\n      and\n      0xffff\n      and\n      dup2\n      mstore\n      0x20\n      add\n      0x02\n      dup3\n      add\n      sload\n      dup2\n      mstore\n      pop\n      pop\n      swap1\n      pop\n        /* \"contracts/Lab 2/1-BasicTwitter.sol\":1125:1246  function getTweet(address _addr, uint256 _i) public view returns (Tweet memory) {... */\n      swap3\n      swap2\n      pop\n      pop\n      jump\t// out\n        /* \"contracts/Lab 2/1-BasicTwitter.sol\":1252:1362  function getAllTweets(address _addr) public view returns (Tweet[] memory){... */\n    tag_21:\n        /* \"contracts/Lab 2/1-BasicTwitter.sol\":1310:1324  Tweet[] memory */\n      0x60\n        /* \"contracts/Lab 2/1-BasicTwitter.sol\":1342:1348  tweets */\n      0x00\n        /* \"contracts/Lab 2/1-BasicTwitter.sol\":1342:1355  tweets[_addr] */\n      dup1\n        /* \"contracts/Lab 2/1-BasicTwitter.sol\":1349:1354  _addr */\n      dup4\n        /* \"contracts/Lab 2/1-BasicTwitter.sol\":1342:1355  tweets[_addr] */\n      0xffffffffffffffffffffffffffffffffffffffff\n      and\n      0xffffffffffffffffffffffffffffffffffffffff\n      and\n      dup2\n      mstore\n      0x20\n      add\n      swap1\n      dup2\n      mstore\n      0x20\n      add\n      0x00\n      keccak256\n        /* \"contracts/Lab 2/1-BasicTwitter.sol\":1335:1355  return tweets[_addr] */\n      dup1\n      sload\n      dup1\n      0x20\n      mul\n      0x20\n      add\n      mload(0x40)\n      swap1\n      dup2\n      add\n      0x40\n      mstore\n      dup1\n      swap3\n      swap2\n      swap1\n      dup2\n      dup2\n      mstore\n      0x20\n      add\n      0x00\n      swap1\n    tag_49:\n      dup3\n      dup3\n      lt\n      iszero\n      tag_50\n      jumpi\n      dup4\n      dup3\n      swap1\n      0x00\n      mstore\n      keccak256(0x00, 0x20)\n      swap1\n      0x03\n      mul\n      add\n      mload(0x40)\n      dup1\n      0x80\n      add\n      0x40\n      mstore\n      swap1\n      dup2\n      0x00\n      dup3\n      add\n      dup1\n      sload\n      tag_52\n      swap1\n      tag_31\n      jump\t// in\n    tag_52:\n      dup1\n      0x1f\n      add\n      0x20\n      dup1\n      swap2\n      div\n      mul\n      0x20\n      add\n      mload(0x40)\n      swap1\n      dup2\n      add\n      0x40\n      mstore\n      dup1\n      swap3\n      swap2\n      swap1\n      dup2\n      dup2\n      mstore\n      0x20\n      add\n      dup3\n      dup1\n      sload\n      tag_53\n      swap1\n      tag_31\n      jump\t// in\n    tag_53:\n      dup1\n      iszero\n      tag_54\n      jumpi\n      dup1\n      0x1f\n      lt\n      tag_55\n      jumpi\n      0x0100\n      dup1\n      dup4\n      sload\n      div\n      mul\n      dup4\n      mstore\n      swap2\n      0x20\n      add\n      swap2\n      jump(tag_54)\n    tag_55:\n      dup3\n      add\n      swap2\n      swap1\n      0x00\n      mstore\n      keccak256(0x00, 0x20)\n      swap1\n    tag_56:\n      dup2\n      sload\n      dup2\n      mstore\n      swap1\n      0x01\n      add\n      swap1\n      0x20\n      add\n      dup1\n      dup4\n      gt\n      tag_56\n      jumpi\n      dup3\n      swap1\n      sub\n      0x1f\n      and\n      dup3\n      add\n      swap2\n    tag_54:\n      pop\n      pop\n      pop\n      pop\n      pop\n      dup2\n      mstore\n      0x20\n      add\n      0x01\n      dup3\n      add\n      0x00\n      swap1\n      sload\n      swap1\n      0x0100\n      exp\n      swap1\n      div\n      0xffffffffffffffffffffffffffffffffffffffff\n      and\n      0xffffffffffffffffffffffffffffffffffffffff\n      and\n      0xffffffffffffffffffffffffffffffffffffffff\n      and\n      dup2\n      mstore\n      0x20\n      add\n      0x01\n      dup3\n      add\n      0x14\n      swap1\n      sload\n      swap1\n      0x0100\n      exp\n      swap1\n      div\n      0xffff\n      and\n      0xffff\n      and\n      0xffff\n      and\n      dup2\n      mstore\n      0x20\n      add\n      0x02\n      dup3\n      add\n      sload\n      dup2\n      mstore\n      pop\n      pop\n      dup2\n      mstore\n      0x20\n      add\n      swap1\n      0x01\n      add\n      swap1\n      jump(tag_49)\n    tag_50:\n      pop\n      pop\n      pop\n      pop\n      swap1\n      pop\n        /* \"contracts/Lab 2/1-BasicTwitter.sol\":1252:1362  function getAllTweets(address _addr) public view returns (Tweet[] memory){... */\n      swap2\n      swap1\n      pop\n      jump\t// out\n        /* \"contracts/Lab 2/1-BasicTwitter.sol\":545:1119  function createTweet(string memory _tweet) public {... */\n    tag_27:\n        /* \"contracts/Lab 2/1-BasicTwitter.sol\":832:835  255 */\n      0xff\n        /* \"contracts/Lab 2/1-BasicTwitter.sol\":814:820  _tweet */\n      dup2\n        /* \"contracts/Lab 2/1-BasicTwitter.sol\":808:828  bytes(_tweet).length */\n      mload\n        /* \"contracts/Lab 2/1-BasicTwitter.sol\":808:835  bytes(_tweet).length <= 255 */\n      gt\n      iszero\n        /* \"contracts/Lab 2/1-BasicTwitter.sol\":800:887  require(bytes(_tweet).length <= 255, \"The length of your tweet exceeds the limit bro!\") */\n      tag_58\n      jumpi\n      mload(0x40)\n      0x08c379a000000000000000000000000000000000000000000000000000000000\n      dup2\n      mstore\n      0x04\n      add\n      tag_59\n      swap1\n      tag_60\n      jump\t// in\n    tag_59:\n      mload(0x40)\n      dup1\n      swap2\n      sub\n      swap1\n      revert\n    tag_58:\n        /* \"contracts/Lab 2/1-BasicTwitter.sol\":898:919  Tweet memory newTweet */\n      0x00\n        /* \"contracts/Lab 2/1-BasicTwitter.sol\":922:1068  Tweet({... */\n      mload(0x40)\n      dup1\n      0x80\n      add\n      0x40\n      mstore\n      dup1\n        /* \"contracts/Lab 2/1-BasicTwitter.sol\":951:957  _tweet */\n      dup4\n        /* \"contracts/Lab 2/1-BasicTwitter.sol\":922:1068  Tweet({... */\n      dup2\n      mstore\n      0x20\n      add\n        /* \"contracts/Lab 2/1-BasicTwitter.sol\":985:995  msg.sender */\n      caller\n        /* \"contracts/Lab 2/1-BasicTwitter.sol\":922:1068  Tweet({... */\n      0xffffffffffffffffffffffffffffffffffffffff\n      and\n      dup2\n      mstore\n      0x20\n      add\n        /* \"contracts/Lab 2/1-BasicTwitter.sol\":1016:1017  0 */\n      0x00\n        /* \"contracts/Lab 2/1-BasicTwitter.sol\":922:1068  Tweet({... */\n      0xffff\n      and\n      dup2\n      mstore\n      0x20\n      add\n        /* \"contracts/Lab 2/1-BasicTwitter.sol\":1042:1057  block.timestamp */\n      timestamp\n        /* \"contracts/Lab 2/1-BasicTwitter.sol\":922:1068  Tweet({... */\n      dup2\n      mstore\n      pop\n        /* \"contracts/Lab 2/1-BasicTwitter.sol\":898:1068  Tweet memory newTweet = Tweet({... */\n      swap1\n      pop\n        /* \"contracts/Lab 2/1-BasicTwitter.sol\":1079:1085  tweets */\n      0x00\n        /* \"contracts/Lab 2/1-BasicTwitter.sol\":1079:1097  tweets[msg.sender] */\n      dup1\n        /* \"contracts/Lab 2/1-BasicTwitter.sol\":1086:1096  msg.sender */\n      caller\n        /* \"contracts/Lab 2/1-BasicTwitter.sol\":1079:1097  tweets[msg.sender] */\n      0xffffffffffffffffffffffffffffffffffffffff\n      and\n      0xffffffffffffffffffffffffffffffffffffffff\n      and\n      dup2\n      mstore\n      0x20\n      add\n      swap1\n      dup2\n      mstore\n      0x20\n      add\n      0x00\n      keccak256\n        /* \"contracts/Lab 2/1-BasicTwitter.sol\":1103:1111  newTweet */\n      dup2\n        /* \"contracts/Lab 2/1-BasicTwitter.sol\":1079:1112  tweets[msg.sender].push(newTweet) */\n      swap1\n      dup1\n      0x01\n      dup2\n      sload\n      add\n      dup1\n      dup3\n      sstore\n      dup1\n      swap2\n      pop\n      pop\n      0x01\n      swap1\n      sub\n      swap1\n      0x00\n      mstore\n      keccak256(0x00, 0x20)\n      swap1\n      0x03\n      mul\n      add\n      0x00\n      swap1\n      swap2\n      swap1\n      swap2\n      swap1\n      swap2\n      pop\n      0x00\n      dup3\n      add\n      mload\n      dup2\n      0x00\n      add\n      swap1\n      dup2\n      tag_62\n      swap2\n      swap1\n      tag_63\n      jump\t// in\n    tag_62:\n      pop\n      0x20\n      dup3\n      add\n      mload\n      dup2\n      0x01\n      add\n      exp(0x0100, 0x00)\n      dup2\n      sload\n      dup2\n      0xffffffffffffffffffffffffffffffffffffffff\n      mul\n      not\n      and\n      swap1\n      dup4\n      0xffffffffffffffffffffffffffffffffffffffff\n      and\n      mul\n      or\n      swap1\n      sstore\n      pop\n      0x40\n      dup3\n      add\n      mload\n      dup2\n      0x01\n      add\n      exp(0x0100, 0x14)\n      dup2\n      sload\n      dup2\n      0xffff\n      mul\n      not\n      and\n      swap1\n      dup4\n      0xffff\n      and\n      mul\n      or\n      swap1\n      sstore\n      pop\n      0x60\n      dup3\n      add\n      mload\n      dup2\n      0x02\n      add\n      sstore\n      pop\n      pop\n        /* \"contracts/Lab 2/1-BasicTwitter.sol\":595:1119  {... */\n      pop\n        /* \"contracts/Lab 2/1-BasicTwitter.sol\":545:1119  function createTweet(string memory _tweet) public {... */\n      pop\n      jump\t// out\n    tag_37:\n      mload(0x40)\n      dup1\n      0x80\n      add\n      0x40\n      mstore\n      dup1\n      0x60\n      dup2\n      mstore\n      0x20\n      add\n      and(0xffffffffffffffffffffffffffffffffffffffff, 0x00)\n      dup2\n      mstore\n      0x20\n      add\n      and(0xffff, 0x00)\n      dup2\n      mstore\n      0x20\n      add\n      0x00\n      dup2\n      mstore\n      pop\n      swap1\n      jump\t// out\n        /* \"#utility.yul\":7:82   */\n    tag_64:\n        /* \"#utility.yul\":40:46   */\n      0x00\n        /* \"#utility.yul\":73:75   */\n      0x40\n        /* \"#utility.yul\":67:76   */\n      mload\n        /* \"#utility.yul\":57:76   */\n      swap1\n      pop\n        /* \"#utility.yul\":7:82   */\n      swap1\n      jump\t// out\n        /* \"#utility.yul\":88:205   */\n    tag_65:\n        /* \"#utility.yul\":197:198   */\n      0x00\n        /* \"#utility.yul\":194:195   */\n      dup1\n        /* \"#utility.yul\":187:199   */\n      revert\n        /* \"#utility.yul\":211:328   */\n    tag_66:\n        /* \"#utility.yul\":320:321   */\n      0x00\n        /* \"#utility.yul\":317:318   */\n      dup1\n        /* \"#utility.yul\":310:322   */\n      revert\n        /* \"#utility.yul\":334:460   */\n    tag_67:\n        /* \"#utility.yul\":371:378   */\n      0x00\n        /* \"#utility.yul\":411:453   */\n      0xffffffffffffffffffffffffffffffffffffffff\n        /* \"#utility.yul\":404:409   */\n      dup3\n        /* \"#utility.yul\":400:454   */\n      and\n        /* \"#utility.yul\":389:454   */\n      swap1\n      pop\n        /* \"#utility.yul\":334:460   */\n      swap2\n      swap1\n      pop\n      jump\t// out\n        /* \"#utility.yul\":466:562   */\n    tag_68:\n        /* \"#utility.yul\":503:510   */\n      0x00\n        /* \"#utility.yul\":532:556   */\n      tag_129\n        /* \"#utility.yul\":550:555   */\n      dup3\n        /* \"#utility.yul\":532:556   */\n      tag_67\n      jump\t// in\n    tag_129:\n        /* \"#utility.yul\":521:556   */\n      swap1\n      pop\n        /* \"#utility.yul\":466:562   */\n      swap2\n      swap1\n      pop\n      jump\t// out\n        /* \"#utility.yul\":568:690   */\n    tag_69:\n        /* \"#utility.yul\":641:665   */\n      tag_131\n        /* \"#utility.yul\":659:664   */\n      dup2\n        /* \"#utility.yul\":641:665   */\n      tag_68\n      jump\t// in\n    tag_131:\n        /* \"#utility.yul\":634:639   */\n      dup2\n        /* \"#utility.yul\":631:666   */\n      eq\n        /* \"#utility.yul\":621:684   */\n      tag_132\n      jumpi\n        /* \"#utility.yul\":680:681   */\n      0x00\n        /* \"#utility.yul\":677:678   */\n      dup1\n        /* \"#utility.yul\":670:682   */\n      revert\n        /* \"#utility.yul\":621:684   */\n    tag_132:\n        /* \"#utility.yul\":568:690   */\n      pop\n      jump\t// out\n        /* \"#utility.yul\":696:835   */\n    tag_70:\n        /* \"#utility.yul\":742:747   */\n      0x00\n        /* \"#utility.yul\":780:786   */\n      dup2\n        /* \"#utility.yul\":767:787   */\n      calldataload\n        /* \"#utility.yul\":758:787   */\n      swap1\n      pop\n        /* \"#utility.yul\":796:829   */\n      tag_134\n        /* \"#utility.yul\":823:828   */\n      dup2\n        /* \"#utility.yul\":796:829   */\n      tag_69\n      jump\t// in\n    tag_134:\n        /* \"#utility.yul\":696:835   */\n      swap3\n      swap2\n      pop\n      pop\n      jump\t// out\n        /* \"#utility.yul\":841:918   */\n    tag_71:\n        /* \"#utility.yul\":878:885   */\n      0x00\n        /* \"#utility.yul\":907:912   */\n      dup2\n        /* \"#utility.yul\":896:912   */\n      swap1\n      pop\n        /* \"#utility.yul\":841:918   */\n      swap2\n      swap1\n      pop\n      jump\t// out\n        /* \"#utility.yul\":924:1046   */\n    tag_72:\n        /* \"#utility.yul\":997:1021   */\n      tag_137\n        /* \"#utility.yul\":1015:1020   */\n      dup2\n        /* \"#utility.yul\":997:1021   */\n      tag_71\n      jump\t// in\n    tag_137:\n        /* \"#utility.yul\":990:995   */\n      dup2\n        /* \"#utility.yul\":987:1022   */\n      eq\n        /* \"#utility.yul\":977:1040   */\n      tag_138\n      jumpi\n        /* \"#utility.yul\":1036:1037   */\n      0x00\n        /* \"#utility.yul\":1033:1034   */\n      dup1\n        /* \"#utility.yul\":1026:1038   */\n      revert\n        /* \"#utility.yul\":977:1040   */\n    tag_138:\n        /* \"#utility.yul\":924:1046   */\n      pop\n      jump\t// out\n        /* \"#utility.yul\":1052:1191   */\n    tag_73:\n        /* \"#utility.yul\":1098:1103   */\n      0x00\n        /* \"#utility.yul\":1136:1142   */\n      dup2\n        /* \"#utility.yul\":1123:1143   */\n      calldataload\n        /* \"#utility.yul\":1114:1143   */\n      swap1\n      pop\n        /* \"#utility.yul\":1152:1185   */\n      tag_140\n        /* \"#utility.yul\":1179:1184   */\n      dup2\n        /* \"#utility.yul\":1152:1185   */\n      tag_72\n      jump\t// in\n    tag_140:\n        /* \"#utility.yul\":1052:1191   */\n      swap3\n      swap2\n      pop\n      pop\n      jump\t// out\n        /* \"#utility.yul\":1197:1671   */\n    tag_9:\n        /* \"#utility.yul\":1265:1271   */\n      0x00\n        /* \"#utility.yul\":1273:1279   */\n      dup1\n        /* \"#utility.yul\":1322:1324   */\n      0x40\n        /* \"#utility.yul\":1310:1319   */\n      dup4\n        /* \"#utility.yul\":1301:1308   */\n      dup6\n        /* \"#utility.yul\":1297:1320   */\n      sub\n        /* \"#utility.yul\":1293:1325   */\n      slt\n        /* \"#utility.yul\":1290:1409   */\n      iszero\n      tag_142\n      jumpi\n        /* \"#utility.yul\":1328:1407   */\n      tag_143\n      tag_65\n      jump\t// in\n    tag_143:\n        /* \"#utility.yul\":1290:1409   */\n    tag_142:\n        /* \"#utility.yul\":1448:1449   */\n      0x00\n        /* \"#utility.yul\":1473:1526   */\n      tag_144\n        /* \"#utility.yul\":1518:1525   */\n      dup6\n        /* \"#utility.yul\":1509:1515   */\n      dup3\n        /* \"#utility.yul\":1498:1507   */\n      dup7\n        /* \"#utility.yul\":1494:1516   */\n      add\n        /* \"#utility.yul\":1473:1526   */\n      tag_70\n      jump\t// in\n    tag_144:\n        /* \"#utility.yul\":1463:1526   */\n      swap3\n      pop\n        /* \"#utility.yul\":1419:1536   */\n      pop\n        /* \"#utility.yul\":1575:1577   */\n      0x20\n        /* \"#utility.yul\":1601:1654   */\n      tag_145\n        /* \"#utility.yul\":1646:1653   */\n      dup6\n        /* \"#utility.yul\":1637:1643   */\n      dup3\n        /* \"#utility.yul\":1626:1635   */\n      dup7\n        /* \"#utility.yul\":1622:1644   */\n      add\n        /* \"#utility.yul\":1601:1654   */\n      tag_73\n      jump\t// in\n    tag_145:\n        /* \"#utility.yul\":1591:1654   */\n      swap2\n      pop\n        /* \"#utility.yul\":1546:1664   */\n      pop\n        /* \"#utility.yul\":1197:1671   */\n      swap3\n      pop\n      swap3\n      swap1\n      pop\n      jump\t// out\n        /* \"#utility.yul\":1677:1776   */\n    tag_74:\n        /* \"#utility.yul\":1729:1735   */\n      0x00\n        /* \"#utility.yul\":1763:1768   */\n      dup2\n        /* \"#utility.yul\":1757:1769   */\n      mload\n        /* \"#utility.yul\":1747:1769   */\n      swap1\n      pop\n        /* \"#utility.yul\":1677:1776   */\n      swap2\n      swap1\n      pop\n      jump\t// out\n        /* \"#utility.yul\":1782:1951   */\n    tag_75:\n        /* \"#utility.yul\":1866:1877   */\n      0x00\n        /* \"#utility.yul\":1900:1906   */\n      dup3\n        /* \"#utility.yul\":1895:1898   */\n      dup3\n        /* \"#utility.yul\":1888:1907   */\n      mstore\n        /* \"#utility.yul\":1940:1944   */\n      0x20\n        /* \"#utility.yul\":1935:1938   */\n      dup3\n        /* \"#utility.yul\":1931:1945   */\n      add\n        /* \"#utility.yul\":1916:1945   */\n      swap1\n      pop\n        /* \"#utility.yul\":1782:1951   */\n      swap3\n      swap2\n      pop\n      pop\n      jump\t// out\n        /* \"#utility.yul\":1957:2096   */\n    tag_76:\n        /* \"#utility.yul\":2046:2052   */\n      dup3\n        /* \"#utility.yul\":2041:2044   */\n      dup2\n        /* \"#utility.yul\":2036:2039   */\n      dup4\n        /* \"#utility.yul\":2030:2053   */\n      mcopy\n        /* \"#utility.yul\":2087:2088   */\n      0x00\n        /* \"#utility.yul\":2078:2084   */\n      dup4\n        /* \"#utility.yul\":2073:2076   */\n      dup4\n        /* \"#utility.yul\":2069:2085   */\n      add\n        /* \"#utility.yul\":2062:2089   */\n      mstore\n        /* \"#utility.yul\":1957:2096   */\n      pop\n      pop\n      pop\n      jump\t// out\n        /* \"#utility.yul\":2102:2204   */\n    tag_77:\n        /* \"#utility.yul\":2143:2149   */\n      0x00\n        /* \"#utility.yul\":2194:2196   */\n      0x1f\n        /* \"#utility.yul\":2190:2197   */\n      not\n        /* \"#utility.yul\":2185:2187   */\n      0x1f\n        /* \"#utility.yul\":2178:2183   */\n      dup4\n        /* \"#utility.yul\":2174:2188   */\n      add\n        /* \"#utility.yul\":2170:2198   */\n      and\n        /* \"#utility.yul\":2160:2198   */\n      swap1\n      pop\n        /* \"#utility.yul\":2102:2204   */\n      swap2\n      swap1\n      pop\n      jump\t// out\n        /* \"#utility.yul\":2210:2587   */\n    tag_78:\n        /* \"#utility.yul\":2298:2301   */\n      0x00\n        /* \"#utility.yul\":2326:2365   */\n      tag_151\n        /* \"#utility.yul\":2359:2364   */\n      dup3\n        /* \"#utility.yul\":2326:2365   */\n      tag_74\n      jump\t// in\n    tag_151:\n        /* \"#utility.yul\":2381:2452   */\n      tag_152\n        /* \"#utility.yul\":2445:2451   */\n      dup2\n        /* \"#utility.yul\":2440:2443   */\n      dup6\n        /* \"#utility.yul\":2381:2452   */\n      tag_75\n      jump\t// in\n    tag_152:\n        /* \"#utility.yul\":2374:2452   */\n      swap4\n      pop\n        /* \"#utility.yul\":2461:2526   */\n      tag_153\n        /* \"#utility.yul\":2519:2525   */\n      dup2\n        /* \"#utility.yul\":2514:2517   */\n      dup6\n        /* \"#utility.yul\":2507:2511   */\n      0x20\n        /* \"#utility.yul\":2500:2505   */\n      dup7\n        /* \"#utility.yul\":2496:2512   */\n      add\n        /* \"#utility.yul\":2461:2526   */\n      tag_76\n      jump\t// in\n    tag_153:\n        /* \"#utility.yul\":2551:2580   */\n      tag_154\n        /* \"#utility.yul\":2573:2579   */\n      dup2\n        /* \"#utility.yul\":2551:2580   */\n      tag_77\n      jump\t// in\n    tag_154:\n        /* \"#utility.yul\":2546:2549   */\n      dup5\n        /* \"#utility.yul\":2542:2581   */\n      add\n        /* \"#utility.yul\":2535:2581   */\n      swap2\n      pop\n        /* \"#utility.yul\":2302:2587   */\n      pop\n        /* \"#utility.yul\":2210:2587   */\n      swap3\n      swap2\n      pop\n      pop\n      jump\t// out\n        /* \"#utility.yul\":2593:2711   */\n    tag_79:\n        /* \"#utility.yul\":2680:2704   */\n      tag_156\n        /* \"#utility.yul\":2698:2703   */\n      dup2\n        /* \"#utility.yul\":2680:2704   */\n      tag_68\n      jump\t// in\n    tag_156:\n        /* \"#utility.yul\":2675:2678   */\n      dup3\n        /* \"#utility.yul\":2668:2705   */\n      mstore\n        /* \"#utility.yul\":2593:2711   */\n      pop\n      pop\n      jump\t// out\n        /* \"#utility.yul\":2717:2806   */\n    tag_80:\n        /* \"#utility.yul\":2753:2760   */\n      0x00\n        /* \"#utility.yul\":2793:2799   */\n      0xffff\n        /* \"#utility.yul\":2786:2791   */\n      dup3\n        /* \"#utility.yul\":2782:2800   */\n      and\n        /* \"#utility.yul\":2771:2800   */\n      swap1\n      pop\n        /* \"#utility.yul\":2717:2806   */\n      swap2\n      swap1\n      pop\n      jump\t// out\n        /* \"#utility.yul\":2812:2927   */\n    tag_81:\n        /* \"#utility.yul\":2897:2920   */\n      tag_159\n        /* \"#utility.yul\":2914:2919   */\n      dup2\n        /* \"#utility.yul\":2897:2920   */\n      tag_80\n      jump\t// in\n    tag_159:\n        /* \"#utility.yul\":2892:2895   */\n      dup3\n        /* \"#utility.yul\":2885:2921   */\n      mstore\n        /* \"#utility.yul\":2812:2927   */\n      pop\n      pop\n      jump\t// out\n        /* \"#utility.yul\":2933:3051   */\n    tag_82:\n        /* \"#utility.yul\":3020:3044   */\n      tag_161\n        /* \"#utility.yul\":3038:3043   */\n      dup2\n        /* \"#utility.yul\":3020:3044   */\n      tag_71\n      jump\t// in\n    tag_161:\n        /* \"#utility.yul\":3015:3018   */\n      dup3\n        /* \"#utility.yul\":3008:3045   */\n      mstore\n        /* \"#utility.yul\":2933:3051   */\n      pop\n      pop\n      jump\t// out\n        /* \"#utility.yul\":3057:3697   */\n    tag_12:\n        /* \"#utility.yul\":3252:3256   */\n      0x00\n        /* \"#utility.yul\":3290:3293   */\n      0x80\n        /* \"#utility.yul\":3279:3288   */\n      dup3\n        /* \"#utility.yul\":3275:3294   */\n      add\n        /* \"#utility.yul\":3267:3294   */\n      swap1\n      pop\n        /* \"#utility.yul\":3340:3349   */\n      dup2\n        /* \"#utility.yul\":3334:3338   */\n      dup2\n        /* \"#utility.yul\":3330:3350   */\n      sub\n        /* \"#utility.yul\":3326:3327   */\n      0x00\n        /* \"#utility.yul\":3315:3324   */\n      dup4\n        /* \"#utility.yul\":3311:3328   */\n      add\n        /* \"#utility.yul\":3304:3351   */\n      mstore\n        /* \"#utility.yul\":3368:3446   */\n      tag_163\n        /* \"#utility.yul\":3441:3445   */\n      dup2\n        /* \"#utility.yul\":3432:3438   */\n      dup8\n        /* \"#utility.yul\":3368:3446   */\n      tag_78\n      jump\t// in\n    tag_163:\n        /* \"#utility.yul\":3360:3446   */\n      swap1\n      pop\n        /* \"#utility.yul\":3456:3528   */\n      tag_164\n        /* \"#utility.yul\":3524:3526   */\n      0x20\n        /* \"#utility.yul\":3513:3522   */\n      dup4\n        /* \"#utility.yul\":3509:3527   */\n      add\n        /* \"#utility.yul\":3500:3506   */\n      dup7\n        /* \"#utility.yul\":3456:3528   */\n      tag_79\n      jump\t// in\n    tag_164:\n        /* \"#utility.yul\":3538:3608   */\n      tag_165\n        /* \"#utility.yul\":3604:3606   */\n      0x40\n        /* \"#utility.yul\":3593:3602   */\n      dup4\n        /* \"#utility.yul\":3589:3607   */\n      add\n        /* \"#utility.yul\":3580:3586   */\n      dup6\n        /* \"#utility.yul\":3538:3608   */\n      tag_81\n      jump\t// in\n    tag_165:\n        /* \"#utility.yul\":3618:3690   */\n      tag_166\n        /* \"#utility.yul\":3686:3688   */\n      0x60\n        /* \"#utility.yul\":3675:3684   */\n      dup4\n        /* \"#utility.yul\":3671:3689   */\n      add\n        /* \"#utility.yul\":3662:3668   */\n      dup5\n        /* \"#utility.yul\":3618:3690   */\n      tag_82\n      jump\t// in\n    tag_166:\n        /* \"#utility.yul\":3057:3697   */\n      swap6\n      swap5\n      pop\n      pop\n      pop\n      pop\n      pop\n      jump\t// out\n        /* \"#utility.yul\":3703:3862   */\n    tag_83:\n        /* \"#utility.yul\":3777:3788   */\n      0x00\n        /* \"#utility.yul\":3811:3817   */\n      dup3\n        /* \"#utility.yul\":3806:3809   */\n      dup3\n        /* \"#utility.yul\":3799:3818   */\n      mstore\n        /* \"#utility.yul\":3851:3855   */\n      0x20\n        /* \"#utility.yul\":3846:3849   */\n      dup3\n        /* \"#utility.yul\":3842:3856   */\n      add\n        /* \"#utility.yul\":3827:3856   */\n      swap1\n      pop\n        /* \"#utility.yul\":3703:3862   */\n      swap3\n      swap2\n      pop\n      pop\n      jump\t// out\n        /* \"#utility.yul\":3868:4225   */\n    tag_84:\n        /* \"#utility.yul\":3946:3949   */\n      0x00\n        /* \"#utility.yul\":3974:4013   */\n      tag_169\n        /* \"#utility.yul\":4007:4012   */\n      dup3\n        /* \"#utility.yul\":3974:4013   */\n      tag_74\n      jump\t// in\n    tag_169:\n        /* \"#utility.yul\":4029:4090   */\n      tag_170\n        /* \"#utility.yul\":4083:4089   */\n      dup2\n        /* \"#utility.yul\":4078:4081   */\n      dup6\n        /* \"#utility.yul\":4029:4090   */\n      tag_83\n      jump\t// in\n    tag_170:\n        /* \"#utility.yul\":4022:4090   */\n      swap4\n      pop\n        /* \"#utility.yul\":4099:4164   */\n      tag_171\n        /* \"#utility.yul\":4157:4163   */\n      dup2\n        /* \"#utility.yul\":4152:4155   */\n      dup6\n        /* \"#utility.yul\":4145:4149   */\n      0x20\n        /* \"#utility.yul\":4138:4143   */\n      dup7\n        /* \"#utility.yul\":4134:4150   */\n      add\n        /* \"#utility.yul\":4099:4164   */\n      tag_76\n      jump\t// in\n    tag_171:\n        /* \"#utility.yul\":4189:4218   */\n      tag_172\n        /* \"#utility.yul\":4211:4217   */\n      dup2\n        /* \"#utility.yul\":4189:4218   */\n      tag_77\n      jump\t// in\n    tag_172:\n        /* \"#utility.yul\":4184:4187   */\n      dup5\n        /* \"#utility.yul\":4180:4219   */\n      add\n        /* \"#utility.yul\":4173:4219   */\n      swap2\n      pop\n        /* \"#utility.yul\":3950:4225   */\n      pop\n        /* \"#utility.yul\":3868:4225   */\n      swap3\n      swap2\n      pop\n      pop\n      jump\t// out\n        /* \"#utility.yul\":4231:4339   */\n    tag_85:\n        /* \"#utility.yul\":4308:4332   */\n      tag_174\n        /* \"#utility.yul\":4326:4331   */\n      dup2\n        /* \"#utility.yul\":4308:4332   */\n      tag_68\n      jump\t// in\n    tag_174:\n        /* \"#utility.yul\":4303:4306   */\n      dup3\n        /* \"#utility.yul\":4296:4333   */\n      mstore\n        /* \"#utility.yul\":4231:4339   */\n      pop\n      pop\n      jump\t// out\n        /* \"#utility.yul\":4345:4450   */\n    tag_86:\n        /* \"#utility.yul\":4420:4443   */\n      tag_176\n        /* \"#utility.yul\":4437:4442   */\n      dup2\n        /* \"#utility.yul\":4420:4443   */\n      tag_80\n      jump\t// in\n    tag_176:\n        /* \"#utility.yul\":4415:4418   */\n      dup3\n        /* \"#utility.yul\":4408:4444   */\n      mstore\n        /* \"#utility.yul\":4345:4450   */\n      pop\n      pop\n      jump\t// out\n        /* \"#utility.yul\":4456:4564   */\n    tag_87:\n        /* \"#utility.yul\":4533:4557   */\n      tag_178\n        /* \"#utility.yul\":4551:4556   */\n      dup2\n        /* \"#utility.yul\":4533:4557   */\n      tag_71\n      jump\t// in\n    tag_178:\n        /* \"#utility.yul\":4528:4531   */\n      dup3\n        /* \"#utility.yul\":4521:4558   */\n      mstore\n        /* \"#utility.yul\":4456:4564   */\n      pop\n      pop\n      jump\t// out\n        /* \"#utility.yul\":4622:5583   */\n    tag_88:\n        /* \"#utility.yul\":4733:4736   */\n      0x00\n        /* \"#utility.yul\":4769:4773   */\n      0x80\n        /* \"#utility.yul\":4764:4767   */\n      dup4\n        /* \"#utility.yul\":4760:4774   */\n      add\n        /* \"#utility.yul\":4859:4863   */\n      0x00\n        /* \"#utility.yul\":4852:4857   */\n      dup4\n        /* \"#utility.yul\":4848:4864   */\n      add\n        /* \"#utility.yul\":4842:4865   */\n      mload\n        /* \"#utility.yul\":4912:4915   */\n      dup5\n        /* \"#utility.yul\":4906:4910   */\n      dup3\n        /* \"#utility.yul\":4902:4916   */\n      sub\n        /* \"#utility.yul\":4895:4899   */\n      0x00\n        /* \"#utility.yul\":4890:4893   */\n      dup7\n        /* \"#utility.yul\":4886:4900   */\n      add\n        /* \"#utility.yul\":4879:4917   */\n      mstore\n        /* \"#utility.yul\":4938:5011   */\n      tag_180\n        /* \"#utility.yul\":5006:5010   */\n      dup3\n        /* \"#utility.yul\":4992:5004   */\n      dup3\n        /* \"#utility.yul\":4938:5011   */\n      tag_84\n      jump\t// in\n    tag_180:\n        /* \"#utility.yul\":4930:5011   */\n      swap2\n      pop\n        /* \"#utility.yul\":4784:5022   */\n      pop\n        /* \"#utility.yul\":5112:5116   */\n      0x20\n        /* \"#utility.yul\":5105:5110   */\n      dup4\n        /* \"#utility.yul\":5101:5117   */\n      add\n        /* \"#utility.yul\":5095:5118   */\n      mload\n        /* \"#utility.yul\":5131:5194   */\n      tag_181\n        /* \"#utility.yul\":5188:5192   */\n      0x20\n        /* \"#utility.yul\":5183:5186   */\n      dup7\n        /* \"#utility.yul\":5179:5193   */\n      add\n        /* \"#utility.yul\":5165:5177   */\n      dup3\n        /* \"#utility.yul\":5131:5194   */\n      tag_85\n      jump\t// in\n    tag_181:\n        /* \"#utility.yul\":5032:5204   */\n      pop\n        /* \"#utility.yul\":5287:5291   */\n      0x40\n        /* \"#utility.yul\":5280:5285   */\n      dup4\n        /* \"#utility.yul\":5276:5292   */\n      add\n        /* \"#utility.yul\":5270:5293   */\n      mload\n        /* \"#utility.yul\":5306:5367   */\n      tag_182\n        /* \"#utility.yul\":5361:5365   */\n      0x40\n        /* \"#utility.yul\":5356:5359   */\n      dup7\n        /* \"#utility.yul\":5352:5366   */\n      add\n        /* \"#utility.yul\":5338:5350   */\n      dup3\n        /* \"#utility.yul\":5306:5367   */\n      tag_86\n      jump\t// in\n    tag_182:\n        /* \"#utility.yul\":5214:5377   */\n      pop\n        /* \"#utility.yul\":5464:5468   */\n      0x60\n        /* \"#utility.yul\":5457:5462   */\n      dup4\n        /* \"#utility.yul\":5453:5469   */\n      add\n        /* \"#utility.yul\":5447:5470   */\n      mload\n        /* \"#utility.yul\":5483:5546   */\n      tag_183\n        /* \"#utility.yul\":5540:5544   */\n      0x60\n        /* \"#utility.yul\":5535:5538   */\n      dup7\n        /* \"#utility.yul\":5531:5545   */\n      add\n        /* \"#utility.yul\":5517:5529   */\n      dup3\n        /* \"#utility.yul\":5483:5546   */\n      tag_87\n      jump\t// in\n    tag_183:\n        /* \"#utility.yul\":5387:5556   */\n      pop\n        /* \"#utility.yul\":5573:5577   */\n      dup1\n        /* \"#utility.yul\":5566:5577   */\n      swap2\n      pop\n        /* \"#utility.yul\":4738:5583   */\n      pop\n        /* \"#utility.yul\":4622:5583   */\n      swap3\n      swap2\n      pop\n      pop\n      jump\t// out\n        /* \"#utility.yul\":5589:5946   */\n    tag_17:\n        /* \"#utility.yul\":5724:5728   */\n      0x00\n        /* \"#utility.yul\":5762:5764   */\n      0x20\n        /* \"#utility.yul\":5751:5760   */\n      dup3\n        /* \"#utility.yul\":5747:5765   */\n      add\n        /* \"#utility.yul\":5739:5765   */\n      swap1\n      pop\n        /* \"#utility.yul\":5811:5820   */\n      dup2\n        /* \"#utility.yul\":5805:5809   */\n      dup2\n        /* \"#utility.yul\":5801:5821   */\n      sub\n        /* \"#utility.yul\":5797:5798   */\n      0x00\n        /* \"#utility.yul\":5786:5795   */\n      dup4\n        /* \"#utility.yul\":5782:5799   */\n      add\n        /* \"#utility.yul\":5775:5822   */\n      mstore\n        /* \"#utility.yul\":5839:5939   */\n      tag_185\n        /* \"#utility.yul\":5934:5938   */\n      dup2\n        /* \"#utility.yul\":5925:5931   */\n      dup5\n        /* \"#utility.yul\":5839:5939   */\n      tag_88\n      jump\t// in\n    tag_185:\n        /* \"#utility.yul\":5831:5939   */\n      swap1\n      pop\n        /* \"#utility.yul\":5589:5946   */\n      swap3\n      swap2\n      pop\n      pop\n      jump\t// out\n        /* \"#utility.yul\":5952:6281   */\n    tag_20:\n        /* \"#utility.yul\":6011:6017   */\n      0x00\n        /* \"#utility.yul\":6060:6062   */\n      0x20\n        /* \"#utility.yul\":6048:6057   */\n      dup3\n        /* \"#utility.yul\":6039:6046   */\n      dup5\n        /* \"#utility.yul\":6035:6058   */\n      sub\n        /* \"#utility.yul\":6031:6063   */\n      slt\n        /* \"#utility.yul\":6028:6147   */\n      iszero\n      tag_187\n      jumpi\n        /* \"#utility.yul\":6066:6145   */\n      tag_188\n      tag_65\n      jump\t// in\n    tag_188:\n        /* \"#utility.yul\":6028:6147   */\n    tag_187:\n        /* \"#utility.yul\":6186:6187   */\n      0x00\n        /* \"#utility.yul\":6211:6264   */\n      tag_189\n        /* \"#utility.yul\":6256:6263   */\n      dup5\n        /* \"#utility.yul\":6247:6253   */\n      dup3\n        /* \"#utility.yul\":6236:6245   */\n      dup6\n        /* \"#utility.yul\":6232:6254   */\n      add\n        /* \"#utility.yul\":6211:6264   */\n      tag_70\n      jump\t// in\n    tag_189:\n        /* \"#utility.yul\":6201:6264   */\n      swap2\n      pop\n        /* \"#utility.yul\":6157:6274   */\n      pop\n        /* \"#utility.yul\":5952:6281   */\n      swap3\n      swap2\n      pop\n      pop\n      jump\t// out\n        /* \"#utility.yul\":6287:6422   */\n    tag_89:\n        /* \"#utility.yul\":6375:6381   */\n      0x00\n        /* \"#utility.yul\":6409:6414   */\n      dup2\n        /* \"#utility.yul\":6403:6415   */\n      mload\n        /* \"#utility.yul\":6393:6415   */\n      swap1\n      pop\n        /* \"#utility.yul\":6287:6422   */\n      swap2\n      swap1\n      pop\n      jump\t// out\n        /* \"#utility.yul\":6428:6633   */\n    tag_90:\n        /* \"#utility.yul\":6548:6559   */\n      0x00\n        /* \"#utility.yul\":6582:6588   */\n      dup3\n        /* \"#utility.yul\":6577:6580   */\n      dup3\n        /* \"#utility.yul\":6570:6589   */\n      mstore\n        /* \"#utility.yul\":6622:6626   */\n      0x20\n        /* \"#utility.yul\":6617:6620   */\n      dup3\n        /* \"#utility.yul\":6613:6627   */\n      add\n        /* \"#utility.yul\":6598:6627   */\n      swap1\n      pop\n        /* \"#utility.yul\":6428:6633   */\n      swap3\n      swap2\n      pop\n      pop\n      jump\t// out\n        /* \"#utility.yul\":6639:6792   */\n    tag_91:\n        /* \"#utility.yul\":6727:6731   */\n      0x00\n        /* \"#utility.yul\":6750:6753   */\n      dup2\n        /* \"#utility.yul\":6742:6753   */\n      swap1\n      pop\n        /* \"#utility.yul\":6780:6784   */\n      0x20\n        /* \"#utility.yul\":6775:6778   */\n      dup3\n        /* \"#utility.yul\":6771:6785   */\n      add\n        /* \"#utility.yul\":6763:6785   */\n      swap1\n      pop\n        /* \"#utility.yul\":6639:6792   */\n      swap2\n      swap1\n      pop\n      jump\t// out\n        /* \"#utility.yul\":6850:7801   */\n    tag_92:\n        /* \"#utility.yul\":6951:6954   */\n      0x00\n        /* \"#utility.yul\":6987:6991   */\n      0x80\n        /* \"#utility.yul\":6982:6985   */\n      dup4\n        /* \"#utility.yul\":6978:6992   */\n      add\n        /* \"#utility.yul\":7077:7081   */\n      0x00\n        /* \"#utility.yul\":7070:7075   */\n      dup4\n        /* \"#utility.yul\":7066:7082   */\n      add\n        /* \"#utility.yul\":7060:7083   */\n      mload\n        /* \"#utility.yul\":7130:7133   */\n      dup5\n        /* \"#utility.yul\":7124:7128   */\n      dup3\n        /* \"#utility.yul\":7120:7134   */\n      sub\n        /* \"#utility.yul\":7113:7117   */\n      0x00\n        /* \"#utility.yul\":7108:7111   */\n      dup7\n        /* \"#utility.yul\":7104:7118   */\n      add\n        /* \"#utility.yul\":7097:7135   */\n      mstore\n        /* \"#utility.yul\":7156:7229   */\n      tag_194\n        /* \"#utility.yul\":7224:7228   */\n      dup3\n        /* \"#utility.yul\":7210:7222   */\n      dup3\n        /* \"#utility.yul\":7156:7229   */\n      tag_84\n      jump\t// in\n    tag_194:\n        /* \"#utility.yul\":7148:7229   */\n      swap2\n      pop\n        /* \"#utility.yul\":7002:7240   */\n      pop\n        /* \"#utility.yul\":7330:7334   */\n      0x20\n        /* \"#utility.yul\":7323:7328   */\n      dup4\n        /* \"#utility.yul\":7319:7335   */\n      add\n        /* \"#utility.yul\":7313:7336   */\n      mload\n        /* \"#utility.yul\":7349:7412   */\n      tag_195\n        /* \"#utility.yul\":7406:7410   */\n      0x20\n        /* \"#utility.yul\":7401:7404   */\n      dup7\n        /* \"#utility.yul\":7397:7411   */\n      add\n        /* \"#utility.yul\":7383:7395   */\n      dup3\n        /* \"#utility.yul\":7349:7412   */\n      tag_85\n      jump\t// in\n    tag_195:\n        /* \"#utility.yul\":7250:7422   */\n      pop\n        /* \"#utility.yul\":7505:7509   */\n      0x40\n        /* \"#utility.yul\":7498:7503   */\n      dup4\n        /* \"#utility.yul\":7494:7510   */\n      add\n        /* \"#utility.yul\":7488:7511   */\n      mload\n        /* \"#utility.yul\":7524:7585   */\n      tag_196\n        /* \"#utility.yul\":7579:7583   */\n      0x40\n        /* \"#utility.yul\":7574:7577   */\n      dup7\n        /* \"#utility.yul\":7570:7584   */\n      add\n        /* \"#utility.yul\":7556:7568   */\n      dup3\n        /* \"#utility.yul\":7524:7585   */\n      tag_86\n      jump\t// in\n    tag_196:\n        /* \"#utility.yul\":7432:7595   */\n      pop\n        /* \"#utility.yul\":7682:7686   */\n      0x60\n        /* \"#utility.yul\":7675:7680   */\n      dup4\n        /* \"#utility.yul\":7671:7687   */\n      add\n        /* \"#utility.yul\":7665:7688   */\n      mload\n        /* \"#utility.yul\":7701:7764   */\n      tag_197\n        /* \"#utility.yul\":7758:7762   */\n      0x60\n        /* \"#utility.yul\":7753:7756   */\n      dup7\n        /* \"#utility.yul\":7749:7763   */\n      add\n        /* \"#utility.yul\":7735:7747   */\n      dup3\n        /* \"#utility.yul\":7701:7764   */\n      tag_87\n      jump\t// in\n    tag_197:\n        /* \"#utility.yul\":7605:7774   */\n      pop\n        /* \"#utility.yul\":7791:7795   */\n      dup1\n        /* \"#utility.yul\":7784:7795   */\n      swap2\n      pop\n        /* \"#utility.yul\":6956:7801   */\n      pop\n        /* \"#utility.yul\":6850:7801   */\n      swap3\n      swap2\n      pop\n      pop\n      jump\t// out\n        /* \"#utility.yul\":7807:8047   */\n    tag_93:\n        /* \"#utility.yul\":7918:7928   */\n      0x00\n        /* \"#utility.yul\":7953:8041   */\n      tag_199\n        /* \"#utility.yul\":8037:8040   */\n      dup4\n        /* \"#utility.yul\":8029:8035   */\n      dup4\n        /* \"#utility.yul\":7953:8041   */\n      tag_92\n      jump\t// in\n    tag_199:\n        /* \"#utility.yul\":7939:8041   */\n      swap1\n      pop\n        /* \"#utility.yul\":7807:8047   */\n      swap3\n      swap2\n      pop\n      pop\n      jump\t// out\n        /* \"#utility.yul\":8053:8187   */\n    tag_94:\n        /* \"#utility.yul\":8144:8148   */\n      0x00\n        /* \"#utility.yul\":8176:8180   */\n      0x20\n        /* \"#utility.yul\":8171:8174   */\n      dup3\n        /* \"#utility.yul\":8167:8181   */\n      add\n        /* \"#utility.yul\":8159:8181   */\n      swap1\n      pop\n        /* \"#utility.yul\":8053:8187   */\n      swap2\n      swap1\n      pop\n      jump\t// out\n        /* \"#utility.yul\":8249:9328   */\n    tag_95:\n        /* \"#utility.yul\":8410:8413   */\n      0x00\n        /* \"#utility.yul\":8439:8514   */\n      tag_202\n        /* \"#utility.yul\":8508:8513   */\n      dup3\n        /* \"#utility.yul\":8439:8514   */\n      tag_89\n      jump\t// in\n    tag_202:\n        /* \"#utility.yul\":8530:8637   */\n      tag_203\n        /* \"#utility.yul\":8630:8636   */\n      dup2\n        /* \"#utility.yul\":8625:8628   */\n      dup6\n        /* \"#utility.yul\":8530:8637   */\n      tag_90\n      jump\t// in\n    tag_203:\n        /* \"#utility.yul\":8523:8637   */\n      swap4\n      pop\n        /* \"#utility.yul\":8663:8666   */\n      dup4\n        /* \"#utility.yul\":8708:8712   */\n      0x20\n        /* \"#utility.yul\":8700:8706   */\n      dup3\n        /* \"#utility.yul\":8696:8713   */\n      mul\n        /* \"#utility.yul\":8691:8694   */\n      dup6\n        /* \"#utility.yul\":8687:8714   */\n      add\n        /* \"#utility.yul\":8738:8815   */\n      tag_204\n        /* \"#utility.yul\":8809:8814   */\n      dup6\n        /* \"#utility.yul\":8738:8815   */\n      tag_91\n      jump\t// in\n    tag_204:\n        /* \"#utility.yul\":8838:8845   */\n      dup1\n        /* \"#utility.yul\":8869:8870   */\n      0x00\n        /* \"#utility.yul\":8854:9283   */\n    tag_205:\n        /* \"#utility.yul\":8879:8885   */\n      dup6\n        /* \"#utility.yul\":8876:8877   */\n      dup2\n        /* \"#utility.yul\":8873:8886   */\n      lt\n        /* \"#utility.yul\":8854:9283   */\n      iszero\n      tag_207\n      jumpi\n        /* \"#utility.yul\":8950:8959   */\n      dup5\n        /* \"#utility.yul\":8944:8948   */\n      dup5\n        /* \"#utility.yul\":8940:8960   */\n      sub\n        /* \"#utility.yul\":8935:8938   */\n      dup10\n        /* \"#utility.yul\":8928:8961   */\n      mstore\n        /* \"#utility.yul\":9001:9007   */\n      dup2\n        /* \"#utility.yul\":8995:9008   */\n      mload\n        /* \"#utility.yul\":9029:9135   */\n      tag_208\n        /* \"#utility.yul\":9130:9134   */\n      dup6\n        /* \"#utility.yul\":9115:9128   */\n      dup3\n        /* \"#utility.yul\":9029:9135   */\n      tag_93\n      jump\t// in\n    tag_208:\n        /* \"#utility.yul\":9021:9135   */\n      swap5\n      pop\n        /* \"#utility.yul\":9158:9239   */\n      tag_209\n        /* \"#utility.yul\":9232:9238   */\n      dup4\n        /* \"#utility.yul\":9158:9239   */\n      tag_94\n      jump\t// in\n    tag_209:\n        /* \"#utility.yul\":9148:9239   */\n      swap3\n      pop\n        /* \"#utility.yul\":9268:9272   */\n      0x20\n        /* \"#utility.yul\":9263:9266   */\n      dup11\n        /* \"#utility.yul\":9259:9273   */\n      add\n        /* \"#utility.yul\":9252:9273   */\n      swap10\n      pop\n        /* \"#utility.yul\":8914:9283   */\n      pop\n        /* \"#utility.yul\":8901:8902   */\n      0x01\n        /* \"#utility.yul\":8898:8899   */\n      dup2\n        /* \"#utility.yul\":8894:8903   */\n      add\n        /* \"#utility.yul\":8889:8903   */\n      swap1\n      pop\n        /* \"#utility.yul\":8854:9283   */\n      jump(tag_205)\n    tag_207:\n        /* \"#utility.yul\":8858:8872   */\n      pop\n        /* \"#utility.yul\":9299:9303   */\n      dup3\n        /* \"#utility.yul\":9292:9303   */\n      swap8\n      pop\n        /* \"#utility.yul\":9319:9322   */\n      dup8\n        /* \"#utility.yul\":9312:9322   */\n      swap6\n      pop\n        /* \"#utility.yul\":8415:9328   */\n      pop\n      pop\n      pop\n      pop\n      pop\n        /* \"#utility.yul\":8249:9328   */\n      swap3\n      swap2\n      pop\n      pop\n      jump\t// out\n        /* \"#utility.yul\":9334:9791   */\n    tag_23:\n        /* \"#utility.yul\":9519:9523   */\n      0x00\n        /* \"#utility.yul\":9557:9559   */\n      0x20\n        /* \"#utility.yul\":9546:9555   */\n      dup3\n        /* \"#utility.yul\":9542:9560   */\n      add\n        /* \"#utility.yul\":9534:9560   */\n      swap1\n      pop\n        /* \"#utility.yul\":9606:9615   */\n      dup2\n        /* \"#utility.yul\":9600:9604   */\n      dup2\n        /* \"#utility.yul\":9596:9616   */\n      sub\n        /* \"#utility.yul\":9592:9593   */\n      0x00\n        /* \"#utility.yul\":9581:9590   */\n      dup4\n        /* \"#utility.yul\":9577:9594   */\n      add\n        /* \"#utility.yul\":9570:9617   */\n      mstore\n        /* \"#utility.yul\":9634:9784   */\n      tag_211\n        /* \"#utility.yul\":9779:9783   */\n      dup2\n        /* \"#utility.yul\":9770:9776   */\n      dup5\n        /* \"#utility.yul\":9634:9784   */\n      tag_95\n      jump\t// in\n    tag_211:\n        /* \"#utility.yul\":9626:9784   */\n      swap1\n      pop\n        /* \"#utility.yul\":9334:9791   */\n      swap3\n      swap2\n      pop\n      pop\n      jump\t// out\n        /* \"#utility.yul\":9797:9914   */\n    tag_96:\n        /* \"#utility.yul\":9906:9907   */\n      0x00\n        /* \"#utility.yul\":9903:9904   */\n      dup1\n        /* \"#utility.yul\":9896:9908   */\n      revert\n        /* \"#utility.yul\":9920:10037   */\n    tag_97:\n        /* \"#utility.yul\":10029:10030   */\n      0x00\n        /* \"#utility.yul\":10026:10027   */\n      dup1\n        /* \"#utility.yul\":10019:10031   */\n      revert\n        /* \"#utility.yul\":10043:10223   */\n    tag_98:\n        /* \"#utility.yul\":10091:10168   */\n      0x4e487b7100000000000000000000000000000000000000000000000000000000\n        /* \"#utility.yul\":10088:10089   */\n      0x00\n        /* \"#utility.yul\":10081:10169   */\n      mstore\n        /* \"#utility.yul\":10188:10192   */\n      0x41\n        /* \"#utility.yul\":10185:10186   */\n      0x04\n        /* \"#utility.yul\":10178:10193   */\n      mstore\n        /* \"#utility.yul\":10212:10216   */\n      0x24\n        /* \"#utility.yul\":10209:10210   */\n      0x00\n        /* \"#utility.yul\":10202:10217   */\n      revert\n        /* \"#utility.yul\":10229:10510   */\n    tag_99:\n        /* \"#utility.yul\":10312:10339   */\n      tag_216\n        /* \"#utility.yul\":10334:10338   */\n      dup3\n        /* \"#utility.yul\":10312:10339   */\n      tag_77\n      jump\t// in\n    tag_216:\n        /* \"#utility.yul\":10304:10310   */\n      dup2\n        /* \"#utility.yul\":10300:10340   */\n      add\n        /* \"#utility.yul\":10442:10448   */\n      dup2\n        /* \"#utility.yul\":10430:10440   */\n      dup2\n        /* \"#utility.yul\":10427:10449   */\n      lt\n        /* \"#utility.yul\":10406:10424   */\n      0xffffffffffffffff\n        /* \"#utility.yul\":10394:10404   */\n      dup3\n        /* \"#utility.yul\":10391:10425   */\n      gt\n        /* \"#utility.yul\":10388:10450   */\n      or\n        /* \"#utility.yul\":10385:10473   */\n      iszero\n      tag_217\n      jumpi\n        /* \"#utility.yul\":10453:10471   */\n      tag_218\n      tag_98\n      jump\t// in\n    tag_218:\n        /* \"#utility.yul\":10385:10473   */\n    tag_217:\n        /* \"#utility.yul\":10493:10503   */\n      dup1\n        /* \"#utility.yul\":10489:10491   */\n      0x40\n        /* \"#utility.yul\":10482:10504   */\n      mstore\n        /* \"#utility.yul\":10272:10510   */\n      pop\n        /* \"#utility.yul\":10229:10510   */\n      pop\n      pop\n      jump\t// out\n        /* \"#utility.yul\":10516:10645   */\n    tag_100:\n        /* \"#utility.yul\":10550:10556   */\n      0x00\n        /* \"#utility.yul\":10577:10597   */\n      tag_220\n      tag_64\n      jump\t// in\n    tag_220:\n        /* \"#utility.yul\":10567:10597   */\n      swap1\n      pop\n        /* \"#utility.yul\":10606:10639   */\n      tag_221\n        /* \"#utility.yul\":10634:10638   */\n      dup3\n        /* \"#utility.yul\":10626:10632   */\n      dup3\n        /* \"#utility.yul\":10606:10639   */\n      tag_99\n      jump\t// in\n    tag_221:\n        /* \"#utility.yul\":10516:10645   */\n      swap2\n      swap1\n      pop\n      jump\t// out\n        /* \"#utility.yul\":10651:10959   */\n    tag_101:\n        /* \"#utility.yul\":10713:10717   */\n      0x00\n        /* \"#utility.yul\":10803:10821   */\n      0xffffffffffffffff\n        /* \"#utility.yul\":10795:10801   */\n      dup3\n        /* \"#utility.yul\":10792:10822   */\n      gt\n        /* \"#utility.yul\":10789:10845   */\n      iszero\n      tag_223\n      jumpi\n        /* \"#utility.yul\":10825:10843   */\n      tag_224\n      tag_98\n      jump\t// in\n    tag_224:\n        /* \"#utility.yul\":10789:10845   */\n    tag_223:\n        /* \"#utility.yul\":10863:10892   */\n      tag_225\n        /* \"#utility.yul\":10885:10891   */\n      dup3\n        /* \"#utility.yul\":10863:10892   */\n      tag_77\n      jump\t// in\n    tag_225:\n        /* \"#utility.yul\":10855:10892   */\n      swap1\n      pop\n        /* \"#utility.yul\":10947:10951   */\n      0x20\n        /* \"#utility.yul\":10941:10945   */\n      dup2\n        /* \"#utility.yul\":10937:10952   */\n      add\n        /* \"#utility.yul\":10929:10952   */\n      swap1\n      pop\n        /* \"#utility.yul\":10651:10959   */\n      swap2\n      swap1\n      pop\n      jump\t// out\n        /* \"#utility.yul\":10965:11113   */\n    tag_102:\n        /* \"#utility.yul\":11063:11069   */\n      dup3\n        /* \"#utility.yul\":11058:11061   */\n      dup2\n        /* \"#utility.yul\":11053:11056   */\n      dup4\n        /* \"#utility.yul\":11040:11070   */\n      calldatacopy\n        /* \"#utility.yul\":11104:11105   */\n      0x00\n        /* \"#utility.yul\":11095:11101   */\n      dup4\n        /* \"#utility.yul\":11090:11093   */\n      dup4\n        /* \"#utility.yul\":11086:11102   */\n      add\n        /* \"#utility.yul\":11079:11106   */\n      mstore\n        /* \"#utility.yul\":10965:11113   */\n      pop\n      pop\n      pop\n      jump\t// out\n        /* \"#utility.yul\":11119:11544   */\n    tag_103:\n        /* \"#utility.yul\":11197:11202   */\n      0x00\n        /* \"#utility.yul\":11222:11288   */\n      tag_228\n        /* \"#utility.yul\":11238:11287   */\n      tag_229\n        /* \"#utility.yul\":11280:11286   */\n      dup5\n        /* \"#utility.yul\":11238:11287   */\n      tag_101\n      jump\t// in\n    tag_229:\n        /* \"#utility.yul\":11222:11288   */\n      tag_100\n      jump\t// in\n    tag_228:\n        /* \"#utility.yul\":11213:11288   */\n      swap1\n      pop\n        /* \"#utility.yul\":11311:11317   */\n      dup3\n        /* \"#utility.yul\":11304:11309   */\n      dup2\n        /* \"#utility.yul\":11297:11318   */\n      mstore\n        /* \"#utility.yul\":11349:11353   */\n      0x20\n        /* \"#utility.yul\":11342:11347   */\n      dup2\n        /* \"#utility.yul\":11338:11354   */\n      add\n        /* \"#utility.yul\":11387:11390   */\n      dup5\n        /* \"#utility.yul\":11378:11384   */\n      dup5\n        /* \"#utility.yul\":11373:11376   */\n      dup5\n        /* \"#utility.yul\":11369:11385   */\n      add\n        /* \"#utility.yul\":11366:11391   */\n      gt\n        /* \"#utility.yul\":11363:11475   */\n      iszero\n      tag_230\n      jumpi\n        /* \"#utility.yul\":11394:11473   */\n      tag_231\n      tag_97\n      jump\t// in\n    tag_231:\n        /* \"#utility.yul\":11363:11475   */\n    tag_230:\n        /* \"#utility.yul\":11484:11538   */\n      tag_232\n        /* \"#utility.yul\":11531:11537   */\n      dup5\n        /* \"#utility.yul\":11526:11529   */\n      dup3\n        /* \"#utility.yul\":11521:11524   */\n      dup6\n        /* \"#utility.yul\":11484:11538   */\n      tag_102\n      jump\t// in\n    tag_232:\n        /* \"#utility.yul\":11203:11544   */\n      pop\n        /* \"#utility.yul\":11119:11544   */\n      swap4\n      swap3\n      pop\n      pop\n      pop\n      jump\t// out\n        /* \"#utility.yul\":11564:11904   */\n    tag_104:\n        /* \"#utility.yul\":11620:11625   */\n      0x00\n        /* \"#utility.yul\":11669:11672   */\n      dup3\n        /* \"#utility.yul\":11662:11666   */\n      0x1f\n        /* \"#utility.yul\":11654:11660   */\n      dup4\n        /* \"#utility.yul\":11650:11667   */\n      add\n        /* \"#utility.yul\":11646:11673   */\n      slt\n        /* \"#utility.yul\":11636:11758   */\n      tag_234\n      jumpi\n        /* \"#utility.yul\":11677:11756   */\n      tag_235\n      tag_96\n      jump\t// in\n    tag_235:\n        /* \"#utility.yul\":11636:11758   */\n    tag_234:\n        /* \"#utility.yul\":11794:11800   */\n      dup2\n        /* \"#utility.yul\":11781:11801   */\n      calldataload\n        /* \"#utility.yul\":11819:11898   */\n      tag_236\n        /* \"#utility.yul\":11894:11897   */\n      dup5\n        /* \"#utility.yul\":11886:11892   */\n      dup3\n        /* \"#utility.yul\":11879:11883   */\n      0x20\n        /* \"#utility.yul\":11871:11877   */\n      dup7\n        /* \"#utility.yul\":11867:11884   */\n      add\n        /* \"#utility.yul\":11819:11898   */\n      tag_103\n      jump\t// in\n    tag_236:\n        /* \"#utility.yul\":11810:11898   */\n      swap2\n      pop\n        /* \"#utility.yul\":11626:11904   */\n      pop\n        /* \"#utility.yul\":11564:11904   */\n      swap3\n      swap2\n      pop\n      pop\n      jump\t// out\n        /* \"#utility.yul\":11910:12419   */\n    tag_26:\n        /* \"#utility.yul\":11979:11985   */\n      0x00\n        /* \"#utility.yul\":12028:12030   */\n      0x20\n        /* \"#utility.yul\":12016:12025   */\n      dup3\n        /* \"#utility.yul\":12007:12014   */\n      dup5\n        /* \"#utility.yul\":12003:12026   */\n      sub\n        /* \"#utility.yul\":11999:12031   */\n      slt\n        /* \"#utility.yul\":11996:12115   */\n      iszero\n      tag_238\n      jumpi\n        /* \"#utility.yul\":12034:12113   */\n      tag_239\n      tag_65\n      jump\t// in\n    tag_239:\n        /* \"#utility.yul\":11996:12115   */\n    tag_238:\n        /* \"#utility.yul\":12182:12183   */\n      0x00\n        /* \"#utility.yul\":12171:12180   */\n      dup3\n        /* \"#utility.yul\":12167:12184   */\n      add\n        /* \"#utility.yul\":12154:12185   */\n      calldataload\n        /* \"#utility.yul\":12212:12230   */\n      0xffffffffffffffff\n        /* \"#utility.yul\":12204:12210   */\n      dup2\n        /* \"#utility.yul\":12201:12231   */\n      gt\n        /* \"#utility.yul\":12198:12315   */\n      iszero\n      tag_240\n      jumpi\n        /* \"#utility.yul\":12234:12313   */\n      tag_241\n      tag_66\n      jump\t// in\n    tag_241:\n        /* \"#utility.yul\":12198:12315   */\n    tag_240:\n        /* \"#utility.yul\":12339:12402   */\n      tag_242\n        /* \"#utility.yul\":12394:12401   */\n      dup5\n        /* \"#utility.yul\":12385:12391   */\n      dup3\n        /* \"#utility.yul\":12374:12383   */\n      dup6\n        /* \"#utility.yul\":12370:12392   */\n      add\n        /* \"#utility.yul\":12339:12402   */\n      tag_104\n      jump\t// in\n    tag_242:\n        /* \"#utility.yul\":12329:12402   */\n      swap2\n      pop\n        /* \"#utility.yul\":12125:12412   */\n      pop\n        /* \"#utility.yul\":11910:12419   */\n      swap3\n      swap2\n      pop\n      pop\n      jump\t// out\n        /* \"#utility.yul\":12425:12605   */\n    tag_105:\n        /* \"#utility.yul\":12473:12550   */\n      0x4e487b7100000000000000000000000000000000000000000000000000000000\n        /* \"#utility.yul\":12470:12471   */\n      0x00\n        /* \"#utility.yul\":12463:12551   */\n      mstore\n        /* \"#utility.yul\":12570:12574   */\n      0x22\n        /* \"#utility.yul\":12567:12568   */\n      0x04\n        /* \"#utility.yul\":12560:12575   */\n      mstore\n        /* \"#utility.yul\":12594:12598   */\n      0x24\n        /* \"#utility.yul\":12591:12592   */\n      0x00\n        /* \"#utility.yul\":12584:12599   */\n      revert\n        /* \"#utility.yul\":12611:12931   */\n    tag_31:\n        /* \"#utility.yul\":12655:12661   */\n      0x00\n        /* \"#utility.yul\":12692:12693   */\n      0x02\n        /* \"#utility.yul\":12686:12690   */\n      dup3\n        /* \"#utility.yul\":12682:12694   */\n      div\n        /* \"#utility.yul\":12672:12694   */\n      swap1\n      pop\n        /* \"#utility.yul\":12739:12740   */\n      0x01\n        /* \"#utility.yul\":12733:12737   */\n      dup3\n        /* \"#utility.yul\":12729:12741   */\n      and\n        /* \"#utility.yul\":12760:12778   */\n      dup1\n        /* \"#utility.yul\":12750:12831   */\n      tag_245\n      jumpi\n        /* \"#utility.yul\":12816:12820   */\n      0x7f\n        /* \"#utility.yul\":12808:12814   */\n      dup3\n        /* \"#utility.yul\":12804:12821   */\n      and\n        /* \"#utility.yul\":12794:12821   */\n      swap2\n      pop\n        /* \"#utility.yul\":12750:12831   */\n    tag_245:\n        /* \"#utility.yul\":12878:12880   */\n      0x20\n        /* \"#utility.yul\":12870:12876   */\n      dup3\n        /* \"#utility.yul\":12867:12881   */\n      lt\n        /* \"#utility.yul\":12847:12865   */\n      dup2\n        /* \"#utility.yul\":12844:12882   */\n      sub\n        /* \"#utility.yul\":12841:12925   */\n      tag_246\n      jumpi\n        /* \"#utility.yul\":12897:12915   */\n      tag_247\n      tag_105\n      jump\t// in\n    tag_247:\n        /* \"#utility.yul\":12841:12925   */\n    tag_246:\n        /* \"#utility.yul\":12662:12931   */\n      pop\n        /* \"#utility.yul\":12611:12931   */\n      swap2\n      swap1\n      pop\n      jump\t// out\n        /* \"#utility.yul\":12937:13117   */\n    tag_41:\n        /* \"#utility.yul\":12985:13062   */\n      0x4e487b7100000000000000000000000000000000000000000000000000000000\n        /* \"#utility.yul\":12982:12983   */\n      0x00\n        /* \"#utility.yul\":12975:13063   */\n      mstore\n        /* \"#utility.yul\":13082:13086   */\n      0x32\n        /* \"#utility.yul\":13079:13080   */\n      0x04\n        /* \"#utility.yul\":13072:13087   */\n      mstore\n        /* \"#utility.yul\":13106:13110   */\n      0x24\n        /* \"#utility.yul\":13103:13104   */\n      0x00\n        /* \"#utility.yul\":13096:13111   */\n      revert\n        /* \"#utility.yul\":13123:13357   */\n    tag_106:\n        /* \"#utility.yul\":13263:13297   */\n      0x546865206c656e677468206f6620796f75722074776565742065786365656473\n        /* \"#utility.yul\":13259:13260   */\n      0x00\n        /* \"#utility.yul\":13251:13257   */\n      dup3\n        /* \"#utility.yul\":13247:13261   */\n      add\n        /* \"#utility.yul\":13240:13298   */\n      mstore\n        /* \"#utility.yul\":13332:13349   */\n      0x20746865206c696d69742062726f210000000000000000000000000000000000\n        /* \"#utility.yul\":13327:13329   */\n      0x20\n        /* \"#utility.yul\":13319:13325   */\n      dup3\n        /* \"#utility.yul\":13315:13330   */\n      add\n        /* \"#utility.yul\":13308:13350   */\n      mstore\n        /* \"#utility.yul\":13123:13357   */\n      pop\n      jump\t// out\n        /* \"#utility.yul\":13363:13729   */\n    tag_107:\n        /* \"#utility.yul\":13505:13508   */\n      0x00\n        /* \"#utility.yul\":13526:13593   */\n      tag_251\n        /* \"#utility.yul\":13590:13592   */\n      0x2f\n        /* \"#utility.yul\":13585:13588   */\n      dup4\n        /* \"#utility.yul\":13526:13593   */\n      tag_75\n      jump\t// in\n    tag_251:\n        /* \"#utility.yul\":13519:13593   */\n      swap2\n      pop\n        /* \"#utility.yul\":13602:13695   */\n      tag_252\n        /* \"#utility.yul\":13691:13694   */\n      dup3\n        /* \"#utility.yul\":13602:13695   */\n      tag_106\n      jump\t// in\n    tag_252:\n        /* \"#utility.yul\":13720:13722   */\n      0x40\n        /* \"#utility.yul\":13715:13718   */\n      dup3\n        /* \"#utility.yul\":13711:13723   */\n      add\n        /* \"#utility.yul\":13704:13723   */\n      swap1\n      pop\n        /* \"#utility.yul\":13363:13729   */\n      swap2\n      swap1\n      pop\n      jump\t// out\n        /* \"#utility.yul\":13735:14154   */\n    tag_60:\n        /* \"#utility.yul\":13901:13905   */\n      0x00\n        /* \"#utility.yul\":13939:13941   */\n      0x20\n        /* \"#utility.yul\":13928:13937   */\n      dup3\n        /* \"#utility.yul\":13924:13942   */\n      add\n        /* \"#utility.yul\":13916:13942   */\n      swap1\n      pop\n        /* \"#utility.yul\":13988:13997   */\n      dup2\n        /* \"#utility.yul\":13982:13986   */\n      dup2\n        /* \"#utility.yul\":13978:13998   */\n      sub\n        /* \"#utility.yul\":13974:13975   */\n      0x00\n        /* \"#utility.yul\":13963:13972   */\n      dup4\n        /* \"#utility.yul\":13959:13976   */\n      add\n        /* \"#utility.yul\":13952:13999   */\n      mstore\n        /* \"#utility.yul\":14016:14147   */\n      tag_254\n        /* \"#utility.yul\":14142:14146   */\n      dup2\n        /* \"#utility.yul\":14016:14147   */\n      tag_107\n      jump\t// in\n    tag_254:\n        /* \"#utility.yul\":14008:14147   */\n      swap1\n      pop\n        /* \"#utility.yul\":13735:14154   */\n      swap2\n      swap1\n      pop\n      jump\t// out\n        /* \"#utility.yul\":14160:14301   */\n    tag_108:\n        /* \"#utility.yul\":14209:14213   */\n      0x00\n        /* \"#utility.yul\":14232:14235   */\n      dup2\n        /* \"#utility.yul\":14224:14235   */\n      swap1\n      pop\n        /* \"#utility.yul\":14255:14258   */\n      dup2\n        /* \"#utility.yul\":14252:14253   */\n      0x00\n        /* \"#utility.yul\":14245:14259   */\n      mstore\n        /* \"#utility.yul\":14289:14293   */\n      0x20\n        /* \"#utility.yul\":14286:14287   */\n      0x00\n        /* \"#utility.yul\":14276:14294   */\n      keccak256\n        /* \"#utility.yul\":14268:14294   */\n      swap1\n      pop\n        /* \"#utility.yul\":14160:14301   */\n      swap2\n      swap1\n      pop\n      jump\t// out\n        /* \"#utility.yul\":14307:14400   */\n    tag_109:\n        /* \"#utility.yul\":14344:14350   */\n      0x00\n        /* \"#utility.yul\":14391:14393   */\n      0x20\n        /* \"#utility.yul\":14386:14388   */\n      0x1f\n        /* \"#utility.yul\":14379:14384   */\n      dup4\n        /* \"#utility.yul\":14375:14389   */\n      add\n        /* \"#utility.yul\":14371:14394   */\n      div\n        /* \"#utility.yul\":14361:14394   */\n      swap1\n      pop\n        /* \"#utility.yul\":14307:14400   */\n      swap2\n      swap1\n      pop\n      jump\t// out\n        /* \"#utility.yul\":14406:14513   */\n    tag_110:\n        /* \"#utility.yul\":14450:14458   */\n      0x00\n        /* \"#utility.yul\":14500:14505   */\n      dup3\n        /* \"#utility.yul\":14494:14498   */\n      dup3\n        /* \"#utility.yul\":14490:14506   */\n      shl\n        /* \"#utility.yul\":14469:14506   */\n      swap1\n      pop\n        /* \"#utility.yul\":14406:14513   */\n      swap3\n      swap2\n      pop\n      pop\n      jump\t// out\n        /* \"#utility.yul\":14519:14912   */\n    tag_111:\n        /* \"#utility.yul\":14588:14594   */\n      0x00\n        /* \"#utility.yul\":14638:14639   */\n      0x08\n        /* \"#utility.yul\":14626:14636   */\n      dup4\n        /* \"#utility.yul\":14622:14640   */\n      mul\n        /* \"#utility.yul\":14661:14758   */\n      tag_259\n        /* \"#utility.yul\":14691:14757   */\n      0xffffffffffffffffffffffffffffffffffffffffffffffffffffffffffffffff\n        /* \"#utility.yul\":14680:14689   */\n      dup3\n        /* \"#utility.yul\":14661:14758   */\n      tag_110\n      jump\t// in\n    tag_259:\n        /* \"#utility.yul\":14779:14818   */\n      tag_260\n        /* \"#utility.yul\":14809:14817   */\n      dup7\n        /* \"#utility.yul\":14798:14807   */\n      dup4\n        /* \"#utility.yul\":14779:14818   */\n      tag_110\n      jump\t// in\n    tag_260:\n        /* \"#utility.yul\":14767:14818   */\n      swap6\n      pop\n        /* \"#utility.yul\":14851:14855   */\n      dup1\n        /* \"#utility.yul\":14847:14856   */\n      not\n        /* \"#utility.yul\":14840:14845   */\n      dup5\n        /* \"#utility.yul\":14836:14857   */\n      and\n        /* \"#utility.yul\":14827:14857   */\n      swap4\n      pop\n        /* \"#utility.yul\":14900:14904   */\n      dup1\n        /* \"#utility.yul\":14890:14898   */\n      dup7\n        /* \"#utility.yul\":14886:14905   */\n      and\n        /* \"#utility.yul\":14879:14884   */\n      dup5\n        /* \"#utility.yul\":14876:14906   */\n      or\n        /* \"#utility.yul\":14866:14906   */\n      swap3\n      pop\n        /* \"#utility.yul\":14595:14912   */\n      pop\n      pop\n        /* \"#utility.yul\":14519:14912   */\n      swap4\n      swap3\n      pop\n      pop\n      pop\n      jump\t// out\n        /* \"#utility.yul\":14918:14978   */\n    tag_112:\n        /* \"#utility.yul\":14946:14949   */\n      0x00\n        /* \"#utility.yul\":14967:14972   */\n      dup2\n        /* \"#utility.yul\":14960:14972   */\n      swap1\n      pop\n        /* \"#utility.yul\":14918:14978   */\n      swap2\n      swap1\n      pop\n      jump\t// out\n        /* \"#utility.yul\":14984:15126   */\n    tag_113:\n        /* \"#utility.yul\":15034:15043   */\n      0x00\n        /* \"#utility.yul\":15067:15120   */\n      tag_263\n        /* \"#utility.yul\":15085:15119   */\n      tag_264\n        /* \"#utility.yul\":15094:15118   */\n      tag_265\n        /* \"#utility.yul\":15112:15117   */\n      dup5\n        /* \"#utility.yul\":15094:15118   */\n      tag_71\n      jump\t// in\n    tag_265:\n        /* \"#utility.yul\":15085:15119   */\n      tag_112\n      jump\t// in\n    tag_264:\n        /* \"#utility.yul\":15067:15120   */\n      tag_71\n      jump\t// in\n    tag_263:\n        /* \"#utility.yul\":15054:15120   */\n      swap1\n      pop\n        /* \"#utility.yul\":14984:15126   */\n      swap2\n      swap1\n      pop\n      jump\t// out\n        /* \"#utility.yul\":15132:15207   */\n    tag_114:\n        /* \"#utility.yul\":15175:15178   */\n      0x00\n        /* \"#utility.yul\":15196:15201   */\n      dup2\n        /* \"#utility.yul\":15189:15201   */\n      swap1\n      pop\n        /* \"#utility.yul\":15132:15207   */\n      swap2\n      swap1\n      pop\n      jump\t// out\n        /* \"#utility.yul\":15213:15482   */\n    tag_115:\n        /* \"#utility.yul\":15323:15362   */\n      tag_268\n        /* \"#utility.yul\":15354:15361   */\n      dup4\n        /* \"#utility.yul\":15323:15362   */\n      tag_113\n      jump\t// in\n    tag_268:\n        /* \"#utility.yul\":15384:15475   */\n      tag_269\n        /* \"#utility.yul\":15433:15474   */\n      tag_270\n        /* \"#utility.yul\":15457:15473   */\n      dup3\n        /* \"#utility.yul\":15433:15474   */\n      tag_114\n      jump\t// in\n    tag_270:\n        /* \"#utility.yul\":15425:15431   */\n      dup5\n        /* \"#utility.yul\":15418:15422   */\n      dup5\n        /* \"#utility.yul\":15412:15423   */\n      sload\n        /* \"#utility.yul\":15384:15475   */\n      tag_111\n      jump\t// in\n    tag_269:\n        /* \"#utility.yul\":15378:15382   */\n      dup3\n        /* \"#utility.yul\":15371:15476   */\n      sstore\n        /* \"#utility.yul\":15289:15482   */\n      pop\n        /* \"#utility.yul\":15213:15482   */\n      pop\n      pop\n      pop\n      jump\t// out\n        /* \"#utility.yul\":15488:15561   */\n    tag_116:\n        /* \"#utility.yul\":15533:15536   */\n      0x00\n        /* \"#utility.yul\":15488:15561   */\n      swap1\n      jump\t// out\n        /* \"#utility.yul\":15567:15756   */\n    tag_117:\n        /* \"#utility.yul\":15644:15676   */\n      tag_273\n      tag_116\n      jump\t// in\n    tag_273:\n        /* \"#utility.yul\":15685:15750   */\n      tag_274\n        /* \"#utility.yul\":15743:15749   */\n      dup2\n        /* \"#utility.yul\":15735:15741   */\n      dup5\n        /* \"#utility.yul\":15729:15733   */\n      dup5\n        /* \"#utility.yul\":15685:15750   */\n      tag_115\n      jump\t// in\n    tag_274:\n        /* \"#utility.yul\":15620:15756   */\n      pop\n        /* \"#utility.yul\":15567:15756   */\n      pop\n      pop\n      jump\t// out\n        /* \"#utility.yul\":15762:15948   */\n    tag_118:\n        /* \"#utility.yul\":15822:15942   */\n    tag_276:\n        /* \"#utility.yul\":15839:15842   */\n      dup2\n        /* \"#utility.yul\":15832:15837   */\n      dup2\n        /* \"#utility.yul\":15829:15843   */\n      lt\n        /* \"#utility.yul\":15822:15942   */\n      iszero\n      tag_278\n      jumpi\n        /* \"#utility.yul\":15893:15932   */\n      tag_279\n        /* \"#utility.yul\":15930:15931   */\n      0x00\n        /* \"#utility.yul\":15923:15928   */\n      dup3\n        /* \"#utility.yul\":15893:15932   */\n      tag_117\n      jump\t// in\n    tag_279:\n        /* \"#utility.yul\":15866:15867   */\n      0x01\n        /* \"#utility.yul\":15859:15864   */\n      dup2\n        /* \"#utility.yul\":15855:15868   */\n      add\n        /* \"#utility.yul\":15846:15868   */\n      swap1\n      pop\n        /* \"#utility.yul\":15822:15942   */\n      jump(tag_276)\n    tag_278:\n        /* \"#utility.yul\":15762:15948   */\n      pop\n      pop\n      jump\t// out\n        /* \"#utility.yul\":15954:16497   */\n    tag_119:\n        /* \"#utility.yul\":16055:16057   */\n      0x1f\n        /* \"#utility.yul\":16050:16053   */\n      dup3\n        /* \"#utility.yul\":16047:16058   */\n      gt\n        /* \"#utility.yul\":16044:16490   */\n      iszero\n      tag_281\n      jumpi\n        /* \"#utility.yul\":16089:16127   */\n      tag_282\n        /* \"#utility.yul\":16121:16126   */\n      dup2\n        /* \"#utility.yul\":16089:16127   */\n      tag_108\n      jump\t// in\n    tag_282:\n        /* \"#utility.yul\":16173:16202   */\n      tag_283\n        /* \"#utility.yul\":16191:16201   */\n      dup5\n        /* \"#utility.yul\":16173:16202   */\n      tag_109\n      jump\t// in\n    tag_283:\n        /* \"#utility.yul\":16163:16171   */\n      dup2\n        /* \"#utility.yul\":16159:16203   */\n      add\n        /* \"#utility.yul\":16356:16358   */\n      0x20\n        /* \"#utility.yul\":16344:16354   */\n      dup6\n        /* \"#utility.yul\":16341:16359   */\n      lt\n        /* \"#utility.yul\":16338:16387   */\n      iszero\n      tag_284\n      jumpi\n        /* \"#utility.yul\":16377:16385   */\n      dup2\n        /* \"#utility.yul\":16362:16385   */\n      swap1\n      pop\n        /* \"#utility.yul\":16338:16387   */\n    tag_284:\n        /* \"#utility.yul\":16400:16480   */\n      tag_285\n        /* \"#utility.yul\":16456:16478   */\n      tag_286\n        /* \"#utility.yul\":16474:16477   */\n      dup6\n        /* \"#utility.yul\":16456:16478   */\n      tag_109\n      jump\t// in\n    tag_286:\n        /* \"#utility.yul\":16446:16454   */\n      dup4\n        /* \"#utility.yul\":16442:16479   */\n      add\n        /* \"#utility.yul\":16429:16440   */\n      dup3\n        /* \"#utility.yul\":16400:16480   */\n      tag_118\n      jump\t// in\n    tag_285:\n        /* \"#utility.yul\":16059:16490   */\n      pop\n      pop\n        /* \"#utility.yul\":16044:16490   */\n    tag_281:\n        /* \"#utility.yul\":15954:16497   */\n      pop\n      pop\n      pop\n      jump\t// out\n        /* \"#utility.yul\":16503:16620   */\n    tag_120:\n        /* \"#utility.yul\":16557:16565   */\n      0x00\n        /* \"#utility.yul\":16607:16612   */\n      dup3\n        /* \"#utility.yul\":16601:16605   */\n      dup3\n        /* \"#utility.yul\":16597:16613   */\n      shr\n        /* \"#utility.yul\":16576:16613   */\n      swap1\n      pop\n        /* \"#utility.yul\":16503:16620   */\n      swap3\n      swap2\n      pop\n      pop\n      jump\t// out\n        /* \"#utility.yul\":16626:16795   */\n    tag_121:\n        /* \"#utility.yul\":16670:16676   */\n      0x00\n        /* \"#utility.yul\":16703:16754   */\n      tag_289\n        /* \"#utility.yul\":16751:16752   */\n      0x00\n        /* \"#utility.yul\":16747:16753   */\n      not\n        /* \"#utility.yul\":16739:16744   */\n      dup5\n        /* \"#utility.yul\":16736:16737   */\n      0x08\n        /* \"#utility.yul\":16732:16745   */\n      mul\n        /* \"#utility.yul\":16703:16754   */\n      tag_120\n      jump\t// in\n    tag_289:\n        /* \"#utility.yul\":16699:16755   */\n      not\n        /* \"#utility.yul\":16784:16788   */\n      dup1\n        /* \"#utility.yul\":16778:16782   */\n      dup4\n        /* \"#utility.yul\":16774:16789   */\n      and\n        /* \"#utility.yul\":16764:16789   */\n      swap2\n      pop\n        /* \"#utility.yul\":16677:16795   */\n      pop\n        /* \"#utility.yul\":16626:16795   */\n      swap3\n      swap2\n      pop\n      pop\n      jump\t// out\n        /* \"#utility.yul\":16800:17095   */\n    tag_122:\n        /* \"#utility.yul\":16876:16880   */\n      0x00\n        /* \"#utility.yul\":17022:17051   */\n      tag_291\n        /* \"#utility.yul\":17047:17050   */\n      dup4\n        /* \"#utility.yul\":17041:17045   */\n      dup4\n        /* \"#utility.yul\":17022:17051   */\n      tag_121\n      jump\t// in\n    tag_291:\n        /* \"#utility.yul\":17014:17051   */\n      swap2\n      pop\n        /* \"#utility.yul\":17084:17087   */\n      dup3\n        /* \"#utility.yul\":17081:17082   */\n      0x02\n        /* \"#utility.yul\":17077:17088   */\n      mul\n        /* \"#utility.yul\":17071:17075   */\n      dup3\n        /* \"#utility.yul\":17068:17089   */\n      or\n        /* \"#utility.yul\":17060:17089   */\n      swap1\n      pop\n        /* \"#utility.yul\":16800:17095   */\n      swap3\n      swap2\n      pop\n      pop\n      jump\t// out\n        /* \"#utility.yul\":17100:18495   */\n    tag_63:\n        /* \"#utility.yul\":17217:17254   */\n      tag_293\n        /* \"#utility.yul\":17250:17253   */\n      dup3\n        /* \"#utility.yul\":17217:17254   */\n      tag_74\n      jump\t// in\n    tag_293:\n        /* \"#utility.yul\":17319:17337   */\n      0xffffffffffffffff\n        /* \"#utility.yul\":17311:17317   */\n      dup2\n        /* \"#utility.yul\":17308:17338   */\n      gt\n        /* \"#utility.yul\":17305:17361   */\n      iszero\n      tag_294\n      jumpi\n        /* \"#utility.yul\":17341:17359   */\n      tag_295\n      tag_98\n      jump\t// in\n    tag_295:\n        /* \"#utility.yul\":17305:17361   */\n    tag_294:\n        /* \"#utility.yul\":17385:17423   */\n      tag_296\n        /* \"#utility.yul\":17417:17421   */\n      dup3\n        /* \"#utility.yul\":17411:17422   */\n      sload\n        /* \"#utility.yul\":17385:17423   */\n      tag_31\n      jump\t// in\n    tag_296:\n        /* \"#utility.yul\":17470:17537   */\n      tag_297\n        /* \"#utility.yul\":17530:17536   */\n      dup3\n        /* \"#utility.yul\":17522:17528   */\n      dup3\n        /* \"#utility.yul\":17516:17520   */\n      dup6\n        /* \"#utility.yul\":17470:17537   */\n      tag_119\n      jump\t// in\n    tag_297:\n        /* \"#utility.yul\":17564:17565   */\n      0x00\n        /* \"#utility.yul\":17588:17592   */\n      0x20\n        /* \"#utility.yul\":17575:17592   */\n      swap1\n      pop\n        /* \"#utility.yul\":17620:17622   */\n      0x1f\n        /* \"#utility.yul\":17612:17618   */\n      dup4\n        /* \"#utility.yul\":17609:17623   */\n      gt\n        /* \"#utility.yul\":17637:17638   */\n      0x01\n        /* \"#utility.yul\":17632:18250   */\n      dup2\n      eq\n      tag_299\n      jumpi\n        /* \"#utility.yul\":18294:18295   */\n      0x00\n        /* \"#utility.yul\":18311:18317   */\n      dup5\n        /* \"#utility.yul\":18308:18385   */\n      iszero\n      tag_300\n      jumpi\n        /* \"#utility.yul\":18360:18369   */\n      dup3\n        /* \"#utility.yul\":18355:18358   */\n      dup8\n        /* \"#utility.yul\":18351:18370   */\n      add\n        /* \"#utility.yul\":18345:18371   */\n      mload\n        /* \"#utility.yul\":18336:18371   */\n      swap1\n      pop\n        /* \"#utility.yul\":18308:18385   */\n    tag_300:\n        /* \"#utility.yul\":18411:18478   */\n      tag_301\n        /* \"#utility.yul\":18471:18477   */\n      dup6\n        /* \"#utility.yul\":18464:18469   */\n      dup3\n        /* \"#utility.yul\":18411:18478   */\n      tag_122\n      jump\t// in\n    tag_301:\n        /* \"#utility.yul\":18405:18409   */\n      dup7\n        /* \"#utility.yul\":18398:18479   */\n      sstore\n        /* \"#utility.yul\":18267:18489   */\n      pop\n        /* \"#utility.yul\":17602:18489   */\n      jump(tag_298)\n        /* \"#utility.yul\":17632:18250   */\n    tag_299:\n        /* \"#utility.yul\":17684:17688   */\n      0x1f\n        /* \"#utility.yul\":17680:17689   */\n      not\n        /* \"#utility.yul\":17672:17678   */\n      dup5\n        /* \"#utility.yul\":17668:17690   */\n      and\n        /* \"#utility.yul\":17718:17755   */\n      tag_302\n        /* \"#utility.yul\":17750:17754   */\n      dup7\n        /* \"#utility.yul\":17718:17755   */\n      tag_108\n      jump\t// in\n    tag_302:\n        /* \"#utility.yul\":17777:17778   */\n      0x00\n        /* \"#utility.yul\":17791:17999   */\n    tag_303:\n        /* \"#utility.yul\":17805:17812   */\n      dup3\n        /* \"#utility.yul\":17802:17803   */\n      dup2\n        /* \"#utility.yul\":17799:17813   */\n      lt\n        /* \"#utility.yul\":17791:17999   */\n      iszero\n      tag_305\n      jumpi\n        /* \"#utility.yul\":17884:17893   */\n      dup5\n        /* \"#utility.yul\":17879:17882   */\n      dup10\n        /* \"#utility.yul\":17875:17894   */\n      add\n        /* \"#utility.yul\":17869:17895   */\n      mload\n        /* \"#utility.yul\":17861:17867   */\n      dup3\n        /* \"#utility.yul\":17854:17896   */\n      sstore\n        /* \"#utility.yul\":17935:17936   */\n      0x01\n        /* \"#utility.yul\":17927:17933   */\n      dup3\n        /* \"#utility.yul\":17923:17937   */\n      add\n        /* \"#utility.yul\":17913:17937   */\n      swap2\n      pop\n        /* \"#utility.yul\":17982:17984   */\n      0x20\n        /* \"#utility.yul\":17971:17980   */\n      dup6\n        /* \"#utility.yul\":17967:17985   */\n      add\n        /* \"#utility.yul\":17954:17985   */\n      swap5\n      pop\n        /* \"#utility.yul\":17828:17832   */\n      0x20\n        /* \"#utility.yul\":17825:17826   */\n      dup2\n        /* \"#utility.yul\":17821:17833   */\n      add\n        /* \"#utility.yul\":17816:17833   */\n      swap1\n      pop\n        /* \"#utility.yul\":17791:17999   */\n      jump(tag_303)\n    tag_305:\n        /* \"#utility.yul\":18027:18033   */\n      dup7\n        /* \"#utility.yul\":18018:18025   */\n      dup4\n        /* \"#utility.yul\":18015:18034   */\n      lt\n        /* \"#utility.yul\":18012:18191   */\n      iszero\n      tag_306\n      jumpi\n        /* \"#utility.yul\":18085:18094   */\n      dup5\n        /* \"#utility.yul\":18080:18083   */\n      dup10\n        /* \"#utility.yul\":18076:18095   */\n      add\n        /* \"#utility.yul\":18070:18096   */\n      mload\n        /* \"#utility.yul\":18128:18176   */\n      tag_307\n        /* \"#utility.yul\":18170:18174   */\n      0x1f\n        /* \"#utility.yul\":18162:18168   */\n      dup10\n        /* \"#utility.yul\":18158:18175   */\n      and\n        /* \"#utility.yul\":18147:18156   */\n      dup3\n        /* \"#utility.yul\":18128:18176   */\n      tag_121\n      jump\t// in\n    tag_307:\n        /* \"#utility.yul\":18120:18126   */\n      dup4\n        /* \"#utility.yul\":18113:18177   */\n      sstore\n        /* \"#utility.yul\":18035:18191   */\n      pop\n        /* \"#utility.yul\":18012:18191   */\n    tag_306:\n        /* \"#utility.yul\":18237:18238   */\n      0x01\n        /* \"#utility.yul\":18233:18234   */\n      0x02\n        /* \"#utility.yul\":18225:18231   */\n      dup9\n        /* \"#utility.yul\":18221:18235   */\n      mul\n        /* \"#utility.yul\":18217:18239   */\n      add\n        /* \"#utility.yul\":18211:18215   */\n      dup9\n        /* \"#utility.yul\":18204:18240   */\n      sstore\n        /* \"#utility.yul\":17639:18250   */\n      pop\n      pop\n      pop\n        /* \"#utility.yul\":17602:18489   */\n    tag_298:\n      pop\n        /* \"#utility.yul\":17192:18495   */\n      pop\n      pop\n      pop\n        /* \"#utility.yul\":17100:18495   */\n      pop\n      pop\n      jump\t// out\n\n    auxdata: 0xa2646970667358221220127169ea927f0dea841750d6579d2351d39976cff19ae48ffcc65d4a50394aa964736f6c634300081a0033\n}\n",
				"bytecode": {
					"linkReferences": {},
					"object": "6080604052348015600e575f80fd5b506110288061001c5f395ff3fe608060405234801561000f575f80fd5b506004361061004a575f3560e01c806305a1b4a91461004e578063112f54e31461008157806312e7ee1c146100b15780637c9cd2bc146100e1575b5f80fd5b6100686004803603810190610063919061076e565b6100fd565b6040516100789493929190610856565b60405180910390f35b61009b6004803603810190610096919061076e565b6101f5565b6040516100a89190610975565b60405180910390f35b6100cb60048036038101906100c69190610995565b610378565b6040516100d89190610adb565b60405180910390f35b6100fb60048036038101906100f69190610c27565b61051e565b005b5f602052815f5260405f208181548110610115575f80fd5b905f5260205f2090600302015f9150915050805f01805461013590610c9b565b80601f016020809104026020016040519081016040528092919081815260200182805461016190610c9b565b80156101ac5780601f10610183576101008083540402835291602001916101ac565b820191905f5260205f20905b81548152906001019060200180831161018f57829003601f168201915b505050505090806001015f9054906101000a900473ffffffffffffffffffffffffffffffffffffffff16908060010160149054906101000a900461ffff16908060020154905084565b6101fd610691565b5f808473ffffffffffffffffffffffffffffffffffffffff1673ffffffffffffffffffffffffffffffffffffffff1681526020019081526020015f20828154811061024b5761024a610ccb565b5b905f5260205f2090600302016040518060800160405290815f8201805461027190610c9b565b80601f016020809104026020016040519081016040528092919081815260200182805461029d90610c9b565b80156102e85780601f106102bf576101008083540402835291602001916102e8565b820191905f5260205f20905b8154815290600101906020018083116102cb57829003601f168201915b50505050508152602001600182015f9054906101000a900473ffffffffffffffffffffffffffffffffffffffff1673ffffffffffffffffffffffffffffffffffffffff1673ffffffffffffffffffffffffffffffffffffffff1681526020016001820160149054906101000a900461ffff1661ffff1661ffff168152602001600282015481525050905092915050565b60605f808373ffffffffffffffffffffffffffffffffffffffff1673ffffffffffffffffffffffffffffffffffffffff1681526020019081526020015f20805480602002602001604051908101604052809291908181526020015f905b82821015610513578382905f5260205f2090600302016040518060800160405290815f8201805461040590610c9b565b80601f016020809104026020016040519081016040528092919081815260200182805461043190610c9b565b801561047c5780601f106104535761010080835404028352916020019161047c565b820191905f5260205f20905b81548152906001019060200180831161045f57829003601f168201915b50505050508152602001600182015f9054906101000a900473ffffffffffffffffffffffffffffffffffffffff1673ffffffffffffffffffffffffffffffffffffffff1673ffffffffffffffffffffffffffffffffffffffff1681526020016001820160149054906101000a900461ffff1661ffff1661ffff168152602001600282015481525050815260200190600101906103d5565b505050509050919050565b60ff81511115610563576040517f08c379a000000000000000000000000000000000000000000000000000000000815260040161055a90610d68565b60405180910390fd5b5f60405180608001604052808381526020013373ffffffffffffffffffffffffffffffffffffffff1681526020015f61ffff1681526020014281525090505f803373ffffffffffffffffffffffffffffffffffffffff1673ffffffffffffffffffffffffffffffffffffffff1681526020019081526020015f2081908060018154018082558091505060019003905f5260205f2090600302015f909190919091505f820151815f0190816106179190610f23565b506020820151816001015f6101000a81548173ffffffffffffffffffffffffffffffffffffffff021916908373ffffffffffffffffffffffffffffffffffffffff16021790555060408201518160010160146101000a81548161ffff021916908361ffff1602179055506060820151816002015550505050565b6040518060800160405280606081526020015f73ffffffffffffffffffffffffffffffffffffffff1681526020015f61ffff1681526020015f81525090565b5f604051905090565b5f80fd5b5f80fd5b5f73ffffffffffffffffffffffffffffffffffffffff82169050919050565b5f61070a826106e1565b9050919050565b61071a81610700565b8114610724575f80fd5b50565b5f8135905061073581610711565b92915050565b5f819050919050565b61074d8161073b565b8114610757575f80fd5b50565b5f8135905061076881610744565b92915050565b5f8060408385031215610784576107836106d9565b5b5f61079185828601610727565b92505060206107a28582860161075a565b9150509250929050565b5f81519050919050565b5f82825260208201905092915050565b8281835e5f83830152505050565b5f601f19601f8301169050919050565b5f6107ee826107ac565b6107f881856107b6565b93506108088185602086016107c6565b610811816107d4565b840191505092915050565b61082581610700565b82525050565b5f61ffff82169050919050565b6108418161082b565b82525050565b6108508161073b565b82525050565b5f6080820190508181035f83015261086e81876107e4565b905061087d602083018661081c565b61088a6040830185610838565b6108976060830184610847565b95945050505050565b5f82825260208201905092915050565b5f6108ba826107ac565b6108c481856108a0565b93506108d48185602086016107c6565b6108dd816107d4565b840191505092915050565b6108f181610700565b82525050565b6109008161082b565b82525050565b61090f8161073b565b82525050565b5f608083015f8301518482035f86015261092f82826108b0565b915050602083015161094460208601826108e8565b50604083015161095760408601826108f7565b50606083015161096a6060860182610906565b508091505092915050565b5f6020820190508181035f83015261098d8184610915565b905092915050565b5f602082840312156109aa576109a96106d9565b5b5f6109b784828501610727565b91505092915050565b5f81519050919050565b5f82825260208201905092915050565b5f819050602082019050919050565b5f608083015f8301518482035f860152610a0382826108b0565b9150506020830151610a1860208601826108e8565b506040830151610a2b60408601826108f7565b506060830151610a3e6060860182610906565b508091505092915050565b5f610a5483836109e9565b905092915050565b5f602082019050919050565b5f610a72826109c0565b610a7c81856109ca565b935083602082028501610a8e856109da565b805f5b85811015610ac95784840389528151610aaa8582610a49565b9450610ab583610a5c565b925060208a01995050600181019050610a91565b50829750879550505050505092915050565b5f6020820190508181035f830152610af38184610a68565b905092915050565b5f80fd5b5f80fd5b7f4e487b71000000000000000000000000000000000000000000000000000000005f52604160045260245ffd5b610b39826107d4565b810181811067ffffffffffffffff82111715610b5857610b57610b03565b5b80604052505050565b5f610b6a6106d0565b9050610b768282610b30565b919050565b5f67ffffffffffffffff821115610b9557610b94610b03565b5b610b9e826107d4565b9050602081019050919050565b828183375f83830152505050565b5f610bcb610bc684610b7b565b610b61565b905082815260208101848484011115610be757610be6610aff565b5b610bf2848285610bab565b509392505050565b5f82601f830112610c0e57610c0d610afb565b5b8135610c1e848260208601610bb9565b91505092915050565b5f60208284031215610c3c57610c3b6106d9565b5b5f82013567ffffffffffffffff811115610c5957610c586106dd565b5b610c6584828501610bfa565b91505092915050565b7f4e487b71000000000000000000000000000000000000000000000000000000005f52602260045260245ffd5b5f6002820490506001821680610cb257607f821691505b602082108103610cc557610cc4610c6e565b5b50919050565b7f4e487b71000000000000000000000000000000000000000000000000000000005f52603260045260245ffd5b7f546865206c656e677468206f6620796f757220747765657420657863656564735f8201527f20746865206c696d69742062726f210000000000000000000000000000000000602082015250565b5f610d52602f836107b6565b9150610d5d82610cf8565b604082019050919050565b5f6020820190508181035f830152610d7f81610d46565b9050919050565b5f819050815f5260205f209050919050565b5f6020601f8301049050919050565b5f82821b905092915050565b5f60088302610de27fffffffffffffffffffffffffffffffffffffffffffffffffffffffffffffffff82610da7565b610dec8683610da7565b95508019841693508086168417925050509392505050565b5f819050919050565b5f610e27610e22610e1d8461073b565b610e04565b61073b565b9050919050565b5f819050919050565b610e4083610e0d565b610e54610e4c82610e2e565b848454610db3565b825550505050565b5f90565b610e68610e5c565b610e73818484610e37565b505050565b5b81811015610e9657610e8b5f82610e60565b600181019050610e79565b5050565b601f821115610edb57610eac81610d86565b610eb584610d98565b81016020851015610ec4578190505b610ed8610ed085610d98565b830182610e78565b50505b505050565b5f82821c905092915050565b5f610efb5f1984600802610ee0565b1980831691505092915050565b5f610f138383610eec565b9150826002028217905092915050565b610f2c826107ac565b67ffffffffffffffff811115610f4557610f44610b03565b5b610f4f8254610c9b565b610f5a828285610e9a565b5f60209050601f831160018114610f8b575f8415610f79578287015190505b610f838582610f08565b865550610fea565b601f198416610f9986610d86565b5f5b82811015610fc057848901518255600182019150602085019450602081019050610f9b565b86831015610fdd5784890151610fd9601f891682610eec565b8355505b6001600288020188555050505b50505050505056fea2646970667358221220127169ea927f0dea841750d6579d2351d39976cff19ae48ffcc65d4a50394aa964736f6c634300081a0033",
					"opcodes": "PUSH1 0x80 PUSH1 0x40 MSTORE CALLVALUE DUP1 ISZERO PUSH1 0xE JUMPI PUSH0 DUP1 REVERT JUMPDEST POP PUSH2 0x1028 DUP1 PUSH2 0x1C PUSH0 CODECOPY PUSH0 RETURN INVALID PUSH1 0x80 PUSH1 0x40 MSTORE CALLVALUE DUP1 ISZERO PUSH2 0xF JUMPI PUSH0 DUP1 REVERT JUMPDEST POP PUSH1 0x4 CALLDATASIZE LT PUSH2 0x4A JUMPI PUSH0 CALLDATALOAD PUSH1 0xE0 SHR DUP1 PUSH4 0x5A1B4A9 EQ PUSH2 0x4E JUMPI DUP1 PUSH4 0x112F54E3 EQ PUSH2 0x81 JUMPI DUP1 PUSH4 0x12E7EE1C EQ PUSH2 0xB1 JUMPI DUP1 PUSH4 0x7C9CD2BC EQ PUSH2 0xE1 JUMPI JUMPDEST PUSH0 DUP1 REVERT JUMPDEST PUSH2 0x68 PUSH1 0x4 DUP1 CALLDATASIZE SUB DUP2 ADD SWAP1 PUSH2 0x63 SWAP2 SWAP1 PUSH2 0x76E JUMP JUMPDEST PUSH2 0xFD JUMP JUMPDEST PUSH1 0x40 MLOAD PUSH2 0x78 SWAP5 SWAP4 SWAP3 SWAP2 SWAP1 PUSH2 0x856 JUMP JUMPDEST PUSH1 0x40 MLOAD DUP1 SWAP2 SUB SWAP1 RETURN JUMPDEST PUSH2 0x9B PUSH1 0x4 DUP1 CALLDATASIZE SUB DUP2 ADD SWAP1 PUSH2 0x96 SWAP2 SWAP1 PUSH2 0x76E JUMP JUMPDEST PUSH2 0x1F5 JUMP JUMPDEST PUSH1 0x40 MLOAD PUSH2 0xA8 SWAP2 SWAP1 PUSH2 0x975 JUMP JUMPDEST PUSH1 0x40 MLOAD DUP1 SWAP2 SUB SWAP1 RETURN JUMPDEST PUSH2 0xCB PUSH1 0x4 DUP1 CALLDATASIZE SUB DUP2 ADD SWAP1 PUSH2 0xC6 SWAP2 SWAP1 PUSH2 0x995 JUMP JUMPDEST PUSH2 0x378 JUMP JUMPDEST PUSH1 0x40 MLOAD PUSH2 0xD8 SWAP2 SWAP1 PUSH2 0xADB JUMP JUMPDEST PUSH1 0x40 MLOAD DUP1 SWAP2 SUB SWAP1 RETURN JUMPDEST PUSH2 0xFB PUSH1 0x4 DUP1 CALLDATASIZE SUB DUP2 ADD SWAP1 PUSH2 0xF6 SWAP2 SWAP1 PUSH2 0xC27 JUMP JUMPDEST PUSH2 0x51E JUMP JUMPDEST STOP JUMPDEST PUSH0 PUSH1 0x20 MSTORE DUP2 PUSH0 MSTORE PUSH1 0x40 PUSH0 KECCAK256 DUP2 DUP2 SLOAD DUP2 LT PUSH2 0x115 JUMPI PUSH0 DUP1 REVERT JUMPDEST SWAP1 PUSH0 MSTORE PUSH1 0x20 PUSH0 KECCAK256 SWAP1 PUSH1 0x3 MUL ADD PUSH0 SWAP2 POP SWAP2 POP POP DUP1 PUSH0 ADD DUP1 SLOAD PUSH2 0x135 SWAP1 PUSH2 0xC9B JUMP JUMPDEST DUP1 PUSH1 0x1F ADD PUSH1 0x20 DUP1 SWAP2 DIV MUL PUSH1 0x20 ADD PUSH1 0x40 MLOAD SWAP1 DUP2 ADD PUSH1 0x40 MSTORE DUP1 SWAP3 SWAP2 SWAP1 DUP2 DUP2 MSTORE PUSH1 0x20 ADD DUP3 DUP1 SLOAD PUSH2 0x161 SWAP1 PUSH2 0xC9B JUMP JUMPDEST DUP1 ISZERO PUSH2 0x1AC JUMPI DUP1 PUSH1 0x1F LT PUSH2 0x183 JUMPI PUSH2 0x100 DUP1 DUP4 SLOAD DIV MUL DUP4 MSTORE SWAP2 PUSH1 0x20 ADD SWAP2 PUSH2 0x1AC JUMP JUMPDEST DUP3 ADD SWAP2 SWAP1 PUSH0 MSTORE PUSH1 0x20 PUSH0 KECCAK256 SWAP1 JUMPDEST DUP2 SLOAD DUP2 MSTORE SWAP1 PUSH1 0x1 ADD SWAP1 PUSH1 0x20 ADD DUP1 DUP4 GT PUSH2 0x18F JUMPI DUP3 SWAP1 SUB PUSH1 0x1F AND DUP3 ADD SWAP2 JUMPDEST POP POP POP POP POP SWAP1 DUP1 PUSH1 0x1 ADD PUSH0 SWAP1 SLOAD SWAP1 PUSH2 0x100 EXP SWAP1 DIV PUSH20 0xFFFFFFFFFFFFFFFFFFFFFFFFFFFFFFFFFFFFFFFF AND SWAP1 DUP1 PUSH1 0x1 ADD PUSH1 0x14 SWAP1 SLOAD SWAP1 PUSH2 0x100 EXP SWAP1 DIV PUSH2 0xFFFF AND SWAP1 DUP1 PUSH1 0x2 ADD SLOAD SWAP1 POP DUP5 JUMP JUMPDEST PUSH2 0x1FD PUSH2 0x691 JUMP JUMPDEST PUSH0 DUP1 DUP5 PUSH20 0xFFFFFFFFFFFFFFFFFFFFFFFFFFFFFFFFFFFFFFFF AND PUSH20 0xFFFFFFFFFFFFFFFFFFFFFFFFFFFFFFFFFFFFFFFF AND DUP2 MSTORE PUSH1 0x20 ADD SWAP1 DUP2 MSTORE PUSH1 0x20 ADD PUSH0 KECCAK256 DUP3 DUP2 SLOAD DUP2 LT PUSH2 0x24B JUMPI PUSH2 0x24A PUSH2 0xCCB JUMP JUMPDEST JUMPDEST SWAP1 PUSH0 MSTORE PUSH1 0x20 PUSH0 KECCAK256 SWAP1 PUSH1 0x3 MUL ADD PUSH1 0x40 MLOAD DUP1 PUSH1 0x80 ADD PUSH1 0x40 MSTORE SWAP1 DUP2 PUSH0 DUP3 ADD DUP1 SLOAD PUSH2 0x271 SWAP1 PUSH2 0xC9B JUMP JUMPDEST DUP1 PUSH1 0x1F ADD PUSH1 0x20 DUP1 SWAP2 DIV MUL PUSH1 0x20 ADD PUSH1 0x40 MLOAD SWAP1 DUP2 ADD PUSH1 0x40 MSTORE DUP1 SWAP3 SWAP2 SWAP1 DUP2 DUP2 MSTORE PUSH1 0x20 ADD DUP3 DUP1 SLOAD PUSH2 0x29D SWAP1 PUSH2 0xC9B JUMP JUMPDEST DUP1 ISZERO PUSH2 0x2E8 JUMPI DUP1 PUSH1 0x1F LT PUSH2 0x2BF JUMPI PUSH2 0x100 DUP1 DUP4 SLOAD DIV MUL DUP4 MSTORE SWAP2 PUSH1 0x20 ADD SWAP2 PUSH2 0x2E8 JUMP JUMPDEST DUP3 ADD SWAP2 SWAP1 PUSH0 MSTORE PUSH1 0x20 PUSH0 KECCAK256 SWAP1 JUMPDEST DUP2 SLOAD DUP2 MSTORE SWAP1 PUSH1 0x1 ADD SWAP1 PUSH1 0x20 ADD DUP1 DUP4 GT PUSH2 0x2CB JUMPI DUP3 SWAP1 SUB PUSH1 0x1F AND DUP3 ADD SWAP2 JUMPDEST POP POP POP POP POP DUP2 MSTORE PUSH1 0x20 ADD PUSH1 0x1 DUP3 ADD PUSH0 SWAP1 SLOAD SWAP1 PUSH2 0x100 EXP SWAP1 DIV PUSH20 0xFFFFFFFFFFFFFFFFFFFFFFFFFFFFFFFFFFFFFFFF AND PUSH20 0xFFFFFFFFFFFFFFFFFFFFFFFFFFFFFFFFFFFFFFFF AND PUSH20 0xFFFFFFFFFFFFFFFFFFFFFFFFFFFFFFFFFFFFFFFF AND DUP2 MSTORE PUSH1 0x20 ADD PUSH1 0x1 DUP3 ADD PUSH1 0x14 SWAP1 SLOAD SWAP1 PUSH2 0x100 EXP SWAP1 DIV PUSH2 0xFFFF AND PUSH2 0xFFFF AND PUSH2 0xFFFF AND DUP2 MSTORE PUSH1 0x20 ADD PUSH1 0x2 DUP3 ADD SLOAD DUP2 MSTORE POP POP SWAP1 POP SWAP3 SWAP2 POP POP JUMP JUMPDEST PUSH1 0x60 PUSH0 DUP1 DUP4 PUSH20 0xFFFFFFFFFFFFFFFFFFFFFFFFFFFFFFFFFFFFFFFF AND PUSH20 0xFFFFFFFFFFFFFFFFFFFFFFFFFFFFFFFFFFFFFFFF AND DUP2 MSTORE PUSH1 0x20 ADD SWAP1 DUP2 MSTORE PUSH1 0x20 ADD PUSH0 KECCAK256 DUP1 SLOAD DUP1 PUSH1 0x20 MUL PUSH1 0x20 ADD PUSH1 0x40 MLOAD SWAP1 DUP2 ADD PUSH1 0x40 MSTORE DUP1 SWAP3 SWAP2 SWAP1 DUP2 DUP2 MSTORE PUSH1 0x20 ADD PUSH0 SWAP1 JUMPDEST DUP3 DUP3 LT ISZERO PUSH2 0x513 JUMPI DUP4 DUP3 SWAP1 PUSH0 MSTORE PUSH1 0x20 PUSH0 KECCAK256 SWAP1 PUSH1 0x3 MUL ADD PUSH1 0x40 MLOAD DUP1 PUSH1 0x80 ADD PUSH1 0x40 MSTORE SWAP1 DUP2 PUSH0 DUP3 ADD DUP1 SLOAD PUSH2 0x405 SWAP1 PUSH2 0xC9B JUMP JUMPDEST DUP1 PUSH1 0x1F ADD PUSH1 0x20 DUP1 SWAP2 DIV MUL PUSH1 0x20 ADD PUSH1 0x40 MLOAD SWAP1 DUP2 ADD PUSH1 0x40 MSTORE DUP1 SWAP3 SWAP2 SWAP1 DUP2 DUP2 MSTORE PUSH1 0x20 ADD DUP3 DUP1 SLOAD PUSH2 0x431 SWAP1 PUSH2 0xC9B JUMP JUMPDEST DUP1 ISZERO PUSH2 0x47C JUMPI DUP1 PUSH1 0x1F LT PUSH2 0x453 JUMPI PUSH2 0x100 DUP1 DUP4 SLOAD DIV MUL DUP4 MSTORE SWAP2 PUSH1 0x20 ADD SWAP2 PUSH2 0x47C JUMP JUMPDEST DUP3 ADD SWAP2 SWAP1 PUSH0 MSTORE PUSH1 0x20 PUSH0 KECCAK256 SWAP1 JUMPDEST DUP2 SLOAD DUP2 MSTORE SWAP1 PUSH1 0x1 ADD SWAP1 PUSH1 0x20 ADD DUP1 DUP4 GT PUSH2 0x45F JUMPI DUP3 SWAP1 SUB PUSH1 0x1F AND DUP3 ADD SWAP2 JUMPDEST POP POP POP POP POP DUP2 MSTORE PUSH1 0x20 ADD PUSH1 0x1 DUP3 ADD PUSH0 SWAP1 SLOAD SWAP1 PUSH2 0x100 EXP SWAP1 DIV PUSH20 0xFFFFFFFFFFFFFFFFFFFFFFFFFFFFFFFFFFFFFFFF AND PUSH20 0xFFFFFFFFFFFFFFFFFFFFFFFFFFFFFFFFFFFFFFFF AND PUSH20 0xFFFFFFFFFFFFFFFFFFFFFFFFFFFFFFFFFFFFFFFF AND DUP2 MSTORE PUSH1 0x20 ADD PUSH1 0x1 DUP3 ADD PUSH1 0x14 SWAP1 SLOAD SWAP1 PUSH2 0x100 EXP SWAP1 DIV PUSH2 0xFFFF AND PUSH2 0xFFFF AND PUSH2 0xFFFF AND DUP2 MSTORE PUSH1 0x20 ADD PUSH1 0x2 DUP3 ADD SLOAD DUP2 MSTORE POP POP DUP2 MSTORE PUSH1 0x20 ADD SWAP1 PUSH1 0x1 ADD SWAP1 PUSH2 0x3D5 JUMP JUMPDEST POP POP POP POP SWAP1 POP SWAP2 SWAP1 POP JUMP JUMPDEST PUSH1 0xFF DUP2 MLOAD GT ISZERO PUSH2 0x563 JUMPI PUSH1 0x40 MLOAD PUSH32 0x8C379A000000000000000000000000000000000000000000000000000000000 DUP2 MSTORE PUSH1 0x4 ADD PUSH2 0x55A SWAP1 PUSH2 0xD68 JUMP JUMPDEST PUSH1 0x40 MLOAD DUP1 SWAP2 SUB SWAP1 REVERT JUMPDEST PUSH0 PUSH1 0x40 MLOAD DUP1 PUSH1 0x80 ADD PUSH1 0x40 MSTORE DUP1 DUP4 DUP2 MSTORE PUSH1 0x20 ADD CALLER PUSH20 0xFFFFFFFFFFFFFFFFFFFFFFFFFFFFFFFFFFFFFFFF AND DUP2 MSTORE PUSH1 0x20 ADD PUSH0 PUSH2 0xFFFF AND DUP2 MSTORE PUSH1 0x20 ADD TIMESTAMP DUP2 MSTORE POP SWAP1 POP PUSH0 DUP1 CALLER PUSH20 0xFFFFFFFFFFFFFFFFFFFFFFFFFFFFFFFFFFFFFFFF AND PUSH20 0xFFFFFFFFFFFFFFFFFFFFFFFFFFFFFFFFFFFFFFFF AND DUP2 MSTORE PUSH1 0x20 ADD SWAP1 DUP2 MSTORE PUSH1 0x20 ADD PUSH0 KECCAK256 DUP2 SWAP1 DUP1 PUSH1 0x1 DUP2 SLOAD ADD DUP1 DUP3 SSTORE DUP1 SWAP2 POP POP PUSH1 0x1 SWAP1 SUB SWAP1 PUSH0 MSTORE PUSH1 0x20 PUSH0 KECCAK256 SWAP1 PUSH1 0x3 MUL ADD PUSH0 SWAP1 SWAP2 SWAP1 SWAP2 SWAP1 SWAP2 POP PUSH0 DUP3 ADD MLOAD DUP2 PUSH0 ADD SWAP1 DUP2 PUSH2 0x617 SWAP2 SWAP1 PUSH2 0xF23 JUMP JUMPDEST POP PUSH1 0x20 DUP3 ADD MLOAD DUP2 PUSH1 0x1 ADD PUSH0 PUSH2 0x100 EXP DUP2 SLOAD DUP2 PUSH20 0xFFFFFFFFFFFFFFFFFFFFFFFFFFFFFFFFFFFFFFFF MUL NOT AND SWAP1 DUP4 PUSH20 0xFFFFFFFFFFFFFFFFFFFFFFFFFFFFFFFFFFFFFFFF AND MUL OR SWAP1 SSTORE POP PUSH1 0x40 DUP3 ADD MLOAD DUP2 PUSH1 0x1 ADD PUSH1 0x14 PUSH2 0x100 EXP DUP2 SLOAD DUP2 PUSH2 0xFFFF MUL NOT AND SWAP1 DUP4 PUSH2 0xFFFF AND MUL OR SWAP1 SSTORE POP PUSH1 0x60 DUP3 ADD MLOAD DUP2 PUSH1 0x2 ADD SSTORE POP POP POP POP JUMP JUMPDEST PUSH1 0x40 MLOAD DUP1 PUSH1 0x80 ADD PUSH1 0x40 MSTORE DUP1 PUSH1 0x60 DUP2 MSTORE PUSH1 0x20 ADD PUSH0 PUSH20 0xFFFFFFFFFFFFFFFFFFFFFFFFFFFFFFFFFFFFFFFF AND DUP2 MSTORE PUSH1 0x20 ADD PUSH0 PUSH2 0xFFFF AND DUP2 MSTORE PUSH1 0x20 ADD PUSH0 DUP2 MSTORE POP SWAP1 JUMP JUMPDEST PUSH0 PUSH1 0x40 MLOAD SWAP1 POP SWAP1 JUMP JUMPDEST PUSH0 DUP1 REVERT JUMPDEST PUSH0 DUP1 REVERT JUMPDEST PUSH0 PUSH20 0xFFFFFFFFFFFFFFFFFFFFFFFFFFFFFFFFFFFFFFFF DUP3 AND SWAP1 POP SWAP2 SWAP1 POP JUMP JUMPDEST PUSH0 PUSH2 0x70A DUP3 PUSH2 0x6E1 JUMP JUMPDEST SWAP1 POP SWAP2 SWAP1 POP JUMP JUMPDEST PUSH2 0x71A DUP2 PUSH2 0x700 JUMP JUMPDEST DUP2 EQ PUSH2 0x724 JUMPI PUSH0 DUP1 REVERT JUMPDEST POP JUMP JUMPDEST PUSH0 DUP2 CALLDATALOAD SWAP1 POP PUSH2 0x735 DUP2 PUSH2 0x711 JUMP JUMPDEST SWAP3 SWAP2 POP POP JUMP JUMPDEST PUSH0 DUP2 SWAP1 POP SWAP2 SWAP1 POP JUMP JUMPDEST PUSH2 0x74D DUP2 PUSH2 0x73B JUMP JUMPDEST DUP2 EQ PUSH2 0x757 JUMPI PUSH0 DUP1 REVERT JUMPDEST POP JUMP JUMPDEST PUSH0 DUP2 CALLDATALOAD SWAP1 POP PUSH2 0x768 DUP2 PUSH2 0x744 JUMP JUMPDEST SWAP3 SWAP2 POP POP JUMP JUMPDEST PUSH0 DUP1 PUSH1 0x40 DUP4 DUP6 SUB SLT ISZERO PUSH2 0x784 JUMPI PUSH2 0x783 PUSH2 0x6D9 JUMP JUMPDEST JUMPDEST PUSH0 PUSH2 0x791 DUP6 DUP3 DUP7 ADD PUSH2 0x727 JUMP JUMPDEST SWAP3 POP POP PUSH1 0x20 PUSH2 0x7A2 DUP6 DUP3 DUP7 ADD PUSH2 0x75A JUMP JUMPDEST SWAP2 POP POP SWAP3 POP SWAP3 SWAP1 POP JUMP JUMPDEST PUSH0 DUP2 MLOAD SWAP1 POP SWAP2 SWAP1 POP JUMP JUMPDEST PUSH0 DUP3 DUP3 MSTORE PUSH1 0x20 DUP3 ADD SWAP1 POP SWAP3 SWAP2 POP POP JUMP JUMPDEST DUP3 DUP2 DUP4 MCOPY PUSH0 DUP4 DUP4 ADD MSTORE POP POP POP JUMP JUMPDEST PUSH0 PUSH1 0x1F NOT PUSH1 0x1F DUP4 ADD AND SWAP1 POP SWAP2 SWAP1 POP JUMP JUMPDEST PUSH0 PUSH2 0x7EE DUP3 PUSH2 0x7AC JUMP JUMPDEST PUSH2 0x7F8 DUP2 DUP6 PUSH2 0x7B6 JUMP JUMPDEST SWAP4 POP PUSH2 0x808 DUP2 DUP6 PUSH1 0x20 DUP7 ADD PUSH2 0x7C6 JUMP JUMPDEST PUSH2 0x811 DUP2 PUSH2 0x7D4 JUMP JUMPDEST DUP5 ADD SWAP2 POP POP SWAP3 SWAP2 POP POP JUMP JUMPDEST PUSH2 0x825 DUP2 PUSH2 0x700 JUMP JUMPDEST DUP3 MSTORE POP POP JUMP JUMPDEST PUSH0 PUSH2 0xFFFF DUP3 AND SWAP1 POP SWAP2 SWAP1 POP JUMP JUMPDEST PUSH2 0x841 DUP2 PUSH2 0x82B JUMP JUMPDEST DUP3 MSTORE POP POP JUMP JUMPDEST PUSH2 0x850 DUP2 PUSH2 0x73B JUMP JUMPDEST DUP3 MSTORE POP POP JUMP JUMPDEST PUSH0 PUSH1 0x80 DUP3 ADD SWAP1 POP DUP2 DUP2 SUB PUSH0 DUP4 ADD MSTORE PUSH2 0x86E DUP2 DUP8 PUSH2 0x7E4 JUMP JUMPDEST SWAP1 POP PUSH2 0x87D PUSH1 0x20 DUP4 ADD DUP7 PUSH2 0x81C JUMP JUMPDEST PUSH2 0x88A PUSH1 0x40 DUP4 ADD DUP6 PUSH2 0x838 JUMP JUMPDEST PUSH2 0x897 PUSH1 0x60 DUP4 ADD DUP5 PUSH2 0x847 JUMP JUMPDEST SWAP6 SWAP5 POP POP POP POP POP JUMP JUMPDEST PUSH0 DUP3 DUP3 MSTORE PUSH1 0x20 DUP3 ADD SWAP1 POP SWAP3 SWAP2 POP POP JUMP JUMPDEST PUSH0 PUSH2 0x8BA DUP3 PUSH2 0x7AC JUMP JUMPDEST PUSH2 0x8C4 DUP2 DUP6 PUSH2 0x8A0 JUMP JUMPDEST SWAP4 POP PUSH2 0x8D4 DUP2 DUP6 PUSH1 0x20 DUP7 ADD PUSH2 0x7C6 JUMP JUMPDEST PUSH2 0x8DD DUP2 PUSH2 0x7D4 JUMP JUMPDEST DUP5 ADD SWAP2 POP POP SWAP3 SWAP2 POP POP JUMP JUMPDEST PUSH2 0x8F1 DUP2 PUSH2 0x700 JUMP JUMPDEST DUP3 MSTORE POP POP JUMP JUMPDEST PUSH2 0x900 DUP2 PUSH2 0x82B JUMP JUMPDEST DUP3 MSTORE POP POP JUMP JUMPDEST PUSH2 0x90F DUP2 PUSH2 0x73B JUMP JUMPDEST DUP3 MSTORE POP POP JUMP JUMPDEST PUSH0 PUSH1 0x80 DUP4 ADD PUSH0 DUP4 ADD MLOAD DUP5 DUP3 SUB PUSH0 DUP7 ADD MSTORE PUSH2 0x92F DUP3 DUP3 PUSH2 0x8B0 JUMP JUMPDEST SWAP2 POP POP PUSH1 0x20 DUP4 ADD MLOAD PUSH2 0x944 PUSH1 0x20 DUP7 ADD DUP3 PUSH2 0x8E8 JUMP JUMPDEST POP PUSH1 0x40 DUP4 ADD MLOAD PUSH2 0x957 PUSH1 0x40 DUP7 ADD DUP3 PUSH2 0x8F7 JUMP JUMPDEST POP PUSH1 0x60 DUP4 ADD MLOAD PUSH2 0x96A PUSH1 0x60 DUP7 ADD DUP3 PUSH2 0x906 JUMP JUMPDEST POP DUP1 SWAP2 POP POP SWAP3 SWAP2 POP POP JUMP JUMPDEST PUSH0 PUSH1 0x20 DUP3 ADD SWAP1 POP DUP2 DUP2 SUB PUSH0 DUP4 ADD MSTORE PUSH2 0x98D DUP2 DUP5 PUSH2 0x915 JUMP JUMPDEST SWAP1 POP SWAP3 SWAP2 POP POP JUMP JUMPDEST PUSH0 PUSH1 0x20 DUP3 DUP5 SUB SLT ISZERO PUSH2 0x9AA JUMPI PUSH2 0x9A9 PUSH2 0x6D9 JUMP JUMPDEST JUMPDEST PUSH0 PUSH2 0x9B7 DUP5 DUP3 DUP6 ADD PUSH2 0x727 JUMP JUMPDEST SWAP2 POP POP SWAP3 SWAP2 POP POP JUMP JUMPDEST PUSH0 DUP2 MLOAD SWAP1 POP SWAP2 SWAP1 POP JUMP JUMPDEST PUSH0 DUP3 DUP3 MSTORE PUSH1 0x20 DUP3 ADD SWAP1 POP SWAP3 SWAP2 POP POP JUMP JUMPDEST PUSH0 DUP2 SWAP1 POP PUSH1 0x20 DUP3 ADD SWAP1 POP SWAP2 SWAP1 POP JUMP JUMPDEST PUSH0 PUSH1 0x80 DUP4 ADD PUSH0 DUP4 ADD MLOAD DUP5 DUP3 SUB PUSH0 DUP7 ADD MSTORE PUSH2 0xA03 DUP3 DUP3 PUSH2 0x8B0 JUMP JUMPDEST SWAP2 POP POP PUSH1 0x20 DUP4 ADD MLOAD PUSH2 0xA18 PUSH1 0x20 DUP7 ADD DUP3 PUSH2 0x8E8 JUMP JUMPDEST POP PUSH1 0x40 DUP4 ADD MLOAD PUSH2 0xA2B PUSH1 0x40 DUP7 ADD DUP3 PUSH2 0x8F7 JUMP JUMPDEST POP PUSH1 0x60 DUP4 ADD MLOAD PUSH2 0xA3E PUSH1 0x60 DUP7 ADD DUP3 PUSH2 0x906 JUMP JUMPDEST POP DUP1 SWAP2 POP POP SWAP3 SWAP2 POP POP JUMP JUMPDEST PUSH0 PUSH2 0xA54 DUP4 DUP4 PUSH2 0x9E9 JUMP JUMPDEST SWAP1 POP SWAP3 SWAP2 POP POP JUMP JUMPDEST PUSH0 PUSH1 0x20 DUP3 ADD SWAP1 POP SWAP2 SWAP1 POP JUMP JUMPDEST PUSH0 PUSH2 0xA72 DUP3 PUSH2 0x9C0 JUMP JUMPDEST PUSH2 0xA7C DUP2 DUP6 PUSH2 0x9CA JUMP JUMPDEST SWAP4 POP DUP4 PUSH1 0x20 DUP3 MUL DUP6 ADD PUSH2 0xA8E DUP6 PUSH2 0x9DA JUMP JUMPDEST DUP1 PUSH0 JUMPDEST DUP6 DUP2 LT ISZERO PUSH2 0xAC9 JUMPI DUP5 DUP5 SUB DUP10 MSTORE DUP2 MLOAD PUSH2 0xAAA DUP6 DUP3 PUSH2 0xA49 JUMP JUMPDEST SWAP5 POP PUSH2 0xAB5 DUP4 PUSH2 0xA5C JUMP JUMPDEST SWAP3 POP PUSH1 0x20 DUP11 ADD SWAP10 POP POP PUSH1 0x1 DUP2 ADD SWAP1 POP PUSH2 0xA91 JUMP JUMPDEST POP DUP3 SWAP8 POP DUP8 SWAP6 POP POP POP POP POP POP SWAP3 SWAP2 POP POP JUMP JUMPDEST PUSH0 PUSH1 0x20 DUP3 ADD SWAP1 POP DUP2 DUP2 SUB PUSH0 DUP4 ADD MSTORE PUSH2 0xAF3 DUP2 DUP5 PUSH2 0xA68 JUMP JUMPDEST SWAP1 POP SWAP3 SWAP2 POP POP JUMP JUMPDEST PUSH0 DUP1 REVERT JUMPDEST PUSH0 DUP1 REVERT JUMPDEST PUSH32 0x4E487B7100000000000000000000000000000000000000000000000000000000 PUSH0 MSTORE PUSH1 0x41 PUSH1 0x4 MSTORE PUSH1 0x24 PUSH0 REVERT JUMPDEST PUSH2 0xB39 DUP3 PUSH2 0x7D4 JUMP JUMPDEST DUP2 ADD DUP2 DUP2 LT PUSH8 0xFFFFFFFFFFFFFFFF DUP3 GT OR ISZERO PUSH2 0xB58 JUMPI PUSH2 0xB57 PUSH2 0xB03 JUMP JUMPDEST JUMPDEST DUP1 PUSH1 0x40 MSTORE POP POP POP JUMP JUMPDEST PUSH0 PUSH2 0xB6A PUSH2 0x6D0 JUMP JUMPDEST SWAP1 POP PUSH2 0xB76 DUP3 DUP3 PUSH2 0xB30 JUMP JUMPDEST SWAP2 SWAP1 POP JUMP JUMPDEST PUSH0 PUSH8 0xFFFFFFFFFFFFFFFF DUP3 GT ISZERO PUSH2 0xB95 JUMPI PUSH2 0xB94 PUSH2 0xB03 JUMP JUMPDEST JUMPDEST PUSH2 0xB9E DUP3 PUSH2 0x7D4 JUMP JUMPDEST SWAP1 POP PUSH1 0x20 DUP2 ADD SWAP1 POP SWAP2 SWAP1 POP JUMP JUMPDEST DUP3 DUP2 DUP4 CALLDATACOPY PUSH0 DUP4 DUP4 ADD MSTORE POP POP POP JUMP JUMPDEST PUSH0 PUSH2 0xBCB PUSH2 0xBC6 DUP5 PUSH2 0xB7B JUMP JUMPDEST PUSH2 0xB61 JUMP JUMPDEST SWAP1 POP DUP3 DUP2 MSTORE PUSH1 0x20 DUP2 ADD DUP5 DUP5 DUP5 ADD GT ISZERO PUSH2 0xBE7 JUMPI PUSH2 0xBE6 PUSH2 0xAFF JUMP JUMPDEST JUMPDEST PUSH2 0xBF2 DUP5 DUP3 DUP6 PUSH2 0xBAB JUMP JUMPDEST POP SWAP4 SWAP3 POP POP POP JUMP JUMPDEST PUSH0 DUP3 PUSH1 0x1F DUP4 ADD SLT PUSH2 0xC0E JUMPI PUSH2 0xC0D PUSH2 0xAFB JUMP JUMPDEST JUMPDEST DUP2 CALLDATALOAD PUSH2 0xC1E DUP5 DUP3 PUSH1 0x20 DUP7 ADD PUSH2 0xBB9 JUMP JUMPDEST SWAP2 POP POP SWAP3 SWAP2 POP POP JUMP JUMPDEST PUSH0 PUSH1 0x20 DUP3 DUP5 SUB SLT ISZERO PUSH2 0xC3C JUMPI PUSH2 0xC3B PUSH2 0x6D9 JUMP JUMPDEST JUMPDEST PUSH0 DUP3 ADD CALLDATALOAD PUSH8 0xFFFFFFFFFFFFFFFF DUP2 GT ISZERO PUSH2 0xC59 JUMPI PUSH2 0xC58 PUSH2 0x6DD JUMP JUMPDEST JUMPDEST PUSH2 0xC65 DUP5 DUP3 DUP6 ADD PUSH2 0xBFA JUMP JUMPDEST SWAP2 POP POP SWAP3 SWAP2 POP POP JUMP JUMPDEST PUSH32 0x4E487B7100000000000000000000000000000000000000000000000000000000 PUSH0 MSTORE PUSH1 0x22 PUSH1 0x4 MSTORE PUSH1 0x24 PUSH0 REVERT JUMPDEST PUSH0 PUSH1 0x2 DUP3 DIV SWAP1 POP PUSH1 0x1 DUP3 AND DUP1 PUSH2 0xCB2 JUMPI PUSH1 0x7F DUP3 AND SWAP2 POP JUMPDEST PUSH1 0x20 DUP3 LT DUP2 SUB PUSH2 0xCC5 JUMPI PUSH2 0xCC4 PUSH2 0xC6E JUMP JUMPDEST JUMPDEST POP SWAP2 SWAP1 POP JUMP JUMPDEST PUSH32 0x4E487B7100000000000000000000000000000000000000000000000000000000 PUSH0 MSTORE PUSH1 0x32 PUSH1 0x4 MSTORE PUSH1 0x24 PUSH0 REVERT JUMPDEST PUSH32 0x546865206C656E677468206F6620796F75722074776565742065786365656473 PUSH0 DUP3 ADD MSTORE PUSH32 0x20746865206C696D69742062726F210000000000000000000000000000000000 PUSH1 0x20 DUP3 ADD MSTORE POP JUMP JUMPDEST PUSH0 PUSH2 0xD52 PUSH1 0x2F DUP4 PUSH2 0x7B6 JUMP JUMPDEST SWAP2 POP PUSH2 0xD5D DUP3 PUSH2 0xCF8 JUMP JUMPDEST PUSH1 0x40 DUP3 ADD SWAP1 POP SWAP2 SWAP1 POP JUMP JUMPDEST PUSH0 PUSH1 0x20 DUP3 ADD SWAP1 POP DUP2 DUP2 SUB PUSH0 DUP4 ADD MSTORE PUSH2 0xD7F DUP2 PUSH2 0xD46 JUMP JUMPDEST SWAP1 POP SWAP2 SWAP1 POP JUMP JUMPDEST PUSH0 DUP2 SWAP1 POP DUP2 PUSH0 MSTORE PUSH1 0x20 PUSH0 KECCAK256 SWAP1 POP SWAP2 SWAP1 POP JUMP JUMPDEST PUSH0 PUSH1 0x20 PUSH1 0x1F DUP4 ADD DIV SWAP1 POP SWAP2 SWAP1 POP JUMP JUMPDEST PUSH0 DUP3 DUP3 SHL SWAP1 POP SWAP3 SWAP2 POP POP JUMP JUMPDEST PUSH0 PUSH1 0x8 DUP4 MUL PUSH2 0xDE2 PUSH32 0xFFFFFFFFFFFFFFFFFFFFFFFFFFFFFFFFFFFFFFFFFFFFFFFFFFFFFFFFFFFFFFFF DUP3 PUSH2 0xDA7 JUMP JUMPDEST PUSH2 0xDEC DUP7 DUP4 PUSH2 0xDA7 JUMP JUMPDEST SWAP6 POP DUP1 NOT DUP5 AND SWAP4 POP DUP1 DUP7 AND DUP5 OR SWAP3 POP POP POP SWAP4 SWAP3 POP POP POP JUMP JUMPDEST PUSH0 DUP2 SWAP1 POP SWAP2 SWAP1 POP JUMP JUMPDEST PUSH0 PUSH2 0xE27 PUSH2 0xE22 PUSH2 0xE1D DUP5 PUSH2 0x73B JUMP JUMPDEST PUSH2 0xE04 JUMP JUMPDEST PUSH2 0x73B JUMP JUMPDEST SWAP1 POP SWAP2 SWAP1 POP JUMP JUMPDEST PUSH0 DUP2 SWAP1 POP SWAP2 SWAP1 POP JUMP JUMPDEST PUSH2 0xE40 DUP4 PUSH2 0xE0D JUMP JUMPDEST PUSH2 0xE54 PUSH2 0xE4C DUP3 PUSH2 0xE2E JUMP JUMPDEST DUP5 DUP5 SLOAD PUSH2 0xDB3 JUMP JUMPDEST DUP3 SSTORE POP POP POP POP JUMP JUMPDEST PUSH0 SWAP1 JUMP JUMPDEST PUSH2 0xE68 PUSH2 0xE5C JUMP JUMPDEST PUSH2 0xE73 DUP2 DUP5 DUP5 PUSH2 0xE37 JUMP JUMPDEST POP POP POP JUMP JUMPDEST JUMPDEST DUP2 DUP2 LT ISZERO PUSH2 0xE96 JUMPI PUSH2 0xE8B PUSH0 DUP3 PUSH2 0xE60 JUMP JUMPDEST PUSH1 0x1 DUP2 ADD SWAP1 POP PUSH2 0xE79 JUMP JUMPDEST POP POP JUMP JUMPDEST PUSH1 0x1F DUP3 GT ISZERO PUSH2 0xEDB JUMPI PUSH2 0xEAC DUP2 PUSH2 0xD86 JUMP JUMPDEST PUSH2 0xEB5 DUP5 PUSH2 0xD98 JUMP JUMPDEST DUP2 ADD PUSH1 0x20 DUP6 LT ISZERO PUSH2 0xEC4 JUMPI DUP2 SWAP1 POP JUMPDEST PUSH2 0xED8 PUSH2 0xED0 DUP6 PUSH2 0xD98 JUMP JUMPDEST DUP4 ADD DUP3 PUSH2 0xE78 JUMP JUMPDEST POP POP JUMPDEST POP POP POP JUMP JUMPDEST PUSH0 DUP3 DUP3 SHR SWAP1 POP SWAP3 SWAP2 POP POP JUMP JUMPDEST PUSH0 PUSH2 0xEFB PUSH0 NOT DUP5 PUSH1 0x8 MUL PUSH2 0xEE0 JUMP JUMPDEST NOT DUP1 DUP4 AND SWAP2 POP POP SWAP3 SWAP2 POP POP JUMP JUMPDEST PUSH0 PUSH2 0xF13 DUP4 DUP4 PUSH2 0xEEC JUMP JUMPDEST SWAP2 POP DUP3 PUSH1 0x2 MUL DUP3 OR SWAP1 POP SWAP3 SWAP2 POP POP JUMP JUMPDEST PUSH2 0xF2C DUP3 PUSH2 0x7AC JUMP JUMPDEST PUSH8 0xFFFFFFFFFFFFFFFF DUP2 GT ISZERO PUSH2 0xF45 JUMPI PUSH2 0xF44 PUSH2 0xB03 JUMP JUMPDEST JUMPDEST PUSH2 0xF4F DUP3 SLOAD PUSH2 0xC9B JUMP JUMPDEST PUSH2 0xF5A DUP3 DUP3 DUP6 PUSH2 0xE9A JUMP JUMPDEST PUSH0 PUSH1 0x20 SWAP1 POP PUSH1 0x1F DUP4 GT PUSH1 0x1 DUP2 EQ PUSH2 0xF8B JUMPI PUSH0 DUP5 ISZERO PUSH2 0xF79 JUMPI DUP3 DUP8 ADD MLOAD SWAP1 POP JUMPDEST PUSH2 0xF83 DUP6 DUP3 PUSH2 0xF08 JUMP JUMPDEST DUP7 SSTORE POP PUSH2 0xFEA JUMP JUMPDEST PUSH1 0x1F NOT DUP5 AND PUSH2 0xF99 DUP7 PUSH2 0xD86 JUMP JUMPDEST PUSH0 JUMPDEST DUP3 DUP2 LT ISZERO PUSH2 0xFC0 JUMPI DUP5 DUP10 ADD MLOAD DUP3 SSTORE PUSH1 0x1 DUP3 ADD SWAP2 POP PUSH1 0x20 DUP6 ADD SWAP5 POP PUSH1 0x20 DUP2 ADD SWAP1 POP PUSH2 0xF9B JUMP JUMPDEST DUP7 DUP4 LT ISZERO PUSH2 0xFDD JUMPI DUP5 DUP10 ADD MLOAD PUSH2 0xFD9 PUSH1 0x1F DUP10 AND DUP3 PUSH2 0xEEC JUMP JUMPDEST DUP4 SSTORE POP JUMPDEST PUSH1 0x1 PUSH1 0x2 DUP9 MUL ADD DUP9 SSTORE POP POP POP JUMPDEST POP POP POP POP POP POP JUMP INVALID LOG2 PUSH5 0x6970667358 0x22 SLT KECCAK256 SLT PUSH18 0x69EA927F0DEA841750D6579D2351D39976CF CALL SWAP11 0xE4 DUP16 0xFC 0xC6 TSTORE BLOBBASEFEE POP CODECOPY BLOBBASEFEE 0xA9 PUSH5 0x736F6C6343 STOP ADDMOD BYTE STOP CALLER "
				},
				"gasEstimates": {
					"creation": {
						"codeDepositCost": "827200",
						"executionCost": "862",
						"totalCost": "828062"
					},
					"external": {
						"createTweet(string)": "infinite",
						"getAllTweets(address)": "infinite",
						"getTweet(address,uint256)": "infinite",
						"tweets(address,uint256)": "infinite"
					}
				},
				"methodIdentifiers": {
					"createTweet(string)": "7c9cd2bc",
					"getAllTweets(address)": "12e7ee1c",
					"getTweet(address,uint256)": "112f54e3",
					"tweets(address,uint256)": "05a1b4a9"
				}
			},
			"storageLayout": {
				"storage": [
					{
						"astId": 16,
						"contract": "contracts/Lab 2/1-BasicTwitter.sol:Twitter",
						"label": "tweets",
						"offset": 0,
						"slot": "0",
						"type": "t_mapping(t_address,t_array(t_struct(Tweet)10_storage)dyn_storage)"
					}
				],
				"types": {
					"t_address": {
						"encoding": "inplace",
						"label": "address",
						"numberOfBytes": "20"
					},
					"t_array(t_struct(Tweet)10_storage)dyn_storage": {
						"base": "t_struct(Tweet)10_storage",
						"encoding": "dynamic_array",
						"label": "struct Twitter.Tweet[]",
						"numberOfBytes": "32"
					},
					"t_mapping(t_address,t_array(t_struct(Tweet)10_storage)dyn_storage)": {
						"encoding": "mapping",
						"key": "t_address",
						"label": "mapping(address => struct Twitter.Tweet[])",
						"numberOfBytes": "32",
						"value": "t_array(t_struct(Tweet)10_storage)dyn_storage"
					},
					"t_string_storage": {
						"encoding": "bytes",
						"label": "string",
						"numberOfBytes": "32"
					},
					"t_struct(Tweet)10_storage": {
						"encoding": "inplace",
						"label": "struct Twitter.Tweet",
						"members": [
							{
								"astId": 3,
								"contract": "contracts/Lab 2/1-BasicTwitter.sol:Twitter",
								"label": "content",
								"offset": 0,
								"slot": "0",
								"type": "t_string_storage"
							},
							{
								"astId": 5,
								"contract": "contracts/Lab 2/1-BasicTwitter.sol:Twitter",
								"label": "user_address",
								"offset": 0,
								"slot": "1",
								"type": "t_address"
							},
							{
								"astId": 7,
								"contract": "contracts/Lab 2/1-BasicTwitter.sol:Twitter",
								"label": "likes",
								"offset": 20,
								"slot": "1",
								"type": "t_uint16"
							},
							{
								"astId": 9,
								"contract": "contracts/Lab 2/1-BasicTwitter.sol:Twitter",
								"label": "timestamp",
								"offset": 0,
								"slot": "2",
								"type": "t_uint256"
							}
						],
						"numberOfBytes": "96"
					},
					"t_uint16": {
						"encoding": "inplace",
						"label": "uint16",
						"numberOfBytes": "2"
					},
					"t_uint256": {
						"encoding": "inplace",
						"label": "uint256",
						"numberOfBytes": "32"
					}
				}
			},
			"userdoc": {
				"kind": "user",
				"methods": {},
				"version": 1
			}
		}
	}
}